:020000022000DC
:1040000002F0032035D302005DD302001546020002
:1040100061D3020063D3020065D3020000000000F8
:1040200000000000000000000000000067D3020054
:1040300069D30200000000006BD302006DD30200C0
:104040006FD302006FD302006FD302006FD3020060
:104050006FD302006FD30200F14702006FD302005A
:104060006FD302006FD302006FD302006FD3020040
:104070006FD302006FD302006FD302006FD3020030
:104080006FD302006FD30200E5EC02006FD3020091
:104090006FD302006FD30200814602006FD302008B
:1040A0006FD302006FD302006FD302006FD3020000
:1040B0006FD302006FD30200000000000000000078
:1040C0006FD302006FD302006FD302006FD30200E0
:1040D0006FD302006FD302006FD302006FD30200D0
:1040E0006FD302006FD302006FD302000000000004
:1040F000000000006FD30200000000006FD3020038
:1041000000000000000000000000000000000000AF
:10411000000000000000000000000000000000009F
:10412000000000000000000000000000000000008F
:10413000000000000000000000000000000000007F
:10414000000000000000000000000000000000006F
:10415000000000000000000000000000000000005F
:10416000000000000000000000000000000000004F
:10417000000000000000000000000000000000003F
:10418000000000000000000000000000000000002F
:10419000000000000000000000000000000000001F
:1041A000000000000000000000000000000000000F
:1041B00000000000000000000000000000000000FF
:1041C00000000000000000000000000000000000EF
:1041D00000000000000000000000000000000000DF
:1041E00000000000000000000000000000000000CF
:1041F00000000000000000000000000000000000BF
:1042000010B5054C237833B9044B13B10448AFF310
:1042100000800123237010BDD03200200000000078
:104220008C8E03000C4B43B10C480D4910B5AFF315
:1042300000800C48036823B910BD0A48036833B9ED
:104240007047094B002BF7D0BDE810401847064BCC
:10425000002BF5D0184700BF000000008C8E030033
:10426000D4320020CC32002000000000154B002B7F
:1042700008BF134B9D46A3F5803A00218B460F469D
:104280001348144A121A13F0A3FC0F4B002B00D052
:1042900098470E4B002B00D09847002000210400C7
:1042A0000D000D48002802D00C48AFF3008013F039
:1042B00041FC2000290000F0F9F813F027FC00BFB2
:1042C0000000080002F003200000000000000000D1
:1042D000D032002024610020000000000000000017
:1042E00000B583B0244B1B6813F4804F03D0234BDD
:1042F0001B68032B15D82248224B4360224B836056
:10430000002100F0B1FB68BB1D4B188804F018F8C1
:1043100068BB01214FF4F03000F0F1F903B05DF813
:1043200004FB2F21194813F027FD70B12F211748E6
:1043300013F022FD411C164BD3F80435154A0092A8
:10434000552204200BF0D8FCD5E75C210F4813F070
:1043500013FD28B15C210D4813F00EFD411CEAE766
:104360000A49E8E7094A582100F014F9CCE7074A5E
:10437000592100F00FF9CCE7503200204C320020D8
:10438000283300201944020099430200147E0300E0
:1043900000B00040687E030010B582B00C46194B97
:1043A0001B6813F4804F03D0174B1B68032B06D8F0
:1043B00021460D2000F092F9204602B010BD2F21B9
:1043C000124813F0D9FC78B12F21104813F0D4FC17
:1043D000411C0F4BD3F8043501940E4A00926F2212
:1043E00004200BF089FCE3E75C21084813F0C4FCCF
:1043F00028B15C21054813F0BFFC411CE9E70349E3
:10440000E7E700BF503200204C320020147E03004A
:1044100000B00040B87E030008B50D2000F052F94E
:1044200008BD000000B583B01B4B1B6813F4804F20
:1044300003D01A4B1B68032B0DD800214FF4F0302A
:1044400000F05DF90422C8214FF4005000F062F939
:1044500003B05DF804FB2F21114813F08DFC70B1FF
:104460002F210F4813F088FC411C0E4BD3F8043564
:104470000D4A00925F2204200BF03EFCDDE75C2138
:10448000074813F079FC28B15C21054813F074FC4F
:10449000411CEAE70249E8E7503200204C32002094
:1044A000147E030000B00040F87D030000B583B027
:1044B000254A04214FF4C0400BF002FC234B1B683B
:1044C00013F4804F16D0224B1B68032B12D92F21D7
:1044D000204813F051FC28B32F211E4813F04CFC48
:1044E000411C1D4BD3F804351C4A0092772204204E
:1044F0000BF002FC00F06AF91948012380F825301E
:10450000C38480F82930174A8263174A4260174AE9
:10451000826003740723C37408F016FD78B909F0AC
:104520003FFBFCE75C210B4813F026FC28B15C2123
:10453000084813F021FC411CD3E70649D1E7054A9E
:104540008E2100F027F8EAE795FC020050320020A7
:104550004C320020147E030000B00040887E03002F
:10456000EC320020D07E030025440200E14202002C
:1045700048DF704761DF70474FF0A0434FF4F032DF
:10458000C3F80825C3F80C25EFF3108372B6002892
:10459000FDD1704770B584B0194B1B6813F4804F80
:1045A00005D006460D461446164B1B6823B901205C
:1045B000FFF7E2FF04B070BD2F21134813F0DCFBBE
:1045C00088B12F21104813F0D7FB411C0F4BD3F8B3
:1045D00004350396029501940D4A00924822012069
:1045E0000BF08AFBE3E75C21074813F0C5FB28B119
:1045F0005C21054813F0C0FB411CE7E70249E5E7F1
:10460000503200204C320020107F030000B00040E8
:10461000F07E030000B583B0154B1B6813F4804F88
:1046200005D10120FFF7A8FF03B05DF804FB2F219F
:10463000104813F0A1FB70B12F210E4813F09CFB22
:10464000411C0D4BD3F804350C4A00925422002033
:104650000BF052FBE5E75C21064813F08DFB28B117
:104660005C21044813F088FB411CEAE70149E8E7B4
:1046700050320020107F030000B00040E07E0300B5
:1046800000B583B002E0019809F09CFB01A8FFF798
:104690006FFF0028F7D05723ADF8023005E0084837
:1046A00009F08EFB5723ADF802300DF102010448EA
:1046B000FFF760FF0028F2D003B05DF804FB00BFF5
:1046C000343300204FF0A043D3F80425012303FA2C
:1046D00000F002420CBF18460020704739B9012390
:1046E00003FA00F04FF0A043C3F808057047012318
:1046F00003FA00F04FF0A043C3F80C05704721B94E
:104700004FF0A043C3F8080570474FF0A043C3F82B
:104710000C05704770B402F0FE02002400E0013482
:1047200094424CD24FF0A045D5F804354340C5F82B
:1047300004354FF47A7303FB01F3002BEFD0214DC6
:104740002D68214E00BF00BF00BF00BF00BF00BFEB
:1047500000BF00BFB5422FD000BF00BF00BF00BFE9
:1047600000BF00BF00BF00BF00BF00BF00BF00BF51
:1047700000BF00BF00BF00BF00BF00BF00BF00BF41
:1047800000BF00BF00BF00BF00BF00BF00BF00BF31
:1047900000BF00BF00BF00BF00BF00BF00BF00BF21
:1047A00000BF00BF00BF00BF00BF00BF00BF00BF11
:1047B00000BF00BF00BF00BF013BC3D1AFE770BC6B
:1047C000704700BF183200200024F4000D230BE0D6
:1047D0004FF0A04103F5E072032041F822000122CE
:1047E0009A40C1F808250133102BF1D97047000019
:1047F00010B50024144BC3F87C4103E0D11A14E037
:104800000134E4B2032C1ED84FF0A043D3F8102596
:104810000E4B195D01238B409343F1D00C4B1B6869
:104820000C4AD2F80425991AE8D441F69A13994211
:10483000E6D9084BD3F80425054B1A60064B1B68D4
:1048400020469847DCE710BD00600040707F030001
:104850009033002000B000408C33002006207047C9
:1048600010B586B004468DF81410C423ADF8083096
:104870005923ADF80A3005AB03930123ADF810308E
:10488000194B1B6813F4804F03D0184B1B68032B84
:1048900005D802A9208803F071FC06B010BD2F21B5
:1048A000134813F069FA88B12F21114813F064FA04
:1048B000411C104BD3F80435BDF80A2001920E4A72
:1048C0000092502204200BF017FAE2E75C2108481E
:1048D00013F052FA28B15C21054813F04DFA411C3F
:1048E000E7E70349E5E700BF503200204C320020E3
:1048F000B87F030000B000401480030038B50D46B7
:104900001446936863B16B681978A368003118BFC7
:1049100001212046984701462046FFF7A1FF38BDF8
:104920007846034B1B680BB19847ECE700DEEAE7DB
:10493000A460002000B585B08DF80C20C423ADF82C
:1049400000305923ADF8023003AB01930123ADF8D9
:1049500008306A46008803F019FC05B05DF804FBD6
:1049600038B50D461446536843B1636820469847EE
:10497000024629462046FFF7DDFF38BD7846034B47
:104980001B680BB19847F0E700DEEEE7A46000205B
:10499000F0B589B00D4614469368E3B12C4B1B6803
:1049A00013F4804F03D02B4B1B68032B1BD86B6871
:1049B0001978A368003118BF0121204698470646A0
:1049C000024629462046FFF7B5FF31462046FFF74D
:1049D00047FF09B0F0BD78461F4B1B680BB19847E5
:1049E000DCE700DEDAE72F211C4813F0C5F910B32D
:1049F0002F211A4813F0C0F9471C194BD3F804357E
:104A000095F9206095F821E005AA05F1140103C984
:104A100082E8030003AA05F10C0103C982E8030040
:104A2000CDF808E001960F4A009259223946042039
:104A30000BF062F9BBE75C21084813F09DF928B13F
:104A40005C21064813F098F9471CD6E7034FD4E7DA
:104A5000503200204C320020A4600020B87F0300B8
:104A600000B00040747F0300D0B14268D2B18268C8
:104A7000D2B100B587B0ADF804100022ADF8002027
:104A80005921ADF8021009490291032103910490C4
:104A900005920146684603F0C9FA07B05DF804FBC9
:104AA0000E2070470E2070470E207047A07F030035
:104AB0002DE9F04182B00E4615469846002427465F
:104AC00007E000DEBDF806204FF6FF739A4210D0D3
:104AD0000134AC4216D201A936F8140003F0F0FEFE
:104AE0000028EFD07846094B1B68002BE9D0984787
:104AF000E8E7022201A908EB070013F05EF802378D
:104B0000BFB2E5E7384602B0BDE8F081A4600020FE
:104B10002DE9F04182B0884616461F4600242546FE
:104B200016E000DEBDF806204FF6FF739A420ED065
:104B300002220DF10601781913F03FF8A81C022299
:104B400001A917FA80F013F038F80435ADB201343A
:104B5000B4420DD201A938F8140003F0B1FE0028C8
:104B6000E0D07846044B1B68002BDAD09847D9E791
:104B7000284602B0BDE8F081A4600020192901D8C0
:104B800009207047F0B589B006460024ADF8124000
:104B90005923ADF80830ADF80A40ADF80C40202399
:104BA000ADF80E300123ADF810300A2202A913F03F
:104BB00004F80A25002C02DD002009B0F0BDA7B2E0
:104BC0000DF11601384603F057FE28B178462F4BF9
:104BD0001B68002B3ED098470DF11701384603F0B3
:104BE0005DFE28B17846294B1B68002B34D09847CE
:104BF0009DF816309DF81720D34229D00DF10601FB
:104C0000384603F027FE20B17846204B1B682BB3B3
:104C10009847BDF80630ADF8143008AA032322F8EF
:104C20000E3D06A9384603F0A3FE20B17846174B87
:104C30001B68ABB19847042205A9701912F0BDFF9B
:104C40000435ADB29DF8163063B99DF817309BB9A5
:104C50000134AFE700DEBFE700DEC9E700DED8E7DA
:104C600000DEE8E77319BDF8122006A93846FFF701
:104C70001FFF0544ADB2E8E77319BDF8122006A97D
:104C80003846FFF745FF0544ADB2E1E7A4600020D8
:104C900010B582B0044601A805F002F9BDF8040081
:104CA000A04203D94FF6FF7002B010BD201A80B2A7
:104CB0000028F9D04FF6FF70F6E700B585B0ADF8E3
:104CC00004204FF6FF72ADF806200293BDF81830AD
:104CD000ADF80C3001AA03F059FA05B05DF804FBF9
:104CE0002DE9F04782B002AF05460E469146984640
:104CF0003C8CE31D23F00703ADEB030D0DF1080A17
:104D000022460021504612F063FF8DF8089000946F
:104D10005346424631462846FFF7CFFFBD46BDE821
:104D2000F08700002DE9F04F89B002AF81460C46B4
:104D30006E460B89062B06D0042B04D0B5461C37D3
:104D4000BD46BDE8F08F2588D4F80480B8F800008F
:104D5000FFF79EFF48F24B039D4215D0B8F8023092
:104D60003B82B8F804307B8207F11602396903F000
:104D7000CBFD80B10523009348F24C03022221466B
:104D80004846FFF7ADFFD9E7B8F802303B824FF64F
:104D9000FF737B82E8E707F11802012322F80E3D3A
:104DA00007F10C01F88A03F061FC20B17846444B0E
:104DB0001B685BB198477B895B00083323F00703CE
:104DC000ADEB030D02AD4FF0000A06E000DEF2E7A6
:104DD00000DE0AF1010A1FFA8AFA7889824512D2A6
:104DE0004FEA4A0107F118030B44294433F80C0C2D
:104DF00005F098FA0028ECD07846314B1B68002B60
:104E0000E6D09847E5E7228848F24B039A422DD036
:104E1000C7F804D001F056FC00F1070B0E3020F06B
:104E20000700ADEB000D0DF1080A00238DF80830E6
:104E3000B8F80030ADF809303B8AADF80B307B8A0A
:104E4000ADF80D307A890DF10F01284601F042FCD2
:104E50001FFA8BF30093534648F24E022146484610
:104E6000FFF72BFFD7F804D0B54668E7C7F804D0A2
:104E700001F028FC00F1050B0C3020F00700ADEB31
:104E8000000D0DF1080A00238DF80830B8F8003045
:104E9000ADF809303B8AADF80B307A890DF10D0180
:104EA000284601F017FC1FFA8BF30093534648F293
:104EB0004C0221464846FFF700FFD7F804D0D3E75D
:104EC000A460002000B585B004AB0A2203F8012DD0
:104ED0000122009248F24A02FFF7EFFE05B05DF8AA
:104EE00004FB0B89032B00D0704700B585B04B68DD
:104EF00000228DF80C201B88ADF80D3002238DF8B0
:104F00000F300423009303AB48F24802FFF7D5FEAD
:104F100005B05DF804FB0B89022B00D0704700B58B
:104F200085B04B6800228DF80C201B88ADF80D3041
:104F300002238DF80F300423009303AB48F248029C
:104F4000FFF7BBFE05B05DF804FB00B585B000239C
:104F50008DF80C30ADF80D200323009303AB48F21D
:104F60004402FFF7AAFE05B05DF804FB00B587B068
:104F70000023039304938DF814300A238DF80C302A
:104F80000923009303AB48F23C02FFF796FE07B0FB
:104F90005DF804FB00B587B00023039304938DF8FC
:104FA00014300A238DF80C300923009303AB48F228
:104FB0003C02FFF782FE07B05DF804FB00B587B046
:104FC000002303930493ADF814300A238DF80C30BA
:104FD000009303AB0622FFF770FE07B05DF804FBF9
:104FE00000B587B0002303930493ADF814300A236F
:104FF0008DF80C30009303AB0622FFF75EFE07B07E
:105000005DF804FB30B587B004469DF82C500020B5
:105010008DF80C00ADF80D20ADF80F300A98CDF8E2
:1050200011004DB90923009303AB48F21F0220463B
:10503000FFF743FE07B030BD0723F4E70B89012BD0
:1050400000D0704700B585B004AB022203F8042DF0
:105050000122009248F21402FFF72FFE05B05DF81E
:1050600004FB0B8903B1704700B585B004AB022285
:1050700003F8042D0122009248F21402FFF71DFEEE
:1050800005B05DF804FB0B89012B00D0704700B51B
:1050900085B004AB022203F8042D0122009248F2ED
:1050A0001102FFF70AFE05B05DF804FB0B8903B19E
:1050B000704700B585B004AB022203F8042D01222D
:1050C000009248F21102FFF7F8FD05B05DF804FB0D
:1050D00010B586B0039200238DF8143006AB33F878
:1050E0000C2D9B78ADF815208DF817300423009314
:1050F00005AB48F20302FFF7E0FD06B010BD2DE955
:10510000F04385B002AF0A891AB10C37BD46BDE83D
:10511000F0836D460C46064607F10801012341F86D
:10512000083D381D05F092F9388801F0CBFA804629
:10513000C31D23F00703ADEB030D0DF108093A88F9
:105140004946381D01F0C6FA1FFA88F300934B4612
:1051500048F2430221463046FFF7AFFDAD46D4E7A3
:1051600070B582B04E680B89022B01D002B070BDC1
:105170000C4605463088C0F30B0005F087F805F0B3
:1051800067FA58B105280FD10323009348F244036E
:10519000042221462846FFF7A3FDE7E7328821468F
:1051A0002846FFF7D2FEE1E70323009348F24403C9
:1051B000112221462846FFF793FDD7E770B584B04A
:1051C0004E680B89122B01D004B070BD0C46054609
:1051D0003088C0F30B000A8848F240039A4212D08C
:1051E00005F054F8ADF80E00B11C05F007F900B356
:1051F000031F0B2B11D8DFE803F00E0C100C10105E
:105200001010101010120DF10E02B11C05F0ACF8C8
:10521000EDE7042204E0052202E0112200E006226C
:105220000323009348F2440321462846FFF758FD24
:10523000CAE7328821462846FFF787FEC4E7F0B563
:1052400089B00D89082D03D0062D01D009B0F0BD1D
:105250004E68062D28D0B388ADF81C30F388ADF821
:105260001E300C46074600238DF810303388ADF809
:1052700011307388ADF813307368CDF8153030886D
:10528000FFF706FD0DF10E02079903F03DFBA8B1F3
:10529000062D11D00923009348F23E030222214635
:1052A0003846FFF71DFDD1E7B388ADF81C304FF647
:1052B000FF73ADF81E30D4E70723ECE77088C0F326
:1052C0000B0005F017F80146228848F23D039A4288
:1052D0000CD0BDF80E0003F08BF905281CD0072870
:1052E0001ED040B111238DF8103009E0BDF80E003A
:1052F00003F042F9F1E700238DF8103002F054F981
:10530000062D11D00923009304AB48F23E0221463A
:105310003846FFF7D2FC99E702238DF81030EFE70B
:1053200003238DF81030EBE70723ECE72DE9F0437A
:1053300087B002AF6D464E680B89042B04D0AD4692
:105340001437BD46BDE8F08380460C463088FFF731
:105350009FFC7388BB814FF6FF73FB8107F10A0244
:10536000F96803F0D1FA48B10523009348F22A0303
:10537000022221464046FFF7B3FCE0E704233B81CD
:1053800007F108023946788903F0A2F805280FD002
:1053900006280FD008B1112200E0002262B10523D7
:1053A000009348F22A0321464046FFF799FCC6E7DE
:1053B0000222F3E70822F1E73B895B000C3323F07C
:1053C0000703ADEB030D0DF1080900238DF808303C
:1053D0003388ADF809307388ADF80B303A89520044
:1053E00039460DF10D0012F0E8FB3B895B009BB2E2
:1053F00005339BB200934B4648F22A0221464046B1
:10540000FFF75BFCAD469BE730B587B004460D4621
:105410000023ADF8143003A94FF4C87009F04BF91C
:1054200020B17846164B1B680BB39847049B03BB0F
:105430008DF8143003A940F2911009F03CF920B125
:1054400078460F4B1B68C3B198479DF81530049AF6
:1054500062F302038DF815300223009305AB48F286
:10546000280229462046FFF728FC07B030BD00DEA1
:10547000DCE701238DF81430DCE700DEE5E700BF50
:10548000A460002070B582B04E680B89022B01D059
:1054900002B070BD0C46054600230193042300931F
:1054A00033781BB3012B0BD1019369464FF4C870BD
:1054B00009F0E8F820B17846154B1B68A3B198476E
:1054C000737803F007030193694640F2911009F0E5
:1054D000D9F820B178460E4B1B68B3B198472146E6
:1054E0002846FFF791FFD3E700DEE9E769464FF46E
:1054F000C87009F0C7F80028E2D07846044B1B6852
:105500000BB19847DCE700DEDAE700DEE7E700BF33
:10551000A460002008B50B8903B108BDFFF774FF34
:10552000FBE700002DE9F04387B00D89162D04D06C
:10553000142D02D007B0BDE8F0834F68142D0CBFC6
:105540004FF001084FF000081CD07B8AADF81430F2
:10555000BB8AADF816300C4606463888FFF798FB34
:105560000DF11202059903F0CFF9A8B1142D11D055
:105570000923009348F21F03022221463046FFF719
:10558000AFFBD7E77B8AADF814304FF6FF73ADF869
:105590001630E0E70723ECE704A9B81C04F0F2FC9E
:1055A00088B104280BD10522142D0AD009230093B9
:1055B00048F21F0321463046FFF792FBBAE711225B
:1055C000F2E70723F3E7BDF81010BDF8120002F070
:1055D000EFFE814650B3BDF8100004F0BDFD20B1D0
:1055E0007846214B1B687BB19847B9F1060F0DD067
:1055F000142D19D00923009348F21F0311222146CC
:105600003046FFF76DFB95E700DEEEE7142D09D07D
:105610000923009348F21F03082221463046FFF772
:105620005FFB87E70723F4E70723E4E702A9BDF858
:10563000100004F043FD20B178460B4B1B6883B18A
:10564000984701F0B1FFBDF80A30394631F8122B06
:10565000CDF804800868009021463046FFF7D2FC60
:1056600068E700DEEDE700BFA460002070B582B0FF
:10567000064602AA012322F8063D01A902F028FFEE
:10568000062835D020B178461A4B1B6813B19847CD
:10569000002406E000DEFBE700DE16E000DE013459
:1056A000A4B2BDF802309C421FD2254602AB03EBE8
:1056B000440333F8041C304602F0C2FE28B1784699
:1056C0000C4B1B68002BE7D0984702AB03EB45055A
:1056D00035F8040C04F040FD0028E0D07846054B76
:1056E0001B68002BDAD09847D9E7002002B070BDC4
:1056F0000820FBE7A46000202DE9F04387B00D8966
:10570000162D04D0142D02D007B0BDE8F0834F68E9
:10571000142D0CBF4FF001084FF000081CD07B8AFD
:10572000ADF81430BB8AADF816300C460646388802
:10573000FFF7AEFA0DF11202059903F0E5F8A8B1F2
:10574000142D11D00923009348F21F030222214691
:105750003046FFF7C5FAD7E77B8AADF814304FF62D
:10576000FF73ADF81630E0E70723ECE7BDF8120051
:10577000FFF77CFF68B1142D09D00923009348F28C
:105780001F03112221463046FFF7AAFABCE7072380
:10579000F4E704A9B81C04F0F5FB98B104280DD176
:1057A0000522142D0CD00923009348F21F03214633
:1057B0003046FFF795FA01F0F7FEA5E71122F0E772
:1057C0000723F1E7BDF81010BDF8120002F0F0FD5C
:1057D000814650B3BDF8100004F0BEFC20B17846FD
:1057E0001F4B1B687BB19847B9F1060F0DD0142DE4
:1057F00019D00923009348F21F0311222146304695
:10580000FFF76EFAD7E700DEEEE7142D09D0092383
:10581000009348F21F03082221463046FFF760FA42
:10582000C9E70723F4E70723E4E702A9BDF810005E
:1058300004F044FC20B17846094B1B6873B19847CB
:10584000BDF80A30394631F8122BCDF804800868CB
:10585000009021463046FFF7D5FBACE700DEEFE7CE
:10586000A46000202DE9F04184B00D89062D04D0FC
:10587000042D02D004B0BDE8F0814F68042D0CBFA8
:105880004FF001084FF000081CD07B88ADF80C30B9
:10589000BB88ADF80E300C4606463888FFF7F8F99D
:1058A0000DF10A02039903F02FF8A8B1042D11D0CD
:1058B0000923009348F21F03022221463046FFF7D6
:1058C0000FFAD7E77B88ADF80C304FF6FF73ADF8D1
:1058D0000E30E0E70723ECE7BDF80A00FFF7C6FE4D
:1058E000024660B1042D08D00923009348F21F033B
:1058F00021463046FFF7F4F9BCE70723F5E701F04E
:1059000053FE3B4633F8022BCDF804801868009014
:10591000002321463046FFF775FBABE72DE9F04148
:1059200086B00D89162D04D0142D02D006B0BDE826
:10593000F0814F68142D0CBF4FF001084FF00008A4
:105940001CD07B8AADF81430BB8AADF816300C46FB
:1059500006463888FFF79CF90DF11202059902F00E
:10596000D3FFA8B1142D11D00923009348F21F03CF
:10597000022221463046FFF7B3F9D7E77B8AADF81C
:1059800014304FF6FF73ADF81630E0E70723ECE76D
:1059900002238DF808300023ADF80A30B81C0390BC
:1059A0000DF10A010AF04CF920B178462C4B1B6826
:1059B0009BB1984704A902A804F034FC05280ED036
:1059C000E8B1142D19D00923009348F21F031122C6
:1059D00021463046FFF784F9A8E700DEEAE7142DF8
:1059E00009D00923009348F21F03012221463046C3
:1059F000FFF776F99AE70723F4E70723E4E7BDF812
:105A00001010BDF8120002F01BFD68B1142D09D072
:105A10000923009348F21F030C2221463046FFF76A
:105A20005FF983E70723F4E7BDF8100004F094FB67
:105A300020B178460A4B1B6883B1984701F0B4FD4A
:105A4000BDF80A30394631F8122BCDF804800868C9
:105A5000009021463046FFF7D5FA67E700DEEDE714
:105A6000A46000202DE9F04186B00C89082C04D0F8
:105A7000062C02D006B0BDE8F0810D4606464F6800
:105A8000062C14BF4FF000084FF00108788807F08B
:105A9000F5FF03280DD0062C09D00923009348F206
:105AA0001F03012229463046FFF71AF9E2E70723D0
:105AB000F4E7062C1AD0BB88ADF81430FB88ADF89B
:105AC00016303888FFF7E4F80DF11202059902F05C
:105AD0001BFFA8B1062C11D00923009348F21F0325
:105AE000022229463046FFF7FBF8C3E7BB88ADF832
:105AF00014304FF6FF73ADF81630E2E70723ECE7FA
:105B000000230293039303238DF808307B88ADF8BC
:105B10000A3004A902A804F085FB05280CD0D8B1EE
:105B2000062C17D00923009348F21F03112229469F
:105B30003046FFF7D5F89DE7062C09D009230093DE
:105B400048F21F03012229463046FFF7C9F891E7C2
:105B50000723F4E70723E6E7BDF81010BDF81200AD
:105B600002F06EFC06280CD0D8B1062C17D0092301
:105B7000009348F21F03112229463046FFF7B0F880
:105B800078E7062C09D00923009348F21F03082266
:105B900029463046FFF7A4F86CE70723F4E707230C
:105BA000E6E7BDF8100004F0D7FA20B178460A4BBA
:105BB0001B6873B1984701F0F7FC7B8837F8042B1A
:105BC000CDF804803868009029463046FFF71AFA6D
:105BD00050E700DEEFE700BFA46000202DE9F043AE
:105BE00085B00C89082C04D0062C02D005B0BDE885
:105BF000F0830D4606464F68062C14BF4FF0000890
:105C00004FF00108788807F039FF03280DD0062CE3
:105C100009D00923009348F21F0301222946304688
:105C2000FFF75EF8E2E70723F4E7062C1AD0BB88FB
:105C3000ADF80C30FB88ADF80E303888FFF728F847
:105C40000DF10A02039902F05FFEA8B1062C11D0F3
:105C50000923009348F21F03022229463046FFF72A
:105C60003FF8C3E7BB88ADF80C304FF6FF73ADF8D3
:105C70000E30E2E70723ECE7BDF80A00FFF7F6FC79
:105C8000024660B1062C08D00923009348F21F0396
:105C900029463046FFF724F8A8E70723F5E702A9CD
:105CA000788804F06AF9A8B104280FD010280BD125
:105CB0000122062C0CD00923009348F21F03294629
:105CC0003046FFF70DF891E71122F2E70522F0E7E1
:105CD0000723F1E7BDF80810BDF80A0002F068FBE1
:105CE000814650B3BDF8080004F036FA20B178467A
:105CF000194B1B687BB19847B9F1060F0DD0062CE4
:105D000019D00923009348F21F0311222946304677
:105D1000FEF7E6FF6AE700DEEEE7062C09D009236E
:105D2000009348F21F03082229463046FEF7D8FFA9
:105D30005CE70723F4E70723E4E701F035FC7B8801
:105D400037F8042BCDF80480386800902946304697
:105D5000FFF758F94AE700BFA46000202DE9F0439F
:105D600085B00C89082C04D0062C02D005B0BDE803
:105D7000F0830D4606464F68062C14BF4FF000080E
:105D80004FF00108788807F079FE03280DD0062C23
:105D900009D00923009348F21F0301222946304607
:105DA000FEF79EFFE2E70723F4E7062C1AD0BB8834
:105DB000ADF80C30FB88ADF80E303888FEF768FF80
:105DC0000DF10A02039902F09FFDA8B1062C11D033
:105DD0000923009348F21F03112229463046FEF79B
:105DE0007FFFC3E7BB88ADF80C304FF6FF73ADF80B
:105DF0000E30E2E70723ECE702A9788804F0BDF84B
:105E0000A8B104280FD010280BD10122062C0CD0E9
:105E10000923009348F21F0329463046FEF760FF2E
:105E2000A4E71122F2E70522F0E70723F1E7BDF826
:105E30000810BDF80A0002F0BBFA814650B3BDF865
:105E4000080004F089F920B17846194B1B687BB132
:105E50009847B9F1060F0DD0062C19D009230093ED
:105E600048F21F03112229463046FEF739FF7DE72D
:105E700000DEEEE7062C09D00923009348F21F0349
:105E8000082229463046FEF72BFF6FE70723F4E789
:105E90000723E4E701F088FB7B8837F8042BCDF873
:105EA00004803868009029463046FFF7ABF85DE77C
:105EB000A4600020F0B58DB005460E461C460021BA
:105EC0008DF82010ADF821209DF8263003F0EF0367
:105ED00061F347138DF8263007A9204602F0F0FC45
:105EE00030B17846524B1B68002B00F088809847F1
:105EF000BDF81E70BDF81C30ADF82A30ADF82C701E
:105F00000DF11A01204602F07FF928B17846484B7E
:105F10001B68002B75D09847BDF81A004FF6FF7329
:105F2000984270D004A904F0C9F828B17846404BD3
:105F30001B68002B72D09847BDF81230ADF82330A3
:105F400003A9204602F002FC28B17846384B1B68B2
:105F5000002B65D098470DF10E01BDF80C0004F040
:105F6000E1F928B17846324B1B68002B5AD098478C
:105F70009DF80E308DF825309DF80F3003F00F029C
:105F80009DF8263023F00F0313438DF826300DF1D2
:105F90002701204602F03CFC28B17846244B1B68C0
:105FA000002B41D09847012200210DF10A0011F089
:105FB0000FFE0DF10B020DF10A01204602F090F9DF
:105FC0009DF80A209DF80B3043EA82138DF82830A3
:105FD0009DF8293003F0F8036FF3C7038DF82930DB
:105FE0004FF6FF739F4221D00E23009308AB48F277
:105FF000190231462846FEF760FE0DB0F0BD00DE06
:1060000076E700DE88E700218DF823108DF8241054
:1060100009220DF1250011F0DBFDE1E700DE8BE741
:1060200000DE98E700DEA3E700DEBCE70C23DCE738
:10603000A4600020F0B585B00D89062D03D0042D95
:1060400001D005B0F0BD4F68042D1CD07B88ADF8A1
:106050000C30BB88ADF80E300C4606463888FEF78B
:1060600017FE0DF10A02039902F04EFCA8B1042DAF
:1060700011D00E23009348F2190302222146304624
:10608000FEF72EFEDDE77B88ADF80C304FF6FF7390
:10609000ADF80E30E0E70C23ECE7BDF80A303A88A3
:1060A00021463046FFF706FFCBE770B584B00546C2
:1060B0000C464E680A8848F20D039A4203D00B89B9
:1060C0005BB104B070BD0B89012BFAD1307802F0BE
:1060D0005FFB33788DF80F3003E002F061FB8DF841
:1060E0000F00012300930DF10F0348F20E02214629
:1060F0002846FEF7E2FDE4E730B585B004460D46DC
:106100000BF0D8FC80F0010004AB03F8040D012271
:10611000009248F20B0229462046FEF7CEFD05B05C
:1061200030BD38B50B89012B00D038BD4B681B78CA
:10613000012BFAD80C460546B3FA83F040090BF060
:106140009DFC21462846FFF7D7FFEEE708B50B89EF
:1061500003B108BDFFF7D0FFFBE700000B89012B5F
:1061600000D070474B681B78002BFAD130B58BB04C
:106170000C4605468DF80C301A210DF10D00FEF786
:10618000FDFC20B17846084B1B6853B198471B2390
:10619000009303AB022221462846FEF78EFD0BB08A
:1061A00030BD00DEF3E700BFA46000202DE9F04F12
:1061B00085B002AF0A89022A03D00C37BD46BDE87C
:1061C000F08F6D460C4681464E68308807F108080E
:1061D000012348F8083DC0F30B0004F057F842468D
:1061E000391D04F0A1FA8046388800F06BFA00F1FE
:1061F000030A0A3020F00700ADEB000D0DF1080B8B
:10620000B8F1000F0CD0B8F1050F21D00323009393
:1062100048F20203112221464846FEF761FD15E0CF
:1062200000238DF808303388ABF801303A880BF141
:106230000301381D00F04EFA1FFA8AF300935B4603
:1062400048F2020221464846FEF737FDAD46B4E764
:106250000323009348F20203042221464846FEF736
:106260003FFDF3E70B89032B00D0704770B582B078
:106270000C4605464E687078B3781B0143EA10104F
:1062800004F0CAF958B1052816D00423009348F247
:106290000303112221462846FEF722FD0AE0337847
:1062A000727843EA0223B27843EA02422146284642
:1062B000FEF70EFF02B070BD0423009348F2030303
:1062C000032221462846FEF70BFDF3E70B88032B3C
:1062D00035D048F21A02934237D02DE9F04F85B0FD
:1062E000032B38D04F680E89192E14BF00260126C3
:1062F0003D4635F8128B02374FF000090C468246B6
:106300004046FEF7C5FC9EB3B5F80530ADF80C303D
:106310004FF6FF73ADF80E300DF10A02039902F04B
:10632000F3FA80B36EB30C23009348F219030222F0
:1063300021465046FEF7D4FC05B0BDE8F08F0A892F
:106340000D2AC6D00B2AC4D070470A891B2AC4D094
:10635000192AF9D1C1E74B680E890B2E14BF00260C
:1063600001261D4635F8048BB3F802900027C5E7D7
:10637000B5F80530ADF80C30B5F80730ADF80E3093
:10638000CAE70E23D0E728786B7803F00F0340EAC2
:10639000032003F0AFFF83464FF6FF73984214D0FB
:1063A0002388032B1ED002A9384603F0E1FD68B311
:1063B00004281ED1DEB10C23009348F219030522F4
:1063C00021465046FEF78CFCB6E74EB10C230093F5
:1063D00048F21903032221465046FEF781FCABE741
:1063E0000E23F4E702A9484603F070FDDFE70E2311
:1063F000E2E74EB10C23009348F219031122214623
:106400005046FEF76DFC97E70E23F4E7BDF8081041
:10641000BDF80A0001F0C8FE20B178462D4B1B687C
:10642000CBB19847EB789F0913F03F092BD000229E
:106430001146BDF80A0001F009FFC0B106280ED1CF
:106440005EB10C23009348F219030D2221465046F9
:10645000FEF746FC70E700DEE4E70E23F2E778463D
:106460001C4B1B680BB1984766E700DE64E74A46A1
:106470003946BDF80A0001F0E9FE20B17846154B17
:106480001B6803B398475946BDF80A0002F02EF97D
:1064900020B178460F4B1B68BBB19847A978BDF86F
:1064A0000A0002F083F920B178460A4B1B6873B1E9
:1064B000984701F079F8BDF80A3042462146504627
:1064C000FFF7F8FC38E700DEDDE700DEE6E700DE98
:1064D000EFE700BFA46000200B89132B00D07047AA
:1064E000F0B585B00C4607464E683078737803F0F7
:1064F0000F0240EA0220B5782D0145EA13150B88FA
:10650000A3B903F0C3FE0DF10E03F21C01462846A9
:1065100004F016F840B3031F0B2B16D8DFE803F086
:106520000F11150D1515151515151517284603F01E
:10653000E1FEF11C04F046F8ECE7032208E0052236
:1065400006E0238873B9042202E0112200E006224B
:106550000423009348F2030321463846FEF7C0FBAC
:1065600005B0F0BD0322F3E73378727843EA0223E3
:10657000B27843EA024221463846FEF7A9FDEFE72A
:106580002DE9F04786B002AF6E464D680B89062BA9
:1065900004D0B5461037BD46BDE8F08780460C46AE
:1065A0002888FEF775FB6B88BB81AB88FB8107F100
:1065B0000A02F96802F0A8F948B10723009348F2EB
:1065C0002C03022221464046FEF78AFBE1E7042322
:1065D0003B8107F108023946788901F079FF0528E7
:1065E0000FD006280FD008B1112200E0002262B1BE
:1065F0000523009348F22C0321464046FEF770FB2A
:10660000C7E70222F3E70822F1E73A89520092B283
:1066100002F1070A02F10E0323F00703ADEB030DAD
:106620000DF1080900238DF808302B88ADF80930EA
:106630006B88ADF80B30AB88ADF80D3039460DF1F5
:106640000F0011F0BAFA1FFA8AF300934B4648F292
:106650002C0221464046FEF730FBB5469AE7000083
:1066600000B587B0002300930193049305934FF680
:10667000FF73ADF802300B4A02922A2203920A4AB3
:1066800012889A4204D07846084B1B683BB1984761
:106690000549684601F0CAFC07B05DF804FB00DE5E
:1066A000F6E700BF2C800300B8310020A460002072
:1066B00008B50146024B188801F05EFF08BD00BF17
:1066C000B8310020430803EB430300F0010003EB63
:1066D00040007047F0B500252B4601E0023303353A
:1066E000934216D230F813404C556F1C30F81340CB
:1066F000C4F30324CC555E1CB242EFD930F816E047
:1067000044EA0E14CC55AC1C30F8166036090E5510
:10671000E4E7F0BD10B5044608F01EFB236D7BB125
:1067200094F8543023B97846154B1B6883B19847C9
:10673000144A1368A365146063B108F02DFB10BD03
:1067400078460F4B1B680BB19847E9E700DEE7E797
:1067500000DEEDE70C4C18220021204611F038FA3B
:1067600007F0F0FD00F5742000F510706060074B35
:10677000E360074BA360204607F0C4FCDDE700BFE1
:10678000A4600020AC3300209433002040420F006E
:10679000C567020038B5036D5BB10D46044608F0CD
:1067A000DBFA94F8543084F8545003B915B908F062
:1067B000F3FA38BD236D0121204698472046FFF7A4
:1067C000A9FFF4E738B5184B1C6800250CE0A26D52
:1067D000154B1A6002E000DEA36DAB65236D00214E
:1067E000204698472546A46DB4B194F8543013B1AF
:1067F000013B84F8543094F85430002BF2D10A4B0A
:106800001B689C42E3D0002DE6D17846074B1B68FD
:10681000002BE0D09847DFE7034B1B6803B138BD7E
:10682000034807F0B5FCFAE7AC330020A460002071
:106830009433002000B585B090F854308DF80C30BA
:1068400048F20703ADF800304FF6FF73ADF80230A1
:1068500003AB01930123ADF808306A46008801F0CC
:1068600095FC05B05DF804FB38B50B89012B00D011
:1068700038BD15460C464B6819781046FFF78AFF5D
:10688000228848F205039A42F2D121462846FFF7B2
:10689000D1FFEDE708B50B8903B108BD1046FFF73E
:1068A000C9FFFAE700B585B083788DF80C3048F25F
:1068B0003703ADF800304FF6FF73ADF8023003AB8D
:1068C00001930123ADF808306A46008801F05EFCB0
:1068D00005B05DF804FB08B50B89012B00D008BD9D
:1068E0004B681B780E2B00D89370088848F235034C
:1068F0009842F4D11046FFF7D5FFF0E708B50B89B1
:1069000003B108BD1046FFF7CDFFFAE72DE9F047C8
:1069100084B000AF1546042904D000F110042268A9
:10692000002304E000F13004F9E754F823202AB9E9
:106930000133072BF9D94FF4807609E056423240F3
:10694000574E06FB02F2D20E564EB65C06EB4316CD
:106950004FF0000E0CE056423240514E06FB02F260
:10696000D20E504EB65C06EB431601E04FF4807633
:10697000B6F5807F1AD00EF1010E0136FF2EF5D844
:10698000730954F8232006F01F064FF0010C0CFA8F
:1069900006F676423240002ADDD10133072B02D8B9
:1069A00054F82320F7E74FF48076E1E70EF103086F
:1069B0000EF10A0323F00703ADEB030DEC46437B16
:1069C0008DF80030C389ADF80130236800222BB95F
:1069D0000132072A12D854F82230F8E7C3F1000E2A
:1069E00003EA0E03DFF8B8E00EFB03F3DB0EDFF87B
:1069F000B4E01EF8033003EB421300E033460022FC
:106A000011E0C2F1000902EA0902DFF8949009FBE3
:106A100002F2D20EDFF88C9019F8022002EB431339
:106A200000E033467246B3F5807F22D002F1010EBA
:106A30005FFA8EFE6244D37003F10109B9F1FF0FD2
:106A4000EFD84FEA591354F8232009F01F094FF0EB
:106A5000010A0AFA09F9C9F1000902EA0902002A41
:106A6000CFD10133072B02D854F82320F7E7334660
:106A7000D8E7B9804FF6FF73FB80C7F808C0A7F8C6
:106A80000C8045B13A1D2946008801F07FFB103784
:106A9000BD46BDE8F087391D008801F06FFBF6E7C1
:106AA00031B57C07D481030008B5084600220421D3
:106AB000FFF72CFF08BD0000F8B50B89032B00D0B1
:106AC000F8BD14460D461388834204D07846184B0F
:106AD0001B68ABB198476E68B6F80130E1898B420C
:106AE000EED10023227B934213D2A26802EBC307AC
:106AF00012F833003278904204D00133DBB2F1E770
:106B000000DEE8E77B68204698473378637301230B
:106B100000E00023002BD3D02A8848F232039A42A7
:106B2000CED12A4605212046FFF7F0FEC8E700BF78
:106B3000A460002038B50B89022B00D038BD154663
:106B40000C461388834204D078460E4B1B68B3B1C1
:106B5000984763681A88EB899A42EFD12022002176
:106B600005F1100011F034F8228848F22F039A4200
:106B7000E4D1224605212846FFF7C8FEDEE700DE05
:106B8000E7E700BFA460002038B50B89022B00D0D6
:106B900038BD15460C461388834204D07846084B0E
:106BA0001B685BB1984763681A88EB899A42EFD1FA
:106BB000224605212846FFF7A9FEE9E700DEF2E7B5
:106BC000A460002070B586B004460E4603650A9B9B
:106BD00083609DF82C30037300254573C28180F8D3
:106BE00054508570856520222946103010F0F0FF42
:106BF0002022294604F1300010F0EAFF0223ADF80C
:106C000000304FF6FF73ADF80230ADF80460064B6C
:106C100002930B2303930494044B05932146684687
:106C200001F004FA06B070BD7C810300A96A02007D
:106C300010B50446837803F00303032B21D8DFE863
:106C400003F0020C131981788B081D4A116819444E
:106C5000A1601C4B1B6800201FE083789B0803EB9E
:106C6000830359000B46F0E783789B08642101FBFE
:106C700003F3EAE783789B0841F2707101FB03F3A9
:106C8000E3E77846104B1B6813B198470023DCE715
:106C900000DE0023D9E71846DB681BB19A688A1A20
:106CA000002AF8DA18B133B1C460E36010BDE360C4
:106CB000044B1C6010BDC4600023E36010BD00BF26
:106CC000C8330020D0330020A460002010B5764BDC
:106CD00019688B7803F00303744A1278934240F3E7
:106CE000BA808C68724B1B68E41A724B03FB04F485
:106CF000032A09D8DFE802F0021204066D4B0EE009
:106D00006D4B0CE06D4B0AE078466D4B1B6813B180
:106D10009847002303E000DE002300E0694BB4FB4A
:106D2000F3F3614A1268927802F00302022A19D042
:106D30003AD8012A6AD102F1CC32A2FB0312D2085E
:106D400002EB820251008B4202D0002213465FE028
:106D500007F0F8FA00F5742303F510730122534984
:106D60000A7055E0514A117839B9574AA2FB03021B
:106D70005209642000FB12326AB1012902D00022BC
:106D8000134645E0514AA2FB0312D20802EB8202ED
:106D900051008B4249D107F0D5FA474B03440221F9
:106DA000424A1170012233E0404A117841B9484A01
:106DB000A2FB0302D20941F2707000FB123282B1D1
:106DC000012904D0022915D00022134620E0414AAF
:106DD000A2FB030292094FF4167000FB1232002A44
:106DE000F0D107F0AFFA354B034403212F4A11705D
:106DF00001220DE0384AA2FB03125209C2EB021233
:106E000091008B42EDD00022134601E00022134690
:106E1000002A47D107F096FA0446244B1B78032B2F
:106E20000CD8DFE803F00515070900221346EFE749
:106E3000204B0EE0204B0CE0204B0AE07846204B24
:106E40001B6813B19847002303E000DE002300E035
:106E50001C4B234426E007F075FA0446124B1B68CE
:106E60009B7803F00303032B09D8DFE803F0021239
:106E70000406104B0EE0104B0CE0104B0AE0784675
:106E80000F4B1B6813B19847002303E000DE00237B
:106E900000E00C4B2344044A12689278C2F30102CA
:106EA00002490A70184610BDD0330020CD330020AF
:106EB000C8330020A0860100809698000046C323B6
:106EC000A460002040420F001F85EB51CDCCCCCCFC
:106ED000F1197605B5814E1B8988888810B52B4B32
:106EE0001B7873B92A4B1B68002B47D0FFF7EEFEC7
:106EF0000146264B1B78002B38D0264807F07EF938
:106F000010BD244B5C6807F01DFA241A224B1B7835
:106F1000032B09D8DFE803F0021204061F480EE035
:106F20001F480CE01F480AE078461F4B1B6813B14E
:106F30009847002003E000DE002000E01B48001B13
:106F4000154B1B7843B94CF25033984204D9184A78
:106F5000136801331360C5E74009164BA3FB0030EB
:106F6000134A136803EBD0101060BBE70122074BF4
:106F70001A700848416007F0C5F810BD034B1B7834
:106F800003B910BD034807F003F9FAE7CC3300203A
:106F9000D0330020B0330020CD330020A086010084
:106FA000809698000046C323A460002040420F0052
:106FB000C8330020C55A7C0A30B583B007E000DE34
:106FC00063680199284698472046FFF731FE124B27
:106FD0001C68ECB1A368114A1268934204D00F4AAE
:106FE00012689B1A002B13DA2588E2680A4B1A6094
:106FF00002A9002341F8043D284601F0EBFC0028DB
:10700000DED07846064B1B68002BD8D09847D7E7D0
:10701000FFF764FF03B030BDD0330020C833002039
:10702000A460002008B5154B1B78032B1ED8DFE8A1
:1070300003F0020C1116124A136801331360002288
:10704000104B1A70FFF7B8FF08BD0D4A13680A33DA
:107050001360F4E70A4A136864331360EFE7084AE1
:10706000136803F5BB5310331360E8E77846064B0B
:107070001B680BB19847E2E700DEE0E7CD33002064
:10708000C8330020CC330020A460002010B5044693
:10709000FFF7CEFD034B1B689C4200D010BDFFF7ED
:1070A0001DFFFBE7D033002010B5084C182200214B
:1070B000204610F08DFD064BA3600023054A1360A7
:1070C000054A1360054A137010BD00BFB03300209D
:1070D00025700200C8330020D0330020CC330020BC
:1070E00070B50E461546044628B107F035FE164B1E
:1070F0001B68002209E07846144B1B680BB19847C7
:10710000F3E700DEF1E71A46DB680BB1A342FAD1E0
:10711000A17866F3010165F38701A17013B13AB15B
:10712000D968D16045B903B152B107F035FE70BDE1
:10713000D86805490860F5E72046FFF7A7FFF4E7A0
:10714000FFF7CCFEF1E700BFD0330020A4600020A1
:1071500070B50E461546044640B1A378C3F301034B
:107160003370A378C3F385032B7070BD7846034B4F
:107170001B680BB19847F0E700DEEEE7A460002043
:1071800010B44FF6FF7399420CD00C4A43001C1800
:1071900061000C461144C97822444B1CD3705DF841
:1071A000044B7047054A43001C1861000C4611440B
:1071B000897822444B1C9370F1E700BFD433002040
:1071C00030B482B00191194943001D186C000C4481
:1071D000A57803445C002144CB78DD4201D0002334
:1071E00003E000201FE001339BB2022B1AD83421A8
:1071F0000F4C01FB034189898842F4D1342101FB02
:1072000003F1645ABDF804108C42ECD134240849CF
:1072100004FB03156C88BDF806108C42E3D1138083
:10722000012000E0002002B030BC7047D4330020C1
:107230000C34002082B000230093027802F0C003D7
:10724000402B0ED00CD9802B1BD0C02B0FD1ADF80A
:1072500000204278837843EA0223ADF8023006E04A
:107260002BB9ADF800204FF6FF73ADF80230009B4C
:1072700000209AB262F30F001B0C63F31F4002B0B0
:107280007047437843EA0222ADF800204FF6FF73BF
:10729000ADF80230EBE782B00190000C4FF6FF73BF
:1072A000984207D0BDF804300B70030A4B70887009
:1072B00002B07047BDF8043013F47F4F03D01A0AB0
:1072C0000A704B70F4E70B70F2E782B001904FF652
:1072D000FF73B3EB104F0AD0BDF8040020F03F005D
:1072E00080B2C02814BF0020012002B07047BDF852
:1072F000040010F47F4F07D000F44040B0F5004F79
:1073000014BF00200120F0E720F07F039BB22BB9CF
:107310007F2801D00120E8E70020E6E70020E4E72D
:1073200070B506460D460024AC4207D256F834002C
:10733000FFF7CBFF034610B10134F5E701231846F0
:1073400070BD30B482B00191002300E00133018DA3
:107350008B4210D2416A01EBC30531F83340BDF8CE
:1073600004108C42F2D16C88BDF806108C42EDD12D
:107370001360012000E0002002B030BC7047000024
:10738000F8B505460E4617461C4683B13389B3F55A
:10739000BE7F14D2022D19D83423214A03FB0523C2
:1073A00093F8303013F0010F20D100230FE078461E
:1073B0001C4B1B680BB19847E8E700DEE6E70923A2
:1073C00023602068B0FA80F04009F8BD00237BB14B
:1073D0003423134A03FB05239B894BB95FB1306803
:1073E000FFF773FFC8B100232360EAE70123EEE74C
:1073F00005232360E5E73423094A03FB05239A8824
:107400004FF6FF739A4208D03422054B02FB053534
:10741000EA884FF6FF739A42E1D107232360D0E751
:107420000C340020A460002008B57846034B1B688C
:107430000BB1984708BD00DE08BD00BFA460002066
:1074400008B5804708BD00004388C3F30B03C3B9E8
:1074500030B41C460C4911F8332042F0010201F807
:10746000332013B1012030BC704700EB8302516818
:10747000C94303EB4405044A02EB85025160013322
:10748000EFE70020704700BFA83400204388C3F313
:107490000B033BB9818803EB43035A00024B99521B
:1074A0000120704700207047D4330020F0B583B02E
:1074B0000F4616464FF47043ADF80430ADF80600A1
:1074C00000252C4600E05CB1224601A90C4809F0D9
:1074D0005BFA04460028F6D0B04758B10135F2E710
:1074E000BD4209DD7846074B1B680BB1984703E0A6
:1074F00000DE01E04FF0FF35284603B0F0BD00BFCD
:10750000E4330020A460002038B54388C3F30B03A4
:10751000022B2AD8011D028A4ABB3422164C02FBD8
:107520000342D28952B9448AA24201D0002038BD18
:10753000124A12F8342012F0010F1AD0428A32B9DE
:107540000E4D15F8324044F0040405F8324004466C
:1075500014223425084805FB030010F02EFBE188B7
:10756000208AFFF70DFE012038BD002038BD002025
:1075700038BD002038BD00BF0C340020A8340020E6
:1075800008B50122054B1A70054809F09FF900B9AA
:1075900008BD044809F038FCFAE700BF08340020B1
:1075A000E4330020CC3100202DE9F04107F0D4FB7A
:1075B000564B1B78BBB9564B1B780BB1002513E01B
:1075C00006220121534809F095FA50B10124C480E4
:1075D00003220281848009F0D1FA4D4B1C700025F2
:1075E00002E0112500E00825002418E003EB440028
:1075F000494A02EB80025268D24301EB83004260A9
:107600000133002BF2D0084609F0B8FA424A12F8CA
:10761000343023F0020302F834300134A4B2002CD9
:107620003AD1ADB93C4B13F8343003F00303032BCC
:10763000F3D1042244F44051364809F05BFA014684
:1076400008B12B46DDE71125E7E711250134A4B287
:10765000002C4FD12DBB04EB44035A002F4B134495
:107660005B7913F0020FF1D0022244F480512948D3
:1076700009F040FA0028E8D0284F4FEA440808EB08
:1076800004014B00FE18FB5A838009F077FA7379E6
:1076900023F002037371D9E70024D9E711250134DF
:1076A000A4B2022C28D83DBB34231D4A03FB04237B
:1076B00093F8303003F00303032BF0D1142244F489
:1076C0000051144809F016FA07460028E6D034267F
:1076D000134B06FB043614223146043010F06DFAC9
:1076E000384609F04BFA96F8303023F0020386F85A
:1076F0003030D4E70024D4E71DB907F04DFBBDE8D6
:10770000F081084809F080FBF7E700BF083400204B
:1077100009340020E4330020A8340020D4330020B2
:107720000C340020DC31002008B59C2200210F48D9
:1077300010F04EFA062200210D4810F049FA0822F6
:1077400000210C4810F044FA00220CE034230749D1
:1077500003FB02134FF6FF71D98099800120D88175
:107760009981024492B2022AF0D908BD0C3400205B
:10777000D4330020A83400202DE9F04182B0054622
:10778000037D012B1BD0143002A94FF6FF7321F8A3
:10779000083D02F047FD28B17846554B1B68002B89
:1077A0005BD09847BDF8000002F03EFC28B978464F
:1077B0004F4B1B68002B52D09847002452E068467C
:1077C00002F06EFBEB8ABDF80060B342C0F08D8022
:1077D000BDF802203244934280F287809B1B9EB208
:1077E000002400E00134022C7FDC3423414803FBF9
:1077F000040090F8303013F0010FF3D03D4A838934
:107800009E42EFD1342303FB04F308331A446B8CFC
:10781000590952F8211003F01F03012202FA03F361
:107820001942DFD001AA2968FFF78BFD0028D9D0C3
:107830001FFA84F834272F4B07FB0437FA6A2946CE
:10784000404601F069FA7B6A019A03EBC2035B6868
:10785000FA6A294640469847C4E700DEA2E700DE00
:10786000ABE70134022C40DC3423224803FB040044
:1078700090F8303013F0010FF3D01E4AC18900296F
:10788000EFD1342303FB04F3083313446A8C560905
:1078900053F8266002F01F02012303FA02F2164297
:1078A000DFD0154B03EBC1010431BDF800305A099C
:1078B00051F8221003F01F03012202FA03F31942C8
:1078C000CFD001AA2968FFF73CFD0028C9D0342396
:1078D000084A03FB04235A6A019902EBC102566865
:1078E000DA6A2946A0B2B047BBE702B0BDE8F08132
:1078F000A46000200C340020A834002010B58EB005
:10790000044600284CD02068FFF794FC0D9080B20C
:107910007F2843D0414B1B6813F4005F03D0404BDA
:107920001B68042B44D8E06902F0F3FC0D9A049222
:10793000236803924FF6FF71B1EB124F5DD0032223
:1079400013440593A3880D9A02924FF6FF71B1EB91
:10795000124F5AD003229B1AADF81830237A8DF8B3
:107960001C306389ADF81E30E3680893237C8DF8E2
:107970002430638AADF8263063690A93636A5A68D3
:107980000B9293F90D308DF8303094F820308DF84B
:107990003130ADF8320004A8FFF7EEFE0EB010BD96
:1079A0007846204B1B680BB19847ACE700DEAAE78E
:1079B0002F211D4810F0E0F990B12F211A4810F046
:1079C000DBF9411C194BD3F80435BDF83420019282
:1079D000174A009240F22312052008F08DF9A2E721
:1079E0005C21114810F0C8F928B15C210E4810F054
:1079F000C3F9411CE6E70C49E4E7BDF80C20FF2A77
:107A000001D902229CE701229AE7BDF80820FF2A4B
:107A100001D801229FE702229DE700BF50320020DB
:107A20004C320020A4600020F481030000B000402C
:107A30003882030008B5037803B108BD0430FFF7AE
:107A40005DFFFAE700B587B00F4B03930F4B04932C
:107A50000F4B05930423029302F088F9A0F58050A0
:107A60000090012301930B4A137069460A4809F0FC
:107A700083F928B90022074B1A7007B05DF804FBA0
:107A8000064809F0C1F9F8E7317B020029740200C9
:107A9000A17A020008340020E4330020BC31002029
:107AA00010B500230BB100230FE01E4A12F833205B
:107AB00012F0010F04D042F002021A4901F83320FB
:107AC00001339BB2EEE701339BB283B903EB430171
:107AD0004A0015498A5A002AF5D008465A00D41897
:107AE000610001444A7942F002024A71EBE7002347
:107AF00001E001339BB2022B11D834220B4902FB67
:107B0000031292F8302012F0010FF2D0342107480E
:107B100001FB030142F0020281F83020E9E7FFF7A0
:107B200091FF10BDA8340020D43300200C34002075
:107B300070B58CB005460E461446012A05D0022CBD
:107B40000BD0032C11D00CB070BD7846114B1B68C4
:107B50000BB19847F3E700DEF1E778460D4B1B6861
:107B60000BB19847EDE700DEEBE72C22002101A8DE
:107B700010F02EF819238DF8043002238DF8083008
:107B80000396EB6805932B69069301A805F008FCA2
:107B9000D9E700BFA46000202DE9F04794B002AF00
:107BA00005460C46164607F14403FFF7E9FB20B9EA
:107BB000786C4837BD46BDE8F08707F1400002F019
:107BC0006FF9B7F842203423954903FB05139B89CD
:107BD0009A4201D81020ECE7B7F8408043441FFADE
:107BE00083F856B3B6F8229007F138030C3696E8BE
:107BF000030083E8030007F13601304602F012FB70
:107C000010B14FF6FF73FB863422854B02FB05351E
:107C10002D7CFF2D27D097F83830012B26D0012B53
:107C200030D0F88E4FF6FF7398422DD002F0FCF959
:107C3000002840F09280002327E03423784A03FB99
:107C40000523B3F80490D888F88607F1380102F0CC
:107C500035FA0028D8D07846724B1B680BB198478C
:107C6000D2E700DED0E7704B1D78D4E7798FB7F804
:107C700040209142D3D3B7F8420002449142CEDA79
:107C8000012302E0002300E000231E46002B66D102
:107C90001EB197F83830012B5DD06E4620220021AE
:107CA00007F110000FF094FF238922687A604FF6E5
:107CB000FF71B1EB124F78D003221344073323F046
:107CC0000703ADEB030D0DF1080A07F12401484647
:107CD00002F04CFD28B17846524B1B68002B6BD04C
:107CE000984707F1100307F1380292E8030083E890
:107CF0000300A7F81880BD76C7F81CA02389226866
:107D0000FA604FF6FF71B1EB124F57D003221344C4
:107D10003B8451462068FFF7BEFA2368BB604FF6EC
:107D2000FF72B2EB134F50D0032022896168504498
:107D30000FF043FF002107F1100005F02DFF7864DC
:107D400040B93A4B1B6813F4005F03D0384B1B68F3
:107D5000042B41D8B546786C2BE7012395E7242204
:107D6000002107F110000FF033FF23683B616368C7
:107D70007B6123893B8301233B77A7F81E8007F1B2
:107D8000240307F1380292E8030083E8030006F0B9
:107D9000D9FAF86287F83150A7F8329007F110004D
:107DA000FFF7EAFC00237B6472E7BA88FF2A01D957
:107DB000022282E7012280E700DE92E7BA89FF2AE9
:107DC00001D90222A3E70122A1E73B89FF2B01D9B8
:107DD0000220AAE70120A8E72F2116480FF0CCFFC8
:107DE00088B12F2113480FF0C7FF411C124BD3F865
:107DF000043522880192114A009240F2C5120520F2
:107E000007F07AFFA6E75C210A480FF0B5FF28B11A
:107E10005C2108480FF0B0FF411CE7E70549E5E7A2
:107E20000C340020A4600020EC31002050320020EF
:107E30004C320020F481030000B000406C8203004B
:107E4000F8B500E020BF09F001F80028FAD00022C0
:107E5000614B1A700121614808F068FD002800F0AC
:107E6000B880C288012A05D00024002C00F0AB8025
:107E70002046F8BD0289032A01D00024F5E7838853
:107E8000012B01D00024F0E70121534B1970544A13
:107E90004FF44050FFF70AFB002801DB00230FE0FE
:107EA0000024E2E74F4C5A001A44510062180020A7
:107EB0009070D0706052517921F0020151710133FC
:107EC000002BEFDD484A01214FF48050FFF7EEFA16
:107ED000C743FF0F0FB90024C7E7444A03214FF4FB
:107EE0000050FFF7E3FA002867DD002635E000DEEA
:107EF00050E004240DE000DE17E051420A403C4906
:107F000001FB02F2D20E3B498C5C04EB431400E00F
:107F10000424042C1FD0A0B202F03AF828B178460D
:107F2000354B1B68002BE6D098470134032CEFD863
:107F3000630955F8232004F01F04012101FA04F419
:107F400061420A40002AD8D1013302D155F82320DA
:107F5000F8E70424DDE70136B6B2022E2ED834232A
:107F6000264A03FB06239A894FF6FF739A42F2D002
:107F70003424224B04FB0634E0884FF6FF7398420A
:107F800008D001F0A9FF28B178461B4B1B68002BD5
:107F9000ADD09847E289012ADDD0194B03EBC2032B
:107FA0001D1D5B68002BA4D05A421A40104B03FBE6
:107FB00002F3DB0E0F4AD45CABE700270FB10124BC
:107FC00053E7002451E70022034B1A70FFF7D8FA59
:107FD0004EE700244CE700BF09340020E4330020C2
:107FE00049740200D43300208D7402000975020028
:107FF00031B57C074C820300A46000200C340020C3
:10800000A834002008B5FFF78FFB0648064B036035
:1080100005F0DDFE00F0C2FEFFF746F8FFF712FDA7
:1080200008BD00BFDC330020357A0200002800F0D4
:108030009A80F8B504468268002A00F096800029EC
:1080400000F095804FF6FF720A80C2680AB90920D5
:10805000F8BD808808B10520F8BD0D460A462168A4
:10806000FFF7AEF858B12B883421424A01FB0323B5
:1080700093F8303013F0010F01D00F20F8BDE16804
:10808000A068FFF74DF908B90720F8BD2A884FF618
:10809000FF739A422CD029882069364B342202FB88
:1080A0000131C8622988A06802FB01314862298831
:1080B000E06802FB013108852988606902FB013113
:1080C0008861298802FB01308182298802FB013303
:1080D00093F8302042F0010283F830200020F8BDF0
:1080E0009AB22A804FF6FF739A420FD10420F8BD4E
:1080F0000023022BF5D834211E4801FB030191F81F
:10810000301011F0010FEBD00133F2E7194E342794
:1081100007FB02621946D3802B8807FB0363998013
:108120002B88A28807FB03639A812B88228807FB90
:1081300003F3F2522B88628807FB03635A802B8873
:1081400007FB03630C4A12781A746188A088FFF752
:1081500017F82B8807FB036696F8303043F00203CC
:1081600086F8303097E70E2070470E20F8BD0E20BD
:10817000F8BD00BF0C340020EC31002021B108B55F
:108180000022FFF709FD08BD0E20704739B108B580
:108190000B4632B111461A46FFF7FEFC08BD0E2011
:1081A00070470E2008BD000002280AD83423154A63
:1081B00003FB002393F8303013F0010F05D10023A7
:1081C00000E000231BB9052070470123FAE70329CB
:1081D00001D90720704734230A4A03FB0023DB88B8
:1081E00099420CD03422074B02FB0030C18090F83A
:1081F000303043F0020380F8303000207047002018
:10820000704700BF0C3400200A46D1B102280AD8BA
:1082100034230D4903FB001393F8303013F0010FA2
:1082200005D1002300E000231BB90520704701237E
:10823000FAE73421044B01FB0030C388138000208F
:1082400070470E20704700BF0C340020022801D96F
:108250000520704770B53423204C03FB004393F88E
:10826000303013F0010F01D1052070BD342303FB22
:1082700000439B6983B33F2A01D9072070BD0329BE
:1082800001D9072070BD342303FB00435B7CB2EBB4
:10829000930F17D0114C342303FB00F025186B7C8F
:1082A00062F3870361F301036B74103020440430E0
:1082B000FEF716FF95F8303043F0020385F83030B2
:1082C000002070BD342303FB00435B7C03F00303F9
:1082D0008B42DFD1002070BD062070BD0C34002021
:1082E00031B30B4632B310B502280AD83421134CEF
:1082F00001FB004191F8301011F0010F05D1002170
:1083000000E0002119B9052010BD0121FAE7342150
:108310000A4C01FB0041896971B11946342303FB02
:1083200000F0103020440430FEF712FF002010BD92
:108330000E2070470E207047062010BD0C34002020
:1083400002280AD83423184A03FB002393F830305C
:1083500013F0010F06D1002300E0002323B9052309
:10836000184670470123F9E734230F4A03FB002323
:10837000DB89012B01D00023F2E7002393B90B4ADC
:1083800012F8332012F0010F01D00133F6E742F06A
:108390000102064901F833203421034A01FB002081
:1083A000C381DDE70423DBE70C340020A834002080
:1083B00002280AD83423204A03FB002393F83030E4
:1083C00013F0010F05D1002300E000231BB90520A5
:1083D00070470123FAE73423174A03FB0023DB89A4
:1083E000012B24D0032901D90720704730B4134A48
:1083F00002EBC30304334D0953F8254001F01F017C
:10840000012202FA01F10C4213D1214343F8251055
:108410003422094B02FB0030C189084A12F831307E
:1084200043F0020302F83130002030BC70470620D0
:1084300070470020F9E700BF0C340020A83400206A
:1084400002280AD83423204A03FB002393F8303053
:1084500013F0010F05D1002300E000231BB9052014
:1084600070470123FAE73423174A03FB0023DB8913
:10847000012B25D0032901D90720704730B4134AB6
:1084800002EBC30304334D0953F8254001F01F01EB
:10849000012202FA01F10C4214D024EA010143F84E
:1084A00025103422084B02FB0030C189074A12F81C
:1084B000313043F0020302F83130002030BC704705
:1084C000062070470020F9E70C340020A834002073
:1084D000002945D0F0B40C46002A43D002280AD81F
:1084E0003423234903FB001393F8303013F0010FBA
:1084F00006D1002300E0002323B90520F0BC70471B
:108500000123F9E705463421194B01FB0030C389EB
:10851000012B29D016880023138000E00133032BA0
:108520001CD83421124801FB0501C8890028F5D167
:10853000104901EBC0010431580951F8200003F043
:108540001F070121B9400842E8D011888E420DD999
:1085500024F81130118801311180DFE70020CDE7C8
:108560000E2070470E20C9E70620C7E70920C5E79F
:108570000C340020A834002002280AD834231B4AD7
:1085800003FB002393F8303013F0010F05D10023D3
:1085900000E000231BB9052070470123FAE70129F9
:1085A00001D90720704730B4342303FB00F30833AC
:1085B0000E4A13444D0953F8254001F01F010122D2
:1085C00002FA01F10C420FD1214343F82510342265
:1085D000064B02FB003090F8303043F0020380F885
:1085E0003030002030BC70470020FBE70C34002006
:1085F00002280AD834231C4A03FB002393F83030A6
:1086000013F0010F05D1002300E000231BB9052062
:1086100070470123FAE7012901D90720704730B4D8
:10862000342303FB00F308330F4A13444D0953F876
:10863000254001F01F01012202FA01F10C4210D085
:1086400024EA010143F825103422074B02FB0030D5
:1086500090F8303043F0020380F83030002030BC16
:1086600070470020FBE700BF0C340020A9B3F0B432
:108670000C46A2B302280AD834231B4903FB00137B
:1086800093F8303013F0010F06D1002300E00023EF
:1086900023B90520F0BC70470123F9E716880023B1
:1086A00013800BB10020F5E7342101FB00F1083104
:1086B0000D4D29445D0951F8255003F01F07012194
:1086C000B9400D4207D011888E420AD924F81130E2
:1086D0001188013111800133E3E70E2070470E202D
:1086E000D8E70920D6E700BF0C34002002280AD8BA
:1086F0003423154A03FB002393F8303013F0010FA5
:1087000005D1002300E000231BB905207047012399
:10871000FAE7012901D90720704734230A4A03FBED
:1087200000239B8899420CD03422074B02FB003077
:10873000818090F8303043F0020380F83030002020
:1087400070470020704700BF0C3400200A46D1B1AA
:1087500002280AD834230D4903FB001393F8303064
:1087600013F0010F05D1002300E000231BB9052001
:1087700070470123FAE73421044B01FB0030838862
:108780001380002070470E20704700BF0C3400207B
:1087900000F07F00014B1870704700BFEC310020E3
:1087A000014B1878704700BFEC31002002280AD82E
:1087B0003423164A03FB002393F8303013F0010FE3
:1087C00005D1002300E000231BB9052070470123D9
:1087D000FAE781F080037E2B01D80720704734230D
:1087E0000A4A03FB00231B7C99420CD03422074B1E
:1087F00002FB0030017490F8303043F0020380F83F
:108800003030002070470020704700BF0C3400203B
:108810000A46D1B102280AD834230D4903FB0013BC
:1088200093F8303013F0010F05D1002300E000234E
:108830001BB9052070470123FAE73421044B01FBE3
:108840000030037C1370002070470E20704700BF7B
:108850000C3400200B4651B108B10520704700EBE5
:108860004000420003498A5A1A80002070470E20B7
:10887000704700BFD43300200B4659B108B1052022
:10888000704700EB40004100034A0A4492781A7096
:10889000002070470E207047D43300200B4659B19A
:1088A00008B10520704700EB40004100034A0A442C
:1088B000D2781A70002070470E207047D433002001
:1088C0000B46E9B102280AD834220E4902FB0012F5
:1088D00092F8302012F0010F05D1002200E00022B2
:1088E0001AB9052070470122FAE70649342202FB33
:1088F00000F00A18095A198052885A8000207047DF
:108900000E2070470C34002030B482B001915AB36D
:10891000144618B1052002B030BC70474FF6FF7303
:108920001380002301E001339BB2022B1AD83422BA
:108930000E4902FB031292899042F4D1342202FBC9
:1089400003F2895ABDF804209142ECD13421074A40
:1089500001FB03256988BDF806209142E3D12380FD
:108960000020D8E70520D6E70E20D4E70C340020FD
:1089700039B3F0B40E4632B310B10520F0BC7047E5
:1089800017880023138000E00133022B17D81488C6
:10899000A7421AD934210E4D01FB035191F8301032
:1089A00011F0010FF0D0342101FB03518989884275
:1089B000EAD126F81430118801311180E4E7002053
:1089C000DCE70E2070470E20D8E70920D6E700BF6D
:1089D0000C3400200A46D1B102280AD834230D49AC
:1089E00003FB001393F8303013F0010F05D100237F
:1089F00000E000231BB9052070470123FAE734216A
:108A0000044B01FB0030C36A1360002070470E2046
:108A1000704700BF0C34002010B44FF6FF730B807A
:108A2000002300E00133022B0ED803EB8302D400B5
:108A30000A4A224492F83C20002AF3D0074A2244F2
:108A4000128B8242EED10B8008884FF6FF73C01A5A
:108A500018BF01205DF8044B704700BFB034002000
:108A600010B400EB8000C200104B13445B6B104C41
:108A70001C4400234FF6FF7001E001339BB2022B30
:108A800011D803EB8302D100084A0A4492F83C2033
:108A9000002AF2D0054A0A44526B111B0029ECDA75
:108AA00018461446E9E75DF8044B7047B0340020DF
:108AB0000087930310B5044600EB8003DA00264BD1
:108AC000134493F83C3023B97846244B1B68EBB130
:108AD0009847214BB3F8903023B978461F4B1B6859
:108AE000B3B198471C4A04EB8401CB001344002126
:108AF00083F83C10B2F89030013B9BB2A2F8903062
:108B00002BB3B2F892309C4204D010BD00DEE0E7F7
:108B100000DEE7E72046FFF7A3FF0F4BA3F8920024
:108B20004FF6FF7398420AD00B48B0F8923003EB2F
:108B30008303DA000244516B05F060FB10BD7846F8
:108B4000064B1B680BB19847EEE700DEECE70248E6
:108B500005F01EFBD9E700BFB0340020A460002060
:108B6000F0B583B006466A4BB3F8903023B9784627
:108B7000684B1B684BB1984706F57A754FF6FF7244
:108B8000634BA3F89220002489E000DEF4E76049FB
:108B9000A2002244D3000B44002283F83C20B1F809
:108BA0009020013AA1F8902001A9188BFFF712FF3D
:108BB00020B17846574B1B685BB19847A20022440E
:108BC000D100534B0B441F6B01220199188BB847FE
:108BD00064E000DEF2E74E4FA2001119CB00F81856
:108BE0001833F9180431008BFFF7C8FAA7F8924040
:108BF000F0B9A2002244D1003B460B449A6B596B5A
:108C00001144596352009A63414A631C03EB830386
:108C1000D9001144486804EB8401CB0019461A447A
:108C2000536BC31A002B39DA394B0B44586335E0C8
:108C3000042806D07846374B1B68002B29D098476C
:108C4000E2E73349A3001819C2000A44536B03F545
:108C50001C43403353632E4BB3F89030002B53D05A
:108C60002B4BB3F89230022B05D97846294B1B6861
:108C7000002B45D09847264AB2F8923003EB830385
:108C8000D9000A44536B9A1B3CD4214BDA6003B0E1
:108C9000F0BD00DEB8E71E4BA3F892400134022C71
:108CA000D9D804EB8403DA00194B134493F83C3011
:108CB000002BF3D0631C03EB8303DA00144B134443
:108CC0005B685B1B002BFFF662AF04EB8403DA00EA
:108CD0000F4B13445A6B531B002BFFF67CAF0C4B0E
:108CE000B3F892304FF6FF718B42D4D003EB83037D
:108CF000D900074B0B445B6BD21A002ACEDACAE7C5
:108D000000DEB8E7F21AC0E70022014BDA60BEE7E6
:108D1000B0340020A460002070B582B004460D4637
:108D20001646022804D978461A4B1B68BBB19847EF
:108D300006F012F80DF106012046FFF76DFE50B166
:108D4000BDF80600431C03EB8303DA00124B9A5A6A
:108D50002B889A4205D006F01FF802B070BD00DEE5
:108D6000E6E7431C03EB8303DA000B4B13445A88FA
:108D70006B889A42EFD1FFF79DFEBDF8063003EBFA
:108D80008303DA00044B13441B6B00223146204658
:108D90009847E0E7A4600020B034002010B5044CF0
:108DA0009422002120460EF013FF024BA36010BD59
:108DB000B0340020618B020002460E4B1B6813F09A
:108DC000010F0AD00C4B1B8898420FD30A484088E9
:108DD00003449A420CDB002300E00023184623B131
:108DE0004A8001230B7000234B6070470023F5E796
:108DF0000123F3E74C350020E03500204FF6FF73E8
:108E00000B800023022B25D830B40DE05A09124CF8
:108E100054F8224003F01F050122AA40144208D151
:108E20000B800133022B12D80C884FF6FF7294424C
:108E3000ECD00A4A32F823208242F2D1074A02EBF0
:108E40008302D278002AECD00B80012000E00020C1
:108E500030BC704700207047443500205C3500204E
:108E600030B583B005460C460DF10601FFF7C6FF8D
:108E7000034620B1658003222270002262601846FA
:108E800003B030BD0B880BB9013300E000234FF66F
:108E9000FF720A80E3B930B408E003EB8304A20058
:108EA0000C4CA25A82420DD0013373B95A090A4CB4
:108EB00054F8224003F01F050122AA401442ECD1CD
:108EC0000B80F1E70B80012000E0002030BC7047F0
:108ED0000020704748360020543500204FF6FF73BD
:108EE0000B800023022B20D830B407E00C884FF60B
:108EF000FF72944214D00133022B13D85A090C4C40
:108F000054F8224003F01F050122AA401442EDD07C
:108F1000084A32F823208242EDD10B80012002E082
:108F20000B80E8E7002030BC70470020704700BF8E
:108F3000443500205C3500204FF6FF730B80002382
:108F40006BB10020704701330B8001201DE00C88BD
:108F50004FF6FF72944214D15A1C0A8011E030B4CB
:108F60005A090B4C54F8224003F01F050122AA4075
:108F70001442ECD0162202FB03F2064CA25A8242A3
:108F8000E1D00133002BEBD0002030BC704700BF94
:108F900088350020903500204FF6FF730B800023AA
:108FA0005BB1002070470B8001201CE00C884FF65D
:108FB000FF72944213D10B8011E030B45A090B4C6C
:108FC00054F8224003F01F050122AA401442EDD0BC
:108FD000162202FB03F2064CA25A8242E3D001336E
:108FE000002BEBD0002030BC704700BF683500205C
:108FF00070350020F0B417680023136013B101200E
:10900000F0BC70475C09114D55F8245003F01F0661
:109010000124B440254206D016240D4D04FB035410
:109020006488844201D00133E8E71568AF420AD072
:10903000162404FB03F4064E345B21F81540146833
:1090400001341460EFE70020DAE700BF6835002044
:109050007035002070B40E6800230B6013B101203E
:1090600070BC70475A090D4C54F8224003F01F059C
:109070000122AA4014420CD00C68A6420BD05C22FC
:1090800002FB03F2064DAA5A20F814200A680132A6
:109090000A600133E2E70020E2E700BFE435002088
:1090A000EC35002010B5044628B10C4B9C420AD286
:1090B0004FF6FF7010BD7846094B1B680BB19847FF
:1090C000F3E700DEF1E702D94FF6FF7010BDE01ABA
:1090D000044CA4FB0030C0F38F1010BDFE350020FF
:1090E000A4600020C94216B210B5044628B10C4B4A
:1090F0009C420AD24FF6FF7010BD7846094B1B68A0
:109100000BB19847F3E700DEF1E702D94FF6FF70A5
:1091100010BDE01A044CA4FB0030C0F38F1010BD4A
:1091200028360020A4600020C94216B210B50446BB
:1091300048B1124B9C4200D30DD9114B9C4211D225
:109140004FF6FF7010BD78460E4B1B680BB1984769
:10915000EFE700DEEDE7E01A0B4CA4FB0030C0F3B4
:109160000F1010BD02D94FF6FF7010BDE01A064C6B
:10917000A4FB00300009013080B210BD743500201E
:1091800094350020A4600020A38B2EBAA8B110B49F
:10919000044600236BB9162202FB03F208498A5ADF
:1091A000944201D00133F5E7162202FB0313181D88
:1091B00000E000205DF8044B70470020704700BFBE
:1091C0009035002070B505460E461446106818B15B
:1091D000FFF7ACFF013002E0002000E00130F8B9F9
:1091E0004309114A52F8232000F01F0101238B404C
:1091F0001A42F3D016230D4A03FB00235B88AB42CF
:10920000ECD1162303FB00235B79734013F03F0F6F
:10921000E4D11622054B02FB00330433236070BDFA
:109220000023236070BD00BF68350020703500202A
:109230000D4B23F8210003EB81030022DA709A70B2
:109240004B090A4801F01F01012202FA01F150F80E
:1092500023200A4340F82320054850F823201143D7
:1092600040F82310704700BF5C35002044350020D3
:109270004835002008B50B8881B21846FFF7D8FFA3
:1092800008BD0000024B33F820300B80704700BF50
:109290005C35002010B5044608B1A04710BD7846E3
:1092A000034B1B680BB19847F7E700DEF5E700BFFB
:1092B000A4600020F8B506460C461746052804D9D8
:1092C00078460D4B1B68A3B198470C4D05EB46152E
:1092D000EB693946204698476A68610904F01F0423
:1092E000012303FA04F452F82130234342F82130D9
:1092F000F8BD00DEE9E700BFA46000208082030023
:109300002DE9F8438046894611465C1E114F16250B
:1093100005FB04F57E191022B01D0EF04EFC002353
:10932000737101233371A6F8029027F80580620952
:10933000094804F01F04A34050F82210194340F8D4
:109340002210064850F822100B4340F82230BDE8A6
:10935000F88300BF90350020883500208C35002030
:1093600010B50C46431C9BB20A1D49882088FFF7A4
:10937000C7FF10BDF8B50D46074F162404FB00F4D7
:109380003E191022B11D281D0EF017FC3B5B2B80EF
:1093900073886B80F8BD00BF90350020F8B50D468E
:1093A000074F162404FB00F43E191022B11D281D9E
:1093B0000EF003FC3B5B2B8073886B80F8BD00BF15
:1093C0007035002070B50D46064E5C2404FB00F499
:1093D000311910220231A81C0EF0EFFB335B2B80F9
:1093E00070BD00BFEC35002010B50C4600EB8000CE
:1093F0008300044919441022043120460EF0DDFB9D
:1094000010BD00BF4836002008B5042201480EF008
:10941000D4FB08BDE035002008B508460422024907
:109420000EF0CBFB08BD00BFE03500202DE9F04178
:1094300007460E4690461C461625184B05FB04357C
:1094400010224146A81D0EF0B8FB691D404606F0EB
:10945000AFFB20B17846124B1B68EBB198470F4920
:10946000162303FB04F3CA1800201071CF52568054
:1094700063090C4904F01F04012202FA04F451F8B4
:109480002320224341F82320074951F82320144385
:1094900041F82340BDE8F08100DEE0E770350020B0
:1094A000A4600020683500206C35002010B50C4603
:1094B00083B20A1D49882088FFF7B8FF10BD00005D
:1094C0002DE9F0410D4614462A4A5C2101FB04F1C6
:1094D00001F13003134404330A441364064610B9FF
:1094E0000122254B1A705C2101FB04F11031214B44
:1094F00019440231284606F066FB20B178461F4B1E
:109500001B6893B398475C2101FB04F14031194B70
:1095100019440431284606F069FB20B17846174B00
:109520001B6823B39847DFF84C805C2707FB04F7E0
:1095300008EB07001022294602300EF03EFB28F807
:10954000076063090E4904F01F04012202FA04F4C3
:1095500051F82320224341F823200A4951F82320BF
:10956000144341F82340BDE8F08100DECBE700DE84
:10957000D9E700BFEC350020DC350020A4600020D6
:10958000E4350020E835002008B50B4682B20231F0
:109590001888FFF795FF08BD70B50646CC1EA300DE
:1095A00023449A00124D154410220146281D0EF046
:1095B00004FB2946304606F043FB20B178460D4BAC
:1095C0001B689BB1984763090B4904F01F040122F3
:1095D00002FA04F451F82320224341F823200749DA
:1095E00051F82320144341F8234070BD00DEEAE720
:1095F00048360020A4600020543500205835002053
:1096000008B50B46C11C89B21846FFF7C5FF08BD57
:10961000F8B506460D4605F09FFB052E04D97846A1
:109620001C4B1B6843B198471B4B1C7834B9F4B1F1
:1096300005F0B2FB2046F8BD00DEF5E7174B03EB63
:109640004613598A29445A6989B2154807F052FAD3
:10965000074650B1114B03EB46139B69011D284689
:109660009847384607F08AFAE1E70024DFE70B4B1A
:1096700003EB4616B268690905F01F05012303FADA
:1096800005F552F821302B4342F82130054807F008
:10969000BBFBCDE7A4600020A6350020808203003C
:1096A000A8350020CC35002010B50A220121094838
:1096B00007F020FA002814BF0124002408D0032357
:1096C0004381012383818380C380038107F056FA9D
:1096D000204610BDA835002070B506460D4605F0A1
:1096E0003BFB052E04D97846164B1B6843B19847BF
:1096F000154B1C7834B994B105F04EFB204670BD73
:1097000000DEF5E7114B03EB4613598A294489B271
:109710000F4807F065FAB0FA80F46409EBE70B4BE9
:1097200003EB4616B268690905F01F05012303FA29
:1097300005F552F821302B4342F82130054807F057
:1097400063FBD9E7A4600020A635002080820300D7
:10975000A8350020CC3500202DE9F84F00264FF029
:10976000010848E0A5EB421101238B40013B54F86E
:109770002210194210D1013205F11F035B099A42F0
:1097800005D2013B9A42EDD04FF0FF33EFE743465D
:109790007BBB4FF000090EE00023F9E74946304655
:1097A000FFF79AFF20B354F82B3023EA0A0344F85A
:1097B0002B3009F10109A9451BD24FEA591B54F876
:1097C0002B3009F01F024FF0010A0AFA02FA13EADD
:1097D0000A0FEED00F4B03EB47135B6853F82B30A7
:1097E0001AEA030FDAD049463046FFF711FFD9E7EE
:1097F00080460136F6B2052E0AD8B8F1000F07D020
:109800003746044A7301D1188C68D5580022B3E753
:10981000BDE8F88F8082030038B502280BD84309D1
:10982000374A52F8232000F01F0101238B401A42CF
:1098300010D0012200E000222AB3324B03EB800358
:109840009B78002B57D12F4B03EB8003DB781BB1A8
:10985000002038BD0022EFE74409294900F01F032A
:10986000012505FA03F251F8243023EA020341F8F6
:1098700024300024234B23F8204001462846FFF7DC
:109880002BFF204638BDC31E9BB25BB95C091E4945
:1098900051F8244003F01F03012101FA03F31C4295
:1098A00000D00A460AB9052038BDC11E01EB81036C
:1098B0009A00164B13449B78FBB9144B1344DB7886
:1098C0000BB1002038BD4C090F4801F01F020123E5
:1098D00003FA02F250F8243023EA020340F824305D
:1098E00001EB810293000024084AD4520220FFF7C2
:1098F000F3FE204638BD002038BD002038BD00BF33
:10990000443500205C3500205435002048360020C6
:1099100030B58DB005460C46012905D0022C0BD080
:10992000032C11D00DB030BD7846124B1B680BB123
:109930009847F3E700DEF1E778460E4B1B680BB162
:109940009847EDE700DEEBE72C22002101A80EF09E
:109950003FF919238DF8043002238DF80830039560
:10996000054BDA6805921B69069301A803F018FD00
:10997000D8E700BFA4600020A835002008B5114634
:109980000020FFF7C5FF08BD08B508461146FFF7E0
:10999000BFFF08BD08B50022054B1A70054806F048
:1099A00095FF00B908BD044807F02EFAFAE700BF9A
:1099B000A6350020A8350020F031002070B50546FE
:1099C0000C4616464FF6FF730B8004F057F83070C4
:1099D000022822D0032840D0012840D0002070BDAA
:1099E00003EB83018A0020498A5A954212D0013341
:1099F000ABB921884FF6FF729142F1D15A091B4948
:109A000051F8221003F01F00012282401142E7D1D9
:109A10002380ECE72380012070BD0023E8E70020CD
:109A200070BD134A32F82320954213D00133022B24
:109A300017D821884FF6FF729142F2D15A090D4989
:109A400051F8221003F01F00012282401142E8D198
:109A50002380EBE72380012070BD0023E7E700238C
:109A6000E5E7002070BD00BF4836002054350020D7
:109A70005C35002044350020002942D070B582B00A
:109A80000E46144605460DF1070201A9FFF796FFA1
:109A90008CB99DF80730032B0DD0102048B9BDF8C4
:109AA0000420328034B3184B03EB82039A780132DE
:109AB0009A7002B070BD012C10D0B8B9BDF8041076
:109AC0004FF6FF73994213D02846FFF7B1FBBDF85C
:109AD00004100120FFF79CFD0020DFE79DF8073010
