:020000022000DC
:1040000002F0032085530200AD5302003147020045
:10401000B1530200B3530200B55302000000000088
:10402000000000000000000000000000B753020084
:10403000B953020000000000BB530200BD53020050
:10404000BF530200BF530200BF530200BF53020020
:10405000BF530200BF530200BF530200BF53020010
:10406000BF530200BF530200BF530200BF53020000
:10407000BF530200BF530200BF530200BF530200F0
:10408000BF530200BF530200B16B0200BF530200D6
:10409000BF530200BF5302009D470200BF530200FE
:1040A000BF530200BF530200BF530200BF530200C0
:1040B000BF530200BF5302000000000000000000D8
:1040C000BF530200BF530200BF530200BF530200A0
:1040D000BF530200BF530200BF530200BF53020090
:1040E000BF530200BF530200BF5302000000000094
:1040F00000000000BF53020000000000BF53020098
:1041000000000000000000000000000000000000AF
:10411000000000000000000000000000000000009F
:10412000000000000000000000000000000000008F
:10413000000000000000000000000000000000007F
:10414000000000000000000000000000000000006F
:10415000000000000000000000000000000000005F
:10416000000000000000000000000000000000004F
:10417000000000000000000000000000000000003F
:10418000000000000000000000000000000000002F
:10419000000000000000000000000000000000001F
:1041A000000000000000000000000000000000000F
:1041B00000000000000000000000000000000000FF
:1041C00000000000000000000000000000000000EF
:1041D00000000000000000000000000000000000DF
:1041E00000000000000000000000000000000000CF
:1041F00000000000000000000000000000000000BF
:1042000010B5054C237833B9044B13B10448AFF310
:1042100000800123237010BD7032002000000000D8
:104220008CF102000C4B43B10C480D4910B5AFF3B3
:1042300000800C48036823B910BD0A48036833B9ED
:104240007047094B002BF7D0BDE810401847064BCC
:10425000002BF5D0184700BF000000008CF10200D1
:10426000743200206832002000000000154B002B43
:1042700008BF134B9D46A3F5803A00218B460F469D
:104280001348144A121A09F05DFF0F4B002B00D09F
:1042900098470E4B002B00D09847002000210400C7
:1042A0000D000D48002802D00C48AFF3008009F043
:1042B000FBFE2000290000F0CFF809F0E1FE00BF6E
:1042C0000000080002F003200000000000000000D1
:1042D00070320020245E002000000000000000007A
:1042E0002DE9F047A8B008AF04464FF0A0434FF4C3
:1042F0000052C3F808250022C3F80C2581684A68DB
:1043000091F90D300078CD7B0E7C91F811E091F899
:1043100012C091F81380097D0691CDF81480CDF874
:1043200010C0CDF80CE00296019500903149384656
:1043300009F0CCFF304B1B6813F4804F03D02F4B98
:104340001B68032B0CD84FF0A0434FF40052C3F866
:104350000C250022C3F808258037BD46BDE8F0874C
:10436000EA4694F801804FEA4803083323F0070334
:10437000ADEB030D08ADAC46002312E06268D25CE1
:1043800059004FEA12191E4E306810F809000CF857
:104390001300013102F00F023068825C0CF801203A
:1043A00001334345EAD3002305F818302F2115487F
:1043B00009F0B8FF88B12F21124809F0B3FF411C62
:1043C000114BD3F8043502950197104A0092502200
:1043D000042003F09BF9D546B5E75C21094809F0B4
:1043E000A1FF28B15C21074809F09CFF411CE7E7C9
:1043F0000449E5E750EB0200F0310020EC310020E9
:10440000F431002008EB020000B0004098EB0200FD
:1044100008B58023024A0021024805F087F808BD4C
:104420008C3200200C33002010B51221084804F013
:104430004DFF58B1044612220649113009F077FEAB
:10444000FF2323712146024804F08EFF10BD00BFF8
:104450000C330020ACEA020000B583B00D230AE063
:104460001F2B0CD81A464FF0A04102F5E072032032
:1044700041F822000133102BF2D90D230DE003F097
:104480001F023B49F1E71F2B54D818464FF0A041BB
:1044900001228240C1F808250133102BF3D9354A97
:1044A00004214FF4804003F015F9334B1B6813F4DB
:1044B000804F17D0314B1B68032B13D92F21304865
:1044C00009F030FF002839D02F212D4809F02AFFAC
:1044D000411C2C4BD3F804352B4A00928B2204202C
:1044E00003F014F900F06EFA284801F009FCFFF718
:1044F0008FFFFFF799FF204B1B6813F4804F16D0F6
:104500001E4B1B68032B12D92F211D4809F00AFFEF
:1045100008B32F211A4809F005FF411C194BD3F8A5
:1045200004351B4A00929522042003F0EFF801F0B5
:10453000CFFAFCE703F01F000D49A9E75C21104802
:1045400009F0F0FE28B15C210D4809F0EBFE411C9A
:10455000BFE70B49BDE75C21094809F0E3FE28B13C
:104560005C21074809F0DEFE411CD7E70449D5E786
:1045700000030050A9760200F0310020EC31002049
:1045800008EB020000B00040C0EA0200E142020075
:10459000ECEA020048DF704710DF704760DF7047C9
:1045A00061DF70474FF0A0434FF4F032C3F80825A5
:1045B000C3F80C25EFF3108372B60028FDD17047C5
:1045C00010B582B00446164B1B6813F4804F04D11B
:1045D0002046FFF7E7FF02B010BD2F21114809F078
:1045E000A1FE78B12F210F4809F09CFE411C0E4B13
:1045F000D3F8043501940D4A00924E22002003F0B6
:1046000085F8E5E75C21074809F08CFE28B15C21BC
:10461000044809F087FE411CE9E70249E7E700BFCB
:10462000F0310020D4EB020000B0004018EC020092
:1046300070B584B00C46194B1B6813F4804F04D03E
:1046400005461646164B1B6823B92046FFF7AAFFFE
:1046500004B070BD2F21134809F064FE88B12F21EA
:10466000104809F05FFE411C0F4BD3F80435039648
:10467000029401950D4A00927022012003F046F841
:10468000E3E75C21074809F04DFE28B15C210548AD
:1046900009F048FE411CE7E70249E5E7F031002058
:1046A000EC310020D4EB020000B00040ECEC020042
:1046B00070B584B0194B1B6813F4804F05D00646C3
:1046C0000D461446164B1B6823B90120FFF76AFFFD
:1046D00004B070BD2F21134809F024FE88B12F21AA
:1046E000104809F01FFE411C0F4BD3F80435039608
:1046F000029501940D4A00924822012003F006F829
:10470000E3E75C21074809F00DFE28B15C2105486C
:1047100009F008FE411CE7E70249E5E7F031002017
:10472000EC310020D4EB020000B00040B4EB0200FA
:1047300000B583B0154B1B6813F4804F05D10120E1
:10474000FFF730FF03B05DF804FB2F21104809F09C
:10475000E9FD70B12F210E4809F0E4FD411C0D4B1D
:10476000D3F804350C4A00925422002002F0CEFF08
:10477000E5E75C21064809F0D5FD28B15C21044835
:1047800009F0D0FD411CEAE70149E8E7F0310020DB
:10479000D4EB020000B00040A4EB020000B583B0EF
:1047A00002E0019801F0A6FA01A8FFF7F3FE002845
:1047B000F7D05723ADF8023005E0084801F098FA29
:1047C0005723ADF802300DF102010448FFF7E8FE6F
:1047D0000028F2D003B05DF804FB00BFA033002036
:1047E00010B584B0484B1B6813F4804F03D0474B7F
:1047F0001B68032B36D8464B0393039B0293424B13
:104800001B6813F4804F03D0404B1B68032B4AD81E
:1048100002A8FFF7C3FE0446039B029A9A421ED0E9
:10482000394B1B6813F4804F19D0384B1B68012B90
:1048300015D92F21374809F075FD002856D02F21B2
:10484000344809F06FFD411C334BD3F80435029A0C
:104850000192324A00928C22022002F057FF204639
:1048600004B010BD2F212B4809F05CFD70B12F2141
:10487000284809F057FD411C274BD3F80435284A36
:1048800000927A22042002F041FFB4E75C21214823
:1048900009F048FD28B15C211E4809F043FD411C88
:1048A000EAE71C49E8E72F211A4809F03BFD80B1EF
:1048B0002F21184809F036FD411C174BD3F8043559
:1048C000039A0192174A00928322042002F01EFFED
:1048D0009EE75C210F4809F025FD28B15C210D48B9
:1048E00009F020FD411CE8E70A49E6E75C21094898
:1048F00009F018FD28B15C21064809F013FD411CA0
:10490000A2E70449A0E700BFF0310020EC3100200D
:10491000B8310020D4EB020000B00040B0EC02003F
:1049200084EC0200A0EC020000B583B002AB43F8B7
:10493000040D20491846FFF72FFEA8B91E4B93F827
:1049400016335B09012B16D9042B16D0052B10D07A
:104950000123A3B942F2020008BBFFF741FF18BBD5
:10496000002003B05DF804FB144A9321FFF7A0FE7A
:10497000E4E70023EDE70023EBE70023E9E7104B32
:104980009B682BB94FF480020B4B1A600020E3E7C1
:104990000B4A136843F4800313600020DCE7074AE6
:1049A0009421FFF785FED8E7044A9721FFF780FEA0
:1049B000D6E700BF3146020000E100E0D4EB020080
:1049C000985D002000B587B04F4B1B6813F4804FF3
:1049D00003D04E4B1B68032B28D84D4B186805900D
:1049E000FFF7A2FF484B1B6813F4804F03D0474BDF
:1049F0001B68032B3BD800230493059B0293454B74
:104A0000039302A800F0E2FF002851D13E4B1B683F
:104A100013F4804F03D03D4B1B68032B4DD801F09E
:104A20002FF800286AD107B05DF804FB2F213A481F
:104A300009F078FC70B12F21374809F073FC411C54
:104A4000364BD3F80435364A0092B522042002F0E2
:104A50005DFEC2E75C21304809F064FC28B15C21AE
:104A60002D4809F05FFC411CEAE72B49E8E72F21BC
:104A7000294809F057FC70B12F21274809F052FC52
:104A8000411C264BD3F80435264A0092BF2204204D
:104A900002F03CFEAFE75C211F4809F043FC28B15F
:104AA0005C211D4809F03EFC411CEAE71A49E8E791
:104AB000194AC421FFF7FCFDA8E72F21164809F089
:104AC00031FC70B12F21144809F02CFC411C134B10
:104AD000D3F80435144A0092C622042002F016FED0
:104AE0009DE75C210C4809F01DFC28B15C210A48B7
:104AF00009F018FC411CEAE70749E8E7064AC72124
:104B0000FFF7D6FD8FE700BFF0310020EC31002029
:104B1000A0EB0200C1450200D4EB020000B000404F
:104B200034EC020050EC02006CEC020002460E4B2A
:104B30001B6813F0010F0AD00C4B1B8898420FD34F
:104B40000A48408803449A420CDB002300E000231B
:104B5000184623B14A8001230B7000234B60704735
:104B60000023F5E70123F3E7FC3300201035002094
:104B70004FF6FF730B8000230F2B25D830B40DE0C8
:104B80005A09124C54F8224003F01F050122AA4092
:104B9000144208D10B8001330F2B12D80C884FF62A
:104BA000FF729442ECD00A4A32F823208242F2D1BA
:104BB000074A02EB8302D278002AECD00B80012056
:104BC00000E0002030BC704700207047F833002020
:104BD0000434002030B583B005460C460DF10601C3
:104BE000FFF7C6FF034620B1658003222270002232
:104BF0006260184603B030BD0B88072B01D8013323
:104C000000E000234FF6FF720A80072B1DD830B456
:104C100009E003EB8304A2000D4CA25A82420ED09D
:104C20000133072B0ED85A090A4C54F8224003F0DE
:104C30001F050122AA401442EBD10B80F0E70B8044
:104C4000012000E0002030BC70470020704700BF0A
:104C5000883600200034002010B5044628B10F4BE0
:104C60009C420AD24FF6FF7010BD78460C4B1B6871
:104C70000BB19847F3E700DEF1E703F58A739C4236
:104C800002D94FF6FF7010BDA3F58A70201A054CAB
:104C9000A4FB0030C0F38F1010BD00BF2A350020E8
:104CA000A45D0020C94216B210B5044628B10F4BCE
:104CB0009C420AD24FF6FF7010BD78460C4B1B6821
:104CC0000BB19847F3E700DEF1E703F58A739C42E6
:104CD00002D94FF6FF7010BDA3F58A70201A054C5B
:104CE000A4FB0030C0F38F1010BD00BF543500206E
:104CF000A45D0020C94216B210B5044658B1144B49
:104D00009C4202D39A339C420DD9124B9C4213D23F
:104D10004FF6FF7010BD78460F4B1B680BB19847DC
:104D2000EDE700DEEBE7A3F19A00201A0B4CA4FBA1
:104D30000030C0F30F1010BD02D94FF6FF7010BD48
:104D4000E01A064CA4FB00300009083080B210BD08
:104D50004C340020FC340020A45D0020A38B2EBA2C
:104D6000A8B110B4044600236BB9162202FB03F26B
:104D700008498A5A944201D00133F5E7162202FB12
:104D80000313181D00E000205DF8044B704700205D
:104D9000704700BFF834002070B505460E46144633
:104DA000106818B1FFF7A8FF013002E0002000E012
:104DB000013007281FD84309104A52F8232000F079
:104DC0001F0101238B401A42F2D016230C4A03FB29
:104DD00000235B88AB42EBD1162303FB00235B79F6
:104DE000734013F03F0FE3D11622054B02FB003353
:104DF0000433236070BD0023236070BD4434002061
:104E00004834002070B506460D464FF6FF730B8000
:104E100000240BE004EB8402930010481844102295
:104E20003146043009F074F998B10134072C13D8D5
:104E300063090B4A52F8232004F01F0101238B4021
:104E40001A42E7D12A884FF6FF739A42EDD12C809F
:104E5000EBE72C80012070BD002070BD883600205B
:104E60000034002030B583B005460C46486820B1B8
:104E70000DF10601FFF7C6FF18B94FF6FF73ADF845
:104E800006300DF106012846FFF7B6FE0246A8B12E
:104E9000BDF8063003EB830399000B4B0B44DB7822
:104EA0007BB1658002232370BDF8061001EB810100
:104EB00001FA03F0044B034404336360104603B06B
:104EC00030BD0022FAE700BF8836002038B504461E
:104ED0000D4629B1286858B1FFF7BEFE01300AE03F
:104EE0007846154B1B680BB19847F3E700DEF1E7F6
:104EF000002000E0013003281BD843090F4A52F874
:104F0000232000F01F0101238B401A42F2D05C23C2
:104F10000B4A03FB00239B7C634013F07F0FE9D116
:104F20005C2303FB00F010301346034402332B6074
:104F300038BD00232B6038BDA45D0020143500204F
:104F40001835002070B504460E46154662B19CB176
:104F50002046FFF781FE4FF6FF73984214D02A4691
:104F60003146FFF719FF70BD7846094B1B680BB13E
:104F70009847ECE700DEEAE77846054B1B680BB183
:104F80009847E5E700DEE3E700232B6070BD00BF34
:104F9000A45D002038B505460C4621B12846FFF730
:104FA000DFFE206038BD7846034B1B680BB1984785
:104FB000F4E700DEF2E700BFA45D002070B505460F
:104FC0000E4629B1306858B1FFF76EFE441C19E057
:104FD0007846214B1B680BB19847F3E700DEF1E7F9
:104FE00000240FE0012100E001211C4B5C2202FBA8
:104FF00004F41A1982F83C10383423440433336023
:1050000070BD0134032C24D86309154A52F82320BB
:1050100004F01F0101238B401A42F2D065B15C21DC
:1050200001FB04F150310D4B19440822043128468C
:1050300009F06EF80028E4D10A4B1B78002BD3D07E
:105040005C2303FB04F3054AD35A002BCAD000218A
:10505000CBE70023336070BDA45D0020183500202D
:10506000143500200E35002038B504460D4600F0FA
:10507000A1FC02280FD0032808D0012801D000206D
:1050800038BD29462046FFF751FD38BD2946204648
:10509000FFF7A0FD38BD29462046FFF7E3FE38BDE7
:1050A00006207047064B1B68082B01D00020704774
:1050B000044B1B680BB1002070470120704700BFF4
:1050C0003001001034010010064B1B68082B01D082
:1050D00000207047044B1B680BB100207047012073
:1050E000704700BF3001001034010010064B1B68F0
:1050F000082B01D000207047044B1B680BB1002027
:1051000070470120704700BF3001001034010010CB
:10511000064B1B68082B01D000207047044B1B680E
:105120000BB1002070470120704700BF3001001014
:1051300034010010064B1B68082B01D0002070477B
:10514000044B1B680BB1002070470120704700BF63
:105150003001001034010010064B1B68082B01D0F1
:1051600000207047044B1B680BB1002070470120E2
:10517000704700BF3001001034010010064B1B685F
:10518000082B01D000207047044B1B680BB1002096
:1051900070470120704700BF30010010340100103B
:1051A000014A024B1A6070470090D003B8310020CA
:1051B00008B5FFF777FF40B14FF080430022C3F8F6
:1051C0000C21C3F81021C3F83825FFF77DFF002814
:1051D00046D04FF08052D2F80414604BC3F820152B
:1051E000D2F80814C3F82415D2F80C14C3F8281503
:1051F000D2F81014C3F82C15D2F81414C3F83015D3
:10520000D2F81814C3F83415D2F81C14C3F840159A
:10521000D2F82014C3F84415D2F82414C3F8481562
:10522000D2F82814C3F84C15D2F82C14C3F8501532
:10523000D2F83014C3F85415D2F83414C3F86015FA
:10524000D2F83814C3F86415D2F83C14C3F86815C2
:10525000D2F84014C3F86C15D2F84424C3F8702572
:10526000FFF744FF10B13E4A3E4B1A60FFF750FF74
:1052700018B1FB223C4BC3F81825FFF75BFF48B180
:105280003A490B6823F00F03394A126802F00F0203
:1052900013430B60FFF760FF18B14FF40072354BFA
:1052A0001A60FFF76BFF60B14FF08043D3F8003412
:1052B00013F0010F05D06FF001024FF08043C3F8E7
:1052C00000242D4AD2F8883043F47003C2F88830A5
:1052D000BFF34F8FBFF36F8F4FF01023D3F800321F
:1052E000002B08DB4FF01023D3F80432002B02DB35
:1052F000FFF756FF08BD0122204BC3F804251F4BC2
:10530000D3F80034002BFAD012224FF01023C3F848
:1053100000221A4BD3F80034002BFAD012224FF09F
:105320001023C3F80422154BD3F80034002BFAD015
:105330000022124BC3F80425104BD3F80034002B85
:10534000FAD0BFF34F8F0C49CA6802F4E0620C4BED
:105350001343CB60BFF34F8F00BFFDE700C0004099
:10536000488103008C56004000F00040E40E0040ED
:10537000580200104096024000ED00E000E00140BD
:105380000400FA050649074A074B9B1A03DD043B54
:10539000C858D050FBDCFFF70BFFFEF767FF00009B
:1053A00098F10200B831002070320020FEE7FEE7DD
:1053B000FEE7FEE7FEE7FEE7FEE7FEE7FEE7FEE7C5
:1053C00038B5054618B10A4B1C686CB938BD78462B
:1053D000084B1B680BB19847F5E700DEF3E754F87C
:1053E000043C284698472468002CF8D138BD00BFFB
:1053F00028370020A45D002010B5044608B1A0475E
:1054000010BD7846034B1B680BB19847F7E700DEE9
:10541000F5E700BFA45D002008B508220221084876
:1054200003F014F838B1074A91684160127B0272A8
:1054300003F050F808BD044803F092F908BD00BF1E
:10544000303700206C370020CC3100200E4B1B7809
:10545000CBB910B50D4B5C6804F50054B4F1807FF6
:1054600000D910BD04220121094802F0EFFF30B13C
:10547000446003F02FF80122034B1A70F1E705484E
:1054800003F06EF910BD7047803700206C370020A4
:1054900030370020BC31002000B58DB003908DF86E
:1054A00008100CA8022300F82C3DFFF789FF0DB06F
:1054B0005DF804FB10B58CB00C469AB94B88012BF3
:1054C00028D1164B1B7823B97846154B1B683BB186
:1054D00098476268134B5A600022104B1A7019E00B
:1054E00000DEF6E7032A04D078460D4B1B689BB11B
:1054F00098472C22002101A808F024FE19238DF8DA
:1055000004300394084BDA6805921B69069301A8DE
:10551000FFF756FF0CB010BD00DEEAE78037002031
:10552000A45D00206C3700203037002038B500E043
:1055300020BF03F037F90028FAD001F073FB0022F6
:1055400011461B4802F0CCFE00252C4605E0051D47
:1055500002460021164802F0C3FE30B14388012BF9
:10556000F5D0022BF4D1041DF2E7A4B19DB122685D
:10557000104B9A6022791A73AC4201D9237993B106
:105580002A680C4B1A600B4B1A685A60FFF75EFFD3
:1055900001F068FB38BD074B00221A609A601A734D
:1055A000FFF73AFFEFE70022024B1A60EBE700BF7C
:1055B000303700206C37002008B503F03BF9A0F528
:1055C000805008BD00B587B018220021684608F059
:1055D000B9FD00230293FFF7EFFF00900123019331
:1055E000064B03936946064803F072F810B907B0FA
:1055F0005DF804FB034803F0B3F8F8E7B554020084
:1056000030370020DC31002008B5142200210B487F
:1056100008F098FD00F02EFE094B5860094A9A6088
:10562000094ADA6000221A615A6108490A7018466C
:1056300000F000FDFFF7C6FF08BD00BF6C3700207B
:105640005437002061570200008793038137002000
:1056500038B501F0E7FA174B1B7B23B1082401F0A2
:1056600001FB204638BD134B9B7B0BB10824F6E7AA
:10567000104B1A8A41F282639A4204D80E4B1B786F
:105680002BB1012300E001231BB90824E7E7002325
:10569000FAE7084D01232B7300242C82AB680133F9
:1056A000AB60FFF7B9FEA868297B0138FFF7F4FE6D
:1056B000D5E700BF6C3700208137002010B501F01E
:1056C000B1FA244B5B7B9BB1224B9B7B03BB214BF1
:1056D0001A8A41F282639A4204D81F4B1B782BB17D
:1056E000012300E00123ABB1012302E00023FAE72C
:1056F00000231C4643B3174B00225A731B7B5BB13C
:10570000012B14D07846154B1B680BB398471BE050
:105710000023EEE70023ECE7FFF79AFFA0B17846FD
:105720000E4B1B680BB198470EE000DE0CE0094BF6
:10573000002119605960197319829868FFF7ACFE4F
:10574000FFF76AFEFFF782FE01F08CFA204610BDDB
:1057500000DEF9E76C37002081370020A45D0020CF
:1057600010B5264B1B7B4BB1012B27D07846244B21
:105770001B68002B3DD0984701240DE01F4B1A8A6F
:1057800041F282639A4204D81E4B1B7883B10123F5
:1057900000E0012373B901241CB1184A138A0133B4
:1057A0001382164B5B8A13B1013B144A538210BD1E
:1057B0000023EFE7FFF782FF0024EDE70F4B1A8A83
:1057C00041F282639A4204D80E4B1B787BB10123CD
:1057D00000E001231C467BB142F2B0139A4203D988
:1057E0000122064B5A730024FFF768FFD4E7002319
:1057F000F0E700DE0124CFE70124CDE76C3700207D
:10580000A45D00208137002010B5184B1A685B6832
:105810009A4225D20446154B1B7B012B15D0144B05
:10582000934214D9002028B9104B1A685B68403B9A
:105830009A4212D2EFF3108072B60C4A1368591CC8
:105840001160236080B962B610BD0A4BE8E70122FF
:10585000064B5A73FFF732FFE5E7FFF7F7FDE9E77D
:10586000FFF7F4FD0F2010BD002010BD6C370020A5
:10587000FFFF7F0000E0FF0008B568B90E4B1B6812
:1058800023B978460D4B1B6873B198470A4A1368D1
:10589000013B136053B108BD0122094B9A73064ABC
:1058A00013680133136008BD00DEEFE70022044BEC
:1058B0009A73FFF703FFEEE72C370020A45D00206A
:1058C0006C37002038B505460C4601F0ABF9254B86
:1058D0001B7B002B34D1234B5B8A2BBB1CB9214B88
:1058E0009B68AB4205D3FCB11E4B9B6801339D42C4
:1058F0001AD91C4B9B682A339D4223D8194B9B7B9A
:1059000003BB184CA56023606360238242F60652F5
:10591000628263732373FFF77FFDFFF797FD217B9F
:10592000A068FFF7B9FD0DE064B10E4B9B68013331
:105930009D4207D101220B4B5A73FFF7BFFE01E0D6
:10594000012B02D001F08EF938BD002CFAD1054BA5
:105950009B689D42F6D10122024B5A73FFF7AEFEBF
:10596000F0E700BF6C370020014B9868704700BF1C
:105970006C370020054B1B7B012B02D0034B986832
:105980007047024B98680138704700BF6C370020A1
:10599000044B9B68584010F0010F00D0013B1846A3
:1059A000704700BF6C370020014B187B704700BF69
:1059B0006C37002018B1830B024AD05C704700207E
:1059C000704700BF0CED020012DF704730B583B0A6
:1059D000284B1B781BB10824204603B030BD00289B
:1059E00046D005464268244B1A6004F0C3FC0DF112
:1059F0000700FFF7E9FF04460028EDD19DF80730C6
:105A0000012B01D00224E7E704F0C8FC00F000FB02
:105A100001F0D2F8E87800F079F900F093FF03F094
:105A200057FE04F06DFC03F027FC07F053F902F079
:105A300021FC03F0EBF8284605F072FE284601F041
:105A40008DFC42F2107002F0F9FE284606F04EFF7F
:105A5000FFF726FB18B1062801D00446BCE700F08A
:105A60002DFD0022054B1A600122024B1A70B3E78C
:105A70000E24B1E783370020A45D00208437002086
:105A800010B5104B1B7813B90824204610BD0E4BDF
:105A90001B780BB10824F8E700F07AFF20B17846B4
:105AA0000A4B1B685BB1984703F028FE04460028A8
:105AB000EBD104F01FFB0122034B1A70E5E700DE77
:105AC000F2E700BF8337002082370020A45D00206A
:105AD000F0B58DB004F04EFB05460027E9E02B7DC4
:105AE00003F00F03022B41D0237801331C446A7D5D
:105AF000052A40F2C88002F112032B4405339C4270
:105B000080F0C1806378163B152BEDD801A252F8C6
:105B100023F000BF6D5C0200E95A0200E95A02005E
:105B2000E95A0200E95A0200E95A0200E95A020061
:105B3000E95A0200E95A0200E95A0200E95A020051
:105B4000E95A0200E95A0200E95A0200E95A020041
:105B5000E95A0200E95A0200E95A0200E95A020031
:105B6000D55B0200DF5A0200EF5B0200217806AA33
:105B70000139A01C01F04AFD07460028B4D0554B5E
:105B80001B6813F0400FAFD0534B1B68012BABD9F0
:105B90002F21524808F0C6FB78B12F214F4808F05A
:105BA000C1FB411C4E4BD3F8043501974D4A00927E
:105BB000F822022001F0AAFD96E75C21474808F090
:105BC000B1FB28B15C21454808F0ACFB411CE9E77A
:105BD0004249E7E72B7D03F00F03022B84D12178A4
:105BE000013906AAC9B2A01CFFF75AFA7CE72B7D3F
:105BF00003F00F03022B7FF477AF2178013906AA57
:105C0000C9B2A01C02F08EFE074600283FF46CAF1C
:105C1000304B1B6813F0400F3FF466AF2E4B1B68F0
:105C2000012B7FF661AF2F212C4808F07BFB80B160
:105C30002F212A4808F076FB411C294BD3F8043564
:105C40000197294A009240F20B12022001F05EFDFA
:105C50004AE75C21214808F065FB28B15C211F4818
:105C600008F060FB411CE8E71C49E6E762884FF654
:105C7000E4639A427FF438AF217806AA0339201DE5
:105C8000FFF70EFA30E7194B196861B106AB0593BF
:105C90002B7DC3F303038DF80C30063A8DF80D20ED
:105CA000049603A88847284604F03EFA04F062FAF6
:105CB000054665B100238DF8183007AC2E460FCE8F
:105CC0000FC43368236005F11D0634460FE73846DC
:105CD0000DB0F0BDF0310020EC31002010ED0200DD
:105CE00000B0004054ED020080ED02008437002037
:105CF0000020704708B500F0E9FD002008BD000055
:105D0000014B1860704700BF84370020072814D863
:105D1000DFE800F0080C1504110F0A066420704734
:105D200014207047FA2070471E2070474FF4FA7015
:105D30007047322070474B207047FA2070479620FA
:105D40007047000010B50446436923B178461C4BE8
:105D50001B686BB198471B4B1B685BB16068194BA4
:105D60001B685B68C31A002B04DB164B196812E032
:105D700000DEF0E7134A136863611460D3680133EF
:105D8000D360E3B978460E4B1B680BB1984710BD42
:105D900000DE10BD19464B691BB15A68121A002A61
:105DA000F8DB63614C61074AD3680133D36033B9D0
:105DB0007846034B1B680BB1984710BD00DE10BD41
:105DC000A45D00208C370020134B5B681BB310B51B
:105DD0000BE00023237005E000DE02232370204641
:105DE000FFF7B0FF0C4B5B68A3B10B4B5C686269BB
:105DF0005A60002363612378DBB2052BE9D0237856
:105E0000DBB2012BE9D07846044B1B68002BE3D0B2
:105E10009847E2E710BD70478C370020A45D002052
:105E200070B5244E15E06369336000236361214A35
:105E3000D368591ED16023B978461F4B1B68C3B184
:105E400098471C4A9368013B936000232370032DFD
:105E500011D03468002C2BD0164B9B68002B27D018
:105E60002578EDB2EB1EDBB2012BDCD904F1140670
:105E7000EFE700DEE5E7237843B12378DBB2062BBA
:105E800004D078460C4B1B6873B19847636923B103
:105E90007846094B1B684BB1984701232370054B8B
:105EA0005A6862615C60D4E700DEEFE700DEF4E789
:105EB00070BD00BF8C370020A45D002038B50546BA
:105EC00016E000DE2AE09847A368002B37D00623AF
:105ED0002370A36821692846984700F0CBF905464E
:105EE000FFF79EFFFFF770FF2378DBB2062B2ED063
:105EF000204B1B68002B3BD01E4B1B685B685B1B59
:105F0000642B35D51B4B1C682378DBB2022B05D0E4
:105F10007846194B1B68002BD3D098476269154B04
:105F20001A6000226261DA68511ED960002ACBD162
:105F30007846114B1B68002BC5D100DEC4E77846BC
:105F40000D4B1B680BB19847C1E700DEBFE7E26865
:105F500012B900232370CBE76368134463605B1BB3
:105F6000642BF9D4022323702046FFF7EBFEBFE732
:105F700038BD00BF8C370020A45D002008B5164B4B
:105F80001B68002B26D0144B1B685B68C31A13F1E7
:105F9000640F0DD40223114A00F16401012000F0C6
:105FA0002DF9B8B178460E4B1B6893B1984708BDE0
:105FB000094B19680223094A4968012000F01EF9BB
:105FC00040B17846064B1B680BB1984708BD00DE10
:105FD00008BD00DE08BD00BF8C3700200160020054
:105FE000A45D002008B5FFF71BFFFFF7EDFE00F0F2
:105FF00041F9FFF763FF00F03DF9FFF7BFFF08BD70
:1060000008B5024B186800F077FE08BD88370020FD
:1060100008B510220021044808F094F8034800F065
:1060200041FE034B186008BD8C370020E55F02007D
:106030008837002038B50446002827D0A368002BF5
:106040002CD0EFF3108572B60023636123784BB137
:106050002378DBB2062B05D07846164B1B68002B45
:1060600024D09847636923B17846124B1B68FBB173
:10607000984701232370104B5A6862615C6005B930
:1060800062B60E4B186800F037FE38BD7846094BF3
:106090001B680BB19847D1E700DECFE77846054B88
:1060A0001B680BB19847CCE700DECAE700DED9E7F2
:1060B00000DEDEE7A45D00208C370020883700205A
:1060C00038B50446E0B1EFF3108572B62378DBB241
:1060D000062B1DD02378DBB2012B1ED02378CBB149
:1060E0002378033BDBB2012B03D90D4A93680133BC
:1060F0009360042323700B4B186800F0FDFD09E04A
:106100007846094B1B680BB19847DCE700DEDAE7FD
:106110000023237005B962B638BD05232370F9E763
:106120008C37002088370020A45D002070B50E4613
:106130000446E0B1EFF3108572B62378FBB1237803
:10614000DBB2062B1BD02378DBB2012B3BD02378AC
:10615000DBB2052B37D02378033BDBB2012B03D90D
:106160001A4A936801339360032323701FE0784633
:10617000174B1B680BB19847DCE700DEDAE72378A2
:1061800043B12378DBB2062B04D07846104B1B6852
:10619000ABB19847636923B178460D4B1B6883B157
:1061A000984701232370094B5A6862615C606660FE
:1061B000084B186800F0A0FD05B962B670BD00DE9E
:1061C000E8E700DEEDE701232370F0E78C370020DD
:1061D000A45D00208837002000F1100301229A40BE
:1061E000054BC3F8042300F5A87243F82210503081
:1061F000002243F82020704700800040022801D987
:106200000720704738B533F0030401D00A2038BDA9
:10621000EFF31084104D2C6072B6104C44F820201F
:106220000F4A42F820100F4A135400220E4B43F835
:1062300020200E4B1B7833B10D4B1B68CA1A07D4B4
:106240001146FFF7C9FF044B186818B962B638BD8C
:106250005A1AF5E7002038BDC0370020A0370020CB
:10626000B43700209C370020C8370020AC3700200E
:10627000B0370020EFF310830C4A136072B60C4B5A
:106280001B787BB10B4B0022C3F84C210122DA644E
:10629000D3F84C05084B1B681844044B1B6803B922
:1062A00062B67047054B1868F7E700BFC03700209B
:1062B000AC37002000800040B0370020C4370020F9
:1062C00038B5002418E078461E4B1B680BB1984780
:1062D00020E000DE1EE00146284600F089FC20B1E7
:1062E0007846184B1B684BB3984704F150030021C4
:1062F000154A42F823100134022C21D804F150032E
:10630000114A52F82330002BF5D0104B53F824508B
:10631000002DD8D000220D4B43F8242004F11002A8
:1063200001239340084AC2F80833FFF7A3FF084B44
:106330001B5D13F0020FCED0A847D6E700DED4E7EE
:1063400038BD00BFA45D002000800040A0370020C1
:106350009C37002070B50546002419E0981A2CE0FF
:106360005E1A2EE02946184600F042FC28B1784615
:106370002B4B1B68002B37D098472A4B53F82430FF
:106380002BB101221A600022264B43F8242001344D
:10639000022C38D8244B04F5A872002143F82210AF
:1063A00004F1500243F8221053F822301F4B53F8E7
:1063B00024201F4B1B68D01AD0D405F17801CE1AC7
:1063C000CED4864212D91B4B53F82430002BD4D0A4
:1063D0000021184A42F82410174A125D12F0020FE9
:1063E000C0D028469847C8E700DEC6E7114B53F8EF
:1063F0002430002BCBD0E0B2511B02D4FFF7ECFECF
:10640000C5E7A91AFAE70D4B1B681BB94FF4807258
:106410000B4B1A60064B1D6001220A4B1A7070BDAF
:10642000A45D0020C837002000800040B437002061
:10643000B0370020A03700209C370020C037002054
:1064400000E100E0AC370020002300E00133022B24
:106450000ED80F4AD25C12F0010FF7D000220C497F
:10646000CA540C4941F823200B4941F82320EDE799
:106470000A4B186000220A4B1A704FF0FF32094B8A
:10648000C3F808234FF48072074BC3F8802170478C
:106490009C370020A0370020C8370020C4370020D8
:1064A000AC3700200080004000E100E0024A1368A1
:1064B00001331360704700BFD437002010B50023AC
:1064C000084A1360084C094AA260094AE260236145
:1064D000FFF7D0FE00F5C330A03060602046FFF724
:1064E000A9FD10BDD4370020D8370020AD640200CC
:1064F000A08601002FDF704730DF704710B40346DD
:1065000000685A68A0EB72109C6882EAF4321A6044
:10651000D9680C445C60014499601044D8605DF80F
:10652000044B704770B582B00D46064608B1002492
:106530000FE07846104B1B680BB19847F7E700DE79
:10654000F5E79DF807103019FFF7D6FF9DF80730E3
:106550001C44AC420DD20DF10700FFF7CBFF9DF8B4
:106560000730002BF7D02A1B9342EAD98DF8072079
:10657000E7E702B070BD00BFA45D002030B583B076
:106580000546002402A840F8044D0421FFF7CAFF85
:10659000074B2B60019B6B60AB60EB6003E0284610
:1065A000FFF7ACFF0134132CF9D903B030BD00BFA5
:1065B000ED5EEAF145DF704746DF704747DF704721
:1065C0002DE9F0431A4BD3F804650027837A5BBBAF
:1065D000184BD3E90045341B24F07F4400256201A9
:1065E0006B01121B63EB0503590241EAD2514FEADA
:1065F000422E1EEB040241EB05034FEA831949EAE0
:1066000092694FEA8218B8EB020269EB0303A418FF
:106610005D41E30B43EA4543426813444360054B45
:10662000C3E90067BDE8F083002383720368F3E7E2
:1066300000B000402838002008B50D4B1B78012B16
:1066400007D0022B0DD078460A4B1B6873B19847D0
:1066500003E002230375012383720022044B1A70A6
:1066600008BD03230375044B8361F6E700DEF4E7FE
:1066700021380020A45D00201038002010B5044609
:106680000023C3600361FFF79BFF2368084A9268F9
:1066900022600121217503B9064B991AA161B1F558
:1066A0007A7F01D3934202D24FF47A73A36110BD73
:1066B0001038002080969800094B03221A75094A69
:1066C0009A611A6840F6D8639A4204D840F6D862B4
:1066D000044B9A60704743F2B062024B9A60704775
:1066E000F03700201038002038B505460024047526
:1066F000012343724068FFF72DFE03F0E3F86B6857
:106700002A6813440C490968283101FB02F10B4A3D
:10671000A2FB0121A3EB91410323094A78392046CA
:10672000FFF76CFD30B17846064B1B680BB19847FC
:1067300038BD00DE38BD00BF0C38002083DE1B43AF
:10674000B9660200A45D002010B50C4631B10369A2
:10675000013303618269036813440360C368013332
:10676000C36001220275826952088261012B0DD03B
:10677000022B19D082690368134417498B4222D82F
:1067800040F6D7639A4221D800231DE0B2F5FA7F84
:1067900005D040F6D8639A42ECD88361EAE7002C32
:1067A000F7D100238361E5E70369022B06D0012BB3
:1067B000E0D1002CDED100238361DBE70268064BC9
:1067C0009B1A8361D6E7002313B110BD0123FBE7B9
:1067D000FFF78AFFF9E700BF80969800437A1BB95C
:1067E00000220E4B1A70704710B5044603F08CF867
:1067F0006068226810440A4B1B68283303FB02F3CD
:10680000084AA2FB0323A0EB93407838FFF71CFE55
:10681000002363720022014B1A7010BD2038002043
:106820000C38002083DE1B4308B50122234B1A726B
:10683000234B1B7813B1234B1B783BB300221F4B18
:106840001A7504281AD8DFE800F00314110C0700A9
:106850001A48FFF713FF22E001211848FFF774FFE1
:106860001DE000211548FFF76FFF18E002F0E2FF7E
:1068700015E0FFF725FD03F00FF810E07846124B06
:106880001B680BB198470AE000DE08E0FFF7F2FC56
:106890000A4B5A68801A18601846FFF7CDFE074B5E
:1068A0001B7D023BDBB2012B04D904480023037299
:1068B000143008BD0148FFF791FFF6E7F0370020DC
:1068C0002138002020380020A45D002008B50438BD
:1068D000032831D8DFE800F016250E02FFF76CFE22
:1068E000002829D07846154B1B680BB1984708BD86
:1068F00000DE08BD7846114B1B680BB1984708BDF8
:1069000000DE08BD0E4840F6D8638360FFF756FEF0
:1069100090B17846094B1B680BB1984708BD00DE63
:1069200008BD0748FFF74AFE30B17846034B1B68A5
:106930000BB1984708BD00DE08BD00BFA45D002074
:106940001038002010B40D4A002313701371012178
:10695000517143F2B064946043F69824D460084ABD
:106960001060084A1370084A1370084A1372537271
:106970001360917253605DF8044B7047103800202B
:106980000C3800202038002021380020F03700206B
:1069900008B50648FFF70EFE034608B1184608BDC5
:1069A0000348FFF70BFE0346F8E700BF2968020023
:1069B00010380020084B1B7D032B09D0074B1B7898
:1069C000012B07D0022B01D0002070470120704717
:1069D0000120704701207047F03700202138002047
:1069E000014B5868704700BFF03700200E4B5B7AB0
:1069F0000BB90020704710B50B4B5C681A68144443
:106A00000A4B1B68283303FB02F3094AA2FB03234A
:106A1000A4EB9344783CFFF72DFC0346201A00D4E6
:106A200010BD181B10BD00BFF03700200C3800202F
:106A300083DE1B43014B187A704700BFF0370020FC
:106A4000EFF3108372B6054A527A22B14FF4807187
:106A5000034AC2F8001103B962B67047F03700204C
:106A600000E100E008B50122024B1A70FFF7E8FFD1
:106A700008BD00BF2138002008B5094B1B782BB199
:106A800048B9084B1B7813B1012300E00023044AE6
:106A9000107013B908BD0023F9E7FFF7D1FFF9E73C
:106AA000203800202138002008B50378012B0ED0B3
:106AB00013B1022B05D008BD436863B180689847C5
:106AC00008BD43683BB1C1688068984708BD43680A
:106AD0000BB18068984708BD4FF48022014BC3F882
:106AE0000021704700E100E030B585B0002404E0EB
:106AF000214B53F8243098470134204B1B689C42AB
:106B000016D261091E4A52F8210004F01F05012324
:106B1000AB401842F0D0EFF3108072B652F821501B
:106B200025EA030342F821300028E1D162B6DFE70D
:106B3000144806F0F7F908E000DEA368E06898471B
:106B4000002323740F4806F0EDF968B10468237C34
:106B5000002BF2D178460C4B1B68002BECD09847E9
:106B6000EBE76846FFF7A0FF6946084805F08FFE8F
:106B70000028F6D005B030BD4C390020483900203F
:106B80006439002068390020A45D002030380020DE
:106B900010B50146054805F04DFE10B1042420460D
:106BA00010BD0446FFF798FFF9E700BF303800201A
:106BB00008B5FFF799FF08BD08B50948094B036000
:106BC00010234360836005F00BFE074806F072F95E
:106BD000064BC02283F812234FF480221A6008BDAE
:106BE00030380020443800206839002000E100E0FF
:106BF00030B585B00C46054648B100238DF800300D
:106C0000019502946846FFF7C3FF05B030BD784692
:106C1000034B1B680BB19847EFE700DEEDE700BFC1
:106C2000A45D002010B5EFF3108472B60A490A681B
:106C3000531C0B6022B94FF48021084AC2F880101F
:106C400023B97846064B1B681BB1984704B962B656
:106C500010BD00DEFAE700BF4439002000E100E08B
:106C6000A45D002010B5EFF3108472B60A4B1B68C8
:106C700023B97846094B1B6863B19847064A1368E5
:106C8000013B13601BB94FF48022054B1A6004B915
:106C900062B610BD00DEF1E744390020A45D00209B
:106CA00000E100E010B50446A8B1104B1B68052BAD
:106CB00004D978460E4B1B68ABB19847EFF31083AD
:106CC00072B60A4A1068411C11600A4A42F8204014
:106CD00003B962B610BD7846054B1B680BB19847E7
:106CE000E3E700DEE1E700DEE8E700BF4839002027
:106CF000A45D00204C39002038B504460F4B1B68BA
:106D0000834204D878460E4B1B68A3B19847EFF333
:106D1000108572B661090B4A04F01F04012303FABF
:106D200004F452F82130234342F82130FFF7D4FE17
:106D300005B962B638BD00DEE9E700BF483900207A
:106D4000A45D00206439002070B50D461646044647
:106D500058B195B1EFF3108372B6A560E6600022DA
:106D60002274246003B962B670BD7846074B1B6875
:106D70000BB19847EDE700DEEBE77846034B1B6865
:106D80000BB19847E6E700DEE4E700BFA45D002012
:106D900038B5044650B1A36883B1EFF3108572B6DD
:106DA000237C9BB1112005B962B638BD78460C4BE7
:106DB0001B680BB19847EEE700DEECE77846084B1E
:106DC0001B680BB19847E8E700DEE6E70123237470
:106DD0002146044806F080F8FFF77EFE0020E2E737
:106DE000A45D00206839002010B5044608B1207C5D
:106DF00010BD7846034B1B680BB19847F7E700DEE0
:106E0000F5E700BFA45D00204B78DB09C3724B7827
:106E100003F07F0383728A78CB781B0243EA024334
:106E20000A791343C3604A798B7943EA02230381C9
:106E30007047000010B5044658B123789BB1E36851
:106E4000B3F1807F11D294F90A30002B09DB0120C5
:106E500010BD7846064B1B680BB19847EDE700DE86
:106E6000EBE7002010BD002010BD002010BD00BFCA
:106E7000A45D002038B504460D460889FEF79AFD4A
:106E8000012805D07846314B1B68002B48D0984725
:106E900095F90A30002B45DBEB68B3F1807F05D311
:106EA00078462A4B1B68002B44D098472B782BB987
:106EB0007846264B1B68002B3ED098476B69002B09
:106EC0003CD02B6903F00102237803F07F0343EAEF
:106ED000C21323706A69127803F0800302F07F0204
:106EE00013432370EA7A637803F07F0343EAC21303
:106EF000DBB26370AA7A03F0800302F07F021343CF
:106F00006370EB681A0CA2701A0AE27023712B8965
:106F10001A0A6271A3716B881A0AE271237238BD72
:106F200000DEB5E77846094B1B680BB19847B3E71D
:106F300000DEB1E700DEB9E700DEBFE77846034BCD
:106F40001B680BB19847BCE700DEBAE7A45D0020E0
:106F500070B582B004460023019303688068DB7A31
:106F600073B10823184404F10C06636801AA314682
:106F7000093001F077FE28B90425284602B070BD1B
:106F80000423EFE7637B012B0FD00120FEF774FC95
:106F90002568FEF7EFFC286120680C30FEF734FC12
:106FA00005460020FEF768FC45B921680198FFF707
:106FB00061FF019B093323610025DEE7019930461B
:106FC00001F0BCFED9E770B588B006460C46154600
:106FD00005220021684607F0B5F83269130203F470
:106FE0007F0343EA0263110A01F47F410B4343EA42
:106FF0001263CDF805300722A1180DF1090007F042
:1070000096F8706904AA6946113005F0B7FF0623A7
:1070100009E0013B9BB2591C625C08A8184410F8B7
:10702000100C42406A54002BF3D108B070BD30B54B
:107030008FB004460AAB00221146006805F0AEFF8F
:107040002369A3F109052268D27A02BB04228DF8D4
:10705000242022685269013201920AAA0292023B5C
:1070600003930793A268023292B2ADF81020002178
:10707000ADF8181005911344089301A805F086FF98
:107080002A4629462068FFF79EFF0FB030BD082230
:10709000DDE700002DE9F04F95B004AF8A461646B3
:1070A0001D46044618B312B30BB39A421FD04FF0DB
:1070B0000008A7F82080C7F81C8007F130033B6167
:1070C000F31D7B61EB1D7B623078C009FEF760FC2D
:1070D000206187F80B80A14649F8148F96F800804C
:1070E00008F07F0849464046FDF7F0FE80E078460C
:1070F0007E4B1B680BB19847D9E700DED7E7AAF1B2
:107100000903E27A2AB10822934204D24FF0000B1D
:1071100081E00422F8E7E168208903F055F983460D
:1071200000283AD003233B7006237B7087F802A027
:107130007D60384603F008F98346F0B16C4B1B685C
:1071400013F0200F19D06B4B1B68012B15D92F2181
:10715000694807F0E7F898B12F21674807F0E2F88F
:10716000411C664BD3F80435CDF804B0644A009254
:107170004FF49972022000F0C9FA4FF0000B4AE078
:107180005C215D4807F0CEF828B15C215A4807F031
:10719000C9F8411CE5E75849E3E739462089FDF77E
:1071A00063FF002837D14FF0010B34E00423DBB23A
:1071B00087F82C30AAEB0303073B9BB23B837A6929
:1071C0001344BB6207F1300300221146204605F04C
:1071D000E5FE63690133FB6007F10B0107F10C0069
:1071E00005F0D8FEFB7AF3B949464046FDF76EFE3E
:1071F00063694BB32A4631462046FFF7E4FE294631
:107200002046FFF701FE2089FEF7D4FB01283FF45A
:1072100076AF4FF0000BBBF1000FE5D0E37A002B07
:10722000C4D00823C3E7EB79287A40EA03206080C2
:10723000FEF7C0FB20702E4B1B6813F0020F03D02B
:107240002C4B1B68032B04D8F87A4437BD46BDE8A5
:10725000F08F6D46B7F818C04FEA4C03083323F09F
:107260000703ADEB030D04ACA646002312E07A6AD7
:10727000D25C59004FEA12182248066816F80860D6
:107280000EF81360013102F00F020068825C0EF804
:10729000012001336345EAD3002304F81C302F2179
:1072A000154807F03FF898B12F21134807F03AF836
:1072B000411C124BD3F804350294134A0192134A2D
:1072C000009240F28112042000F020FAAD46BBE7A4
:1072D0005C21094807F026F828B15C21064807F030
:1072E00021F8411CE5E70449E3E700BFA45D002065
:1072F000F0310020EC310020ACED020000B0004085
:10730000F0ED0200F431002020EE020098EB0200C4
:1073100030B583B00F4B1D7875B1837A012B16D928
:1073200004460378012B0AD00B4B1B6823B1A27AC9
:107330006188208998470546284603B030BD6946D4
:107340004088FDF791FE0028EED00025F4E70025E7
:10735000F2E700BF743900207039002008B560B131
:107360008268084B1A600122074B1A70FEF74CF92D
:10737000FEF7DCF801F0B6FD08BD0022014B1A60F3
:10738000F1E700BF703900207439002010B50446C1
:1073900060B1236893B123685B69BBB10123237398
:1073A000002363732046FFF7D3FD10BD78460B4BD7
:1073B0001B680BB19847ECE700DEEAE77846074B1D
:1073C0001B680BB19847E6E700DEE4E77846034B1D
:1073D0001B680BB19847E1E700DEDFE7A45D002002
:1073E00010B584B00446002843D02369002B48D050
:1073F0002368002B4DD023685B69002B51D02046B9
:10740000FFF715FE2169093904F10C0001F066FC53
:1074100005238DF8083000238DF80930A3688DF816
:107420000A302369039302A802F08EFF0446F0B1EC
:10743000264B1B6813F0200F19D0254B1B68012B1E
:1074400015D92F21234806F06DFF002831D02F21B8
:10745000204806F067FF411C1F4BD3F80435019408
:107460001E4A009240F24122022000F04FF904B07F
:1074700010BD78461A4B1B680BB19847B5E700DE84
:10748000B3E77846164B1B680BB19847B0E700DEB0
:10749000AEE77846124B1B680BB19847ABE700DEAE
:1074A000A9E778460E4B1B680BB19847A7E700DEAB
:1074B000A5E75C21074806F035FF28B15C210548A7
:1074C00006F030FF411CC7E70249C5E7F031002054
:1074D000EC310020ACED020000B00040F0ED020005
:1074E000A45D002070B58AB004460E461546837A26
:1074F000013B8372059007920023069301238DF8C8
:1075000020308DF8213005A8FFF722FD10B3394B4C
:107510001B6813F0020F18D0374B1B68012B14D9CE
:107520002F21364806F0FEFE002856D02F21334882
:1075300006F0F8FE411C324BD3F80435314A009274
:1075400040F2A512022000F0E1F8A37A0133A37201
:107550000AB070BD2A463146099806F0E8FD05A834
:10756000FFF73EFF04238DF80C3000238DF80D301B
:107570008DF80E50049603A802F0E6FE054600289A
:10758000E3D01C4B1B6813F0200FDED01A4B1B6896
:10759000012BDAD92F21194806F0C4FE80B12F2122
:1075A000164806F0BFFE411C154BD3F80435019573
:1075B000154A009240F2A112022000F0A7F8C4E799
:1075C0005C210E4806F0AEFE28B15C210B4806F0A7
:1075D000A9FE411CE8E70949E6E75C21074806F0F7
:1075E000A1FE28B15C21054806F09CFE411CA2E7E3
:1075F0000249A0E7F0310020EC310020ACED0200A0
:1076000000B0004034EE0200F0ED020070B58EB024
:10761000002841D0044616460D460122014606A820
:1076200006F085FD06AB224629466846FFF732FD87
:1076300008B9002431E06846FFF7FCFB80B3059BE6
:10764000CBB19DF80B30F3B10821691AA1F10905FE
:10765000EDB233466A4629460DF1210004F0BEF82A
:1076600004466846FFF754FE78B90399BDF8080050
:1076700002F0D0FE11E078460A4B1B680BB1984728
:10768000DFE700DEDDE70421DFE72A460DF1210117
:107690006846FFF727FFE8E70E2420460EB070BDCE
:1076A0000024FAE7A45D002030B583B0184606AC8C
:1076B00054F8045B00920B4602460549002006F090
:1076C000CFFC22462946002006F0E0FB03B030BD87
:1076D00064EE0200034B1860034B1960034B1A6001
:1076E000704700BFF0310020EC310020F83100205D
:1076F00030B583B0044C246824B1079D0195069DE4
:107700000095A04703B030BDF831002030B585B0FA
:1077100008AC54F8045B039401940095FFF7E8FF6C
:1077200005B030BDC268137951795B1A03F57F2328
:1077300003F6FF731B0303F58053134442699B1A3E
:107740008068181A7047000038B505460C4610F0DE
:10775000030F04D078460F4B1B689BB1984714F079
:10776000030F04D078460B4B1B686BB1984700237E
:10777000B3EB940F0AD255F82320B2F1FF3F07D1A3
:107780000133F5E700DEEAE700DEF0E7012038BD6F
:10779000002038BDA45D002070B50546002419E026
:1077A000002300E000231846002B2DD053799C4283
:1077B00004D07846154B1B680BB39847EB681E4402
:1077C00032792B699A4204D07846104B1B68C3B1BA
:1077D000984701342B699C4215D2EB6826039A190D
:1077E0009B5D083BDBB2F62BDCD85379FF2B04D032
:1077F0001379FF2BD4D00123D5E70023D3E700DE94
:10780000DCE700DEE5E7012070BD00BFA45D0020DD
:1078100070B50579012D01D9002070BD04460668B8
:107820003046FFF77FFF3DB9A3899B00834207DB0A
:1078300073681BB9002070BD0023F7E7012070BDFD
:10784000002070BDF0B585B004460368DB68187889
:1078500019795A79891A01F57F2101F6FF71090317
:1078600001F58051E2891944184401F019F90746DD
:1078700023689E6826F47F6525F00F0505F5805581
:10788000A81BA2899200904246D9B51804F10C02B7
:10789000A3899B0001208DF80000019603920293BA
:1078A0000022694605F044FA28B17846364B1B6839
:1078B000002B60D0984701208DF800000195334BD4
:1078C000039304230293324A694605F031FA28B142
:1078D00078462D4B1B68002B4FD09847C7B12268C4
:1078E0003988536803EB8103536001208DF8000051
:1078F0000197284B039304230293254A694605F018
:1079000017FA28B17846204B1B68002B37D09847D0
:10791000A660002005B0F0BDD9680B7991F805E0AC
:10792000A3EB0E0303F57F2303F6FF731B0303F59D
:1079300080530B449D4224D0904217D001208DF8F3
:1079400000000196144B039304230293002269461E
:1079500005F0EEF920B178460B4B1B684BB1984708
:107960002E782E44A58906EB85058FE72A781544E5
:107970008CE700DEF4E700DE9DE700DEAEE700DE28
:10798000C6E70120C6E700BFA45D002098EE020014
:107990009A3A002090EE020094EE020010B584B0F6
:1079A00004460368DB68187819795A79891A01F551
:1079B0007F2101F6FF71090301F58051E289194425
:1079C000184401F06DF8F0B10346A060216800880A
:1079D0004A6802EB80024A6001208DF800000193A2
:1079E0000B4B0393042302930A4A694605F0A0F95E
:1079F00060B17846084B1B6813B19847002003E03C
:107A000000DE002000E0022004B010BD0020FBE7F3
:107A100090EE02009A3A0020A45D002070B584B078
:107A200005460368DE68437B06EB033608213046D3
:107A3000FFF78AFEA0B9002401E000DE0134072C24
:107A40000ED8335D05F10802125D9342F6D0FF2B8C
:107A5000F4D078460E4B1B68002BEED09847EDE72C
:107A6000083501208DF80000019603950823029344
:107A7000084A694605F05CF920B17846044B1B685A
:107A80001BB19847002004B070BD00DEFAE700BFCC
:107A9000A45D00209A3A002000B585B00368DA683A
:107AA0001B691B0302218DF8001001920293084A02
:107AB0006946012005F03CF920B17846054B1B686A
:107AC00023B19847002005B05DF804FB00DEF9E71C
:107AD0009A3A0020A45D002082890379012B0FD0FF
:107AE00010B592001BB1022B10D0012010BD00F187
:107AF0000C01806806F00CFBB0FA80F0400910BD64
:107B000083685888B0FA80F0400970470368DB68E2
:107B1000447B0822811803EB043006F0F9FAB0FA2E
:107B200080F0400910BD000038B501460E4804F051
:107B3000F3F90E4B5D6807E025B178460C4B1B68E6
:107B400073B19847A5420DD0084805F0EBF90446FB
:107B50000028F1D0002303608368C0689847F1E7EC
:107B600000DEEFE738BD00BF783900208C3A0020F6
:107B7000A45D00202DE9F041044617460D4659B199
:107B80000DB104F10C0726682379042B5AD8DFE8DD
:107B900003F009454C596F00FFF79EFF0028EFD115
:107BA0000325EDE73DB1B369002B4BD02A4639469A
:107BB0003046984746E0D4F80880B8F8003023B93A
:107BC0007846344B1B68DBB19847B8F8003008EBB7
:107BD000830323F47F6222F00F02934212D0B8F89D
:107BE0000220B2F5FE4F0DD0B3605A8847F6FF73FE
:107BF0009A42D8D07846274B1B686BB19847D2E79A
:107C000000DEE2E728F47F6828F00F0808F58058C6
:107C100098F800304344E7E700DEC4E7F3698BB12E
:107C20002A46E189304698470CE03378012B04D08E
:107C30007846184B1B68B3B19847627B237B013BA6
:107C40009A4212D0144B9C4203D303F582739C4298
:107C500004D978460F4B1B68D3B19847201FFFF714
:107C600063FFBDE8F08100DEE7E702233370E9E758
:107C700025B17846074B1B6843B198470023337002
:107C8000336A002BDED030469847DBE700DEF5E7AD
:107C900000DEE3E7A45D00208439002000B583B056
:107CA00002A9002341F8043D82B2054804F014F80B
:107CB00020B90198043003B05DF804FB0020FAE716
:107CC0007839002070B5044600254BE01020FFF7FE
:107CD000E5FF064600286FD00223037108230372D4
:107CE000042343721023C3728372457323690373A1
:107CF0004FF6FF73C3810460304B984203D303F502
:107D00008273984204D978462D4B1B683BB1984743
:107D100036F8042C311F2B4804F020F821E000DE57
:107D2000F6E7002300E000232BB97846244B1B68BC
:107D3000002B35D09847E36833445B799D4205D0EA
:107D400078461F4B1B68002B2CD09847E3681E44D5
:107D5000327923699A4204D07846194B1B681BB3C9
:107D60009847013523699D4220D2E0682E033044B4
:107D700040F6FC710430FFF7E7FC0028A6D1E36869
:107D80009A199B5D083BDBB2F62BCCD85379FF2BBD
:107D900004D01379FF2BC4D00123C5E70023C3E728
:107DA00000DEC8E700DED1E700DEDAE7064B186840
:107DB000FEF7A2FF002070BD042070BD84390020B2
:107DC000A45D002078390020943A002038B505469B
:107DD000C3681C781C4400200FE000DE238804EBFD
:107DE000830323F47F6222F00F02934222D0628841
:107DF000B2F5FE4F1ED020461C46EA681379517931
:107E00005B1A03F57F2303F6FF731B0303F580530F
:107E100013449C4217D262884FF6FF739A4212D0E5
:107E20002388002BDAD17846074B1B68002BD4D06F
:107E30009847D3E724F47F6323F00F0303F58053BF
:107E40001A781344D7E738BDA45D002038B504463E
:107E5000FFF7BCFFA06020B3428847F6FF739A4249
:107E600026D00820FFF71AFF054618B30323037135
:107E70000460114B984203D303F58273984204D9EE
:107E800078460E4B1B688BB1984735F8042C291F98
:107E90000B4803F063FF0B4B1868FEF72DFF002023
:107EA00038BDE26813781344A36038BD00DEECE708
:107EB000002038BD042038BD84390020A45D002096
:107EC00078390020943A0020F8B506794379F61AFB
:107ED00006F57F2606F6FF76360306F5805606443D
:107EE0000478251800270CE000DE1FE025F47F64ED
:107EF00024F00F0404F5805423781C4423E000DEB2
:107F000025466B884FF6FF72934225D047F6FF72E5
:107F1000934221D013B92B8807EB83072B882BB909
:107F200078460E4B1B68002BDED098472C8805EB5B
:107F3000840424F47F6323F00F039C42D6D06B8823
:107F4000B3F5FE4FD2D0A642DAD87846034B1B6871
:107F5000002BD4D09847D3E73846F8BDA45D002065
:107F600070B584B005460068FFF730FF044600286E
:107F70002CD06388002B31D12E6823882BB978460A
:107F8000414B1B68002B3FD09847238804EB8303A9
:107F900023F47F6222F00F02934237D06288B2F559
:107FA000FE4F33D0B3602B689968DA681379507943
:107FB0001B1A03F57F2303F6FF731B0303F580539E
:107FC000134499422BD3002004B070BD78462E4B49
:107FD0001B680BB19847CCE700DECAE701208DF89B
:107FE00000000194294B039304230293284A694615
:107FF00004F09EFE0028BFD07846234B1B680BB1CF
:108000009847B9E700DEB7E700DEBEE724F47F63F8
:1080100023F00F0303F580531A781344C2E7238833
:1080200023B97846184B1B680BB39847238804EB99
:10803000830323F47F6222F00F02934219D06288F7
:10804000B2F5FE4F15D001208DF800000193114BC1
:108050000393042302930E4A694604F069FE002844
:10806000B1D07846084B1B6863B19847ABE700DE98
:10807000DCE724F47F6424F00F0404F580542378B3
:108080002344E0E700DE9EE7A45D002090EE0200BE
:108090009A3A002098EE020030B585B004460923D4
:1080A0008DF8083003798DF8093000238DF80A30F7
:1080B000039302A802F048F9F0B10546284B1B686B
:1080C00013F0200F18D0274B1B68012B14D92F2138
:1080D000254806F027F9B8B12F21234806F022F9E8
:1080E000411C224BD3F804350195214A009240F2FD
:1080F0008E220220FFF70AFB2379042B26D8DFE823
:1081000003F01015191D21005C21174806F00AF92B
:1081100028B15C21144806F005F9411CE1E7124939
:10812000DFE72046FFF78EFB05B030BD2046FFF7A6
:1081300035FCF9E72046FFF771FCF5E72046FFF72D
:108140000FFFF1E72046FFF7A7FCEDE77846094B64
:108150001B6813B198470020E6E700DE0020E3E744
:10816000F0310020EC3100209CEE020000B0004015
:10817000F0ED0200A45D00202E4B1B78022B57D19E
:1081800010B582B03BE002A9002341F8043D2A4823
:1081900003F052FE002849D1019C201D274B186096
:1081A0000122274B1A70FFF733FB20B30323214A28
:1081B000137062681370606804F09AFA1BE01F4B3A
:1081C0001868FFF769FF1F4B187018B902221C4B83
:1081D0001A7010E003221A4B1A700CE0174B1B6840
:1081E000E3B1164B18688268164B1978FFF7C2FC8A
:1081F0000022134B1A700F4B1B78022B16D1104B19
:108200001B78032BF7D801A252F823F087810200D4
:10821000BF8102002D820200DD81020078460A4BF8
:108220001B680BB19847DCE700DEDAE702B010BD4F
:10823000704700BF983A0020783900209C3A00200F
:10824000883A0020A03A0020A45D002008B5074B22
:108250001B88934200D008BD054B1B78022BFAD136
:108260000322034B1A70FFF787FFF4E79A3A0020C6
:10827000883A002008B54FF482721049104803F084
:10828000BDFC1049012004F03DFD0F48FEF70AFD3A
:108290000E4B186000230E4A13700E4A13800E48CE
:1082A00004F008FE04F0FEF918B902220B4B1A7014
:1082B00008BD0322094B1A7008BD00BF8439002095
:1082C000783900204D82020079810200943A002022
:1082D000883A00209A3A00208C3A0020983A0020F0
:1082E000F8B50D461646074600283AD03B78022BD3
:1082F00040F09F80002E3CD0FA68137813449E42D1
:10830000C0F09980137951795B1A03F57F2303F646
:10831000FF731B0303F5805313449E4200F28D80CC
:10832000338823B97846484B1B6833B39847338862
:1083300006EB830424F47F6323F00F039C421ED0DA
:108340007388B3F5FE4F1AD0FE68337972799B1AA1
:1083500003F57F2303F6FF731B0303F580531E44CD
:1083600039E07846384B1B680BB19847BEE700DE12
:10837000BCE7FB681C781C44E6E700DED7E726F480
:108380007F6626F00F0606F580563378F418DBE793
:1083900000DE12E024F47F6323F00F0303F5805323
:1083A0001A78134416E0002353BB23882BB9784670
:1083B000254B1B68002BEBD09847238804EB8303E5
:1083C00023F47F6222F00F029342E3D06288B2F579
:1083D000FE4FDFD01C46B44212D26288531E9BB2BD
:1083E00047F6FE618B42DED835B169882B884A405A
:1083F000134203D00023D7E70123D5E70123D3E7B6
:10840000B4421CD26288531E9BB247F6FE618B4277
:1084100007D855B169882B884A40134207D00023FA
:1084200000E000236BB12046F8BD0123FAE70123E9
:10843000F8E70024F7E70024F5E70024F3E7002439
:10844000F1E70024EFE700BFA45D002070B50E4601
:108450001446054658B1731E9BB247F6FE6293421E
:108460000FD947F6FF739E4209D000230AE07846F1
:10847000174B1B680BB19847EDE700DEEBE70123D4
:1084800000E0012323B97846114B1B68C3B198471C
:10849000802C04D978460E4B1B689BB198472B78EB
:1084A00093B104F11000FFF7F9FB78B100220271DB
:1084B000C6810334A4080134848140F80C5B70BD8C
:1084C00000DEE5E700DEEAE7002070BD002070BDB9
:1084D000A45D002010B50446134B984203D303F566
:1084E0008273984204D97846104B1B68C3B19847F1
:1084F0000C3C0D4B9C4203D303F582739C4204D980
:1085000078460A4B1B686BB1984734F8042C211F3E
:10851000074803F023FC074B1868FEF7EDFB10BD7E
:1085200000DEE5E700DEF0E784390020A45D0020EE
:1085300078390020943A002070B50D46064658B1AF
:108540006B1E9BB247F6FE6293420FD947F6FF734C
:108550009D4209D000230AE078461D4B1B680BB1F1
:108560009847EDE700DEEBE7012300E0012323B9A4
:108570007846174B1B6823B398471020FFF78EFBF4
:10858000044610B301230371C5814FF6FF73838145
:108590000660104B984203D303F58273984204D9C6
:1085A00078460B4B1B6873B1984734F8042C211F95
:1085B000094803F0D3FB094B1868FEF79DFB002028
:1085C00070BD00DED9E700DEEFE7042070BD00BF1C
:1085D000A45D00208439002078390020943A0020DE
:1085E0002DE9F041C46894F8008004EB0807836823
:1085F000BB4202D80020BDE8F0813E46054634F873
:10860000083023B97846314B1B68BBB1984734F822
:10861000084007EB840424F47F6323F00F039C429B
:1086200003D07B88B3F5FE4F1AD127F47F6727F07C
:108630000F0707F580573C783C4411E000DEE6E781
:1086400000DE238804EB830323F47F6222F00F0211
:10865000934212D06288B2F5FE4F0ED026461C46D9
:10866000AB689C4212D02388002BEAD17846174B86
:108670001B68002BE4D09847E3E724F47F6323F0E2
:108680000F0303F580531A781344E7E77288531EEB
:108690009BB247F6FE618B4202D90020BDE8F08113
:1086A000EB6818783146184400F0FAF938B1864280
:1086B00008D041882846FFF73FFFBDE8F081002041
:1086C000BDE8F0810020BDE8F08100BFA45D00207E
:1086D00038B504460D46002303700B68C3F30B0343
:1086E00023B178461D4B1B680BB398476B68FE2B74
:1086F00004D97846194B1B68DBB1984718222946E4
:1087000004F10C0005F013FD0023A3606360204614
:10871000FFF742F8B0B12169E068FFF7D5FB606070
:108720002046FFF793FB034628B1184638BD00DE0C
:10873000DCE700DEE2E7022323702046FFF750FF6C
:108740000346F2E7012323702046FFF7BBFA0346F6
:108750000028EAD1E2680832A260E6E7A45D0020C2
:1087600010B5044620B1A36853B1236883B110BD8E
:1087700078460A4B1B680BB19847F4E700DEF2E736
:108780007846064B1B680BB19847EEE700DEECE736
:1087900024602146024804F09FFBE8E7A45D002026
:1087A0008C3A002008B5064803F076FB08B100209B
:1087B00008BD03F095FF08B1002008BD012008BDE9
:1087C0007839002010B5C0B10446C368187819790B
:1087D0005A79891A01F57F2101F6FF71090301F524
:1087E000805147F6FF721944184400F059F9A0600F
:1087F00078B102232370002363600222094B1A70B0
:108800000949012004F07EFA084B1868FEF774FA53
:1088100010BD7846064B1B680BB19847E9E700DEB0
:10882000E7E700BF983A00204D820200943A00200A
:10883000A45D002008B503F0CDFF08BD38B505469E
:10884000A0F164024EF6FC139A4204D978460A4B12
:108850001B687BB19847094C6823094A00212046D0
:1088600000F064FE2946204600F0E6FD204600F0B8
:108870000BFD38BD00DEEEE7A45D00200C3B0020C0
:10888000A43A00202DE9F041D8B1E2B1EBB1FF29C3
:108890001DD01C2B1DD81E4690460D469F1CFFB2B6
:1088A000791C00F013FD044640B147742B238374F8
:1088B000C57432464146143005F039FC2046BDE807
:1088C000F0810024FAE70024F8E70024F6E700240A
:1088D000F4E70024F2E70000E1B110B50C460AB954
:1088E000072010BDFF2817D01C2A01D9072010BD72
:1088F0000BB9072010BD1346014622460848FFF772
:10890000C1FF014650B1FF230371054800F02CFD63
:10891000002010BD07207047072010BD042010BDA7
:108920000C3B00202DE9F04784B004AF0C461646FE
:10893000054620B15CB90920BD46BDE8F087784600
:108940004E4B1B680BB19847F4E700DEF2E7611E5F
:10895000C9B22B7833B3012B2AD0494B1B6813F4CF
:10896000807F18D0474B1B68012B14D92F21464814
:1089700005F0D8FC10B32F21434805F0D3FC411C6F
:10898000424BD3F804352A780192414A009295224D
:108990000220FEF7BBFE3A4B1B6813F4807F1AD10E
:1089A0000B20C9E73246681CFCF77AFB0020C3E7BE
:1089B0003246681C00F0C8FA0020BDE75C2132484E
:1089C00005F0B0FC28B15C212F4805F0ABFC411C40
:1089D000D6E72D49D4E72B4B1B68032B01D80B207E
:1089E000AAE7E846A1466300083323F00703ADEB8E
:1089F000030D04AEB44600234B4516D26A1CD25C6C
:108A000059004FEA121ADFF894E0DEF8000010F87F
:108A10000A000CF81300013102F00F02DEF800002A
:108A2000825C0CF801200133E6E7002306F81430DD
:108A30002F21154805F076FC98B12F21124805F03A
:108A400071FC411C114BD3F804350296114A019276
:108A5000114A009296220420FEF758FEC5460B20CC
:108A60006AE75C21084805F05DFC28B15C210648F6
:108A700005F058FC411CE5E70349E3E7A45D00204D
:108A8000F0310020EC310020E4EE020000B00040A4
:108A900028EF020050EF020098EB0200F4310020B2
:108AA00070B504460D461646884218D97846234BC1
:108AB0001B680BB1984712E000DE10E000DE23884F
:108AC00004EB830323F47F6222F00F02934223D04E
:108AD0006288B2F5FE4F1FD01C469D422BD962889A
:108AE000B24222D024F47F6323F00F0303F58053B6
:108AF0009D4207D8B2F5FE4F19D0238804EB8303BB
:108B00009D4216D92388002BD9D178460B4B1B6880
:108B1000002BD3D09847D2E724F47F6323F00F03D0
:108B200003F580531A781344D6E7204670BD002021
:108B300070BD002070BD002070BD00BFA45D00208E
:108B4000124B1B6803B370B582B015460E4604463F
:108B500090B101238DF804300D48241AA4100D4B58
:108B600003FB04F48DF80540084B1B683246294688
:108B700001A8984702B070BD7846074B1B680BB13F
:108B80009847E6E700DEE4E7704700BF503E00206C
:108B9000A83B0020AD1B4C91A45D002070B504469D
:108BA0000D4616464A78811C94200A4B00FB023081
:108BB00000F08CFB58B106606978074A52F8212012
:108BC00002712A22827401344474133070BD002073
:108BD00070BD00BFA83B0020A03B002008B5427834
:108BE00013399420024B00FB023000F0BDFB08BD9E
:108BF000A83B002008B5427813399420024B00FBB3
:108C0000023000F003FC08BDA83B002070B50D4DFC
:108C100001262E600C4C4FF480730C4A0C49204600
:108C200000F084FC204600F02FFB6E60943480231B
:108C3000084A0021204600F079FC204600F024FB81
:108C400070BD00BFA03B0020A83B0020D03C00200E
:108C5000418B0200D03D0020014B1860704700BFDF
:108C6000503E0020F8B5064615461F460C46E9B1B1
:108C7000002D23D02378012B05D07846164B1B6896
:108C8000002B23D098476378012B04D97846124BE8
:108C90001B68EBB1984700232B603A4621463046CB
:108CA000FFF77CFF2860A8B12078F8BD78460A4B12
:108CB0001B680BB19847DBE700DED9E77846064B27
:108CC0001B680BB19847D5E700DED3E700DEDAE793
:108CD00000DEE0E70020F8BDA45D002038B50D46B9
:108CE0000446A8B1E5B12378012B04D07846124B95
:108CF0001B68EBB198476378012B04D978460E4B7B
:108D00001B68BBB1984729462046FFF767FF38BD6F
:108D10007846094B1B680BB19847E3E700DEE1E7B3
:108D20007846054B1B680BB19847DCE700DEDAE7B5
:108D300000DEE0E700DEE6E7A45D002038B50D4682
:108D40000446A8B1E5B12378012B04D07846124B34
:108D50001B68EBB198476378012B04D978460E4B1A
:108D60001B68BBB1984729462046FFF743FF38BD33
:108D70007846094B1B680BB19847E3E700DEE1E753
:108D80007846054B1B680BB19847DCE700DEDAE755
:108D900000DEE0E700DEE6E7A45D002030B585B048
:108DA0000D4614466B460D220146284604F0EAF8AB
:108DB00008226946204605F0BAF905B030BD00002A
:108DC0002DE9F04188B004464FF0000808AF47F89D
:108DD000048DFCF7C9FD0546FCF7E6FD012814BF2C
:108DE0000026012639464046FCF7E8F813E002EB7E
:108DF00082025300B3FBF1F3013303EB83035B0007
:108E00004380079B5A6854605B6800221A8007A958
:108E10000020FCF7D3F80799002945D04A6850682C
:108E20005388234A02FB0303A34202D01B1B002BDF
:108E3000EDDA01F108089DF8043003F0FE0366F353
:108E400041036FF3870308AF07F81C3D0822183170
:108E50000DF1050005F06BF92B0203F47F0343EAE3
:108E600005632A0A02F47F42134343EA1563CDF8EF
:108E70000D300DF1110241463846FFF78FFF0123F7
:108E8000152239461846FFF727FD0028BFD1079B5A
:108E90005868418802880029A9D1064BDB68064939
:108EA000A1FB0313990CA2E708B0BDE8F08100BF55
:108EB00040420F00683E002083DE1B4310B582B0A5
:108EC0000C466A4601462046FFF768FF082204F177
:108ED0000D01684605F01CF9B0FA80F0400902B0B7
:108EE00010BD000010B582B00122114B1A70114C58
:108EF000114BE360114BA3600023236104210DEBB0
:108F00000100FDF70FFBFDF7B5F9E2680199B1FB30
:108F1000F2F302FB1313184460602046FDF78AF851
:108F2000074A0421074804F0ADF802B010BD00BFA5
:108F3000643E0020683E0020404B4C00C18D020082
:108F4000543E002064EF020030B583B0044640B1C7
:108F500002A9002341F8043D651C2846FCF72EF8C1
:108F600016E07846204B1B680BB19847F0E700DE0F
:108F7000EEE778461C4B1B680BB198470DE000DE0E
:108F80000BE0019B1B78BBB901A92846FCF716F83A
:108F9000019B33B35B68002BEBD02146019808306E
:108FA000FFF78CFF0028EFD0019B5A681388FE2B37
:108FB000E7D801331380E4E7D4F80900030203F48F
:108FC0007F0343EA0063020A02F47F4213432178DD
:108FD00001F00102C1F3400143EA1060FCF772FCAA
:108FE000D2E703B030BD00BFA45D002010B5044639
:108FF000037813F0FE0306D0022B04D07846084B0A
:109000001B6833B19847237803F0FE03022B02D08C
:1090100010BD00DEF7E7A37963F03F03A371F7E724
:10902000A45D002010B5044648B1636F7BB1636F47
:10903000D4F89020D4F88C102046984710BD78467C
:10904000074B1B680BB19847EFE700DEEDE778466A
:10905000034B1B680BB19847E9E700DEE7E700BF69
:10906000A45D002010B582B004462CE0002002B0C0
:1090700010BD78461E4B1B680BB1984728E000DEF8
:1090800026E004F1540002F01FFF08B1012224E0A1
:10909000002222E0012300E0012333B3616831B1F3
:1090A000043904F1540002F037FF0023636001A982
:1090B00004F1540002F0C0FE0028D7D1019B1A1D14
:1090C00062600C3323626368002BE7D0002BD0D0A2
:1090D00063681B79FF2BD4D0002263681B79002AB8
:1090E000DAD1002BD6D00023D7E70120BFE700BF9D
:1090F000A45D002070B5064643682BB106F16C05EF
:109100002B79FBB1002409E078461C4B1B680BB19E
:109110009847F3E700DEF1E70134E4B2EB789C42D4
:1091200010D21748FDF7EAF9EA78B0FBF2F302FB38
:109130001300C3B2A342EFD02B5DC0B22A5C2A5504
:109140002B54E9E77468237923B978460B4B1B68E5
:1091500083B198472379FF2B01D0013B237106F19E
:10916000080000F091FC40B17846044B1B681BB12D
:10917000984770BD00DEEDE700DE70BDA45D002005
:10918000803E00200B78002B3BD070B50C4691F848
:1091900038504DB94B6F4BB101F17800FDF724FE0B
:1091A00030B101231D462BB175B970BD0023F9E71D
:1091B0000023F7E72046FFF755FF05460028F3D0C8
:1091C0002046FFF797FFEFE704F13C05A66E94F801
:1091D0003C30DBB2062B04D078460B4B1B6873B1D6
:1091E00098470A48FDF78AF9094BA3FB00235B0B5C
:1091F00042F2107202FB13033344EB6070BD00DED9
:10920000EFE700238B647047A45D0020803E0020C0
:109210005917B7D138B5044650F81C2C1379013BC7
:10922000DBB2FD2B0DD9436D5BB11368C3660167DB
:109230005830FDF7ADFD20B178460E4B1B682BB1C1
:10924000984754F81C1C0B7913B138BD00DEF8E7C1
:1092500044F81C3C04F134050439284602F05CFE55
:10926000284602F019FE0028EFD104F11C00FCF79B
:1092700027FFEAE7A45D002008B50248FDF77EF964
:1092800008BD00BF803E00200378E3B970B50446F6
:1092900001230370436883B104F13C06A56E0A48BC
:1092A000FDF72CF9B0FBF5F405FB1404FCF7E2FF25
:1092B00021183046FCF73AFF70BD543002F0ECFD47
:1092C0000028E9D1F8E77047803E0020F0B583B070
:1092D0000C460546D0B11F2C04D97846214B1B689B
:1092E000E3B1984704F1110292B201A905F15400CB
:1092F00002F0F2FCA0B1042831D07846194B1B686B
:1093000053B398470026304603B0F0BD7846154B5E
:109310001B680BB19847DEE700DEDCE700DEE1E723
:10932000019F3E1DE4B206347C733B7B022262F354
:1093300003033B7395F86030C3F340033A7B63F358
:1093400086123A73062205F1610107F10F0004F05D
:10935000EEFE00237B60D6E700DE0026D3E7002682
:10936000D1E700BFA45D002070B505460C4639B3B7
:1093700030B3237923B97846224B1B6843B398470F
:10938000237A03F0CF036FF3C71323720023A37272
:1093900034F8042C211F05F1540002F0DFFC2B7877
:1093A000E3B195F83C30BBB195F83C30DBB2042B0F
:1093B00015D095F83C30DBB2052B0BD001230CE027
:1093C0007846104B1B680BB19847D2E700DED0E718
:1093D00000DED5E7002300E0002313B170BD0023B9
:1093E000FBE705F13C06AD6E0748FDF787F8B0FBDB
:1093F000F5F405FB1404FCF73DFF21183046FCF79B
:1094000095FEEBE7A45D0020803E002038B50446C1
:109410000D4631B128B1291F04F1540002F07CFD42
:1094200038BD7846034B1B680BB19847F3E700DE65
:10943000F1E700BFA45D002038B50D46044610B327
:10944000132D04D87846224B1B6823B39847B5F5F3
:10945000205F04D978461E4B1B68F3B198474FF440
:109460007A7000FB05F5A56694F83C30CBB194F812
:109470003C30DBB2042B19D094F83C30DBB2052B26
:109480000DD001230EE07846114B1B680BB19847B5
:10949000D6E700DED4E700DED9E700DEDFE7002311
:1094A00000E000230BB1237813B938BD0023F9E79E
:1094B0003C340848FDF722F8B0FBF5F305FB130533
:1094C000FCF7D8FE29182046FCF730FEEDE700BF78
:1094D000A45D0020803E002010B504464FF080536C
:1094E000D3F8A03013F0010306D093B978460D4BA2
:1094F0001B68A3B1984703E003786FF34703037039
:1095000006220949601C04F012FE2046FFF76EFD9A
:1095100010BD0378012262F347030370F0E700DE19
:10952000EEE700BFA45D0020A4000010F8B50D46D2
:1095300017461E460446B0B1AAB10A2E04D8784692
:10954000244B1B68BBB19847B2B2394604F15400B2
:1095500002F054FB04F16000FFF7BEFF44F6206305
:10956000A366002310E078461A4B1B680BB198479E
:10957000E3E700DEE1E700DEE6E7174AD15CE21848
:1095800082F86C100133DBB2022BF6D984F86F300D
:10959000002284F870201149A162252184F8251049
:1095A000032184F8261084F8242004F16C0121633F
:1095B00084F834300A4BE36222626567094B6364C6
:1095C000E46422702DB12246074904F17800FDF7CA
:1095D000BBFBF8BDA45D00206CEF0200D6BE898EF7
:1095E00015920200859102002590020038B50546CB
:1095F0000120FDF741FA0B4C25604FF0FF320A4B7A
:10960000C3F808230222094BC3F88021FCF732FE7D
:1096100023689A68024406490A601A68D968904724
:1096200038BD00BFA03E00200010004000E100E077
:10963000983E002008B5054B1B7803B908BD00F023
:109640003BFD0022014B1A70F8E700BF9C3E002052
:1096500008B5054B1B7803B108BD0122024B1A70F7
:1096600000F016FDF8E700BF9C3E002038B5FDF77E
:10967000A1F900B138BD144803F070FC054668B18B
:109680000468FDF7B3F91CB1A3686433984207D8A6
:10969000B0F5FA7FEED9FFF7DBFFEBE70024F0E748
:1096A000FFF7C8FF084803F03DFC854204D0784628
:1096B000064B1B6833B19847002323612046FFF710
:1096C00095FF38BD00DEF7E7903E0020A45D002046
:1096D00008B5064803F0EEFB0023054A1360054A6F
:1096E00013700122044B1A7008BD00BF903E002089
:1096F000A03E00209C3E00209D3E0020064B1B7893
:109700000BB90820704710B50024034B1C70FDF7FF
:1097100097F9204610BD00BF9D3E002010B50446BD
:10972000002825D02368002B2AD0A3682BB97846BF
:109730001D4B1B68002B2BD09847A2681B4B9A42ED
:1097400005D97846184B1B68002B23D0984723690E
:109750009C4225D0246104F11001154803F0BCFBA4
:10976000144B1B78F3B9144B1B68ABB1002010BD30
:1097700078460D4B1B680BB19847D3E700DED1E765
:109780007846094B1B680BB19847CEE700DECCE763
:1097900000DED2E700DEDAE7FDF752F9002010BD67
:1097A000082010BD002010BDA45D0020A08601008F
:1097B000903E00209D3E0020A03E002008B5194BA1
:1097C0001B68FBB1FDF736F920B97846164B1B68CC
:1097D00003B39847FCF74EFD144B1B68C01A0028D2
:1097E00004DB7846104B1B68B3B198470020FDF7A7
:1097F00043F900220B4B1A600D4B1B7873B9FFF72E
:1098000035FF08BD7846084B1B680BB19847D9E770
:1098100000DED7E700DEDDE700DEE7E7FDF722F94F
:1098200008BD00BFA03E0020A45D0020983E00209F
:109830009D3E002008B5FDF7FDF820B97846134B92
:109840001B685BB19847124B1B688BB15B683BB1DF
:109850000F4B1B685A68D868904708BD00DEF2E7D6
:1098600078460A4B1B680BB19847F1E700DEEFE73B
:10987000084B1B7823B97846044B1B681BB19847EB
:1098800000F024FC08BD00DEFAE700BFA45D002064
:10989000A03E00209C3E002008B5FDF7CBF820B983
:1098A0007846064B1B6823B19847054B1B6813B1DC
:1098B00008BD00DEF9E7FFF7D9FEF9E7A45D002057
:1098C000A03E002008B5FDF7B5F820B978460B4B4F
:1098D0001B6873B198470A4B1B6823B17846074B46
:1098E0001B6843B198470222064B1A60FFF7BEFE81
:1098F00008BD00DEEFE700DEF5E700BFA45D002055
:10990000A03E002000E100E008B5FDF793F820B983
:109910007846094B1B685BB19847084B1B6823B11D
:109920007846054B1B682BB19847FFF783FE08BDAF
:1099300000DEF2E700DEF8E7A45D0020A03E002094
:10994000064B074AC3F8602502F5DE424432C3F8ED
:1099500064254FF48062C3F80425704700F001408D
:109960000411004070B50446274BD3F8103123B9D9
:109970007846264B1B68F3B198470022224BC3F868
:109980001021234A13780133DBB2137094F82C2092
:10999000934212D8934230D303221B4BC3F80022C8
:1099A000194BD3F81031002B2DD07846174B1B687C
:1099B00043B3984770BD00DEDFE7FDF711F8154BA4
:1099C000D3F848650644FCF755FC0546636A314602
:1099D00004F118009847FCF74DFC401B502804D4B4
:1099E00078460A4B1B6833B19847FFF7E7FE002320
:1099F00084F8303070BD00DEF7E7A26AD05C00F07A
:109A0000A3F8CDE700DE70BD00100040A45D00208B
:109A1000A43E00200080004010B50C46FFF790FFE8
:109A200000F078F804F11C0000F0A8F80021206A8A
:109A300000F0F6F8A36A187800F086F80122104BBF
:109A40001A70A1690F4BC3F804150021C3F8101157
:109A50001021C3F804131A6094F82C30934204D8F0
:109A60000322084BC3F8002210BD0722054BC3F8A0
:109A70000022A26A024B1B78D05C00F065F810BD92
:109A8000A43E00200010004010B50446436A2BB1EC
:109A900094F8303053B11123184610BD7846194B55
:109AA0001B680BB19847F3E700DEF1E7164B236024
:109AB000164B6360A36994F82C10A27F5B780A337D
:109AC000042A19D01248825C03FB02F3923303FB91
:109AD00001F39833A360E460012384F8303020461A
