:020000022000DC
:1040000002F00320C5BD0200EDBD0200354C0200E8
:10401000F1BD0200F3BD0200F5BD0200000000008A
:10402000000000000000000000000000F7BD0200DA
:10403000F9BD020000000000FBBD0200FDBD020052
:10404000FFBD0200FFBD0200FFBD0200FFBD020078
:10405000FFBD0200FFBD0200FFBD0200FFBD020068
:10406000FFBD0200FFBD0200FFBD0200FFBD020058
:10407000FFBD0200FFBD0200FFBD0200FFBD020048
:10408000FFBD0200FFBD0200B5D70200FFBD020068
:10409000FFBD0200FFBD0200A14C0200FFBD0200F7
:1040A000FFBD0200FFBD0200FFBD0200FFBD020018
:1040B000FFBD0200FFBD0200000000000000000084
:1040C000FFBD0200FFBD0200FFBD0200FFBD0200F8
:1040D000FFBD0200FFBD0200FFBD0200FFBD0200E8
:1040E000FFBD0200FFBD0200FFBD02000000000096
:1040F00000000000FFBD020000000000FFBD020044
:1041000000000000000000000000000000000000AF
:10411000000000000000000000000000000000009F
:10412000000000000000000000000000000000008F
:10413000000000000000000000000000000000007F
:10414000000000000000000000000000000000006F
:10415000000000000000000000000000000000005F
:10416000000000000000000000000000000000004F
:10417000000000000000000000000000000000003F
:10418000000000000000000000000000000000002F
:10419000000000000000000000000000000000001F
:1041A000000000000000000000000000000000000F
:1041B00000000000000000000000000000000000FF
:1041C00000000000000000000000000000000000EF
:1041D00000000000000000000000000000000000DF
:1041E00000000000000000000000000000000000CF
:1041F00000000000000000000000000000000000BF
:1042000010B5054C237833B9044B13B10448AFF310
:1042100000800123237010BDA032002000000000A8
:10422000047703000C4B43B10C480D4910B5AFF3B4
:1042300000800C48036823B910BD0A48036833B9ED
:104240007047094B002BF7D0BDE810401847064BCC
:10425000002BF5D0184700BF0000000004770300D2
:10426000A43200209832002000000000154B002BE3
:1042700008BF134B9D46A3F5803A00218B460F469D
:104280001348144A121A11F097FF0F4B002B00D05D
:1042900098470E4B002B00D09847002000210400C7
:1042A0000D000D48002802D00C48AFF3008011F03B
:1042B00035FF2000290000F04FFB11F01BFF00BF6D
:1042C0000000080002F003200000000000000000D1
:1042D000A03200208C6300200000000000000000DD
:1042E00000B587B0284B1B6813F4804F03D0274BD1
:1042F0001B68032B1CD8002303930493CDF81330C1
:1043000001228DF80C208DF80D208DF80E308DF8DF
:1043100010201F491F4801F008FA50BB03AB1C4A8C
:104320001C491D4801F0EFF940BB07B05DF804FBE4
:104330002F211A4812F014F870B12F21174812F0EB
:104340000FF8411C164BD3F80435164A009272221E
:1043500004200AF0E7F9CEE75C21104812F000F8DB
:1043600028B15C210D4811F0FBFF411CEAE70B4925
:10437000E8E70A4A792100F01DFCCFE7074A7A21D5
:1043800000F018FCD1E700BF1C32002018320020DA
:10439000AC370020CC370020D032002078650300F5
:1043A00000B00040C865030000B587B0484B1B68EB
:1043B00013F4804F03D0474B1B68032B3FD80021D9
:1043C000454804F0C9FC00285AD10020029003900F
:1043D00004900590414B02AA4149098807F0B4F9BD
:1043E000002852D13F49012007F046F8002851D15A
:1043F0003A4B1988384B188805F09AFD00284ED1A1
:10440000384B1988344B188805F040FD00284BD1F3
:10441000324B1988304B188805F0C6FD002848D16A
:1044200006212D4B188805F0EFFD002846D12A48BB
:1044300004F0FCFC002846D107B05DF804FB2F21F6
:10444000294811F08DFF70B12F21274811F088FF06
:10445000411C264BD3F80435254A009262220420E1
:104460000AF060F9ABE75C211F4811F079FF28B131
:104470005C211D4811F074FF411CEAE71A49E8E786
:10448000194A632100F096FB9FE7174A672100F065
:1044900091FBA7E7144A682100F08CFBA8E7124AB9
:1044A000692100F087FBABE70F4A6A2100F082FB2D
:1044B000AEE70D4A6B2100F07DFBB1E70A4A6C21A3
:1044C00000F078FBB3E7084A6D2100F073FBB3E717
:1044D0001C32002018320020D0350020BC320020D1
:1044E000CC320020CC3500207865030000B00040BD
:1044F000406503002DE9F04389B004AF044603781A
:104500000B2B00F2E781DFE813F0CD00CD00E501D1
:10451000CD000C003800E501E501AA01E501E50147
:104520009700A04B1B6813F4804F00F0BB809E4B9C
:104530001B68032B40F2B6802F219C4811F010FF1E
:1045400070B12F21994811F00BFF411C984BD3F803
:104550000435984A0092852204200AF0E3F8A1E08D
:104560005C21924811F0FCFE28B15C218F4811F0CB
:10457000F7FE411CEAE78D49E8E78A4B1B6813F414
:10458000804F03D0884B1B68032B08D88A4B1B78BD
:1045900033B3012B40F08680FFF706FF82E02F2126
:1045A000824811F0DDFE70B12F21804811F0D8FE55
:1045B000411C7F4BD3F80435804A00928E220420A0
:1045C0000AF0B0F8E2E75C21784811F0C9FE28B1A2
:1045D0005C21764811F0C4FE411CEAE77349E8E724
:1045E00000233B607B60C7F8073001227A70BB7004
:1045F0003A717349734801F098F898B93B46704A8C
:104600007049714801F07FF888B900231A461946AD
:104610006D4801F08EF8002844D0644A9A2100F0D9
:10462000C9FA3FE0614A962100F0C4FAE6E75F4A22
:10463000992100F0BFFAE8E7C38A3B8001237B8021
:10464000384606F0C1FE002830D1604AA168A08A31
:1046500006F0ECFF00282ED15D4BE2685B4909882B
:10466000E08A07F02DF858BB4E4B1B6813F4804FBF
:1046700003D04D4B1B68032B27D84A4B1B6813F400
:10468000804F03D0484B1B68032B41D8454B1B6818
:1046900013F4804F03D0444B1B68032B7BD80122BB
:1046A000454B1A701437BD46BDE8F0833F4AAA2136
:1046B00000F080FAC9E73D4AAD2100F07BFACBE774
:1046C0003A4AB22100F076FACEE72F21374811F0AE
:1046D00047FE80B12F21354811F042FE411C344B7A
:1046E000D3F80435E28A01923A4A0092B5220420B6
:1046F0000AF018F8C1E75C212C4811F031FE28B10E
:104700005C212A4811F02CFE411CE8E72749E6E726
:10471000E9468AB004ADAC46002312E0A268D25C40
:1047200059004FEA12182C4E306810F808000CF8A7
:104730001300013102F00F023068825C0CF8012096
:1047400001330F2BEAD9002385F820302F21174899
:1047500011F006FE90B12F21144811F001FE411C0A
:10476000134BD3F8043502951C4A01921C4A00925F
:10477000B622042009F0D6FFCD4687E75C210B481E
:1047800011F0EEFD28B15C21084811F0E9FD411C53
:10479000E6E70649E4E7E9468AB004ADAC46002303
:1047A00033E000BF1C32002018320020786503007F
:1047B00000B000406C640300BE3200208C64030033
:1047C000AC370020CC370020D0320020CC32002083
:1047D000C0320020A864030020320020D06403000F
:1047E000E4640300E268D25C59004FEA1218504EAC
:1047F000306810F808000CF81300013102F00F02C5
:104800003068825C0CF8012001330F2BEAD90023B9
:1048100085F820302F21474811F0A2FD90B12F21BB
:10482000444811F09DFD411C434BD3F804350295DB
:10483000424A0192424A0092B722042009F072FFD4
:10484000CD462CE75C213B4811F08AFD28B15C2164
:10485000384811F085FD411CE6E73649E4E7394B5D
:104860000FCB87E80F0010223946606800F074FF14
:10487000F0B9354B1B6813F4804F3FF413AF334B43
:104880001B68032B7FF60EAF2F212A4811F068FD1D
:1048900098B12F21274811F063FD411C264BD3F816
:1048A00004352B4A0092C022042009F03BFFF9E6B0
:1048B000204ABF2100F07EF9DBE75C211D4811F0A2
:1048C0004FFD28B15C211B4811F04AFD411CE5E772
:1048D0001849E3E71C4B1B6813F4804F3FF4E2AE2A
:1048E0001A4B1B68032B7FF6DDAE2F21114811F008
:1048F00037FD80B12F210F4811F032FD411C0E4BC6
:10490000D3F8043522780192124A0092CE22042074
:1049100009F008FFC6E65C21064811F021FD28B128
:104920005C21044811F01CFD411CE8E70149E6E761
:10493000203200207865030000B00040EC640300E2
:10494000E4640300E06303001C32002018320020FE
:10495000006503002865030000B583B0002300E074
:1049600001331F2B0DD84FF4F0321A4112F0010F12
:10497000F6D003F5E07203204FF0A04141F8220089
:10498000EEE73B4A04214FF4C04009F0AFFE394B3B
:104990001B6813F4804F17D0374B1B68032B13D9B8
:1049A0002F21364811F0DCFC002842D02F2133485B
:1049B00011F0D6FC411C324BD3F80435314A009239
:1049C000D822042009F0AEFE00F07EFA2E482F4BCC
:1049D00003600023436007F098FF06F0DDFC05F05C
:1049E00085F9FFF77DFC234B1B6813F4804F16D02D
:1049F000214B1B68032B12D92F21204811F0B0FC4A
:104A000020B32F211D4811F0ABFC411C1C4BD3F8E7
:104A100004351F4A0092E522042009F083FE00239A
:104A20001A4619461B4800F084FEE0B907F056FE0E
:104A3000FCE75C21114811F093FC28B15C210F4880
:104A400011F08EFC411CB6E70C49B4E75C210B4821
:104A500011F086FC28B15C21084811F081FC411C52
:104A6000D4E70649D2E7054AE62100F0A3F8DDE7DE
:104A7000C1E602001C3200201832002078650300D5
:104A800000B00040F0630300C4320020F54402008F
:104A900034640300D032002048DF704710DF7047D5
:104AA00060DF704761DF70474FF0A0434FF4F03292
:104AB000C3F80825C3F80C25EFF3108372B600285D
:104AC000FDD1704710B582B00446164B1B6813F435
:104AD000804F04D12046FFF7E7FF02B010BD2F2121
:104AE000114811F03DFC78B12F210F4811F038FC2E
:104AF000411C0E4BD3F8043501940D4A00924E220E
:104B0000002009F00FFEE5E75C21074811F028FCC2
:104B100028B15C21044811F023FC411CE9E702495B
:104B2000E7E700BF1C3200202466030000B000400D
:104B30006866030070B584B00C46194B1B6813F40B
:104B4000804F04D005461646164B1B6823B92046F5
:104B5000FFF7AAFF04B070BD2F21134811F000FC2D
:104B600088B12F21104811F0FBFB411C0F4BD3F8EB
:104B700004350396029401950D4A0092702201209B
:104B800009F0D0FDE3E75C21074811F0E9FB28B10B
:104B90005C21054811F0E4FB411CE7E70249E5E729
:104BA0001C320020183200202466030000B00040B0
:104BB0003C67030070B584B0194B1B6813F4804F39
:104BC00005D006460D461446164B1B6823B9012036
:104BD000FFF76AFF04B070BD2F21134811F0C0FB2E
:104BE00088B12F21104811F0BBFB411C0F4BD3F8AB
:104BF00004350396029501940D4A00924822012043
:104C000009F090FDE3E75C21074811F0A9FB28B10A
:104C10005C21054811F0A4FB411CE7E70249E5E7E8
:104C20001C320020183200202466030000B000402F
:104C30000466030000B583B0154B1B6813F4804F66
:104C400005D10120FFF730FF03B05DF804FB2F21F1
:104C5000104811F085FB70B12F210E4811F080FB38
:104C6000411C0D4BD3F804350C4A0092542200200D
:104C700009F058FDE5E75C21064811F071FB28B109
:104C80005C21044811F06CFB411CEAE70149E8E7AC
:104C90001C3200202466030000B00040F4650300CD
:104CA00000B583B002E0019807F02AFE01A8FFF7E3
:104CB000F3FE0028F7D05723ADF8023005E008488E
:104CC00007F01CFE5723ADF802300DF10201044835
:104CD000FFF7E8FE0028F2D003B05DF804FB00BF48
:104CE0000C38002010B584B0484B1B6813F4804F7B
:104CF00003D0474B1B68032B36D8464B0393039BCB
:104D00000293424B1B6813F4804F03D0404B1B6847
:104D1000032B4AD802A8FFF7C3FE0446039B029A5E
:104D20009A421ED0394B1B6813F4804F19D0384B70
:104D30001B68012B15D92F21374811F011FB0028D2
:104D400056D02F21344811F00BFB411C334BD3F8C4
:104D50000435029A0192324A00928C22022009F014
:104D6000E1FC204604B010BD2F212B4811F0F8FAC9
:104D700070B12F21284811F0F3FA411C274BD3F8CA
:104D80000435284A00927A22042009F0CBFCB4E7CB
:104D90005C21214811F0E4FA28B15C211E4811F091
:104DA000DFFA411CEAE71C49E8E72F211A4811F015
:104DB000D7FA80B12F21184811F0D2FA411C174BB5
:104DC000D3F80435039A0192174A009283220420F3
:104DD00009F0A8FC9EE75C210F4811F0C1FA28B148
:104DE0005C210D4811F0BCFA411CE8E70A49E6E7EE
:104DF0005C21094811F0B4FA28B15C21064811F091
:104E0000AFFA411CA2E70449A0E700BF1C32002012
:104E100018320020B83100202466030000B00040A2
:104E200000670300D4660300F066030000B583B09A
:104E300002AB43F8040D20491846FFF72FFEA8B92E
:104E40001E4B93F816335B09012B16D9042B16D091
:104E5000052B10D00123A3B942F2020008BBFFF7D3
:104E600041FF18BB002003B05DF804FB144A9321F6
:104E7000FFF7A0FEE4E70023EDE70023EBE70023C4
:104E8000E9E7104B9B682BB94FF480020B4B1A607B
:104E90000020E3E70B4A136843F48003136000200B
:104EA000DCE7074A9421FFF785FED8E7044A9721FB
:104EB000FFF780FED6E700BF354B020000E100E0BF
:104EC000246603000063002000B587B04F4B1B68C9
:104ED00013F4804F03D04E4B1B68032B28D84D4B47
:104EE00018680590FFF7A2FF484B1B6813F4804F2A
:104EF00003D0474B1B68032B3BD800230493059B2F
:104F00000293454B039302A807F062FB002851D19E
:104F10003E4B1B6813F4804F03D03D4B1B68032BA3
:104F20004DD807F0AFFB00286AD107B05DF804FB4D
:104F30002F213A4811F014FA70B12F21374811F09F
:104F40000FFA411C364BD3F80435364A0092B5228D
:104F5000042009F0E7FBC2E75C21304811F000FAB9
:104F600028B15C212D4811F0FBF9411CEAE72B49DF
:104F7000E8E72F21294811F0F3F970B12F212748D4
:104F800011F0EEF9411C264BD3F80435264A009265
:104F9000BF22042009F0C6FBAFE75C211F4811F0D7
:104FA000DFF928B15C211D4811F0DAF9411CEAE76C
:104FB0001A49E8E7194AC421FFF7FCFDA8E72F21A9
:104FC000164811F0CDF970B12F21144811F0C8F92D
:104FD000411C134BD3F80435144A0092C622042016
:104FE00009F0A0FB9DE75C210C4811F0B9F928B14C
:104FF0005C210A4811F0B4F9411CEAE70749E8E7E7
:10500000064AC721FFF7D6FD8FE700BF1C320020FC
:1050100018320020F0650300C54A02002466030030
:1050200000B0004084660300A0660300BC66030075
:105030000620704700B58DB00B238DF80430029028
:1050400000F50873049300F530730393D0F8D2325F
:105050000593B0F8D032ADF81830B0F8D632ADF8CC
:105060001A3090F8D8229DF81C3062F30003C2F386
:10507000400262F341038DF81C3001A806F0D8FE0F
:105080000DB05DF804FB30B58DB004460D4690F8C8
:10509000B332132B0DD0002384F8B33205238DF8DF
:1050A000043002948DF80C5001A806F0C1FE0DB03A
:1050B00030BD0029EFD1FFF7BDFFECE700B58DB0A3
:1050C000032380F8B33204238DF8043002900DEBF3
:1050D000030006F0ADFE0DB05DF804FB30B58DB0F9
:1050E000044690F8B432032B49D8DFE803F03D3191
:1050F000170207238DF80430029090F8AE328DF835
:105100000D3090F8AF328DF80C300C2380F8B332AC
:1051100001A806F08DFE00200DB030BD00F26D2517
:10512000294600F01FFE06238DF80430029494F8FF
:10513000AE328DF80D3094F8AF328DF80C30049506
:10514000102384F8B33201A806F072FE0020E3E7D2
:1051500008238DF8043002900D2380F8B33201A8A3
:1051600006F066FE0020D7E71022002100F26D2035
:1051700011F022F8102384F8B3320020CCE703208A
:10518000CAE710B58CB0044680F8B2120D228DF833
:10519000042002908DF80C1000F0ABFB58B10221F6
:1051A000204600F041FB01A806F042FE162384F8D9
:1051B000B3320CB010BD01A806F03AFE162384F8F5
:1051C000B332F6E710B58CB0044600F011FD70B9AB
:1051D00004F50071204600F0A7FDD0B92046FFF786
:1051E0007DFFA0B105212046FFF7CBFF0FE00C2388
:1051F0008DF804300294D4F8BC31049304F5E073C4
:1052000003930B2384F8B33201A806F011FE0CB00F
:1052100010BD02212046FFF7B4FFF8E710B582B0B9
:10522000044690F8B332033B132B25D8DFE803F094
:105230000A24240D24240F24241224162416241AAC
:105240001E24240D062380F8B33202B010BDFFF7F0
:10525000B9FFFAE7102380F8B332F6E7122380F89B
:10526000B332F2E7132380F8B332EEE7FFF7E2FE42
:10527000152384F8B332E8E7164B1B6813F0080FC8
:10528000E3D0154B1B68002BDFD02F21134811F002
:1052900067F890B12F21114811F062F8411C104BB2
:1052A000D3F8043594F8B32201920E4A009240F2EA
:1052B000E112012009F036FAC7E75C21074811F036
:1052C0004FF828B15C21054811F04AF8411CE6E787
:1052D0000249E4E71C320020183200206C6703000A
:1052E00000B00040B867030038B505460C460522FB
:1052F000013100F2A92010F054FFA37873B985F8AA
:10530000B032E37885F8B432E378012B0AD06379C0
:1053100085F8AE32237985F8AF3238BD012385F8A0
:10532000B032EEE71023F3E710B584B00446012352
:105330008DF8043090F8B5328DF80530B0F8B6220B
:10534000130A43EA0223ADF8063090F8B8328DF81C
:10535000083090F8B9328DF8093090F8BA328DF8EB
:105360000A30B0F8BB22130A43EA0223ADF80B302F
:1053700090F8BD328DF80D30B0F8BE22130A43EA22
:105380000223ADF80E3000F29D2201A900F052FA7E
:1053900008B904B010BD05212046FFF7F2FEF8E77A
:1053A00010B594B0044600F50C73029300F5107329
:1053B00003934B1C04931923ADF814300DF12D0306
:1053C00008931A31099100230693ADF81C30082286
:1053D0008DF8282014A901F8493D0DEB020008F0D2
:1053E00021FB9DF8073013B90B2014B010BD10221B
:1053F0000DF12D0104F5307010F0D3FE109A130258
:1054000003F47F0343EA0263110A01F47F410B4373
:1054100043EA1263C4F8D232BDF84420130A43EAC7
:105420000223A4F8D632BDF83D20130A43EA022332
:10543000A4F8D0329DF83F20C2F3400194F8D8324E
:1054400061F3000362F3410384F8D8320020CCE713
:1054500030B58DB005460C461146204600F0A6F941
:1054600050B12378092B00F2DC80DFE803F00BDA7F
:105470001925DA42749CDACC01212846FFF781FE17
:105480000DB030BD95F8B332032BF9D10122A1182C
:1054900005F29D2010F085FE2846FFF745FFEFE757
:1054A00095F8B332062BEBD121462846FFF71CFFB7
:1054B000092385F8B332E3E795F8B332092BDFD13E
:1054C0004022611C05F5E07010F06BFE95F8B032DB
:1054D0005BB9D5F8B811284600F0BAF90028CFD04A
:1054E00005212846FFF74DFECAE72846FFF76AFE6A
:1054F000C6E795F8B332102B0BD00D2BC0D110227C
:10550000611C05F28D2010F04CFE0E2385F8B3329D
:10551000B6E71022611C05F28D2010F042FE05F264
:105520004D2301AA05F27D21284600F067FB01A961
:10553000284600F0ACF90028A2D0042804D0784610
:105540003D4B1B682BB1984705212846FFF719FEF4
:1055500096E700DEF8E795F8B332122B90D11022CF
:10556000611C05F25D2010F01CFE284600F050FC86
:1055700078B105F24D21284600F09CF970B905F587
:10558000087305F5107205F50C71284600F074FBE0
:1055900076E704212846FFF7F4FD71E70521284648
:1055A000FFF7EFFD6CE795F8B332132B7FF468AF8C
:1055B00021462846FFF7F4FE88B9B5F8D032B3F596
:1055C000805F11D30023CBB1284600F086F9002874
:1055D0003FF456AF05212846FFF7D3FD50E70621DB
:1055E0002846FFF7CEFD4BE7B5F8D60206F0E4FFFC
:1055F000012801D00023E6E70123E4E70221284641
:10560000FFF7BFFD3CE70D238DF80430029563786A
:105610008DF80C3001A806F00BFC162385F8B33288
:105620002EE795F8B332162B3FF42AAF0121284616
:10563000FFF7A7FD24E700BF0C63002070B590F8CA
:10564000B34214B10821084670BD1E4615460446F3
:10565000022380F8B332012380F8B132064B074AA7
:1056600000F0B6F801460028EDD132462946204622
:1056700000F0CAF80146E6E7008793035C67030081
:1056800090F8B3320C3BDBB2022B01D908207047F3
:10569000102A01D90920704790F8AE329A4201D001
:1056A0000920704770B584B015460E46044602F5D1
:1056B0001A702044C2F110020021053010F07CFD68
:1056C0002A46314604F26D2010F06BFD94F8B33297
:1056D0000C2B07D00E2B09D0102384F8B3320020F6
:1056E00004B070BD204600F0C6F8F9E704F24D237F
:1056F0006A4604F27D21204600F080FA6946204681
:1057000000F0C5F8ECE710B590F8B3420CB10820F2
:1057100010BDC0F8B811C0F8BC210B22194600F228
:10572000B52010F03EFD002010BD08B500F094FA41
:1057300008BD70B5044615461E4639B1002149B171
:1057400033462A462046FFF779FF70BD01F0F0FC92
:105750000146F4E7062070BD08B590F8B13213B1E8
:10576000FFF78EFF08BDFFF763FC08BD70B5044668
:1057700016460D4641B17CB1D4F8B0311B683246B3
:1057800029462046984770BD7846074B1B680BB1E9
:105790009847F0E700DEEEE77846034B1B680BB155
:1057A0009847E9E700DEE7E70C63002050B1037893
:1057B000092B09D8054AD35C8B4201D000207047E1
:1057C000012070470020704700207047E867030001
:1057D00090B110B4044689B192B10A48834203D80B
:1057E00007205DF8044B7047C4F8B431C4F8AC210D
:1057F000C4F8B0110020F4E70E2070470E20F0E747
:105800000E20EEE7FF86930310B5D0F8B041646830
:10581000D0F8B431A04710BD10B5D0F8B021D4688D
:10582000D0F8B421A04710BD08B5D0F8B0311B693D
:10583000984708BD38B505460C46501C0B2201316F
:1058400010F0AFFC0C2221462846FFF78FFF38BD31
:1058500030B593B0054612AC032304F8443D402212
:105860000DF1050010F09DFC412221462846FFF76E
:105870007DFF13B030BD00B583B002A9042301F849
:10588000043D0122FFF772FF03B05DF804FB30B561
:1058900087B0054606AC052304F8143D10220DEB35
:1058A000030010F07EFC112221462846FFF75EFF20
:1058B00007B030BD30B587B0054606AC062304F806
:1058C000143D10220DF1050010F06BFC1122214651
:1058D0002846FFF74BFF07B030BD00B583B002A9E3
:1058E000082301F8043D0122FFF740FF03B05DF8F3
:1058F00004FB00B583B009238DF804308DF8051042
:10590000022201A9FFF732FF03B05DF804FB08B5DE
:10591000FFF72CFF08BD08B5D0F8AC319B6898475D
:1059200008BD08B5D0F8AC31DB68984708BD000069
:1059300070B582B004460D4616461A4B1B6813F02C
:10594000080F03D0184B1B68032B08D8D4F8AC31D0
:105950001B68324629462046984702B070BD2F2169
:10596000124810F0FDFC80B12F21104810F0F8FC17
:10597000411C0F4BD3F804352A7801920D4A00924E
:10598000DF22042008F0CEFEE0E75C21074810F09B
:10599000E7FC28B15C21054810F0E2FC411CE8E777
:1059A0000249E6E71C32002018320020F4670300A9
:1059B00000B000403C68030008B5D0F8AC315B682B
:1059C000984708BD70B58AB00646144621B30D4607
:1059D000084610F0BDFC6A4681B2284608F09AF8E5
:1059E000042269460DF1220010F0DBFB1625220A85
:1059F00042EA0422ADF8202006F016FA10220146F1
:105A00000DEB020010F0CDFB2B4604AA002130461E
:105A10000AF026F90AB070BD1225E8E770B58CB01F
:105A20000C461546064670B1162C06D0122C04D032
:105A30007846254B1B6873B1984775B1234B1B788B
:105A40009BB90CB070BD78461F4B1B680BB19847D3
:105A5000EAE700DEE8E700DEEFE778461A4B1B686E
:105A60000BB19847EAE700DEE8E72C22002101A805
:105A700010F0A2FB08951022314602A810F091FB0D
:105A80002B78012B14BF002301238DF8183003233A
:105A90008DF80430162C0BD000218DF8191004223B
:105AA0000DF11A0010F088FB01A806F0C1F9C8E753
:105AB00001238DF81930042206F112010DF11A00AC
:105AC00010F06FFBF0E700BF0C630020B83100203E
:105AD00030B583B005460C4601210DF1070007F0F3
:105AE00023FB611C9DF8072092FBF1F301FB1321BE
:105AF000E97303B030BD000030B583B005460C46F5
:105B0000684607F011FB002110E002AB0B4413F8CC
:105B1000082C084BA3FB0203DB0803EBC30398002C
:105B2000121AD2B2044B9B5C6B540131A142ECD3EC
:105B300003B030BD398EE3385068030030B583B010
:105B400004460D4604210DEB010007F0EDFA0E4B63
:105B500053F825200199B1FBF2F302FB1312130253
:105B600003F47F0343EA0263110A01F47F410B430C
:105B700043EA1263019304220DEB020104F10C00CD
:105B800010F00FFB03B030BD7868030030B5A7B04C
:105B900004460D46112200F29D2101A810F001FBE0
:105BA00094F8B132A3B1402204F5E0710DF1150073
:105BB00010F0F7FA4022D4F8B8110DF1550010F0AA
:105BC000F0FA2A46912101A807F0A4FF27B030BDC2
:105BD0004022D4F8B8110DF1150010F0E2FA40227D
:105BE00004F5E0710DF1550010F0DBFAE9E7000073
:105BF000014B1878704700BF633800202DE9F04151
:105C00008EB00546884617461E46FFF7BFFF0AAC12
:105C10000194042300930F4B4246202105F50070A8
:105C200007F096FF1021304607F07EFA1022314629
:105C300002A810F0B6FA102205F26D2106A810F0A5
:105C4000B0FA3B46202202A9204607F0E3FE0EB040
:105C5000BDE8F0819C68030038B504460D4610F09D
:105C60004FF902462946204610F04EF9012801D08E
:105C7000032038BD002038BDF0B597B004460D466E
:105C800017461E46102200F27D210AA810F089FA5C
:105C900094F8B132002B34D0102204F25D210EA80A
:105CA00010F07FFA102204F24D2112A810F079FAB8
:105CB00006AA30210AA807F02DFF04F5007401950B
:105CC00004250095154B06AA2021204607F040FF29
:105CD00002AB01930095124B06AA2021204607F043
:105CE00037FF0D220DF10B01384610F05AFA0196DC
:105CF00000950C4B06AA2021204607F029FF17B07B
:105D0000F0BD102204F24D210EA810F04AFA102224
:105D100004F25D2112A810F044FAC9E7A468030058
:105D2000AC680300B468030070B505460E4600F584
:105D3000E07410F0E5F80146204610F0C0F908B90B
:105D4000032070BDD5F8BC5110F0DAF80346324696
:105D50002946204610F01AF908B9032070BD00202A
:105D600070BD000038B504460D4690F8AE32013BD8
:105D7000DBB2072B04D97846244B1B6863B19847E4
:105D800010220021284610F017FA94F8B432022BA2
:105D900004D0032B1ED038BD00DEF1E794F8AF32FB
:105DA000013B042B30D8DFE803F0030303090F00A5
:105DB00094F8AE122846FFF78BFE38BD94F8AE1269
:105DC0002846FFF7BBFE38BD94F8AE122846FFF711
:105DD00093FE38BD94F8AF32013B032B14D8DFE8B3
:105DE00003F00202080E94F8AE122846FFF770FE88
:105DF00038BD94F8AE122846FFF7A0FE38BD94F8DF
:105E0000AE122846FFF778FE38BD00BF0C630020B5
:105E100030B593B004460EAD019504230093124BA8
:105E200000F27D22202100F5007007F091FE102283
:105E300004F25D2106A810F0B4F9102204F26D21DD
:105E40000AA810F0AEF902AB202206A9284607F0F6
:105E5000E1FD102204F28D2102A810F093F9B0FAAE
:105E600080F0400913B030BD9C680300EFF310814F
:105E700072B6074B1B6833B193F89920824202D067
:105E8000D3F8A831F7E701B962B61846704700BFEA
:105E900064380020EFF3108172B6074B1B6833B1F2
:105EA000D3F89420824202D0D3F8A831F7E701B9A1
:105EB00062B61846704700BF6438002070B50546CA
:105EC000164B1B6853B1EFF3108672B6134B1C6868
:105ED000AC420ED1D5F8A8211A601BE07846104BD1
:105EE0001B680BB19847EEE700DEECE700DED4F864
:105EF000A841D4F8A8319D4208D0002BF7D17846AC
:105F0000074B1B68002BF1D09847F0E7D5F8A83174
:105F1000C4F8A83106B962B670BD00BF643800206D
:105F20000C63002010B5044628B194F89930012B79
:105F300009D0082010BD7846084B1B680BB1984764
:105F4000F3E700DEF1E72046FFF7B8FF20460AF04E
:105F5000B1FC002084F8990010BD00BF0C63002044
:105F600038B504460D4690F89930023BDBB2022B5F
:105F700004D97846134B1B68FBB198472046FFF7BE
:105F80009DFF94F89830012B04D078460D4B1B6888
:105F9000ABB1984720460AF08DFC002384F8983076
:105FA00084F8D83084F8993004F1B80006F08AFEFD
:105FB00029462046FFF7B5FC38BD00DEDEE700DEEF
:105FC000E8E700BF0C63002008B502310AF06CFB63
:105FD00008BD00002DE9F0410646884615461F46DB
:105FE0001146FFF7F1FF38B304466B1C43742923B5
:105FF00083742A464146133010F0D3F82771EFF32B
:10600000108772B6D6F8A0510135C6F8A051B5F187
:10601000FF3F09D007B962B62560214630460AF035
:1060200091FB0020BDE8F0817846054B1B680BB161
:106030009847EFE700DEEDE70420BDE8F08100BF00
:106040000C63002030B589B00446002855D094F880
:106050009930032B05D078462F4B1B68002B54D06A
:10606000984794F8D830022B05D078462A4B1B6805
:10607000002B4CD0984794F8D920142A49D895B2CF
:10608000D4F894100B0203F47F0343EA0163080A77
:1060900000F47F40034343EA1163009394F89B307C
:1060A0008DF804309DF80510931C1C48A0FB0303D9
:1060B000C3F3051301F0FC0163F387018DF80510AC
:1060C00094F8DA308DF808301202ADF806202A462E
:1060D00004F1DC010DF1090010F063F8012305F172
:1060E000090269462046FFF775FF034610B90122F1
:1060F00084F8DB20184609B030BD7846064B1B6893
:106100000BB19847A3E700DEA1E700DEA9E700DEB8
:10611000B1E71425B4E700BF0C630020C94216B2F2
:1061200070B588B004464B1E03EB4300C3EBC000C0
:1061300080B2143080B294F8D9502D1AADB2172D18
:1061400000D91725D4F89420130203F47F0343EAFF
:106150000263160A06F47F46334343EA1263009350
:1061600094F89B308DF804309DF80530022262F3DC
:10617000010361F387038DF8053000F1D801214454
:106180002A4604310DF1060010F00BF80123AA1D78
:1061900069462046FFF71EFF024620B994F8DB301F
:1061A000013384F8DB30104608B070BD38B50546C1
:1061B00090F8D830022B04D07846114B1B68BBB145
:1061C000984795F8DB30ABB195F8DB4095F8D930BE
:1061D00002330C4AA2FB03231B090133DBB29C42AE
:1061E0000DD2E1B22846FFF79BFF40B90134EDE73D
:1061F00000DEE6E72846FFF725FF0028E4D038BD9B
:106200000C630020C94216B210B5044690F89930CC
:10621000042B04D090F8D830022B0ED010BD90F88B
:10622000D830022B05D094F89C102046FFF798FE3A
:1062300010BDA03006F046FDF5E7FFF7B7FFEDE72C
:1062400010B5094B1C6801E0D4F8A84154B194F88A
:10625000A431002BF8D0002384F8A4312046FFF7A6
:10626000D3FFF1E710BD00BF6438002010B588B03F
:10627000D0F89420130203F47F0343EA0263140A64
:1062800004F47F44234343EA1263009300238DF810
:1062900004309DF8053043F00303022262F38703C4
:1062A0008DF805308DF80610042307226946FFF7A4
:1062B00091FE08B010BD000038B50D460446F8B197
:1062C000022D04D97846174B1B680BB3984794F8F6
:1062D00099302BB3042B23D0023BDBB2012B04D922
:1062E0007846104B1B68ABB1984729462046FFF70C
:1062F000BDFF88B9042384F8993084F89C5038BDD8
:106300007846084B1B680BB19847D9E700DED7E702
:1063100000DEDCE700DEE8E729462046FFF720FE46
:1063200038BD00BF0C63002010B588B00446D0F81B
:106330009420130203F47F0343EA0263100A00F47B
:106340007F40034343EA1263009300228DF8042048
:106350009DF8053043F0030362F387038DF80530A1
:1063600010220DF106000FF01CFF042316226946CF
:106370002046FFF72FFE08B010BD10B588B0D0F84A
:106380009420130203F47F0343EA0263140A04F423
:106390007F44234343EA126300938DF804109DF871
:1063A0000520012363F301026FF387028DF80520B6
:1063B00006226946FFF70EFE08B010BD00B589B091
:1063C000D0F89420130203F47F0343EA0263110A16
:1063D00001F47F410B4343EA1263009300238DF8DD
:1063E00004309DF8052042F00302012363F3870285
:1063F0008DF8052006226946FFF7ECFD09B05DF82F
:1064000004FB000010B50246002380F8D83080F865
:106410009B3080F89A30012480F8984080F89930B9
:10642000C0F8A0310A4CC0F8A840C2F8B000C0F8CB
:10643000D4100849C0F8C010C2F8C800C0F8C43071
:10644000802300F5907204490AF06EFA10BD00BF77
:10645000896402007D6402005D64020008B5D0F822
:10646000A0318B4200D008BD012380F8A431024B3B
:10647000186807F043FAF6E7BC31002008B5084673
:106480000121FFF7D1F908BD91F89930032B03D012
:106490000023C1F8AC30704791F8D830022BF7D107
:1064A00030B583B00C460546D1F8D0301B1A002B0E
:1064B00010DB254B1B6813F0080F03D0234B1B6820
:1064C000042B1CD8002384F8DB302046FFF76EFE37
:1064D00003B030BD01212046FFF7C8FE48B90423B0
:1064E00084F89930012384F89C300023C4F8AC3040
:1064F000EEE7174BC4F8AC30C4F8D050E8E72F21D2
:1065000014480FF02DFF90B12F2112480FF028FFF3
:10651000411C114BD3F8043594F8DC2001920F4A4A
:10652000009240F29532052008F0FCF8CAE75C21A1
:1065300008480FF015FF28B15C2106480FF010FF46
:10654000411CE6E70349E4E71C3200201832002032
:1065500040420F00806C030000B00040CC6C030090
:10656000EFF3108372B61C4A1168C0F8A8111060CE
:1065700003B962B6194B1B6813F0080F03D0184B10
:106580001B68032B00D8704710B582B004462F213A
:1065900014480FF0E5FE88B12F2112480FF0E0FEFD
:1065A000411C114BD3F804350194104A00924FF46A
:1065B000B572042008F0B6F802B010BD5C2109489D
:1065C0000FF0CEFE28B15C2106480FF0C9FE411C39
:1065D000E7E70449E5E700BF643800201C320020EB
:1065E00018320020806C030000B00040BC6803003B
:1065F00038B50546FFF7E6F9044670B1FF2323716D
:106600004FF0FF3323604FF4FA6128460AF002F995
:10661000214628460AF096F838BD7846034B1B6899
:106620000BB19847EAE700DEE8E700BF0C63002003
:10663000F8B50E4617461D460446F8B194F8983052
:10664000012B23D029462046FFF7DCFE0025C4F8A5
:106650009450802384F89B3084F89A503A4631460F
:106660002046FFF7C5FF204609F0FCFF2046FFF754
:1066700077FF012384F899302846F8BD7846064B09
:106680001B680BB19847D9E700DED7E794F899303B
:10669000002BD7D00820F8BD0C63002070B50D4644
:1066A00016460446D0B194F89830012B1ED03146DE
:1066B0002046FFF7A7FE042104F1940006F034FD04
:1066C000002384F89B30802384F89A3029462046A2
:1066D000FFF72AFE054678B1284670BD7846104B74
:1066E0001B680BB19847DEE700DEDCE794F89930D1
:1066F000002BDCD00825EFE706F0BEFBD4F8D41061
:10670000014404F1B80006F013FB204609F0AAFF8B
:106710002046FFF725FF022384F89930DCE700BF0D
:106720000C63002030B583B090F8D830022B1FD016
:106730003F4B1B6813F0080F18D03E4B1B68012B12
:1067400014D92F213C480FF00BFE002862D02F21D6
:1067500039480FF005FE411C384BD3F80435384A50
:10676000009240F20A32022007F0DCFF03B030BD95
:1067700004460A7990F89B309A42D9D12C4B1B6879
:1067800013F0080F03D02B4B1B68032B1DD80025DB
:10679000C4F8AC5004F1A00006F094FA20460AF0C8
:1067A00089F894F89B30013384F89B3084F8D850F2
:1067B00006F062FBD4F8D410014404F1B80006F0EE
:1067C000B7FA2046FFF7F8F8D0E72F211A480FF064
:1067D000C7FD90B12F2118480FF0C2FD411C174B87
:1067E000D3F8043594F8DC200192164A00924FF455
:1067F0003E72042007F096FFC9E75C210E480FF0B7
:10680000AFFD28B15C210C480FF0AAFD411CE6E762
:106810000949E4E75C2108480FF0A2FD28B15C219A
:1068200005480FF09DFD411C96E7034994E700BF22
:106830001C32002018320020806C030000B00040A1
:10684000C46A0300A86A030070B582B005464B799C
:106850009B08012B00F0A2800C462BB3022B00F00A
:106860001781B74B1B6813F0080F1FD0B54B1B687F
:10687000012B1BD92F21B4480FF072FD002800F026
:106880008F812F21B0480FF06BFD411CAF4BD3F827
:106890000435627992080192AD4A00924FF45B721E
:1068A000022007F03FFF01E0162A01D002B070BDC0
:1068B0008E1D05F0B9FA1022014630460FF062FC39
:1068C0000028F3D17DB1002DF0D095F89930012B3F
:1068D0000ED0032BEAD195F8D830002BE6D128460C
:1068E000FFF76CFDE2E70120FFF7C0FA0546EAE793
:1068F0002268130203F47F0343EA0263110A01F4DE
:106900007F410B4343EA1263C5F8943014212846B3
:1069100009F080FF2846FFF751FD00283AD1884B47
:106920001B6813F0080F03D0864B1B68032B0FD88E
:10693000032385F8993006F09FFAD5F8D410014466
:1069400005F1B80006F0F4F92846FEF7E4FFADE7DC
:106950002F217D480FF004FD78B12F217A480FF0E8
:10696000FFFC411C794BD3F804357A4A009240F27F
:106970002B32042007F0D6FEDAE75C2172480FF0D4
:10698000EFFC28B15C2170480FF0EAFC411CE9E7FC
:106990006D49E7E70023C5F8943087E7002885D0E4
:1069A000062A83D190F89930022B23D0644B1B68C0
:1069B00013F0080F3FF47AAF624B1B68012B7FF690
:1069C00075AF2F2160480FF0CBFC002853D02F214A
:1069D0005D480FF0C5FC411C5C4BD3F8043595F8BD
:1069E000992001925C4A00924FF45472022007F001
:1069F00099FE5BE709F05EFF1421284609F00AFFC3
:106A00004F4B1B6813F0080F03D04E4B1B68032B32
:106A10000FD8032385F8993006F02EFAD5F8D41054
:106A2000014405F1B80006F083F92846FEF773FF2C
:106A30003CE72F2144480FF093FC78B12F214248C6
:106A40000FF08EFC411C414BD3F80435414A0092B3
:106A50004FF45272042007F065FEDAE75C213A48F1
:106A60000FF07EFC28B15C2137480FF079FC411C07
:106A7000E9E73549E7E75C2133480FF071FC28B1BD
:106A80005C2131480FF06CFC411CA5E72E49A3E7BF
:106A900000283FF40BAF072A7FF408AF90F8993035
:106AA000023BDBB2012B23D9254B1B6813F0080FE7
:106AB0003FF4FCAE234B1B68012B7FF6F7AE2F2172
:106AC00021480FF04DFC00285DD02F211E480FF00B
:106AD00047FC411C1D4BD3F8043595F899200192D1
:106AE0001E4A009240F26732022007F01BFEDDE6EC
:106AF00090F8D830022B35D0A1792846FFF730FA2C
:106B00000F4B1B6813F0080F3FF4D0AE0D4B1B6802
:106B1000032B7FF6CBAE2F210B480FF021FC28B3BF
:106B20002F2109480FF01CFC411C084BD3F80435F9
:106B30000B4A009240F26232042007F0F3FDB5E602
:106B40001C32002018320020806C030000B000408E
:106B5000806A0300E8690300006A03004C6A0300CE
:106B6000346A0300A03006F0ADF8C5E75C21134895
:106B70000FF0F6FB28B15C2110480FF0F1FB411C2F
:106B8000D3E70E49D1E75C210C480FF0E9FB28B1AF
:106B90005C210A480FF0E4FB411C9BE7074999E799
:106BA0005C2106480FF0DCFB28B15C2103480FF0A4
:106BB000D7FB411C6AE6014968E600BF806C030010
:106BC0000022FF238A420CDA10B4845C6340064C36
:106BD000E35C01328A42F8DBD843C0B25DF8044B73
:106BE0007047D843C0B27047E8680300F8B590F822
:106BF0009930032B01D00820F8BD412A01D9092082
:106C0000F8BD90F8D8300BB11120F8BD16460F46EC
:106C1000044606F031F9D4F8D410014404F1B80068
:106C200006F086F806F028F90546B31C1A4AA2FBBE
:106C300003231B090133DBB2A26E02FB03F303F54E
:106C4000F41101F59061C4F8AC10144BC4F8A830ED
:106C5000014404F1A00006F06BF8114B2B44C4F87A
:106C6000D030C4F8B040002584F8DB50022384F80B
:106C7000D83084F8D96031463846FFF7A1FF84F850
:106C8000DA003246394604F1DC000FF08AFA204679
:106C9000FFF78CFA2846F8BDC94216B28964020093
:106CA00080C3C9012DE9F04393B007460C469046D6
:106CB0000B78012B04D078461B4B1B686BB19847AF
:106CC000A678251D61782846FFF77AFF864206D010
:106CD0000023237013B0BDE8F08300DEF0E797F8DF
:106CE0009A103846FFF749FB4FF0000984F80390EB
:106CF00008F1010887F89A8066783246294601A88B
:106D00000FF04FFA84F8009006F0B6F8D7F8D410D8
:106D1000014407F1B80006F00BF8324601A93846E5
:106D2000FEF706FED6E700BF0C63002070B584B006
:106D300004460D4690F8D830002B61D1097990F8BF
:106D40009A3099422BD3EB881B0A80F8D930023352
:106D50009049A1FB03131B090133DBB2072B1AD89F
:106D60002B7A80F8DA30012380F8D83080F8DB30D5
:106D7000A2F10906324605F10901DC300FF011FAE3
:106D800094F8D9309E4217D12A7904F1D8012046CF
:106D9000FFF788FF10E00221FFF78EFA0CE07E4B30
:106DA0001B6813F0080F03D07C4B1B68042B05D81D
:106DB00029792046FFF7E1FA04B070BD2F21784809
:106DC0000FF0CEFA78B12F2175480FF0C9FA411CA7
:106DD000744BD3F80435744A009240F2A322052084
:106DE00007F0A0FCE4E75C216D480FF0B9FA28B188
:106DF0005C216B480FF0B4FA411CE9E76849E7E70A
:106E0000022B1FD0644B1B6813F0080FD4D0634BC8
:106E10001B68012BD0D92F2161480FF0A1FA00285F
:106E200000F0AB802F215E480FF09AFA411C5D4BB9
:106E3000D3F804355D4A009240F2BD22022007F0EB
:106E400071FCB9E70A7990F89A309A422FD2524BE6
:106E50001B6813F0080F03D0504B1B68042B04D899
:106E600029792046FFF789FAA6E72F214C480FF031
:106E700077FA78B12F214A480FF072FA411C494B3A
:106E8000D3F80435484A009240F2AF22052007F0BB
:106E900049FCE5E75C2142480FF062FA28B15C2129
:106EA0003F480FF05DFA411CE9E73D49E7E79A42A8
:106EB00031D9394B1B6813F0080F3FF47DAF374BC6
:106EC0001B68012B7FF678AF2F2135480FF048FA69
:106ED000A0B12F2132480FF043FA411C314BD3F8B7
:106EE00004352A7994F89A0002900192304A00926F
:106EF0004FF42D72022007F015FC5DE75C21284855
:106F00000FF02EFA28B15C2125480FF029FA411C18
:106F1000E4E72349E2E7204B1B6813F0080F3FF436
:106F20004BAF1E4B1B68042B7FF646AF2F211C482E
:106F30000FF016FAA0B12F2119480FF011FA411CD9
:106F4000184BD3F804352A7994F89A0002900192EC
:106F5000184A00924FF42E72052007F0E3FB2BE74E
:106F60005C210F480FF0FCF928B15C210C480FF0B0
:106F7000F7F9411CE4E70A49E2E75C2108480FF011
:106F8000EFF928B15C2106480FF0EAF9411C4EE701
:106F900003494CE7C94216B21C32002018320020C7
:106FA000806C030000B00040606B0300386C03008D
:106FB000B06B0300FC6B030030B585B004460D4692
:106FC00090F8D830012B2ED0097990F89A30994258
:106FD000C0F08F80994240F28E804E4B1B6813F0B8
:106FE000080F00F088804C4B1B68012B40F2838017
:106FF0002F214A480FF0B4F900287ED02F214748AE
:107000000FF0AEF9411C464BD3F804352A7994F8B9
:107010009A0002900192434A009240F2EE2202202E
:1070200007F080FB67E0097990F89A3099421ED00A
:10703000384B1B6813F0080F5DD0374B1B68012BD2
:1070400059D92F2135480FF08BF9002844D02F2132
:1070500032480FF085F9411C314BD3F80435324AE0
:10706000009240F2E222022007F05CFB43E090F83D
:10707000DB106B799B08194111F0010F3BD1013BEB
:1070800003EB4300C3EBC00303F1EC002044063ADA
:10709000A91D04300FF085F86A799208012000FAE2
:1070A00002F194F8DB200A43D2B284F8DB200244D8
:1070B00094F8D93002331D49A1FB03131B09034483
:1070C000DBB200FA03F39A4215D12A7904F1D80110
:1070D0002046FFF7E7FD0EE05C2110480FF040F975
:1070E00028B15C210D480FF03BF9411CB4E70B4976
:1070F000B2E7FFF742F905B030BD5C2107480FF059
:107100002FF928B15C2105480FF02AF9411C7AE7D4
:10711000024978E71C32002018320020806C0300FE
:1071200000B00040186B0300E46A0300C94216B2C5
:1071300008B5064B1B68B3F1FF3F01D0044808BDFA
:10714000044806F0B1FB014B1860F7E7BC310020A2
:107150006C6C03004162020070B50D461646044691
:10716000B8B1F6B12068030203F47F0343EA006379
:10717000020A02F47F42134343EA1060FEF78AFEDC
:10718000637903F00303032B34D8DFE803F0121C08
:10719000252F7846184B1B680BB19847E1E700DEB6
:1071A000DFE77846144B1B680BB19847DAE700DE3F
:1071B000D8E7F8B190F89930032B1BD12A46214625
:1071C000FFF7B4FD70BDA8B190F89930032B11D131
:1071D0002146FFF7A7FA70BD60B190F89930032BF4
:1071E00008D12A462146FFF7E7FE70BD2A46214610
:1071F000FFF72AFB70BD00BF0C630020F0B48CB019
:1072000007460E466C461F4D0FCD0FC40FCD0FC461
:1072100095E80F0084E80F00388812280DD000236D
:10722000072B2AD803EB43014A000CA90A4432F881
:10723000302C90420BD00133F2E70A2333703889A7
:10724000013880B240288CBF0020012016E003EBFB
:1072500043014A000CA90A4432F82E1C3A89914293
:1072600001D000200AE003EB43035A000CAB1A44A0
:1072700012F82C3C3370012000E000200CB0F0BC70
:10728000704700BFE06C03008378082B09D1B0F889
:10729000CC1148F26D02914201D018467047C37874
:1072A000FBE730B585B00D460446194B1B6813F457
:1072B000005F03D0174B1B68032B03D8A378184635
:1072C00005B030BD2F2114480FF04AF898B12F2196
:1072D00011480FF045F8411C104BD3F804352A78BB
:1072E000A578029501920E4A009240F2E312042022
:1072F00007F018FAE2E75C2107480FF031F828B1EF
:107300005C2105480FF02CF8411CE5E70249E3E752
:107310001C32002018320020586F030000B00040DB
:10732000AC6F030083788B420AD0C37081701A4B14
:107330001B6813F4005F03D0184B1B68042B00D8A4
:10734000704710B584B004462F2115480FF008F897
:10735000A0B12F2112480FF003F8411C114BD3F8B4
:107360000435E278A478029401920F4A009240F228
:107370000712052007F0D6F904B010BD5C210848BB
:107380000EF0EEFF28B15C2105480EF0E9FF411C2C
:10739000E4E70349E2E700BF1C3200201832002076
:1073A000586F030000B00040106D0300794B1B784C
:1073B00003B1704730B595B004460122754B1A7081
:1073C000754804F017FE054623E05C2173480EF073
:1073D000C7FF00283BD05C2170480EF0C1FF411C64
:1073E0006F4BD3F804359DF8082001926D4A009246
:1073F00040F2CB32052007F095F914A911F8482D79
:10740000694B53F822302046984701462046FFF743
:1074100089FF02A9654804F0C0FDD0B99DF8083085
:10742000092BEAD0624B1B6813F4005FE5D0614B77
:107430001B68042BE1D92F2158480EF091FF00283A
:10744000C3D02F2155480EF08BFF411CC8E753498C
:10745000C6E79DF80830092B00D085B994F8D831DB
:1074600043B19DF80830092B04D00E2B02D0A3782D
:10747000022B54D00022474B1A7015B030BD46483D
:1074800004F0B8FD8542E9D102A9434804F085FD26
:1074900020B17846484B1B68D3B198479DF8083017
:1074A000092B08D0424B1B6813F4005F03D0414BFB
:1074B0001B68042B0ED814A911F8482D3A4B53F829
:1074C00022302046984701462046FFF72BFFC5E7AC
:1074D00000DEE3E72F2131480EF042FF90B12F216B
:1074E0002E480EF03DFF411C2D4BD3F804359DF87E
:1074F000082001922B4A009240F2D732052007F073
:1075000011F9D8E75C2125480EF02AFF28B15C214B
:1075100022480EF025FF411CE6E72049E4E700235E
:107520008DF80830224B1B6813F4005F03D0214B09
:107530001B68042B09D83322002120480EF03CFEA2
:1075400003212046FFF7EEFE94E72F2113480EF0AB
:1075500007FF90B12F2111480EF002FF411C104B84
:10756000D3F804359DF8082001920E4A00924FF49A
:107570007972052007F0D6F8DDE75C2107480EF0A8
:10758000EFFE28B15C2105480EF0EAFE411CE6E75B
:107590000249E4E770380020B8380020586F030033
:1075A00000B000403C700300786D03005C3900209F
:1075B0001C320020183200200C630020003A00200A
:1075C00030B595B014460D4649B184B1012C3CD07C
:1075D0007846424B1B68002B7DD098476AE078467E
:1075E0003E4B1B680BB19847EFE700DEEDE73C4BE5
:1075F0001B6813F4005F5DD03A4B1B68042B59D90C
:107600002F2139480EF0ACFE90B12F2136480EF0F4
:10761000A7FE411C354BD3F80435B5F8C0210192C3
:10762000334A009240F23712052007F07BF841E020
:107630005C212D480EF094FE28B15C212A480EF002
:107640008FFE411CE6E72849E4E7254B1B6813F44D
:10765000005F1AD0234B1B68012B16D92F2122481B
:107660000EF07EFE40B32F211F480EF079FE411C24
:107670001E4BD3F80435B5F8C02101921D4A009283
:107680004FF49E72022007F04DF84822002102A814
:107690000EF092FD0E238DF8083002A9164804F072
:1076A0004FFC20B178460D4B1B6893B19847284694
:1076B000FFF77CFE15B030BD5C210B480EF050FE8C
:1076C00028B15C2108480EF04BFE411CD0E706496A
:1076D000CEE700DEEBE700DEECE700BF0C63002046
:1076E0001C32002018320020586F030000B0004008
:1076F00048700300647003005C390020124B1B6863
:107700000433834200D0704710B592B00C46482233
:10771000002168460EF050FD07238DF800308DF8EB
:1077200004406946094804F00BFC20B17846084B38
:107730001B6833B19847044B1868FFF737FE12B047
:1077400010BD00DEF7E700BF343A00205C390020AE
:107750000C630020114B1B680433834200D0704738
:1077600000B593B04822002168460EF025FD0523A0
:107770008DF8003069460A4804F0E2FB20B17846F3
:10778000084B1B683BB19847044B1868FFF70EFE87
:1077900013B05DF804FB00DEF6E700BF343A0020CA
:1077A0005C3900200C630020114B1B6804338342BA
:1077B00000D0704700B593B04822002168460EF013
:1077C000FBFC0B238DF8003069460A4804F0B8FB37
:1077D00020B17846084B1B683BB19847044B1868AA
:1077E000FFF7E4FD13B05DF804FB00DEF6E700BF31
:1077F000343A00205C3900200C63002030B585B09D
:1078000004464B685D688078082841D1B4F8CC21E3
:1078100048F260039A4245D12B78032B09D8DFE860
:1078200003F0690202690221201DFDF7FDFF02201D
:1078300038E0314B1B6813F4005F03D02F4B1B68FB
:10784000042B01D8A0782DE02F212D480EF088FDC3
:1078500088B12F212A480EF083FD411C294BD3F813
:1078600004352A780192284A00924FF46B72052061
:1078700006F058FFE6E75C2121480EF071FD28B1C3
:107880005C211F480EF06CFD411CE7E71C49E5E751
:10789000194B1B6813F4005F03D0184B1B68032BB4
:1078A00002D8A07805B030BD2F2115480EF058FD44
:1078B00098B12F2112480EF053FD411C114BD3F803
:1078C00004352A78A57802950192104A009240F278
:1078D000B632042006F026FFE3E75C2108480EF0EC
:1078E0003FFD28B15C2106480EF03AFD411CE5E75A
:1078F0000349E3E70620D5E71C32002018320020B8
:10790000586F030000B00040DC6F0300F86F030005
:1079100030B583B004464B685D68807805286CD02C
:10792000082840F0D080B4F8CC2148F263039A4292
:1079300040F0E9802B78052B06D07A4B1B6813F4B6
:10794000005F31D10220DEE0764B1B6813F4005F4C
:1079500001D10220D7E0744B1B68042B01D8022010
:10796000D1E02F2171480EF0FBFC80B12F216F4830
:107970000EF0F6FC411C6E4BD3F804356D4A0092B4
:107980004FF43172052006F0CDFE0220BBE05C21F1
:1079900066480EF0E5FC28B15C2164480EF0E0FC7E
:1079A000411CE8E76149E6E75F4B1B68042B01D8FF
:1079B0000220A8E02F215D480EF0D2FC80B12F21DB
:1079C0005A480EF0CDFC411C594BD3F804355A4AA5
:1079D000009240F2C922052006F0A4FE022092E0A7
:1079E0005C2152480EF0BCFC28B15C214F480EF0DF
:1079F000B7FC411CE8E74D49E6E72B78052B0ED094
:107A0000484B1B6813F4005F03D0474B1B68042BE3
:107A100035D80221201DFDF707FF062073E0414BFA
:107A20001B6813F4005F01D106206CE03E4B1B681D
:107A3000042B01D8062066E02F213C480EF090FC74
:107A400080B12F2139480EF08BFC411C384BD3F804
:107A500004353A4A00924FF43572052006F062FE72
:107A6000062050E05C2131480EF07AFC28B15C2100
:107A70002E480EF075FC411CE8E72C49E6E72F2163
:107A80002A480EF06DFC88B12F2128480EF068FCC2
:107A9000411C274BD3F804352A780192284A0092DA
:107AA00040F2D922052006F03DFEB2E75C211F48D6
:107AB0000EF056FC28B15C211C480EF051FC411C14
:107AC000E7E71A49E5E7174B1B6813F4005F19D085
:107AD000154B1B68012B15D92F2114480EF040FCC3
:107AE00098B12F2111480EF03BFC411C104BD3F8EC
:107AF0000435A2780192134A00924FF438720220A2
:107B000006F010FEA07803B030BD5C2107480EF0EF
:107B100027FC28B15C2105480EF022FC411CE5E75A
:107B20000249E3E71C32002018320020586F03009E
:107B300000B00040546E03006C6E0300886E0300BA
:107B4000A06E0300C06E030008B58378052B08D033
:107B5000082B06D07846084B1B6853B19847022083
:107B600008BD02210430FDF75FFE044804F03FFA2F
:107B7000F5E700DEF3E700BF0C630020B838002013
:107B800030B593B0134B1B681C1D844201D013B059
:107B900030BD9B78062B01D0082BF8D1144612ADCE
:107BA0000C2305F8483D0DF106000EF0FAFAADF889
:107BB00004402946084804F0C3F920B17846074B31
:107BC0001B682BB19847034B1868FFF7EFFBDEE704
:107BD00000DEF8E7343A00205C3900200C63002016
:107BE0000378032B00D0704710B592B012AC092374
:107BF00004F8483D1C22011D01A80EF0D2FA2146CE
:107C0000084804F09DF920B17846074B1B6833B152
:107C10009847064B1868FFF7C9FB12B010BD00DE8D
:107C2000F7E700BF5C3900200C630020343A0020E5
:107C300010B584B00C4604A94FF6FF7321F8023D3D
:107C4000008802F053F990B9BDF80E004FF6FF73AB
:107C500098420FD001A903F05FFC68B9BDF8062077
:107C6000E3899A4201D0002002E0012000E00020D8
:107C700004B010BD0020FBE70020F9E710B582B08A
:107C800004468378072B22D02A4B1B6813F4005F2D
:107C90001AD0294B1B68012B16D92F2127480EF02B
:107CA0005FFB002837D02F2124480EF059FB411CE0
:107CB000234BD3F80435A2780192224A009240F275
:107CC0006D32022006F02EFDA07802B010BD1E4AD3
:107CD000002313701123A0F8C0314FF6FF73A0F8F2
:107CE000C231C0F8C4210122A0F8C82148F26002C4
:107CF000A0F8CC21A0F8CE3100F5DE7002F0D8FC5F
:107D0000B0B17846114B1B6813B198470820DCE7E7
:107D100000DE0820D9E75C2108480EF021FB28B1DD
:107D20005C2106480EF01CFB411CC1E70349BFE77C
:107D30000820CAE71C32002018320020586F0300C8
:107D400000B00040E46E0300743800200C63002093
:107D500010B582B004468378052B0BD02C4B1B68E2
:107D600013F4005F03D02B4B1B68042B2AD8A07898
:107D700002B010BD284B00221A70FF225A7048F240
:107D80006C02A0F8C0214FF6FF72A0F8C221C0F823
:107D9000C4310223A0F8C83148F26303A0F8CC3103
:107DA000A0F8CE2100F5DE7002F082FC00282DD074
:107DB00078461A4B1B6813B198470520D8E700DEB8
:107DC0000520D5E72F2116480EF0CAFA88B12F21D9
:107DD00013480EF0C5FA411C124BD3F80435A278B3
:107DE0000192114A009240F25522052006F09AFCB9
:107DF000BDE75C210A480EF0B3FA28B15C210848BF
:107E00000EF0AEFA411CE7E70549E5E70520AFE7CC
:107E10001C32002018320020743800200C6300202F
:107E2000586F030000B00040E46D030070B582B0ED
:107E300004460D46564B1B6813F4005F03D0554BA8
:107E40001B68042B1CD8A378062B63D0082B40F0AA
:107E500092804F4B1B6813F4005F03D04D4B1B689F
:107E6000042B31D829464C4804F06AF828B17846EA
:107E70004A4B1B68002B4BD09847A07802B070BDCE
:107E80002F2147480EF06CFA88B12F2144480EF09C
:107E900067FA411C434BD3F80435AA790192424A50
:107EA00000924FF45D72052006F03CFCCBE75C21AC
:107EB0003B480EF055FA28B15C2139480EF050FAD3
:107EC000411CE7E73649E5E72F2135480EF048FA2F
:107ED00088B12F2132480EF043FA411C314BD3F8C0
:107EE00004352A780192314A00924FF45E720520DF
:107EF00006F018FCB6E75C2129480EF031FA28B1EB
:107F00005C2127480EF02CFA411CE7E72449E5E7FD
:107F100000DEB2E7AB88412B04D978461F4B1B68C3
:107F200023B39847224EAA88A91D30460EF039F98E
:107F3000AA881223A4F8C0314FF6FF73A4F8C23107
:107F4000C4F8C461A4F8C82148F26002A4F8CC21A6
:107F5000A4F8CE3104F5DE7002F0AAFBA8B1784691
:107F60000E4B1B6823B19847082087E700DED9E74E
:107F700000DE082082E77846084B1B6813B198475B
:107F800002207BE700DE022078E7082076E700BFCA
:107F90001C32002018320020B83800200C6300206A
:107FA000586F030000B00040FC6E0300146F030024
:107FB0007438002030B583B004460D468378053B05
:107FC000042B00F2A880DFE803F003767638760011
:107FD000008802F051FB30B1052804D07846524B9E
:107FE0001B682BB39847514B01221A702A795A709B
:107FF00048F26C02A4F8C0214FF6FF72A4F8C22127
:10800000C4F8C4310223A4F8C83148F26303A4F8C9
:10801000CC31A4F8CE2104F5DE7002F049FB002833
:108020007BD07846404B1B6823B19847082019E065
:1080300000DED8E700DE082014E03D4B1B6813F497
:10804000005F03D03B4B1B68042B0DD829463A48F0
:1080500003F076FF002862D07846334B1B683BB3B1
:108060009847082003B030BD2F2134480EF078F92E
:1080700088B12F2131480EF073F9411C304BD3F8F1
:1080800004352A7801922F4A00924FF42772052076
:1080900006F048FBDAE75C2128480EF061F928B1C8
:1080A0005C2126480EF05CF9411CE7E72349E5E72F
:1080B00000DE0820D6E701221C4B1A700B791BBB8F
:1080C00002211A4A1170194A537048F26C03A4F83D
:1080D000C0314FF6FF73A4F8C231C4F8C4210222A4
:1080E000A4F8C82148F26302A4F8CC21A4F8CE3148
:1080F00004F5DE7002F0DCFA98B178460A4B1B6892
:1081000033B198470820ADE70321084A1170DAE738
:1081100000DE0820A6E70220A4E70820A2E7082046
:10812000A0E708209EE700BF0C6300207438002001
:108130001C32002018320020B8380020586F03008D
:1081400000B00040146F0300F0B587B005460E463E
:10815000807803281AD0042800F0AB8007B0F0BD67
:108160000134022C14DC04EB04136C4AD35C002BA6
:10817000F6D004EB0413104618441022311D0130D0
:108180000EF000F80028EBD1A878E7E70024E8E734
:108190000024022C3BDC04EB0413604AD35C0BB1DB
:1081A0000134F6E704EB0413D0180121D15404364E
:1081B0001022314601300DF0F4FF594F10223146A4
:1081C00038460DF0EEFF3C7448F26A03A5F8C03162
:1081D0004FF6FF73A5F8C231C5F8C4711122A5F896
:1081E000C82148F26D02A5F8CC21A5F8CE3105F5DD
:1081F000DE7002F05DFA002855D07846494B1B68C6
:1082000013B198470820A9E700DE0820A6E7464BEF
:108210001B6813F4005F03D0444B1B68042B1DD86C
:1082200001238DF8083048F26702ADF80C204FF6B4
:10823000FF72ADF80E2002AA0492ADF8143003A923
:10824000288801F00DFE00282FD004282FD0784672
:10825000344B1B6823B3984702207FE72F21344813
:108260000EF07EF878B12F2131480EF079F8411CDC
:10827000304BD3F80435304A009240F211320520D9
:1082800006F050FACCE75C2129480EF069F828B1D5
:108290005C2127480EF064F8411CE9E72449E7E730
:1082A00000DE02205AE7082058E7022056E70220A5
:1082B00054E704361022314620480DF063FF08B120
:1082C000A8784BE7164C1022314620460DF069FF86
:1082D0000023237448F26A03A5F8C0314FF6FF73F8
:1082E000A5F8C231C5F8C4411122A5F8C82148F249
:1082F0006D02A5F8CC21A5F8CE3105F5DE7002F0AF
:10830000D7F948B17846074B1B6813B19847082046
:1083100024E700DE082021E708201FE7003A0020BC
:10832000743800200C6300201C320020183200201A
:10833000586F030000B0004020700300013A002095
:108340002DE9F04104460D46174698464B68061D38
:108350001A8959683046FDF7DAFAB0B10221304681
:10836000FDF762FA022388F800303A4669682088EF
:1083700001F07EFD50B304282BD07846164B1B68C5
:10838000D3B198470920BDE8F081002388F8003078
:108390003A466968208801F06BFD88B1042812D044
:1083A00078460D4B1B681BB198470720BDE8F0814C
:1083B00000DE0720BDE8F08100DE0920BDE8F08185
:1083C0000720BDE8F0810720BDE8F0810920BDE865
:1083D000F0810920BDE8F0810C63002010B584B065
:1083E00004468378033B012B20D801238DF800300D
:1083F00048F26702ADF804204FF6FF72ADF8062090
:10840000CDF808D0ADF80C3001AA4968008801F019
:108410002FFD30B1042804D07846154B1B681BB1E2
:108420009847022004B010BD00DEFAE703238DF860
:10843000003048F26703ADF804304FF6FF73ADF833
:108440000630CDF808D00123ADF80C3001AA4968F8
:10845000008801F00DFD30B1042804D07846044BAB
:108460001B6813B19847A078DCE700DEFBE700BF8C
:108470000C63002030B585B004460D468378023B7E
:10848000022B26D83322002122480DF095FE00232E
:108490008DF8003048F26703ADF804304FF6FF73F3
:1084A000ADF80630CDF808D00123ADF80C3001AAA4
:1084B0006968208801F0DCFC30B1042804D07846DB
:1084C000154B1B681BB19847032005B030BD00DE7B
:1084D000FAE702238DF8003048F26703ADF8043064
:1084E0004FF6FF73ADF80630CDF808D00123ADF894
:1084F0000C3001AA4968008801F0BAFC30B10428A8
:1085000004D07846044B1B6813B19847A078DCE789
:1085100000DEFBE7003A00200C63002030B587B096
:1085200004460D4648F26003ADF80C304FF6FF7379
:10853000ADF80E3002AB04930123ADF8143080780F
:10854000431F032B27D8DFE803F0220211224B68D8
:108550005B681B7894F8D921934207D084F8D9310D
:1085600002AB03AA2046FFF7EBFE10E000238DF8D4
:10857000083003AA6968208801F07AFC30B1042829
:1085800004D07846244B1B681BB19847A07807B0ED
:1085900030BD00DEFAE7214B1B6813F4005F19D0F1
:1085A0001F4B1B68012B15D92F211E480DF0D8FE3B
:1085B00010B32F211B480DF0D3FE411C1A4BD3F8EA
:1085C0000435A2780192194A009240F257320220F3
:1085D00006F0A8F801238DF8083003AA69682088FE
:1085E00001F046FC30B1042804D078460A4B1B68E1
:1085F0007BB19847A078CAE75C210A480DF0B0FE2D
:1086000028B15C2107480DF0ABFE411CD6E70549B7
:10861000D4E700DEEEE700BF0C6300201C32002030
:1086200018320020586F030000B00040286F03008C
:1086300000B585B04FF6FF73ADF806300B8848F2F1
:10864000630293424ED021D848F26002934249D04F
:108650004DD8122B40D104238DF8003048F260032E
:10866000ADF80430CDF808D00123ADF80C3001AAE4
:10867000008801F0FDFB002834D0042832D0784671
:10868000394B1B68002B30D098472BE048F266022C
:1086900093421DD848F26502934244D203238DF8D9
:1086A000003048F26703ADF80430CDF808D001235C
:1086B000ADF80C3001AA008801F0DAFB90B1042873
:1086C00010D07846284B1B68002B48D0984709E00B
:1086D00048F26D02934205D07846234B1B68002B6D
:1086E0003FD0984705B05DF804FB00DEFAE70623AB
:1086F0008DF8003048F26303ADF80430CDF808D0AF
:108700000123ADF80C3001AA008801F0B1FB00286C
:10871000E8D00428E6D07846134B1B680BB1984785
:10872000E0E700DEDEE702238DF8003048F2670361
:10873000ADF80430CDF808D00123ADF80C3001AA13
:10874000008801F095FB0028CCD00428CAD07846D8
:10875000054B1B680BB19847C4E700DEC2E700DE9B
:10876000C0E700DEBEE700BF0C63002070B592B02A
:1087700006460D46144672B12388B34204D07846AB
:10878000174B1B687BB1984769462846FEF736FDB4
:1087900058B912B070BD7846114B1B680BB19847A1
:1087A000EAE700DEE8E700DEEEE729462046FFF7CD
:1087B0003FFA20B929462046FFF73AFFE9E701953D
:1087C0006946084803F0BCFB20B17846044B1B689F
:1087D00023B198472046FEF7E9FDDAE700DEF9E726
:1087E0000C6300205C3900202DE9F04788B004AF0D
:1087F00005460E468378023B022B77D84C68494BDE
:108800001B6813F4005F03D0474B1B68042B22D86E
:108810001022211D45480DF0C4FC00233B7048F296
:108820006703BB804FF6FF73FB80BF600123BB81F2
:108830003A1D7168288801F01BFB38B1042805D067
:1088400078463B4B1B68002B4ED0984704201037CE
:10885000BD46BDE8F087E9468AB00DF11008C44670
:10886000002315E0E218127959004FEA121ADFF8D6
:10887000D4E0DEF8000010F80A000CF81300013113
:1088800002F00F02DEF80000825C0CF801200133D8
:108890000F2BE7D9002388F820302F2125480DF031
:1088A0005FFDA0B12F2123480DF05AFD411C224B42
:1088B000D3F80435CDF80880204A0192204A00926E
:1088C0004FF4CB72052005F02DFFCD46A0E75C21CB
:1088D00018480DF045FD28B15C2116480DF040FD0B
:1088E000411CE4E71349E2E700DEAFE702233B70F7
:1088F00048F26703BB804FF6FF73FB80BF60012324
:10890000BB813A1D4968008801F0B2FA30B10428F1
:1089100004D07846064B1B6813B19847A87896E7B1
:1089200000DEFBE71C32002018320020013A002054
:108930000C630020586F030000B00040CC6F0300B0
:10894000E46403002032002070B586B004460D4672
:108950004B685B681978022928BF022148F263033B
:10896000ADF80C304FF6FF73ADF80E3002AB049348
:108970000223ADF814308378062B44D30E46072B20
:1089800011D9082B3FD1B0F8CC2148F26D039A429F
:1089900020D0008801F070FE28B178463C4B1B685F
:1089A000002B2BD098473146201DFCF73DFF0523B7
:1089B0008DF8083003AA6968208801F059FA002868
:1089C00062D0042862D07846314B1B68C3B1984707
:1089D000092048E003238DF8083003AA696800885D
:1089E00001F046FA30B1042804D07846284B1B68C1
:1089F00013B19847A07836E000DEFBE700DED2E74F
:108A000000DE09202FE0234B1B6813F4005F19D010
:108A1000214B1B68012B15D92F2120480DF0A0FCFC
:108A200018B32F211D480DF09BFC411C1C4BD3F8A3
:108A30000435A27801921B4A009240F27F22022064
:108A400005F070FE03238DF8083003AA69682088BA
:108A500001F00EFA30B1042804D078460C4B1B68A4
:108A600083B19847A07806B070BD5C210B480DF02B
:108A700077FC28B15C2109480DF072FC411CD5E758
:108A80000649D3E700DEEDE70920ECE70920EAE735
:108A90000C6300201C32002018320020586F0300A5
:108AA00000B00040C46D030070B586B004460D46AA
:108AB0004B685E6848F26303ADF80C304FF6FF7305
:108AC000ADF80E3002AB04930223ADF81430837876
:108AD000023B062B00F2FA80DFE813F017001700C4
:108AE0001700CB00E100E100070090F89D30023B49
:108AF000DBB2012B28D9008801F0BEFD28B17846F1
:108B00008C4B1B68002B36D098473378022B05D846
:108B100003EB0313884AD35C002B30D104238DF878
:108B2000083000238DF8093003AA6968208801F015
:108B30009FF930B1042804D078467E4B1B68E3B11E
:108B40009847A07806B070BD01238DF80830002347
:108B50008DF8093003AA4968008801F089F930B11D
:108B6000042804D07846734B1B6813B19847A0784B
:108B7000E8E700DEFBE700DEC7E700DEE1E7FF2312
:108B800084F8D931317801EB01116B4B1944013173
:108B9000201DFCF741FE0646002852D0674B1B689B
:108BA00013F4005F19D0664B1B68012B15D92F21D8
:108BB00064480DF0D5FB002833D02F2161480DF01B
:108BC000CFFB411C604BD3F8043501965F4A0092FD
:108BD0004FF40872022005F0A5FD5D4A02231370D0
:108BE000537048F26C01A4F8C0114FF6FF71A4F85D
:108BF000C211C4F8C421A4F8C83148F26303A4F830
:108C0000CC31A4F8CE1104F5DE7001F051FD00283E
:108C100000F089807846474B1B687BB19847082055
:108C200090E75C2147480DF09BFB28B15C2145484B
:108C30000DF096FB411CC5E74249C3E700DE082062
:108C400080E700238DF808308DF8093003AA6968A1
:108C5000208801F00DF9002867D0042867D07846F5
:108C6000344B1B6813B1984705206BE700DE0520E5
:108C700068E700238DF808308DF8093003AA4968A9
:108C8000008801F0F5F830B1042804D07846294B6B
:108C90001B6813B19847A07854E700DEFBE7012377
:108CA0008DF8083000238DF8093003AA4968008840
:108CB00001F0DEF830B1042804D078461D4B1B6863
:108CC00013B19847A0783DE700DEFBE71B4B1B681C
:108CD00013F4005F03D01A4B1B68032B01D8A07854
:108CE00030E72F2117480DF03BFB78B12F211548B5
:108CF0000DF036FB411C144BD3F80435154A009295
:108D000040F23F22042005F00DFDE8E75C210D480C
:108D10000DF026FB28B15C210A480DF021FB411C17
:108D2000E9E70849E7E708200CE705200AE70520FE
:108D300008E700BF0C630020003A00201C3200202E
:108D400018320020586F030000B00040146E03007A
:108D5000743800203C6E030000284ED0F0B587B078
:108D6000044682781AB10823184607B0F0BD0D46B4
:108D70002348244B0360482646600227876003F09F
:108D8000B5F821488760214B0360466003F0AEF8D8
:108D900000221F4B1A70261DFEF7CAF91D4B1E4AF2
:108DA00001463046FCF714FD03460028DCD1ADF83F
:108DB00004500423ADF800304FF6FF73ADF80230D5
:108DC000164B029309230393049400230593214631
:108DD000684600F09FFF03460028C5D12288A4F80A
:108DE000BC210F4AC4F8D4210E4AC4F8D021012274
:108DF000A27000210C4A1160B6E70E231846704796
:108E00005C39002070390020B8380020CC380020B0
:108E10007038002000879303B46D0300306D0300A9
:108E2000C175020080C3C901343A0020B8B110B541
:108E300004468278012A01D0082010BD094A126830
:108E40000AB1082010BD0848084B036003F05DFD1F
:108E50000223A370E370034B1C60002010BD0E20A2
:108E6000704700BF343A002068380020E17B0200E0
:108E700010B50446837803F00303032B21D8DFE801
:108E800003F0020C131981788B081D4A11681944EC
:108E9000A1601C4B1B6800201FE083789B0803EB3C
:108EA000830359000B46F0E783789B08642101FB9C
:108EB00003F3EAE783789B0841F2707101FB03F347
:108EC000E3E77846104B1B6813B198470023DCE7B3
:108ED00000DE0023D9E71846DB681BB19A688A1ABE
:108EE000002AF8DA18B133B1C460E36010BDE36062
:108EF000044B1C6010BDC4600023E36010BD00BFC4
:108F0000503A0020583A00200C63002010B5764BF0
:108F100019688B7803F00303744A1278934240F384
:108F2000BA808C68724B1B68E41A724B03FB04F422
:108F3000032A09D8DFE802F0021204066D4B0EE0A6
:108F40006D4B0CE06D4B0AE078466D4B1B6813B11E
:108F50009847002303E000DE002300E0694BB4FBE8
:108F6000F3F3614A1268927802F00302022A19D0E0
:108F70003AD8012A6AD102F1CC32A2FB0312D208FC
:108F800002EB820251008B4202D0002213465FE0C6
:108F900003F072FF00F5742303F5107301225349A7
:108FA0000A7055E0514A117839B9574AA2FB0302B9
:108FB0005209642000FB12326AB1012902D000225A
:108FC000134645E0514AA2FB0312D20802EB82028B
:108FD00051008B4249D103F04FFF474B034402211C
:108FE000424A1170012233E0404A117841B9484A9F
:108FF000A2FB0302D20941F2707000FB123282B16F
:10900000012904D0022915D00022134620E0414A4C
:10901000A2FB030292094FF4167000FB1232002AE1
:10902000F0D103F029FF354B034403212F4A11707F
:1090300001220DE0384AA2FB03125209C2EB0212D0
:1090400091008B42EDD00022134601E0002213462E
:10905000002A47D103F010FF0446244B1B78032B52
:109060000CD8DFE803F00515070900221346EFE7E7
:10907000204B0EE0204B0CE0204B0AE07846204BC2
:109080001B6813B19847002303E000DE002300E0D3
:109090001C4B234426E003F0EFFE0446124B1B68F2
:1090A0009B7803F00303032B09D8DFE803F00212D7
:1090B0000406104B0EE0104B0CE0104B0AE0784613
:1090C0000F4B1B6813B19847002303E000DE002319
:1090D00000E00C4B2344044A12689278C2F3010268
:1090E00002490A70184610BD583A0020553A00202F
:1090F000503A0020A0860100809698000046C323C5
:109100000C63002040420F001F85EB51CDCCCCCC2E
:10911000F1197605B5814E1B8988888810B52B4BCF
:109120001B7873B92A4B1B68002B47D0FFF7EEFE64
:109130000146264B1B78002B38D0264803F0F8FD5B
:1091400010BD244B5C6803F097FE241A224B1B7859
:10915000032B09D8DFE803F0021204061F480EE0D3
:109160001F480CE01F480AE078461F4B1B6813B1EC
:109170009847002003E000DE002000E01B48001BB1
:10918000154B1B7843B94CF25033984204D9184A16
:10919000136801331360C5E74009164BA3FB003089
:1091A000134A136803EBD0101060BBE70122074B92
:1091B0001A700848416003F03FFD10BD034B1B7857
:1091C00003B910BD034803F07DFDFAE7543A0020CF
:1091D000583A0020383A0020553A0020A086010075
:1091E000809698000046C3230C63002040420F0085
:1091F000503A0020C55A7C0A30B583B007E000DE43
:1092000063680199284698472046FFF731FE124BC4
:109210001C68ECB1A368114A1268934204D00F4A4B
:1092200012689B1A002B13DA2588E2680A4B1A6031
:1092300002A9002341F8043D284600F039FF002828
:10924000DED07846064B1B68002BD8D09847D7E76E
:10925000FFF764FF03B030BD583A0020503A0020B9
:109260000C63002008B5154B1B78032B1ED8DFE8D4
:1092700003F0020C1116124A136801331360002226
:10928000104B1A70FFF7B8FF08BD0D4A13680A3378
:109290001360F4E70A4A136864331360EFE7084A7F
:1092A000136803F5BB5310331360E8E77846064BA9
:1092B0001B680BB19847E2E700DEE0E7553A002073
:1092C000503A0020543A00200C63002010B5084C9E
:1092D0001822002120460CF06FFF064BA3600023EC
:1092E000054A1360054A1360054A137010BD00BF9C
:1092F000383A002065920200503A0020583A002087
:10930000543A002010B44FF6FF7399420CD00C4A27
:1093100043001C1861000C461144C97822444B1CC0
:10932000D3705DF8044B7047054A43001C18610078
:109330000C461144897822444B1C9370F1E700BF1E
:109340005C3A002030B482B00191194943001D18E5
:109350006C000C44A57803445C002144CB78DD42CA
:1093600001D0002303E000201FE001339BB2012B5A
:109370001AD834210F4C01FB034189898842F4D16A
:10938000342101FB03F1645ABDF804108C42ECD186
:109390003424084904FB03156C88BDF806108C4280
:1093A000E3D11380012000E0002002B030BC704700
:1093B0005C3A0020943A002082B0002300930278A7
:1093C00002F0C003402B0ED00CD9802B1BD0C02B39
:1093D0000FD1ADF800204278837843EA0223ADF83C
:1093E000023006E02BB9ADF800204FF6FF73ADF860
:1093F0000230009B00209AB262F30F001B0C63F353
:109400001F4002B07047437843EA0222ADF80020C3
:109410004FF6FF73ADF80230EBE782B00190000C1D
:109420004FF6FF73984207D0BDF804300B70030A63
:109430004B70887002B07047BDF8043013F47F4F52
:1094400003D01A0A0A704B70F4E70B70F2E782B08F
:1094500001904FF6FF73B3EB104F0AD0BDF8040034
:1094600020F03F0080B2C02814BF0020012002B0CD
:109470007047BDF8040010F47F4F07D000F440405F
:10948000B0F5004F14BF00200120F0E720F07F036B
:109490009BB22BB97F2801D00120E8E70020E6E746
:1094A0000020E4E770B506460D460024AC4207D222
:1094B00056F83400FFF7CBFF034610B10134F5E74F
:1094C0000123184670BD30B482B00191002300E042
:1094D0000133018D8B4210D2416A01EBC30531F893
:1094E0003340BDF804108C42F2D16C88BDF80610F0
:1094F0008C42EDD11360012000E0002002B030BCAE
:1095000070470000F8B505460E4617461C46B3B135
:109510003389B3F5BE7F1AD2012D1FD9002353B36F
:109520003423214A03FB05239B8923BB37B33068CF
:10953000FFF78DFF002833D00023236009E0784631
:109540001A4B1B680BB19847E2E700DEE0E70923FE
:1095500023602068B0FA80F04009F8BD3423124A35
:1095600003FB052393F8303013F0010F01D10023E2
:10957000D5E70123D3E705232360EAE734230A4A2A
:1095800003FB05239A884FF6FF739A4208D03422D2
:10959000054B02FB0535EA884FF6FF739A42C6D1A8
:1095A00007232360D5E700BF943A00200C63002016
:1095B00008B57846034B1B680BB1984708BD00DE21
:1095C00008BD00BF0C63002008B5804708BD00003F
:1095D00008B5682200210F480CF0EEFD062200219C
:1095E0000D480CF0E9FD102200210C480CF0E4FDC0
:1095F00000230CE03422074902FB03124FF6FF71EF
:10960000D18091800220D081918101339BB2012BC6
:10961000F0D908BD943A00205C3A0020FC3A0020C2
:109620002DE9F04182B00546037D012B1BD014309B
:1096300002A94FF6FF7321F8083D01F0BBFF28B1E6
:109640007846554B1B68002B5BD09847BDF800004F
:1096500001F018FF28B978464F4B1B68002B52D0F9
:109660009847002452E0684601F0F0FEEB8ABDF80E
:109670000060B342C0F08D80BDF8022032449342B6
:1096800080F287809B1B9EB2002400E00134012CF5
:109690007FDC3423414803FB040090F8303013F0A2
:1096A000010FF3D03D4A83899E42EFD1342303FB5F
:1096B00004F308331A446B8C590952F8211003F053
:1096C0001F03012202FA03F31942DFD001AA29681D
:1096D000FFF7F9FE0028D9D01FFA84F834272F4B62
:1096E00007FB0437FA6A2946404600F075FF7B6A9B
:1096F000019A03EBC2035B68FA6A29464046984721
:10970000C4E700DEA2E700DEABE70134012C40DC59
:109710003423224803FB040090F8303013F0010F8B
:10972000F3D0C389012BF0D8342202FB04F20832B3
:109730001A490A44698C4E0952F8266001F01F014B
:10974000012202FA01F10E42DFD0154A02EBC303F7
:109750000433BDF80020510953F8211002F01F0214
:10976000012303FA02F21142CFD001AA2968FFF7C0
:10977000AAFE0028C9D03423084A03FB04235A6AEE
:10978000019902EBC1025668DA6A2946A0B2B047D5
:10979000BBE702B0BDE8F0810C630020943A0020E2
:1097A000FC3A002010B58EB0044600284CD020684A
:1097B000FFF702FE0D9080B27F2843D0414B1B681B
:1097C00013F4005F03D0404B1B68042B44D8E069BE
:1097D00001F024FF0D9A0492236803924FF6FF7163
:1097E000B1EB124F5DD0032213440593A3880D9A69
:1097F00002924FF6FF71B1EB124F5AD003229B1A1F
:10980000ADF81830237A8DF81C306389ADF81E301E
:10981000E3680893237C8DF82430638AADF8263002
:1098200063690A93636A5A680B9293F90D308DF855
:10983000303094F820308DF83130ADF8320004A883
:10984000FFF7EEFE0EB010BD7846204B1B680BB143
:109850009847ACE700DEAAE72F211D480CF080FDF9
:1098600090B12F211A480CF07BFD411C194BD3F805
:109870000435BDF834200192174A009240F22312B9
:10988000052004F04FFFA2E75C2111480CF068FDB1
:1098900028B15C210E480CF063FD411CE6E70C4941
:1098A000E4E7BDF80C20FF2A01D902229CE701223F
:1098B0009AE7BDF80820FF2A01D801229FE702227B
:1098C0009DE700BF1C320020183200200C630020EE
:1098D0008C70030000B00040D070030008B503781E
:1098E00003B108BD0430FFF75DFFFAE700B587B0AC
:1098F0000F4B03930F4B04930F4B059304230293D9
:1099000001F00AFDA0F580500090012301930B4A5D
:10991000137069460A4805F0E7FE28B90022074B94
:109920001A7007B05DF804FB064805F025FFF8E75C
:10993000DD990200B195020049990200903A002099
:109940006C3A0020C031002010B5002301E0013343
:109950009BB2012B0BD81E4A12F8332012F0010FD4
:10996000F5D042F002021A4901F83320EFE7002354
:1099700001E001339BB283B903EB43014A0015496F
:109980008A5A002AF5D008465A00D41861000144CA
:109990004A7942F002024A71EBE7002301E0013309
:1099A0009BB2012B11D834220B4902FB031292F80F
:1099B000302012F0010FF2D03421074801FB0301DF
:1099C00042F0020281F83020E9E7FFF78FFF10BD77
:1099D000FC3A00205C3A0020943A002070B58CB02C
:1099E00005460E461446012A05D0022C0BD0032C46
:1099F00011D00CB070BD7846114B1B680BB1984765
:109A0000F3E700DEF1E778460D4B1B680BB1984792
:109A1000EDE700DEEBE72C22002101A80CF0CCFBE7
:109A200019238DF8043002238DF808300396EB6873
:109A300005932B69069301A802F0FAF9D9E700BF54
:109A40000C6300202DE9F04794B002AF05460C46A8
:109A5000164607F14403FFF755FD20B9786C4837E7
:109A6000BD46BDE8F08707F1400001F0EFFCB7F814
:109A700042203423954903FB05139B899A4201D860
:109A80001020ECE7B7F8408043441FFA83F856B340
:109A9000B6F8229007F138030C3696E8030083E805
:109AA000030007F13601304601F084FD10B14FF696
:109AB000FF73FB863422854B02FB05352D7CFF2D81
:109AC00027D097F83830012B26D0012B30D0F88ED4
:109AD0004FF6FF7398422DD001F0D4FC002840F0DF
