:020000022000DC
:1040000002F0032085D20200ADD202002547020053
:10401000B1D20200B3D20200B5D20200000000000B
:10402000000000000000000000000000B7D2020005
:10403000B9D2020000000000BBD20200BDD20200D3
:10404000BFD20200BFD20200ADAC0200BFD202005C
:10405000BFD20200BFD20200BFD20200BFD2020014
:10406000BFD20200BFD20200BFD20200BFD2020004
:10407000BFD20200BFD20200BFD20200BFD20200F4
:10408000BFD20200BFD2020029F40200BFD2020058
:10409000BFD20200BFD2020091470200BFD202008D
:1040A000BFD20200BFD20200BFD20200BFD20200C4
:1040B000BFD20200BFD202000000000000000000DA
:1040C000BFD20200BFD20200BFD20200BFD20200A4
:1040D000BFD20200BFD20200BFD20200BFD2020094
:1040E000BFD20200BFD20200BFD202000000000017
:1040F00000000000BFD2020000000000BFD202009A
:1041000000000000000000000000000000000000AF
:10411000000000000000000000000000000000009F
:10412000000000000000000000000000000000008F
:10413000000000000000000000000000000000007F
:10414000000000000000000000000000000000006F
:10415000000000000000000000000000000000005F
:10416000000000000000000000000000000000004F
:10417000000000000000000000000000000000003F
:10418000000000000000000000000000000000002F
:10419000000000000000000000000000000000001F
:1041A000000000000000000000000000000000000F
:1041B00000000000000000000000000000000000FF
:1041C00000000000000000000000000000000000EF
:1041D00000000000000000000000000000000000DF
:1041E00000000000000000000000000000000000CF
:1041F00000000000000000000000000000000000BF
:1042000010B5054C237833B9044B13B10448AFF310
:1042100000800123237010BDE03200200000000068
:10422000208F03000C4B43B10C480D4910B5AFF380
:1042300000800C48036823B910BD0A48036833B9ED
:104240007047094B002BF7D0BDE810401847064BCC
:10425000002BF5D0184700BF00000000208F03009E
:10426000E4320020D832002000000000154B002B63
:1042700008BF134B9D46A3F5803A00218B460F469D
:104280001348144A121A13F051FC0F4B002B00D0A4
:1042900098470E4B002B00D09847002000210400C7
:1042A0000D000D48002802D00C48AFF3008013F039
:1042B000EFFB2000290000F013F813F0D5FB00BF3E
:1042C0000000080002F003200000000000000000D1
:1042D000E03200208869002000000000000000009B
:1042E00000B585B09B4A04214EF207000CF07EF821
:1042F000994B1B6813F4804F16D0984B1B68032B07
:1043000012D92F21964813F0E5FCC8B12F2194480B
:1043100013F0E0FC411C934BD3F80435924A009211
:10432000422204200CF07EF84FF0A0434FF0FF3201
:10433000C3F818254FF4F032C3F80425002355E0E4
:104340005C21874813F0C6FC28B15C21844813F037
:10435000C1FC411CDFE78249DDE74FF0A041D1F805
:10436000042582F40052C1F80425804A1168804A6D
:10437000804800BF00BF00BF00BF00BF00BF00BF3C
:1043800000BF81422FD000BF00BF00BF00BF00BFF1
:1043900000BF00BF00BF00BF00BF00BF00BF00BF25
:1043A00000BF00BF00BF00BF00BF00BF00BF00BF15
:1043B00000BF00BF00BF00BF00BF00BF00BF00BF05
:1043C00000BF00BF00BF00BF00BF00BF00BF00BFF5
:1043D00000BF00BF00BF00BF00BF00BF00BF00BFE5
:1043E00000BF00BF00BF013AC3D10133092BB4DDC8
:1043F00000F0E2FA05F0A0FD03F0F2FF564B1B6857
:1044000013F4804F17D0554B1B68032B13D92F2162
:10441000534813F05FFC002865D02F21504813F05B
:1044200059FC411C4F4BD3F80435534A0092542297
:1044300004200BF0F7FF514A02AB92E8030083E837
:1044400003001946C8200AF0D7FC002858D1424B77
:104450001B6813F4804F17D0404B1B68032B13D9F4
:104460002F213F4813F036FC00284ED02F213C4826
:1044700013F030FC411C3B4BD3F80435404A00920A
:10448000582204200BF0CEFF002008F047FD002842
:1044900048D108F061FD002849D12F4B1B6813F467
:1044A000804F17D02D4B1B68032B13D92F212C487D
:1044B00013F010FC00283FD02F21294813F00AFCEC
:1044C000411C284BD3F804352E4A00925C2204206C
:1044D0000BF0A8FF4FF400524FF0A043C3F80C2597
:1044E00009F002FFFCE75C211D4813F0F3FB28B143
:1044F0005C211B4813F0EEFB411C93E7184991E740
:10450000174A562100F0CEF8A1E75C21144813F0B9
:10451000E1FB28B15C21124813F0DCFB411CAAE747
:104520000F49A8E70E4A592100F0BCF8B1E70C4A40
:104530005A2100F0B7F8B0E75C21094813F0CAFB34
:1045400028B15C21064813F0C5FB411CB9E70449BA
:10455000B7E700BFC10303005C32002058320020DF
:104560005C7D030000B00040A47D030014320020F5
:10457000A08601000024F400E07D0300547D0300C8
:10458000007E0300207E030048DF704710DF704785
:1045900060DF704761DF70474FF0A0434FF4F032A7
:1045A000C3F80825C3F80C25EFF3108372B6002872
:1045B000FDD1704710B582B00446164B1B6813F44A
:1045C000804F04D12046FFF7E7FF02B010BD2F2136
:1045D000114813F07FFB78B12F210F4813F07AFBBD
:1045E000411C0E4BD3F8043501940D4A00924E2223
:1045F00000200BF017FFE5E75C21074813F06AFB8A
:1046000028B15C21044813F065FB411CE9E702492D
:10461000E7E700BF5C320020707E030000B000407E
:10462000B47E030070B584B00C46194B1B6813F4BC
:10463000804F04D005461646164B1B6823B920460A
:10464000FFF7AAFF04B070BD2F21134813F042FBFF
:1046500088B12F21104813F03DFB411C0F4BD3F8BC
:1046600004350396029401950D4A009270220120B0
:104670000BF0D8FEE3E75C21074813F02BFB28B1D1
:104680005C21054813F026FB411CE7E70249E5E7FA
:104690005C32002058320020707E030000B00040E1
:1046A000887F030070B584B0194B1B6813F4804FEA
:1046B00005D006460D461446164B1B6823B901204B
:1046C000FFF76AFF04B070BD2F21134813F002FBFF
:1046D00088B12F21104813F0FDFA411C0F4BD3F87D
:1046E00004350396029501940D4A00924822012058
:1046F0000BF098FEE3E75C21074813F0EBFA28B1D2
:104700005C21054813F0E6FA411CE7E70249E5E7BA
:104710005C32002058320020707E030000B0004060
:10472000507E030000B583B0154B1B6813F4804F17
:1047300005D10120FFF730FF03B05DF804FB2F2106
:10474000104813F0C7FA70B12F210E4813F0C2FAC7
:10475000411C0D4BD3F804350C4A00925422002022
:104760000BF060FEE5E75C21064813F0B3FA28B1D0
:104770005C21044813F0AEFA411CEAE70149E8E77E
:104780005C320020707E030000B00040407E0300D9
:1047900000B583B002E0019809F0B8FE01A8FFF768
:1047A000F3FE0028F7D05723ADF8023005E00848A3
:1047B00009F0AAFE5723ADF802300DF102010448BA
:1047C000FFF7E8FE0028F2D003B05DF804FB00BF5D
:1047D000FC32002010B584B0484B1B6813F4804FA6
:1047E00003D0474B1B68032B36D8464B0393039BE0
:1047F0000293424B1B6813F4804F03D0404B1B685D
:10480000032B4AD802A8FFF7C3FE0446039B029A73
:104810009A421ED0394B1B6813F4804F19D0384B85
:104820001B68012B15D92F21374813F053FA0028A4
:1048300056D02F21344813F04DFA411C334BD3F896
:104840000435029A0192324A00928C2202200BF027
:10485000E9FD204604B010BD2F212B4813F03AFA91
:1048600070B12F21284813F035FA411C274BD3F89B
:104870000435284A00927A2204200BF0D3FDB4E7D5
:104880005C21214813F026FA28B15C211E4813F060
:1048900021FA411CEAE71C49E8E72F211A4813F0E6
:1048A00019FA80B12F21184813F014FA411C174B44
:1048B000D3F80435039A0192174A00928322042008
:1048C0000BF0B0FD9EE75C210F4813F003FA28B10E
:1048D0005C210D4813F0FEF9411CE8E70A49E6E7C0
:1048E0005C21094813F0F6F928B15C21064813F061
:1048F000F1F9411CA2E70449A0E700BF5C320020A7
:1049000058320020B8310020707E030000B0004013
:104910004C7F0300207F03003C7F030000B583B081
:1049200002AB43F8040D20491846FFF72FFEA8B943
:104930001E4B93F816335B09012B16D9042B16D0A6
:10494000052B10D00123A3B942F2020008BBFFF7E8
:1049500041FF18BB002003B05DF804FB144A93210B
:10496000FFF7A0FEE4E70023EDE70023EBE70023D9
:10497000E9E7104B9B682BB94FF480020B4B1A6090
:104980000020E3E70B4A136843F480031360002020
:10499000DCE7074A9421FFF785FED8E7044A972110
:1049A000FFF780FED6E700BF2546020000E100E0E9
:1049B000707E0300FC68002000B587B04F4B1B6879
:1049C00013F4804F03D04E4B1B68032B28D84D4B5C
:1049D00018680590FFF7A2FF484B1B6813F4804F3F
:1049E00003D0474B1B68032B3BD800230493059B44
:1049F0000293454B039302A809F0DAFB002851D13A
:104A00003E4B1B6813F4804F03D03D4B1B68032BB8
:104A10004DD809F027FC00286AD107B05DF804FBE7
:104A20002F213A4813F056F970B12F21374813F06F
:104A300051F9411C364BD3F80435364A0092B52261
:104A400004200BF0EFFCC2E75C21304813F042F980
:104A500028B15C212D4813F03DF9411CEAE72B49B0
:104A6000E8E72F21294813F035F970B12F212748A5
:104A700013F030F9411C264BD3F80435264A009236
:104A8000BF2204200BF0CEFCAFE75C211F4813F0DF
:104A900021F928B15C211D4813F01CF9411CEAE7FB
:104AA0001A49E8E7194AC421FFF7FCFDA8E72F21BE
:104AB000164813F00FF970B12F21144813F00AF9BA
:104AC000411C134BD3F80435144A0092C62204202B
:104AD0000BF0A8FC9DE75C210C4813F0FBF828B113
:104AE0005C210A4813F0F6F8411CEAE70749E8E7B9
:104AF000064AC721FFF7D6FD8FE700BF5C320020D2
:104B0000583200203C7E0300B5450200707E030051
:104B100000B00040D07E0300EC7E0300087F03005D
:104B200090F8B33203B9704700B58DB0002380F818
:104B3000B33205238DF8043002908DF80C1001A8D3
:104B400008F01AFC0DB05DF804FB90F8B332022BAC
:104B500000D0704710B58CB0044604238DF80430A3
:104B600002900DEB030008F007FC04F29D220021E7
:104B7000204600F013FF20B9042384F8B3320CB0B0
:104B800010BD0221204600F003FFF8E790F8B33291
:104B9000072B00D0704710B58CB0044690F8B032A7
:104BA00043B9D0F8B81100F02BFF78B9092384F885
:104BB000B33209E009238DF8043002900A2380F80B
:104BC000B33201A808F0D8FB0CB010BD022120467A
:104BD00000F0DEFEF8E710B584B0044600F24D2385
:104BE0006A4600F27D2101F0F3F86946204600F0A4
:104BF00026FF034610B9102284F8B322184604B0E9
:104C000010BD30B58DB0044690F8B432032B48D8AF
:104C1000DFE803F03D311D0200F26D25294601F069
:104C20008BF906238DF80430029494F8AE328DF897
:104C30000D3094F8AF328DF80C300495112384F8C0
:104C4000B33201A808F098FB00200DB030BD072357
:104C50008DF80430029090F8AE328DF80D3090F857
:104C6000AF328DF80C300C2380F8B33201A808F075
:104C700083FB0020E9E708238DF8043002900D2320
:104C800080F8B33201A808F077FB0020DDE710229E
:104C9000002100F26D2012F049FF2046FFF79BFF34
:104CA000D3E70320D1E710B58CB0044601F08AF8B1
:104CB00058B904F50071204601F020F90346A8B95F
:104CC0002046FFF79EFF034610E00B2384F8B33223
:104CD0000C238DF804300294D4F8BC31049304F50D
:104CE000E074039401A808F047FB002318460CB0B9
:104CF00010BDF0B59BB004460F46164607238DF84D
:104D000044300AAD102200F53071284612F003FF3E
:104D1000D4F8D222130203F47F0343EA0263110A98
:104D200001F47F410B4343EA1263CDF83B30B4F802
:104D3000D622130A43EA0223ADF83F30B4F8D0225A
:104D4000130A43EA0223ADF8383094F8D822C2F3AC
:104D500040019DF83A3061F3000362F341036FF3C1
:104D600087038DF83A300197029603951923ADF821
:104D700010300DF1450307930DF15E0308930023F6
:104D80000593ADF8183008238DF8243001A80AF0F7
:104D900099FC11A9204600F092FE20B9142384F852
:104DA000B3321BB0F0BD0221204600F0F1FDF8E760
:104DB00030B591B005460C461146204600F0AAFDDC
:104DC00058B12378013B082B00F2DC80DFE803F0C8
:104DD0000BDA4256647DDA9DCB000221284600F0B2
:104DE000D7FD11B030BD95F8B332042BF9D10B22A9
:104DF000611C05F29E2012F08EFE052385F8B33269
:104E00000A238DF81430069563788DF81C3062887B
:104E1000130A43EA0223ADF81D3023798DF81F30C1
:104E200063798DF82030A3798DF82130B4F807200C
:104E3000130A43EA0223ADF82230637A8DF8243056
:104E40006289130A43EA0223ADF8253005A808F069
:104E500093FAC6E795F8B332092BC2D14022611C00
:104E600005F5E07012F057FE2846FFF71CFF0028FA
:104E7000B7D00221284600F08BFDB2E795F8B33297
:104E8000112BAED12846FFF7A6FE0028A9D002219B
:104E9000284600F07DFDA4E795F8B332102BA0D191
:104EA0001022611C05F28D2012F035FE05F24D2115
:104EB000284600F0D7FD18B9122385F8B33290E7E1
:104EC0000221284600F064FD8BE795F8B332122BDF
:104ED00087D11022611C05F25D2012F01CFE2846CD
:104EE00001F080F820B90221284600F051FD78E752
:104EF00005F5087301AA05A9284600F0A7FF01AA35
:104F000005A92846FFF7F5FE6BE795F8B332142B99
:104F10007FF467AF0B238DF81430069505F5087301
:104F2000089305F530730793D5F8D2320993B5F895
:104F3000D032ADF82830B5F8D632ADF82A3095F831
:104F4000D8229DF82C3062F30003C2F3400262F3D2
:104F500041038DF82C3005A808F00EFA00212846F0
:104F600000F016FD3DE70D238DF8143006956378AB
:104F70008DF81C3005A808F0FFF90221284600F042
:104F800007FD2EE70221284600F002FD29E7000078
:104F900070B590F8B34214B10821084670BD1E46A2
:104FA000154604460D4B0E4A00F0C6FC014600288B
:104FB000F3D1002384F8B1321922314604F5307060
:104FC00012F0A9FD2946204600F0DAFC014600282F
:104FD000E3D1022384F8B332DFE700BF00879303F5
:104FE000A87F030090F8B332052B02D0082318469F
:104FF000704710B582B00446102A03D90923184619
:1050000002B010BD12B909B10923F8E712B109B90C
:105010000923F4E7102A01D001292DD084F8B41215
:1050200084F8AE2202238DF8003000238DF8013081
:1050300094F8B832003318BF01238DF802308DF890
:105040000310012914D094F8AF328DF804300129EF
:1050500010D08DF8052004F29D226946204600F00C
:10506000C0FC03460028CAD1072284F8B322C6E751
:105070000023EAE70022ECE70923C0E738B590F8FF
:10508000B3320C3BDBB2012B01D9082038BD102A0A
:1050900001D9092038BD90F8AE329A4201D00920DA
:1050A00038BD1546044600F26D2012F034FD05F5BA
:1050B0001A702044C5F110020021053012F036FDAF
:1050C0002046FFF788FD38BD90F8B3320B2B01D096
:1050D0000820704751B110B50446202200F5007039
:1050E00012F019FD2046FFF78CFD10BD0E20704711
:1050F00000B58DB00B238DF80430029000F50873D5
:10510000049300F530730393D0F8D2320593B0F8CE
:10511000D032ADF81830B0F8D632ADF81A3090F879
:10512000D8229DF81C3062F30003C2F3400262F300
:1051300041038DF81C3001A808F01EF90DB05DF890
:1051400004FB30B58DB004460D4690F8B332132BF6
:105150000DD0002384F8B33205238DF80430029477
:105160008DF80C5001A808F007F90DB030BD0029EA
:10517000EFD1FFF7BDFFECE700B58DB0032380F85A
:10518000B33204238DF8043002900DEB030008F0D5
:10519000F3F80DB05DF804FB30B58DB0044690F81F
:1051A000B432032B49D8DFE803F03D31170207235F
:1051B0008DF80430029090F8AE328DF80D3090F8F2
:1051C000AF328DF80C300C2380F8B33201A808F010
:1051D000D3F800200DB030BD00F26D25294600F057
:1051E000ABFE06238DF80430029494F8AE328DF8AD
:1051F0000D3094F8AF328DF80C300495102384F8FC
:10520000B33201A808F0B8F80020E3E708238DF8CE
:10521000043002900D2380F8B33201A808F0ACF8F6
:105220000020D7E71022002100F26D2012F07EFC52
:10523000102384F8B3320020CCE70320CAE710B56E
:105240008CB0044680F8B2120D228DF80420029032
:105250008DF80C1000F025FC58B10221204600F01A
:1052600097FB01A808F088F8162384F8B3320CB035
:1052700010BD01A808F080F8162384F8B332F6E7D1
:1052800010B58CB0044600F09DFD70B904F50071B6
:10529000204600F033FED0B92046FFF77DFFA0B1D5
:1052A00005212046FFF7CBFF0FE00C238DF80430DB
:1052B0000294D4F8BC31049304F5E07303930B23F8
:1052C00084F8B33201A808F057F80CB010BD0221E1
:1052D0002046FFF7B4FFF8E710B582B0044690F817
:1052E000B332033B132B25D8DFE803F00A24240D47
:1052F00024240F24241224162416241A1E24240DD8
:10530000062380F8B33202B010BDFFF7B9FFFAE709
:10531000102380F8B332F6E7122380F8B332F2E7B5
:10532000132380F8B332EEE7FFF7E2FE152384F88B
:10533000B332E8E7164B1B6813F0080FE3D0154BA8
:105340001B68002BDFD02F21134812F0C3FC90B153
:105350002F21114812F0BEFC411C104BD3F804352C
:1053600094F8B32201920E4A009240F2E112012019
:105370000BF058F8C7E75C21074812F0ABFC28B1E6
:105380005C21054812F0A6FC411CE6E70249E4E76F
:105390005C32002058320020C87F030000B000407B
:1053A0001480030038B505460C460522013100F291
:1053B000A92012F0B0FBA37873B985F8B032E37876
:1053C00085F8B432E378012B0AD0637985F8AE32E0
:1053D000237985F8AF3238BD012385F8B032EEE786
:1053E0001023F3E710B584B0044601238DF8043090
:1053F00090F8B5328DF80530B0F8B622130A43EABA
:105400000223ADF8063090F8B8328DF8083090F8E5
:10541000B9328DF8093090F8BA328DF80A30B0F808
:10542000BB22130A43EA0223ADF80B3090F8BD32D9
:105430008DF80D30B0F8BE22130A43EA0223ADF80E
:105440000E3000F29D2201A900F0BDFA08B904B0A7
:1054500010BD05212046FFF7F2FEF8E710B594B025
:10546000044600F50C73029300F5107303934B1C74
:1054700004931923ADF814300DF12D0308931A315C
:10548000099100230693ADF81C3008228DF82820DE
:1054900014A901F8493D0DEB02000AF017F99DF837
:1054A000073013B90B2014B010BD10220DF12D01DF
:1054B00004F5307012F02FFB109A130203F47F03EF
:1054C00043EA0263110A01F47F410B4343EA12638A
:1054D000C4F8D232BDF84420130A43EA0223A4F8E8
:1054E000D632BDF83D20130A43EA0223A4F8D03295
:1054F0009DF83F20C2F3400194F8D83261F30003D5
:1055000062F3410384F8D8320020CCE730B58DB087
:1055100005460C461146204600F0FCF950B12378B0
:10552000092B00F2DC80DFE803F00BDA1925DA4200
:10553000749CDACC01212846FFF781FE0DB030BD06
:1055400095F8B332032BF9D10122A11805F29D2061
:1055500012F0E1FA2846FFF745FFEFE795F8B3327E
:10556000062BEBD121462846FFF71CFF092385F8BF
:10557000B332E3E795F8B332092BDFD14022611C47
:1055800005F5E07012F0C7FA95F8B0325BB9D5F8BE
:10559000B811284600F034FA0028CFD0052128465B
:1055A000FFF74DFECAE72846FFF76AFEC6E795F803
:1055B000B332102B0BD00D2BC0D11022611C05F281
:1055C0008D2012F0A8FA0E2385F8B332B6E7102228
:1055D000611C05F28D2012F09EFA05F24D2301AAFE
:1055E00005F27D21284600F0F3FB01A9284600F0D2
:1055F00026FA0028A2D0042804D078463D4B1B6828
:105600002BB1984705212846FFF719FE96E700DEE3
:10561000F8E795F8B332122B90D11022611C05F2F5
:105620005D2012F078FA284600F0DCFC78B105F233
:105630004D21284600F016FA70B905F5087305F5F6
:10564000107205F50C71284600F000FC76E7042185
:105650002846FFF7F4FD71E705212846FFF7EFFD27
:105660006CE795F8B332132B7FF468AF21462846D8
:10567000FFF7F4FE88B9B5F8D032B3F5805F11D3E7
:105680000023CBB1284600F000FA00283FF456AFC3
:1056900005212846FFF7D3FD50E706212846FFF7EE
:1056A000CEFD4BE7B5F8D60208F076FD012801D013
:1056B0000023E6E70123E4E702212846FFF7BFFDC8
:1056C0003CE70D238DF80430029563788DF80C309B
:1056D00001A807F051FE162385F8B3322EE795F89E
:1056E000B332162B3FF42AAF01212846FFF7A7FD5E
:1056F00024E700BF0869002070B590F8B34214B1E8
:105700000821084670BD1E4615460446022380F84F
:10571000B332012380F8B132064B074A00F00CF98E
:1057200001460028EDD132462946204600F020F9F6
:105730000146E6E700879303B87F030090F8B33291
:105740000C3BDBB2022B01D908207047102A01D98B
:105750000920704790F8AE329A4201D00920704774
:1057600070B584B015460E46044602F51A70204402
:10577000C2F110020021053012F0D8F92A46314654
:1057800004F26D2012F0C7F994F8B3320C2B07D055
:105790000E2B09D0102384F8B332002004B070BD62
:1057A000204600F040F9F9E704F24D236A4604F27E
:1057B0007D21204600F00CFB6946204600F03FF9B1
:1057C000ECE790F8B3320B2B01D00820704751B1B1
:1057D00010B50446202200F5007012F09CF9204616
:1057E000FFF7DAFC10BD0E20704710B590F8B342F9
:1057F0000CB1082010BDC0F8B811C0F8BC210B22B4
:10580000194600F2B52012F086F9002010BD08B547
:1058100000F00CFB08BD70B5044615461E4639B1B4
:10582000002149B133462A462046FFF765FF70BD87
:1058300001F068FD0146F4E7062070BD20B3F8B51D
:10584000064619B322B314460D464BB100270FB3D9
:10585000238AB3F5805F07D3002373B90B20F8BD0B
:1058600001F050FD0746F2E7E08A08F095FC0128B8
:1058700001D00023F1E70123EFE723462A4639460A
:105880003046FFF785FBF8BD0E2070470E20F8BDAF
:105890000E20F8BD0620F8BD08B590F8B1320BB166
:1058A000082008BDFFF79EFB08BD08B590F8B1328F
:1058B00013B1FFF743FF08BDFFF7E0FB08BD08B5D4
:1058C00090F8B13213B1FFF77CFF08BDFFF7FCFB86
:1058D00008BD000070B5044616460D4641B17CB1C6
:1058E000D4F8B0311B68324629462046984770BD2F
:1058F0007846074B1B680BB19847F0E700DEEEE7F0
:105900007846034B1B680BB19847E9E700DEE7E7F1
:105910000869002050B10378092B09D8054AD35CE7
:105920008B4201D000207047012070470020704753
:10593000002070474480030090B110B4044689B140
:1059400092B10A48834203D807205DF8044B7047A0
:10595000C4F8B431C4F8AC21C4F8B0110020F4E7A5
:105960000E2070470E20F0E70E20EEE7FF8693032F
:1059700010B5D0F8B0416468D0F8B431A04710BD7C
:1059800010B5D0F8B021D468D0F8B421A04710BD2C
:1059900008B5D0F8B0311B69984708BD10B582B082
:1059A0000446104600238DF804308DF805100122BE
:1059B0000DF1050112F0AFF8022201A92046FFF710
:1059C00089FF02B010BD38B505460C46501C0B22AD
:1059D000013112F0A0F80C2221462846FFF77AFF89
:1059E00038BD38B505460C4602F10C0005220131E0
:1059F00012F091F8062221462846FFF76BFF38BDCA
:105A000030B593B0054612AC032304F8443D402260
:105A10000DF1050012F07FF8412221462846FFF7DC
:105A200059FF13B030BD00B583B002A9042301F8BB
:105A3000043D0122FFF74EFF03B05DF804FB30B5D3
:105A400087B0054606AC052304F8143D10220DEB83
:105A5000030012F060F8112221462846FFF73AFFB2
:105A600007B030BD30B587B0054606AC062304F854
:105A7000143D10220DF1050012F04DF811222146BF
:105A80002846FFF727FF07B030BD00B583B002A955
:105A9000082301F8043D0122FFF71CFF03B05DF865
:105AA00004FB00B583B009238DF804308DF8051090
:105AB000022201A9FFF70EFF03B05DF804FB08B551
:105AC0002222FFF707FF08BD08B5D0F8AC319B686C
:105AD000984708BD08B5D0F8AC31DB68984708BDD9
:105AE00070B582B004460D4616461A4B1B6813F07B
:105AF000080F03D0184B1B68032B08D8D4F8AC311F
:105B00001B68324629462046984702B070BD2F21B7
:105B1000124812F0DFF880B12F21104812F0DAF8A5
:105B2000411C0F4BD3F804352A7801920D4A00929C
:105B3000DF2204200AF076FCE0E75C21074812F03F
:105B4000C9F828B15C21054812F0C4F8411CE8E707
:105B50000249E6E75C320020583200205080030002
:105B600000B000409880030008B5D0F8AC315B6805
:105B7000984708BD70B58AB00646144621B30D4655
:105B8000084612F09FF86A4681B2284609F016FED0
:105B9000042269460DF1220011F0BDFF1625220AEC
:105BA00042EA0422ADF8202007F0E2FB1022014671
:105BB0000DEB020011F0AFFF2B4604AA0021304686
:105BC0000BF0FEFE0AB070BD1225E8E770B58CB090
:105BD0000C461546064670B1162C06D0122C04D081
:105BE0007846254B1B6873B1984775B1234B1B78DA
:105BF0009BB90CB070BD78461F4B1B680BB1984722
:105C0000EAE700DEE8E700DEEFE778461A4B1B68BC
:105C10000BB19847EAE700DEE8E72C22002101A853
:105C200011F084FF08951022314602A811F073FF8D
:105C30002B78012B14BF002301238DF81830032388
:105C40008DF80430162C0BD000218DF81910042289
:105C50000DF11A0011F06AFF01A807F08DFBC8E7EB
:105C600001238DF81930042206F112010DF11A00FA
:105C700011F051FFF0E700BF08690020B8310020A3
:105C800030B583B005460C4601210DF1070009F03F
:105C90006BF8611C9DF8072092FBF1F301FB1321C7
:105CA000E97303B030BD000030B583B005460C4643
:105CB000684609F059F8002110E002AB0B4413F8D4
:105CC000082C084BA3FB0203DB0803EBC30398007B
:105CD000121AD2B2044B9B5C6B540131A142ECD33B
:105CE00003B030BD398EE338AC80030030B583B0EB
:105CF00004460D4604210DEB010009F035F80E4B6A
:105D000053F825200199B1FBF2F302FB13121302A1
:105D100003F47F0343EA0263110A01F47F410B435A
:105D200043EA1263019304220DEB020104F10C001B
:105D300011F0F1FE03B030BDD480030030B5A7B040
:105D400004460D46112200F29D2101A811F0E3FE48
:105D500094F8B132A3B1402204F5E0710DF11500C1
:105D600011F0D9FE4022D4F8B8110DF1550011F010
:105D7000D2FE2A46912101A809F020FD27B030BDAE
:105D80004022D4F8B8110DF1150011F0C4FE4022E4
:105D900004F5E0710DF1550011F0BDFEE9E70000DA
:105DA000C82801D0072070474B681BB90020044B5E
:105DB000187070470122024B1A700020704700BF14
:105DC00053330020014B1878704700BF5333002035
:105DD0002DE9F0418EB00546884617461E46FFF76E
:105DE000ADFF0AAC0194042300930F4B42462021DF
:105DF00005F5007009F000FD1021304608F0B4FFF1
:105E00001022314602A811F086FE102205F26D2103
:105E100006A811F080FE3B46202202A9204609F088
:105E20004DFC0EB0BDE8F081F880030038B50446A3
:105E30000D4611F043FA02462946204611F042FA77
:105E4000012801D0032038BD002038BDF0B597B03F
:105E500004460D4617461E46102200F27D210AA870
:105E600011F059FE94F8B132002B34D0102204F214
:105E70005D210EA811F04FFE102204F24D2112A850
:105E800011F049FE06AA30210AA809F097FC04F592
:105E90000074019504250095154B06AA2021204683
:105EA00009F0AAFC02AB01930095124B06AA20212F
:105EB000204609F0A1FC0D220DF10B01384611F02E
:105EC0002AFE019600950C4B06AA2021204609F0D7
:105ED00093FC17B0F0BD102204F24D210EA811F072
:105EE0001AFE102204F25D2112A811F014FEC9E777
:105EF00000810300088103001081030070B505468E
:105F00000E4600F5E07411F0D9F90146204611F073
:105F1000B4FA08B9032070BDD5F8BC5111F0CEF920
:105F2000034632462946204611F00EFA08B90320EE
:105F300070BD002070BD000038B504460D4690F8D5
:105F4000AE32013BDBB2072B04D97846244B1B68E9
:105F500063B1984710220021284611F0E7FD94F81C
:105F6000B432022B04D0032B1ED038BD00DEF1E783
:105F700094F8AF32013B042B30D8DFE803F0030381
:105F800003090F0094F8AE122846FFF779FE38BDDA
:105F900094F8AE122846FFF7A9FE38BD94F8AE1269
:105FA0002846FFF781FE38BD94F8AF32013B032B42
:105FB00014D8DFE803F00202080E94F8AE12284667
:105FC000FFF75EFE38BD94F8AE122846FFF78EFE4E
:105FD00038BD94F8AE122846FFF766FE38BD00BF04
:105FE0000869002030B593B004460EAD0195042336
:105FF0000093124B00F27D22202100F5007009F081
:10600000FBFB102204F25D2106A811F084FD102292
:1060100004F26D210AA811F07EFD02AB202206A930
:10602000284609F04BFB102204F28D2102A811F042
:1060300063FDB0FA80F0400913B030BDF880030072
:10604000EFF3108172B6074B1B6833B193F89920B8
:10605000824202D0D3F8A831F7E701B962B61846F8
:10606000704700BF54330020EFF3108172B6074B26
:106070001B6833B1D3F89420824202D0D3F8A83100
:10608000F7E701B962B61846704700BF54330020E5
:1060900070B50546164B1B6853B1EFF3108672B608
:1060A000134B1C68AC420ED1D5F8A8211A601BE036
:1060B0007846104B1B680BB19847EEE700DEECE723
:1060C00000DED4F8A841D4F8A8319D4208D0002BB6
:1060D000F7D17846074B1B68002BF1D09847F0E7C3
:1060E000D5F8A831C4F8A83106B962B670BD00BFB2
:1060F000543300200869002010B5044628B194F8F4
:106100009930012B09D0082010BD7846084B1B6838
:106110000BB19847F3E700DEF1E72046FFF7B8FF41
:1061200020460CF0F7FA002084F8990010BD00BF5B
:106130000869002038B504460D4690F89930023BB6
:10614000DBB2022B04D97846134B1B68FBB198478E
:106150002046FFF79DFF94F89830012B04D0784635
:106160000D4B1B68ABB1984720460CF0D3FA0023C7
:1061700084F8983084F8D83084F8993004F1B80065
:1061800008F0C0FB29462046FFF7A4FC38BD00DE1E
:10619000DEE700DEE8E700BF0869002008B502314D
:1061A0000CF06EF908BD00002DE9F0410646884666
:1061B00015461F461146FFF7F1FF38B304466B1C26
:1061C0004374292383742A464146133011F0A3FCFB
:1061D0002771EFF3108772B6D6F8A0510135C6F8D3
:1061E000A051B5F1FF3F09D007B962B6256021463D
:1061F00030460CF093F90020BDE8F0817846054B5D
:106200001B680BB19847EFE700DEEDE70420BDE81F
:10621000F08100BF0869002030B589B0044600282D
:1062200055D094F89930032B05D078462F4B1B6836
:10623000002B54D0984794F8D830022B05D07846DC
:106240002A4B1B68002B4CD0984794F8D920142A6D
:1062500049D895B2D4F894100B0203F47F0343EAB3
:106260000163080A00F47F40034343EA116300938B
:1062700094F89B308DF804309DF80510931C1C4851
:10628000A0FB0303C3F3051301F0FC0163F38701D3
:106290008DF8051094F8DA308DF808301202ADF858
:1062A00006202A4604F1DC010DF1090011F033FC4F
:1062B000012305F1090269462046FFF775FF0346F1
:1062C00010B9012284F8DB20184609B030BD7846A9
:1062D000064B1B680BB19847A3E700DEA1E700DE81
:1062E000A9E700DEB1E71425B4E700BF0869002084
:1062F000C94216B270B588B004464B1E03EB43008A
:10630000C3EBC00080B2143080B294F8D9502D1A7B
:10631000ADB2172D00D91725D4F89420130203F439
:106320007F0343EA0263160A06F47F46334343EAD7
:106330001263009394F89B308DF804309DF805307B
:10634000022262F3010361F387038DF8053000F147
:10635000D80121442A4604310DF1060011F0DBFB7F
:106360000123AA1D69462046FFF71EFF024620B9F9
:1063700094F8DB30013384F8DB30104608B070BD90
:1063800038B5054690F8D830022B04D07846114B2A
:106390001B68BBB1984795F8DB30ABB195F8DB4093
:1063A00095F8D93002330C4AA2FB03231B090133B1
:1063B000DBB29C420DD2E1B22846FFF79BFF40B909
:1063C0000134EDE700DEE6E72846FFF725FF002869
:1063D000E4D038BD08690020C94216B210B50446A1
:1063E00090F89930042B04D090F8D830022B0ED0BE
:1063F00010BD90F8D830022B05D094F89C102046A0
:10640000FFF798FE10BDA03008F07CFAF5E7FFF723
:10641000B7FFEDE710B5094B1C6801E0D4F8A841BF
:1064200054B194F8A431002BF8D0002384F8A4319F
:106430002046FFF7D3FFF1E710BD00BF5433002023
:1064400010B588B0D0F89420130203F47F0343EA18
:106450000263140A04F47F44234343EA1263009363
:1064600000238DF804309DF8053043F00303022229
:1064700062F387038DF805308DF806100423072298
:106480006946FFF791FE08B010BD000038B50D4613
:106490000446F8B1022D04D97846174B1B680BB39C
:1064A000984794F899302BB3042B23D0023BDBB2EE
:1064B000012B04D97846104B1B68ABB1984729468D
:1064C0002046FFF7BDFF88B9042384F8993084F88B
:1064D0009C5038BD7846084B1B680BB19847D9E7EC
:1064E00000DED7E700DEDCE700DEE8E729462046ED
:1064F000FFF720FE38BD00BF0869002010B588B046
:106500000446D0F89420130203F47F0343EA0263A5
:10651000100A00F47F40034343EA12630093002211
:106520008DF804209DF8053043F0030362F38703E0
:106530008DF8053010220DF1060011F0ECFA04235D
:10654000162269462046FFF72FFE08B010BD10B591
:1065500088B0D0F89420130203F47F0343EA026367
:10656000140A04F47F44234343EA126300938DF832
:1065700004109DF80520012363F301026FF38702E5
:106580008DF8052006226946FFF70EFE08B010BD03
:1065900000B589B0D0F89420130203F47F0343EAD6
:1065A0000263110A01F47F410B4343EA1263009333
:1065B00000238DF804309DF8052042F003020123EA
:1065C00063F387028DF8052006226946FFF7ECFD8C
:1065D00009B05DF804FB000010B50246002380F806
:1065E000D83080F89B3080F89A30012480F89840A9
:1065F00080F89930C0F8A0310A4CC0F8A840C2F821
:10660000B000C0F8D4100849C0F8C010C2F8C800E3
:10661000C0F8C430802300F5907204490CF0B4F83F
:1066200010BD00BF5D6602005166020031660200C7
:1066300008B5D0F8A0318B4200D008BD012380F806
:10664000A431024B186808F0ADFFF6E7BC3100201A
:1066500008B508460121FFF79BF908BD91F899306C
:10666000032B03D00023C1F8AC30704791F8D83029
:10667000022BF7D130B583B00C460546D1F8D030A7
:106680001B1A002B10DB254B1B6813F0080F03D0DF
:10669000234B1B68042B1CD8002384F8DB302046D6
:1066A000FFF76EFE03B030BD01212046FFF7C8FEA4
:1066B00048B9042384F89930012384F89C300023DE
:1066C000C4F8AC30EEE7174BC4F8AC30C4F8D05087
:1066D000E8E72F21144811F0FDFA90B12F2112485C
:1066E00011F0F8FA411C114BD3F8043594F8DC2072
:1066F00001920F4A009240F29532052009F092FE75
:10670000CAE75C21084811F0E5FA28B15C21064887
:1067100011F0E0FA411CE6E70349E4E75C320020AF
:106720005832002040420F00DC84030000B00040DB
:1067300028850300EFF3108372B61C4A1168C0F875
:10674000A811106003B962B6194B1B6813F0080F4B
:1067500003D0184B1B68032B00D8704710B582B0CC
:1067600004462F21144811F0B5FA88B12F211248A0
:1067700011F0B0FA411C114BD3F804350194104AC2
:1067800000924FF4B572042009F04CFE02B010BD27
:106790005C21094811F09EFA28B15C21064811F0ED
:1067A00099FA411CE7E70449E5E700BF54330020AC
:1067B0005C32002058320020DC84030000B000402E
:1067C0001881030038B50546FFF7D4F9044670B1C7
:1067D000FF2323714FF0FF3323604FF4FA61284603
:1067E0000BF048FF214628460BF098FE38BD78464E
:1067F000034B1B680BB19847EAE700DEE8E700BFF0
:1068000008690020F8B50E4617461D460446F8B143
:1068100094F89830012B23D029462046FFF7DCFE60
:106820000025C4F89450802384F89B3084F89A5053
:106830003A4631462046FFF7C5FF20460BF0F6FDED
:106840002046FFF777FF012384F899302846F8BDEA
:106850007846064B1B680BB19847D9E700DED7E7AF
:1068600094F89930002BD7D00820F8BD0869002093
:1068700070B50D4616460446D0B194F89830012BF9
:106880001ED031462046FFF7A7FE042104F19400F4
:1068900008F06AFA002384F89B30802384F89A3049
:1068A00029462046FFF72AFE054678B1284670BDE6
:1068B0007846104B1B680BB19847DEE700DEDCE73B
:1068C00094F89930002BDCD00825EFE708F0F4F8B5
:1068D000D4F8D410014404F1B80008F049F8204677
:1068E0000BF0A4FD2046FFF725FF022384F8993022
:1068F000DCE700BF0869002030B583B090F8D830DD
:10690000022B1FD03F4B1B6813F0080F18D03E4BD3
:106910001B68012B14D92F213C4811F0DBF900280A
:1069200062D02F21394811F0D5F9411C384BD3F8EA
:106930000435384A009240F20A32022009F072FD12
:1069400003B030BD04460A7990F89B309A42D9D101
:106950002C4B1B6813F0080F03D02B4B1B68032B29
:106960001DD80025C4F8AC5004F1A00007F0CAFF00
:1069700020460BF0CFFE94F89B30013384F89B3017
:1069800084F8D85008F098F8D4F8D410014404F1F1
:10699000B80007F0EDFF2046FFF7E6F8D0E72F211B
:1069A0001A4811F097F990B12F21184811F092F977
:1069B000411C174BD3F8043594F8DC200192164A99
:1069C00000924FF43E72042009F02CFDC9E75C21CF
:1069D0000E4811F07FF928B15C210C4811F07AF9CA
:1069E000411CE6E70949E4E75C21084811F072F927
:1069F00028B15C21054811F06DF9411C96E7034967
:106A000094E700BF5C32002058320020DC84030091
:106A100000B00040208303000483030070B582B0FF
:106A200005464B799B08012B00F0A2800C462BB346
:106A3000022B00F01781B74B1B6813F0080F1FD013
:106A4000B54B1B68012B1BD92F21B44811F042F91B
:106A5000002800F08F812F21B04811F03BF9411C34
:106A6000AF4BD3F80435627992080192AD4A009297
:106A70004FF45B72022009F0D5FC01E0162A01D028
:106A800002B070BD8E1D06F073FC10220146304628
:106A900011F032F80028F3D17DB1002DF0D095F837
:106AA0009930012B0ED0032BEAD195F8D830002B6A
:106AB000E6D12846FFF76CFDE2E70120FFF7C0FAB8
:106AC0000546EAE72268130203F47F0343EA026300
:106AD000110A01F47F410B4343EA1263C5F8943075
:106AE000142128460BF0C6FD2846FFF751FD00286B
:106AF0003AD1884B1B6813F0080F03D0864B1B68F4
:106B0000032B0FD8032385F8993007F0D5FFD5F86C
:106B1000D410014405F1B80007F02AFF2846FEF71B
:106B2000D3FFADE72F217D4811F0D4F878B12F21A4
:106B30007A4811F0CFF8411C794BD3F804357A4AE2
:106B4000009240F22B32042009F06CFCDAE75C2161
:106B5000724811F0BFF828B15C21704811F0BAF802
:106B6000411CE9E76D49E7E70023C5F8943087E762
:106B7000002885D0062A83D190F89930022B23D0A3
:106B8000644B1B6813F0080F3FF47AAF624B1B682D
:106B9000012B7FF675AF2F21604811F09BF800287C
:106BA00053D02F215D4811F095F8411C5C4BD3F870
:106BB000043595F8992001925C4A00924FF4547282
:106BC000022009F02FFC5BE70BF0A4FD14212846FE
:106BD0000BF050FD4F4B1B6813F0080F03D04E4BCA
:106BE0001B68032B0FD8032385F8993007F064FF47
:106BF000D5F8D410014405F1B80007F0B9FE2846D5
:106C0000FEF762FF3CE72F21444811F063F878B1AA
:106C10002F21424811F05EF8411C414BD3F8043556
:106C2000414A00924FF45272042009F0FBFBDAE76C
:106C30005C213A4811F04EF828B15C21374811F038
:106C400049F8411CE9E73549E7E75C21334811F091
:106C500041F828B15C21314811F03CF8411CA5E70E
:106C60002E49A3E700283FF40BAF072A7FF408AFB3
:106C700090F89930023BDBB2012B23D9254B1B68DE
:106C800013F0080F3FF4FCAE234B1B68012B7FF67B
:106C9000F7AE2F21214811F01DF800285DD02F21DB
:106CA0001E4811F017F8411C1D4BD3F8043595F818
:106CB000992001921E4A009240F26732022009F0A8
:106CC000B1FBDDE690F8D830022B35D0A17928460B
:106CD000FFF730FA0F4B1B6813F0080F3FF4D0AEEC
:106CE0000D4B1B68032B7FF6CBAE2F210B4810F00A
:106CF000F1FF28B32F21094810F0ECFF411C084B8D
:106D0000D3F804350B4A009240F26232042009F0B5
:106D100089FBB5E65C32002058320020DC84030099
:106D200000B00040DC820300448203005C82030068
:106D3000A882030090820300A03007F0E3FDC5E7BE
:106D40005C21134810F0C6FF28B15C21104810F0F8
:106D5000C1FF411CD3E70E49D1E75C210C4810F07C
:106D6000B9FF28B15C210A4810F0B4FF411C9BE731
:106D7000074999E75C21064810F0ACFF28B15C2177
:106D8000034810F0A7FF411C6AE6014968E600BF0E
:106D9000DC8403000022FF238A420CDA10B4845CF6
:106DA0006340064CE35C01328A42F8DBD843C0B250
:106DB0005DF8044B7047D843C0B27047448103006C
:106DC000F8B590F89930032B01D00820F8BD412A7E
:106DD00001D90920F8BD90F8D8300BB11120F8BDC9
:106DE00016460F46044607F067FED4F8D410014457
:106DF00004F1B80007F0BCFD07F05EFE0546B31CC9
:106E00001A4AA2FB03231B090133DBB2A26E02FB69
:106E100003F303F5F41101F59061C4F8AC10144BC1
:106E2000C4F8A830014404F1A00007F0A1FD114B03
:106E30002B44C4F8D030C4F8B040002584F8DB50AF
:106E4000022384F8D83084F8D96031463846FFF7F9
:106E5000A1FF84F8DA003246394604F1DC0010F074
:106E60005AFE2046FFF78CFA2846F8BDC94216B2F2
:106E70005D66020080C3C9012DE9F04393B0074667
:106E80000C4690460B78012B04D078461B4B1B68B0
:106E90006BB19847A678251D61782846FFF77AFFE1
:106EA000864206D00023237013B0BDE8F08300DED5
:106EB000F0E797F89A103846FFF749FB4FF00009C2
:106EC00084F8039008F1010887F89A8066783246C2
:106ED000294601A810F01FFE84F8009007F0ECFD91
:106EE000D7F8D410014407F1B80007F041FD32464D
:106EF00001A93846FEF7F4FDD6E700BF0869002077
:106F000070B584B004460D4690F8D830002B61D19E
:106F1000097990F89A3099422BD3EB881B0A80F8B4
:106F2000D93002339049A1FB03131B090133DBB2B3
:106F3000072B1AD82B7A80F8DA30012380F8D83062
:106F400080F8DB30A2F10906324605F10901DC3098
:106F500010F0E1FD94F8D9309E4217D12A7904F15E
:106F6000D8012046FFF788FF10E00221FFF78EFAD4
:106F70000CE07E4B1B6813F0080F03D07C4B1B68A2
:106F8000042B05D829792046FFF7E1FA04B070BD3B
:106F90002F21784810F09EFE78B12F21754810F00F
:106FA00099FE411C744BD3F80435744A009240F2A8
:106FB000A322052009F036FAE4E75C216D4810F0C1
:106FC00089FE28B15C216B4810F084FE411CE9E782
:106FD0006849E7E7022B1FD0644B1B6813F0080FCA
:106FE000D4D0634B1B68012BD0D92F21614810F0FE
:106FF00071FE002800F0AB802F215E4810F06AFE81
:10700000411C5D4BD3F804355D4A009240F2BD222D
:10701000022009F007FAB9E70A7990F89A309A4203
:107020002FD2524B1B6813F0080F03D0504B1B6834
:10703000042B04D829792046FFF789FAA6E72F21E7
:107040004C4810F047FE78B12F214A4810F042FE1C
:10705000411C494BD3F80435484A009240F2AF2214
:10706000052009F0DFF9E5E75C21424810F032FE27
:1070700028B15C213F4810F02DFE411CE9E73D4955
:10708000E7E79A4231D9394B1B6813F0080F3FF4F8
:107090007DAF374B1B68012B7FF678AF2F2135482A
:1070A00010F018FEA0B12F21324810F013FE411C41
:1070B000314BD3F804352A7994F89A000290019262
:1070C000304A00924FF42D72022009F0ABF95DE7CF
:1070D0005C21284810F0FEFD28B15C21254810F005
:1070E000F9FD411CE4E72349E2E7204B1B6813F05C
:1070F000080F3FF44BAF1E4B1B68042B7FF646AFC7
:107100002F211C4810F0E6FDA0B12F21194810F0E6
:10711000E1FD411C184BD3F804352A7994F89A0004
:1071200002900192184A00924FF42E72052009F045
:1071300079F92BE75C210F4810F0CCFD28B15C21D8
:107140000C4810F0C7FD411CE4E70A49E2E75C2166
:10715000084810F0BFFD28B15C21064810F0BAFDC8
:10716000411C4EE703494CE7C94216B25C3200208D
:1071700058320020DC84030000B00040BC830300D0
:10718000948403000C8403005884030030B585B058
:1071900004460D4690F8D830012B2ED0097990F88E
:1071A0009A309942C0F08F80994240F28E804E4BC7
:1071B0001B6813F0080F00F088804C4B1B68012BF4
:1071C00040F283802F214A4810F084FD00287ED0B1
:1071D0002F21474810F07EFD411C464BD3F8043563
:1071E0002A7994F89A0002900192434A009240F260
:1071F000EE22022009F016F967E0097990F89A303A
:1072000099421ED0384B1B6813F0080F5DD0374BE6
:107210001B68012B59D92F21354810F05BFD002840
:1072200044D02F21324810F055FD411C314BD3F88A
:107230000435324A009240F2E222022009F0F2F8CC
:1072400043E090F8DB106B799B08194111F0010FB6
:107250003BD1013B03EB4300C3EBC00303F1EC0064
:107260002044063AA91D043010F055FC6A799208B2
:10727000012000FA02F194F8DB200A43D2B284F82C
:10728000DB20024494F8D93002331D49A1FB0313DB
:107290001B090344DBB200FA03F39A4215D12A79A1
:1072A00004F1D8012046FFF7E7FD0EE05C2110480D
:1072B00010F010FD28B15C210D4810F00BFD411CB1
:1072C000B4E70B49B2E7FFF742F905B030BD5C21E6
:1072D000074810F0FFFC28B15C21054810F0FAFCCB
:1072E000411C7AE7024978E75C32002058320020DE
:1072F000DC84030000B0004074830300408303007B
:10730000C94216B208B5064B1B68B3F1FF3F01D066
:10731000044808BD044808F01BF9014B1860F7E762
:10732000BC310020C88403001564020070B50D460E
:1073300016460446B8B1F6B12068030203F47F0391
:1073400043EA0063020A02F47F42134343EA1060F7
:10735000FEF78AFE637903F00303032B34D8DFE8DA
:1073600003F0121C252F7846184B1B680BB1984769
:10737000E1E700DEDFE77846144B1B680BB1984766
:10738000DAE700DED8E7F8B190F89930032B1BD18B
:107390002A462146FFF7B4FD70BDA8B190F8993098
:1073A000032B11D12146FFF7A7FA70BD60B190F809
:1073B0009930032B08D12A462146FFF7E7FE70BD1E
:1073C0002A462146FFF72AFB70BD00BF086900204E
:1073D00010B50446837803F00303032B21D8DFE8BC
:1073E00003F0020C131981788B081D4A11681944A7
:1073F000A1601C4B1B6800201FE083789B0803EBF7
:10740000830359000B46F0E783789B08642101FB56
:1074100003F3EAE783789B0841F2707101FB03F301
:10742000E3E77846104B1B6813B198470023DCE76D
:1074300000DE0023D9E71846DB681BB19A688A1A78
:10744000002AF8DA18B133B1C460E36010BDE3601C
:10745000044B1C6010BDC4600023E36010BD00BF7E
:1074600070330020783300200869002010B5764B77
:1074700019688B7803F00303744A1278934240F33F
:10748000BA808C68724B1B68E41A724B03FB04F4DD
:10749000032A09D8DFE802F0021204066D4B0EE061
:1074A0006D4B0CE06D4B0AE078466D4B1B6813B1D9
:1074B0009847002303E000DE002300E0694BB4FBA3
:1074C000F3F3614A1268927802F00302022A19D09B
:1074D0003AD8012A6AD102F1CC32A2FB0312D208B7
:1074E00002EB820251008B4202D0002213465FE081
:1074F00007F0E2FA00F5742303F5107301225349F3
:107500000A7055E0514A117839B9574AA2FB030273
:107510005209642000FB12326AB1012902D0002214
:10752000134645E0514AA2FB0312D20802EB820245
:1075300051008B4249D107F0BFFA474B0344022167
:10754000424A1170012233E0404A117841B9484A59
:10755000A2FB0302D20941F2707000FB123282B129
:10756000012904D0022915D00022134620E0414A07
:10757000A2FB030292094FF4167000FB1232002A9C
:10758000F0D107F099FA354B034403212F4A1170CB
:1075900001220DE0384AA2FB03125209C2EB02128B
:1075A00091008B42EDD00022134601E000221346E9
:1075B000002A47D107F080FA0446244B1B78032B9E
:1075C0000CD8DFE803F00515070900221346EFE7A2
:1075D000204B0EE0204B0CE0204B0AE07846204B7D
:1075E0001B6813B19847002303E000DE002300E08E
:1075F0001C4B234426E007F05FFA0446124B1B683D
:107600009B7803F00303032B09D8DFE803F0021291
:107610000406104B0EE0104B0CE0104B0AE07846CD
:107620000F4B1B6813B19847002303E000DE0023D3
:1076300000E00C4B2344044A12689278C2F3010222
:1076400002490A70184610BD7833002075330020B7
:1076500070330020A0860100809698000046C32366
:107660000869002040420F001F85EB51CDCCCCCCE7
:10767000F1197605B5814E1B8988888810B52B4B8A
:107680001B7873B92A4B1B68002B47D0FFF7EEFE1F
:107690000146264B1B78002B38D0264807F068F9A6
:1076A00010BD244B5C6807F007FA241A224B1B78A4
:1076B000032B09D8DFE803F0021204061F480EE08E
:1076C0001F480CE01F480AE078461F4B1B6813B1A7
:1076D0009847002003E000DE002000E01B48001B6C
:1076E000154B1B7843B94CF25033984204D9184AD1
:1076F000136801331360C5E74009164BA3FB003044
:10770000134A136803EBD0101060BBE70122074B4C
:107710001A700848416007F0AFF810BD034B1B78A2
:1077200003B910BD034807F0EDF8FAE77433002001
:10773000783300205833002075330020A0860100E4
:10774000809698000046C3230869002040420F003D
:1077500070330020C55A7C0A30B583B007E000DEE4
:1077600063680199284698472046FFF731FE124B7F
:107770001C68ECB1A368114A1268934204D00F4A06
:1077800012689B1A002B13DA2588E2680A4B1A60EC
:1077900002A9002341F8043D284601F02BFA0028F5
:1077A000DED07846064B1B68002BD8D09847D7E729
:1077B000FFF764FF03B030BD783300207033002042
:1077C0000869002008B5154B1B78032B1ED8DFE88D
:1077D00003F0020C1116124A1368013313600022E1
:1077E000104B1A70FFF7B8FF08BD0D4A13680A3333
:1077F0001360F4E70A4A136864331360EFE7084A3A
:10780000136803F5BB5310331360E8E77846064B63
:107810001B680BB19847E2E700DEE0E77533002014
:1078200070330020743300200869002010B504462E
:10783000FFF7CEFD034B1B689C4200D010BDFFF745
:107840001DFFFBE77833002010B5084C18220021FB
:10785000204610F06BF9064BA3600023054A136025
:10786000054A1360054A137010BD00BF583300204D
:10787000C577020070330020783300207433002075
:1078800070B50E461546044628B107F021FE164B8A
:107890001B68002209E07846144B1B680BB198471F
:1078A000F3E700DEF1E71A46DB680BB1A342FAD139
:1078B000A17866F3010165F38701A17013B13AB1B4
:1078C000D968D16045B903B152B107F021FE70BD4E
:1078D000D86805490860F5E72046FFF7A7FFF4E7F9
:1078E000FFF7CCFEF1E700BF7833002008690020E5
:1078F00070B50E461546044640B1A378C3F30103A4
:107900003370A378C3F385032B7070BD7846034BA7
:107910001B680BB19847F0E700DEEEE7086900202E
:1079200082B000230093027802F0C003402B0ED0F7
:107930000CD9802B1BD0C02B0FD1ADF80020427882
:10794000837843EA0223ADF8023006E02BB9ADF8A4
:1079500000204FF6FF73ADF80230009B00209AB272
:1079600062F30F001B0C63F31F4002B070474378B3
:1079700043EA0222ADF800204FF6FF73ADF8023063
:10798000EBE782B00190000C4FF6FF73984207D0EE
:10799000BDF804300B70030A4B70887002B070475A
:1079A000BDF8043013F47F4F03D01A0A0A704B70ED
:1079B000F4E70B70F2E782B001904FF6FF73B3EB80
:1079C000104F0AD0BDF8040020F03F0080B2C0285C
:1079D00014BF0020012002B07047BDF8040010F46D
:1079E0007F4F07D000F44040B0F5004F14BF002097
:1079F0000120F0E720F07F039BB22BB97F2801D054
:107A00000120E8E70020E6E70020E4E730B482B098
:107A10000191002300E00133018D8B4210D2416AB5
:107A200001EBC30531F83340BDF804108C42F2D1AC
:107A30006C88BDF806108C42EDD11360012000E087
:107A4000002002B030BC7047F8B505460E46174618
:107A50001C467BB13389B3F5BE7F13D2ADB9342355
:107A6000214A03FB052393F8303013F0010F1CD19A
:107A700000230BE078461D4B1B680BB19847E9E7E4
:107A800000DEE7E7092323600AE0002333B1342353
:107A9000154A03FB05239B89012B08D90523236085
:107AA0002068B0FA80F04009F8BD0123EEE737B155
:107AB0003068FFF780FFA0B100232360F0E7342394
:107AC000094A03FB05239A884FF6FF739A4208D0B0
:107AD0003422054B02FB0535EA884FF6FF739A42C4
:107AE000E6D107232360DBE7B833002008690020D4
:107AF00008B57846034B1B680BB1984708BD00DEFC
:107B000008BD00BF0869002008B5804708BD000017
:107B100008B50122054B1A70054809F06DFA00B945
:107B200008BD044809F0D8FCFAE700BFB4330020D0
:107B300090330020D03100202DE9F04107F0C8FC3F
:107B4000574B1B78BBB9574B1B780BB1002513E083
:107B500006220121544809F035FB50B10222C280AF
:107B600001240481848009F071FB4E4B1C700025B8
:107B700002E0112500E00825002418E003EB440092
:107B80004A4A02EB80025268D24301EB8300426012
:107B90000133002BF2D0084609F058FB434A12F893
:107BA000343023F0020302F834300134A4B2002C44
:107BB0003BD1ADB93D4B13F8343003F00303032B35
:107BC000F3D1042244F44051374809F0FBFA01464E
:107BD00008B12B46DDE71125E7E711250134A4B2F2
:107BE000012C51D81DBB04EB44035A00304B134405
:107BF0005B7913F0020FF1D0022244F480512A483D
:107C000009F0E0FA0028E8D0294E670039194B0046
:107C100006EB0308F35A838009F018FB98F8053047
:107C200023F0020388F80530D8E70024D8E70024C1
:107C300002E011250134A4B244BB3DBB34231D4AEC
:107C400003FB042393F8303003F00303032BF1D13B
:107C5000142244F40051144809F0B4FA07460028ED
:107C6000E7D03426134B06FB043614223146043089
:107C70000FF051FF384609F0E9FA96F8303023F05A
:107C8000020386F83030D5E70024D5E71DB907F0A8
:107C90003FFCBDE8F081084809F01EFCF7E700BF93
:107CA000B4330020B533002090330020EC330020A3
:107CB0007C330020B8330020E031002008B53422A6
:107CC00000210F480FF032FF0C2200210D480FF069
:107CD0002DFF082200210C480FF028FF002303B1DC
:107CE00008BD3422064902FB03124FF6FF71D18012
:107CF00091800120D081918103449BB2EFE700BFC6
:107D0000B83300207C330020EC3300202DE9F04113
:107D100082B00546037D012B1FD0143002A94FF617
:107D2000FF7321F8083D02F05DFB28B17846544B03
:107D30001B68002B5DD09847BDF8000002F00AFADE
:107D400028B978464E4B1B68002B54D09847002426
:107D5000002C52DD02B0BDE8F081684602F088F9DF
:107D6000EB8ABDF800209342F4D3BDF80210114411
:107D70008B42EFDA9B1A9CB20026002EEADC3420FC
:107D8000404B00FB063090F8303013F0010F03D069
:107D90003C4A83899C4201D00136EEE7342303FB41
:107DA00006F308331A446B8C590952F8211003F07A
:107DB0001F03012202FA03F31942EDD001AA296838
:107DC000FFF724FE0028E7D01FFA86F834272D4B52
:107DD00007FB0637FA6A2946404601F0A7F87B6A96
:107DE000019A03EBC2035B68FA6A2946404698474A
:107DF000D2E700DEA0E700DEA9E73423214803FB39
:107E0000040090F8303013F0010F22D01D4AC189D0
:107E1000F9B9342303FB04F3083313446A8C56097D
:107E200053F8266002F01F02012303FA02F2164201
:107E30000FD0154B03EBC1010431BDF800305A09D6
:107E400051F8221003F01F03012202FA03F3194232
:107E500001D101347CE701AA2968FFF7D7FD00288A
:107E6000F7D03423074A03FB04235A6A019902EB33
:107E7000C1025668DA6A2946A0B2B047E9E700BFF6
:107E800008690020B8330020EC33002010B58EB014
:107E9000044600284CD02068FFF742FD0D9080B2C8
:107EA0007F2843D0414B1B6813F4005F03D0404B45
:107EB0001B68042B44D8E06902F0D0FA0D9A0492B2
:107EC000236803924FF6FF71B1EB124F5DD003228E
:107ED00013440593A3880D9A02924FF6FF71B1EBFC
:107EE000124F5AD003229B1AADF81830237A8DF81E
:107EF0001C306389ADF81E30E3680893237C8DF84D
:107F00002430638AADF8263063690A93636A5A683D
:107F10000B9293F90D308DF8303094F820308DF8B5
:107F20003130ADF8320004A8FFF7F0FE0EB010BDFE
:107F30007846204B1B680BB19847ACE700DEAAE7F8
:107F40002F211D480FF0C6FE90B12F211A480FF0C7
:107F5000C1FE411C194BD3F80435BDF83420019201
:107F6000174A009240F22312052008F05BFAA2E7BC
:107F70005C2111480FF0AEFE28B15C210E480FF0D5
:107F8000A9FE411CE6E70C49E4E7BDF80C20FF2AF6
:107F900001D902229CE701229AE7BDF80820FF2AB6
:107FA00001D801229FE702229DE700BF5C3200203A
:107FB00058320020086900203C85030000B00040D2
:107FC0008085030008B5037803B108BD0430FFF7CE
:107FD0005DFFFAE700B587B00F4B03930F4B049397
:107FE0000F4B05930423029301F066FFA0F5805028
:107FF0000090012301930B4A137069460A4809F067
:1080000023FA28B90022074B1A7007B05DF804FB69
:10801000064809F061FAF8E7C1800200F17A02002F
:1080200031800200B433002090330020C0310020A2
:1080300010B500230BB100230FE01E4A12F83320C5
:1080400012F0010F04D042F002021A4901F8332065
:1080500001339BB2EEE701339BB2012B10D803EB47
:1080600043014A0014498A5A002AF4D008465A00AB
:10807000D418610001444A7942F002024A71EAE7E9
:10808000002301E001339BB28BB934220B4902FB80
:10809000031292F8302012F0010FF3D03421074878
:1080A00001FB030142F0020281F83020EAE7FFF70A
:1080B00091FF10BDEC3300207C330020B83300204A
:1080C00070B58CB005460E461446012A05D0022C28
:1080D0000BD0032C11D00CB070BD7846114B1B682F
:1080E0000BB19847F3E700DEF1E778460D4B1B68CC
:1080F0000BB19847EDE700DEEBE72C22002101A849
:108100000FF014FD19238DF8043002238DF8083088
:108110000396EB6805932B69069301A805F02CF9EB
:10812000D9E700BF086900202DE9F04794B002AFFD
:1081300005460C46164607F14403FFF785FC20B9B7
:10814000786C4837BD46BDE8F08707F1400001F084
:108150008FFFB7F842203423954903FB05139B8911
:108160009A4201D81020ECE7B7F8408043441FFA48
:1081700083F856B3B6F8229007F138030C3696E828
:10818000030083E8030007F13601304602F02AF9C4
:1081900010B14FF6FF73FB863422854B02FB053589
:1081A0002D7CFF2D27D097F83830012B26D0012BBE
:1081B00030D0F88E4FF6FF7398422DD001F0CAFFF1
:1081C000002840F09280002327E03423784A03FB04
:1081D0000523B3F80490D888F88607F1380102F037
:1081E00005F80028D8D07846724B1B680BB1984729
:1081F000D2E700DED0E7704B1D78D4E7798FB7F86F
:1082000040209142D3D3B7F8420002449142CEDAE3
:10821000012302E0002300E000231E46002B66D16C
:108220001EB197F83830012B5DD06E462022002118
:1082300007F110000FF07AFC238922687A604FF66C
:10824000FF71B1EB124F78D003221344073323F0B0
:108250000703ADEB030D0DF1080A07F124014846B1
:1082600002F014FB28B17846524B1B68002B6BD0F0
:10827000984707F1100307F1380292E8030083E8FA
:108280000300A7F81880BD76C7F81CA023892268D0
:10829000FA604FF6FF71B1EB124F57D0032213442F
:1082A0003B8451462068FFF76CFB2368BB604FF6A8
:1082B000FF72B2EB134F50D0032022896168504403
:1082C0000FF029FC002107F1100006F009F878648E
:1082D00040B93A4B1B6813F4005F03D0384B1B685E
:1082E000042B41D8B546786C2BE7012395E724226F
:1082F000002107F110000FF019FC23683B6163684F
:108300007B6123893B8301233B77A7F81E8007F11C
:10831000240307F1380292E8030083E8030006F023
:10832000CBFBF86287F83150A7F8329007F11000C4
:10833000FFF7ECFC00237B6472E7BA88FF2A01D9BF
:10834000022282E7012280E700DE92E7BA89FF2A53
:1083500001D90222A3E70122A1E73B89FF2B01D922
:108360000220AAE70120A8E72F2116480FF0B2FC4F
:1083700088B12F2113480FF0ADFC411C124BD3F8EC
:10838000043522880192114A009240F2C51205205C
:1083900008F048F8A6E75C210A480FF09BFC28B1DA
:1083A0005C2108480FF096FC411CE7E70549E5E72A
:1083B000B833002008690020F03100205C32002032
:1083C000583200203C85030000B000409485030033
:1083D00008B5FFF773FC00F0F9FDFFF799FB08BD46
:1083E00008B5FFF76BFC0648064B036006F093F8F0
:1083F00000F0DEFDFFF728FAFFF7ECFD08BD00BF37
:1084000088330020C57F020021B108B50022FFF7A4
:108410008BFE08BD0E207047034650B93422154824
:1084200002FB030292F8302012F0010F05D1002266
:1084300000E000221AB9052070470122FAE7172947
:1084400001D90720704734220A4802FB0302D28870
:1084500091420CD03420074A00FB0323D98093F8C3
:10846000302042F0020283F83020002070470020C4
:10847000704700BFB83300200A46C9B150B9342351
:108480000C4903FB001393F8303013F0010F05D1B2
:10849000002300E000231BB9052070470123FAE701
:1084A0003421044B01FB0030C38813800020704747
:1084B0000E207047B833002008B10520704770B512
:1084C00003463420204C00FB034090F8300010F0AD
:1084D000010F01D1052070BD342000FB03408069ED
:1084E00080B33F2A01D9072070BD032901D9072095
:1084F00070BD342000FB0340407CB2EB900F17D0DE
:10850000114C342000FB03F3E518687C62F387000C
:1085100061F30100687410332344181DFFF7B0F9AC
:1085200095F8303043F0020385F83030002070BDFC
:10853000342000FB0340407C00F003008842DFD180
:10854000002070BD062070BDB833002029B30B4653
:108550002AB310B550B93421134C01FB004191F8F6
:10856000301011F0010F05D1002100E0002119B9F0
:10857000052010BD0121FAE734210B4C01FB00411D
:10858000896971B11946342303FB00F0103020448F
:108590000430FFF7ADF9002010BD0E2070470E200B
:1085A0007047062010BD00BFB8330020024650B906
:1085B0003423204803FB020393F8303013F0010FFB
:1085C00005D1002300E000231BB9052070470123DB
:1085D000FAE73423174803FB0203DB89012B24D07D
:1085E000172901D90720704730B4134800EBC303A3
:1085F00004334D0953F8254001F01F01012000FA12
:1086000001F10C4213D1214343F825103421094BC9
:1086100001FB0232D189084A12F8313043F00203DB
:1086200002F83130002030BC70470620704700202F
:10863000F9E700BFB8330020EC330020024650B900
:108640003423204803FB020393F8303013F0010F6A
:1086500005D1002300E000231BB90520704701234A
:10866000FAE73423174803FB0203DB89012B25D0EB
:10867000172901D90720704730B4134800EBC30312
:1086800004334D0953F8254001F01F01012000FA81
:1086900001F10C4214D024EA010143F825103421E1
:1086A000084B01FB0232D189074A12F8313043F0FE
:1086B000020302F83130002030BC704706207047BA
:1086C0000020F9E7B8330020EC330020002944D023
:1086D000F0B40C46002A42D050B93423234903FB9E
:1086E000001393F8303013F0010F06D1002300E09F
:1086F000002323B90520F0BC70470123F9E70546A4
:1087000034211A4B01FB0030C389012B29D0168874
:108710000023138000E00133172B1CD834211348A9
:1087200001FB0501C8890028F5D1114901EBC00101
:108730000431580951F8200003F01F070121B94006
:108740000842E8D011888E420DD924F811301188E2
:1087500001311180DFE70020CDE70E2070470E20A9
:10876000C9E70620C7E70920C5E700BFB8330020E6
:10877000EC330020024650B934231B4803FB0203AC
:1087800093F8303013F0010F05D1002300E00023EF
:108790001BB9052070470123FAE70A2901D90720F0
:1087A000704730B4342303FB02F308330E4803440C
:1087B0004D0953F8254001F01F01012000FA01F195
:1087C0000C420FD1214343F825103421064B01FB05
:1087D000023292F8303043F0020382F83030002049
:1087E00030BC70470020FBE7B8330020024650B988
:1087F00034231C4803FB020393F8303013F0010FBD
:1088000005D1002300E000231BB905207047012398
:10881000FAE70A2901D90720704730B4342303FB53
:1088200002F308330F4803444D0953F8254001F083
:108830001F01012000FA01F10C4210D024EA0101CD
:1088400043F825103421074B01FB023292F83030F7
:1088500043F0020382F83030002030BC7047002023
:10886000FBE700BFB8330020002937D0F0B40E4634
:10887000002A35D050B934231B4903FB001393F869
:10888000303013F0010F06D1002300E0002323B99C
:108890000520F0BC70470123F9E7178800231380F7
:1088A00000E00133072B17D8342101FB00F1083118
:1088B0000D4C21445C0951F8244003F01F050121AF
:1088C000A9400C42EDD011888F420BD926F8113007
:1088D000118801311180E4E70020DAE70E207047AB
:1088E0000E20D6E70920D4E7B8330020034650B95C
:1088F0003422154802FB030292F8302012F0010FD7
:1089000005D1002200E000221AB90520704701229B
:10891000FAE70A2901D90720704734220A4802FBE6
:108920000302928891420CD03420074A00FB0323B3
:10893000998093F8302042F0020283F83020002022
:1089400070470020704700BFB83300200A46C9B105
:1089500050B934230C4903FB001393F8303013F063
:10896000010F05D1002300E000231BB9052070474B
:108970000123FAE73421044B01FB00308388138084
:10898000002070470E207047B8330020034650B9CE
:108990003422164802FB030292F8302012F0010F35
:1089A00005D1002200E000221AB9052070470122FB
:1089B000FAE781F080027E2A01D80720704734222E
:1089C0000A4802FB0302127C91420CD03420074A71
:1089D00000FB0323197493F8302042F0020283F85D
:1089E0003020002070470020704700BFB8330020BF
:1089F0000A46C9B150B934230C4903FB001393F85C
:108A0000303013F0010F05D1002300E000231BB923
:108A1000052070470123FAE73421044B01FB0030A5
:108A2000037C1370002070470E207047B83300207D
:108A3000012801D90520704700EB400253000A4A83
:108A4000D35A8B420DD030B41346420015186C0037
:108A50001D1919536B7943F002036B71002030BC70
:108A600070470020704700BF7C3300200B4659B18F
:108A7000012801D90520704700EB4000420003495E
:108A80008A5A1A80002070470E2070477C330020DD
:108A90000B4661B1012801D90520704700EB400069
:108AA0004100044A0A4492781A70002070470E2050
:108AB000704700BF7C3300200B4661B1012801D90B
:108AC0000520704700EB40004100044A0A44D27878
:108AD0001A70002070470E20704700BF7C330020C2
:108AE0000B46E1B150B934220E4902FB001292F854
:108AF000302012F0010F05D1002200E000221AB947
:108B0000052070470122FAE70649342202FB00F0F3
:108B10000A18095A198052885A80002070470E207E
:108B2000704700BFB833002030B482B001915AB30F
:108B30001346012803D9052002B030BC70474FF618
:108B4000FF721A8000220AB10520F5E734210F4C8C
:108B500001FB02418989884202D0013292B2F2E7D8
:108B6000342101FB02F1645ABDF804108C42F4D1A7
:108B70003424064904FB02156C88BDF806108C42AB
:108B8000EBD11A800020D7E70E20D5E7B8330020BC
:108B900039B30B463AB3012801D905207047F0B428
:108BA00016880021118011B10020F0BC7047158893
:108BB000AE421AD934240E4F04FB017494F83040AD
:108BC00014F0010F05D0342404FB0174A489A042E1
:108BD00001D00131E7E723F815101488013414801F
:108BE000F7E70E2070470E2070470920DDE700BF31
:108BF000B83300200A46C9B150B934230C4903FBED
:108C0000001393F8303013F0010F05D1002300E07A
:108C100000231BB9052070470123FAE73421044BD8
:108C200001FB0030C36A1360002070470E207047BC
:108C3000B833002010B44FF6FF730B80002343B10C
:108C400008884FF6FF73C01A18BF01205DF8044B67
:108C5000704703EB8302D400064A224492F83C207A
:108C600022B1044A2244128B824201D00133E6E74A
:108C70000B80E5E7F433002000EB8000C200114BCD
:108C800013445B6B1049194400234FF6FF701BB16E
:108C90007047184611460EE010B403EB8302D4006F
:108CA000084A224492F83C202AB1064A2244526BD8
:108CB000541A002CEDDB01339BB2002BEDD05DF894
:108CC000044B7047F43300200087930310B504462B
:108CD00000EB8003DA00264B134493F83C3023B9B1
:108CE0007846244B1B68EBB19847214BB3F84030D2
:108CF00023B978461F4B1B68B3B198471C4A04EB55
:108D00008401CB001344002183F83C10B2F84030BA
:108D1000013B9BB2A2F840302BB3B2F842309C42E8
:108D200004D010BD00DEE0E700DEE7E72046FFF7F5
:108D3000A3FF0F4BA3F842004FF6FF7398420AD0EF
:108D40000B48B0F8423003EB8303DA000244516B66
:108D500005F00EFE10BD7846064B1B680BB1984718
:108D6000EEE700DEECE7024805F0CCFDD9E700BFF6
:108D7000F433002008690020F0B583B00546694B44
:108D8000B3F8403023B97846674B1B684BB398471C
:108D900005F57A764FF6FF72624BA3F84220002465
:108DA0000CB3604BB3F84030002B00F0B7805D4B44
:108DB000B3F8423033B178465B4B1B68002B00F0B0
:108DC000A9809847574AB2F8423003EB8303D90091
:108DD0000A44536B5A1B00F19F80524BDA6003B078
:108DE000F0BD00DED4E704EB8403DA004D4B1344FE
:108DF00093F83C3013B3631C03EB8303DA00494B55
:108E000013445B689B1B002B1ADB04EB8403DA0022
:108E1000444B13445A6B931B002B35DB414BB3F887
:108E200042304FF6FF718B4270D003EB8303D900C1
:108E30003C4B0B445B6BD21A002A67DB0134AFE773
:108E40003849A2002244D3000B44002283F83C207E
:108E5000B1F84020013AA1F8402001A9188BFFF792
:108E6000C9FE20B17846304B1B685BB19847A20021
:108E70002244D1002B4B0B441F6B01220199188B0C
:108E8000B847DBE700DEF2E7264FA2001119CB005E
:108E9000F8181833F9180431008BFFF7B5FAA7F862
:108EA0004240F0B9A3002344DA003B4613449A6BD6
:108EB000596B1144596352009A631A4A631C03EBBD
:108EC0008303D9001144486804EB8401CB001946A0
:108ED0001A44536BC31A002BB0DA124B0B4458637D
:108EE000ACE7042805D078460F4B1B6863B1984760
:108EF000E3E70C49A3001819C2000A44536B03F5B9
:108F00001C43403353634CE700DED6E7054BA3F820
:108F1000424093E700DE55E7EA1A5EE70022014B84
:108F2000DA605CE7F43300200869002070B582B095
:108F30000D461646044620B178461B4B1B68BBB154
:108F4000984706F0C5FA0DF106012046FFF772FEBC
:108F500050B1BDF80600431C03EB8303DA00134B4A
:108F60009A5A2B889A4205D006F0D2FA02B070BD08
:108F700000DEE6E7431C03EB8303DA000B4B1344EC
:108F80005A886B889A42EFD1FFF7A0FEBDF80630F1
:108F900003EB8303DA00054B13441B6B00223146BD
:108FA00020469847E0E700BF08690020F43300201E
:108FB00010B5044C4422002120460EF0B7FD024BB0
:108FC000A36010BDF4330020798D020008B506F0CF
:108FD0007FFA094BB3F840303BB9282200210748FB
:108FE0000EF0A4FD06F094FA08BD03480023A0F893
:108FF000403005F087FCF0E7F43300200C3400200B
:1090000002460E4B1B6813F0010F0AD00C4B1B8855
:1090100098420FD30A48408803449A420CDB00234D
:1090200000E00023184623B14A8001230B7000237F
:109030004B6070470023F5E70123F3E7403400203D
:10904000CC3500204FF6FF730B8000230F2B25D863
:1090500030B40DE05A09124C54F8224003F01F05B9
:109060000122AA40144208D10B8001330F2B12D8E1
:109070000C884FF6FF729442ECD00A4A32F8232053
:109080008242F2D1074A02EB8302D278002AECD066
:109090000B80012000E0002030BC704700207047AA
:1090A000383400205034002030B583B005460C46DB
:1090B0000DF10601FFF7C6FF034620B165800322CC
:1090C000227000226260184603B030BD0B88072B67
:1090D00001D8013300E000234FF6FF720A80072B0E
:1090E0001DD830B409E003EB8304A2000D4CA25A52
:1090F00082420ED00133072B0ED85A090A4C54F87D
:10910000224003F01F050122AA401442EBD10B803C
:10911000F0E70B80012000E0002030BC7047002009
:10912000704700BF48370020483400204FF6FF73D7
:109130000B8000230F2B20D830B407E00C884FF6AB
:10914000FF72944214D001330F2B13D85A090C4CE0
:1091500054F8224003F01F050122AA401442EDD02A
:10916000084A32F823208242EDD10B80012002E030
:109170000B80E8E7002030BC70470020704700BF3C
:1091800038340020503400204FF6FF730B8000234A
:10919000022B25D830B407E00C884FF6FF729442BA
:1091A00017D00133022B18D85A090E4C54F822401C
:1091B00003F01F050122AA401442EDD0162202FB43
:1091C00003F2094CA25A8242EBD108330B800120F2
:1091D00004E003F108020A80E3E7002030BC704796
:1091E0000020704748350020503500204FF6FF73AF
:1091F0000B800023072B22D830B407E00C884FF6F1
:10920000FF72944216D00133072B15D85A090D4C22
:1092100054F8224003F01F050122AA401442EDD069
:10922000162202FB03F2084CA25A8242EBD10B80B9
:10923000012002E00B80E6E7002030BC70470020F0
:10924000704700BF9034002098340020F0B41768B5
:109250000023136000E00133072B1ED85C09114D79
:1092600055F8245003F01F060124B4402542F2D0E3
:1092700016240D4D04FB035464888442EBD1156819
:10928000AF420DD0162404FB03F4074E345B21F8E3
:109290001540146801341460DDE70120F0BC70470C
:1092A0000020FBE7903400209834002070B40E6852
:1092B00000230B6000E00133032B17D85A090E4C32
:1092C00054F8224003F01F050122AA401442F2D0B4
:1092D0000C68A6420DD05C2202FB03F2074DAA5A8D
:1092E00020F814200A6801320A60E4E7012070BC0B
:1092F00070470020FBE700BFD0350020D8350020A4
:1093000010B5044628B10F4B9C420AD24FF6FF70AD
:1093100010BD78460C4B1B680BB19847F3E700DE95
:10932000F1E703F58A739C4202D94FF6FF7010BD36
:10933000A3F58A70201A054CA4FB0030C0F38F10EF
:1093400010BD00BFEA35002008690020C94216B2EE
:1093500010B5044628B10F4B9C420AD24FF6FF705D
:1093600010BD78460C4B1B680BB19847F3E700DE45
:10937000F1E703F58A739C4202D94FF6FF7010BDE6
:10938000A3F58A70201A054CA4FB0030C0F38F109F
:1093900010BD00BF1436002008690020C94216B273
:1093A00010B5044658B1164B9C4202D39A339C42E6
:1093B0000DD9144B9C4213D24FF6FF7010BD784666
:1093C000114B1B680BB19847EDE700DEEBE7A3F10B
:1093D0009A00201A0D4CA4FB0030C0F30F1010BDF2
:1093E0002C339C4202D94FF6FF7010BDA3F12C0024
:1093F000201A064CA4FB00300009083080B210BDD2
:109400009C3400205435002008690020A38B2EBA1C
:10941000B0B110B404460023022B0DD8162202FB73
:1094200003F208498A5A944201D00133F4E7162224
:1094300002FB0313181D00E000205DF8044B704789
:10944000002070475035002070B505460E46144682
:10945000106818B1FFF7A4FF013002E0002000E01F
:10946000013007281FD84309104A52F8232000F082
:109470001F0101238B401A42F2D016230C4A03FB32
:1094800000235B88AB42EBD1162303FB00235B79FF
:10949000734013F03F0FE3D11622054B02FB00335C
:1094A0000433236070BD0023236070BD903400201E
:1094B000983400200D4B23F8210003EB8103002298
:1094C000DA709A704B090A4801F01F01012202FA72
:1094D00001F150F823200A4340F82320054850F8B2
:1094E0002320114340F82310704700BF5034002060
:1094F000383400203C34002008B50B8881B218466F
:10950000FFF7D8FF08BD0000024B33F820300B8076
:10951000704700BF5034002010B5044608B1A04782
:1095200010BD7846034B1B680BB19847F7E700DE88
:10953000F5E700BF086900202DE9F8438046894619
:109540001146A3F10804114F162505FB04F57E19F9
:109550001022B01D0EF0DFFA002373710123337166
:10956000A6F8029027F805806209094804F01F0454
:10957000A34050F82210194340F82210054850F833
:1095800022100B4340F82230BDE8F883503500200C
:10959000483500204C35002010B50C4600F108037A
:1095A0009BB20A1D49882088FFF7C6FF10BD000046
:1095B000F8B50D46074F162404FB00F43E1910229F
:1095C000B11D281D0EF0A7FA3B5B2B8073886B80C2
:1095D000F8BD00BF50350020F8B50D46074F1624E2
:1095E00004FB00F43E191022B11D281D0EF093FA61
:1095F0003B5B2B8073886B80F8BD00BF98340020E4
:1096000070B50D46064E5C2404FB00F4311910229F
:109610000231A81C0EF07FFA335B2B8070BD00BFB7
:10962000D835002010B50C4600EB800083000449BB
:1096300019441022043120460EF06DFA10BD00BF0F
:109640004837002008B5042201480EF064FA08BD2E
:10965000CC35002008B50846042202490EF05BFA1A
:1096600008BD00BFCC3500202DE9F04107460E466D
:1096700090461C461625184B05FB04351022414622
:10968000A81D0EF048FA691D404606F027FE20B1DD
:109690007846124B1B68EBB198470F49162303FB22
:1096A00004F3CA1800201071CF52568063090C4988
:1096B00004F01F04012202FA04F451F8232022438B
:1096C00041F82320074951F82320144341F823404F
:1096D000BDE8F08100DEE0E7983400200869002052
:1096E000903400209434002010B50C4683B20A1D3B
:1096F00049882088FFF7B8FF10BD00002DE9F04130
:109700000D4614462A4A5C2101FB04F101F13003A5
:10971000134404330A441364064610B90122254B4E
:109720001A705C2101FB04F11031214B1944023104
:10973000284606F0DEFD20B178461F4B1B6893B328
:1097400098475C2101FB04F14031194B1944043165
:10975000284606F0E1FD20B17846174B1B6823B37D
:109760009847DFF84C805C2707FB04F708EB0700FD
:109770001022294602300EF0CEF928F8076063095E
:109780000E4904F01F04012202FA04F451F82320C8
:10979000224341F823200A4951F82320144341F879
:1097A0002340BDE8F08100DECBE700DED9E700BF53
:1097B000D8350020C835002008690020D0350020A9
:1097C000D435002008B50B4682B202311888FFF765
:1097D00095FF08BD70B50646A1F11004A30023440F
:1097E0009A00134D154410220146281D0EF093F9DE
:1097F0002946304606F0BAFD20B178460D4B1B686D
:109800009BB1984763090C4904F01F04012202FA36
:1098100004F451F82320224341F82320074951F84A
:109820002320144341F8234070BD00DEEAE700BF67
:109830004837002008690020483400204C340020BC
:1098400008B50B4600F1100189B21846FFF7C2FFB8
:1098500008BD0000F8B506460D4605F039FE052E98
:1098600004D978461C4B1B6843B198471B4B1C78A6
:1098700034B9F4B105F04CFE2046F8BD00DEF5E742
:10988000174B03EB4613598A29445A6989B2154884
:1098900007F098FC074650B1114B03EB46139B6948
:1098A000011D28469847384607F0D0FCE1E7002420
:1098B000DFE70B4B03EB4616B268690905F01F059D
:1098C000012303FA05F552F821302B4342F82130E9
:1098D000054807F001FECDE7086900209235002019
:1098E000A885030094350020B835002010B50A2261
:1098F00001210A4807F066FC002814BF0124002457
:109900000AD0102343810823838104228280C380EC
:109910000323038107F09AFC204610BD94350020F4
:1099200070B506460D4605F0D3FD052E04D97846E0
:10993000164B1B6843B19847154B1C7834B994B14A
:1099400005F0E6FD204670BD00DEF5E7114B03EBA8
:109950004613598A294489B20F4807F0A9FCB0FA86
:1099600080F46409EBE70B4B03EB4616B268690918
:1099700005F01F05012303FA05F552F821302B43AA
:1099800042F82130054807F0A7FDD9E70869002013
:1099900092350020A885030094350020B8350020BA
:1099A0002DE9F84F00264FF0010848E0A5EB4211E1
:1099B00001238B40013B54F82210194210D101328F
:1099C00005F11F035B099A4205D2013B9A42EDD093
:1099D0004FF0FF33EFE743467BBB4FF000090EE04B
:1099E0000023F9E749463046FFF79AFF20B354F8C1
:1099F0002B3023EA0A0344F82B3009F10109A94569
:109A00001BD24FEA591B54F82B3009F01F024FF0BC
:109A1000010A0AFA02FA13EA0A0FEED00F4B03EB1F
:109A200047135B6853F82B301AEA030FDAD0494624
:109A30003046FFF70FFFD9E780460136F6B2052E14
:109A40000AD8B8F1000F07D03746044A7301D1187D
:109A50008C68D5580022B3E7BDE8F88FA8850300CD
:109A600038B50F280BD84309384A52F8232000F0A4
:109A70001F0101238B401A4210D0012200E0002276
:109A80002AB3334B03EB80039B78002B5AD1304B26
:109A900003EB8003DB781BB1002038BD0022EFE729
:109AA00044092A4900F01F03012505FA03F251F881
:109AB000243023EA020341F824300024244B23F805
:109AC000204001462846FFF72BFF204638BDA0F175
:109AD00010039BB2072B0BD85C091E4951F8244098
