:020000022000DC
:1040000002F0032079C50200A1C50200BD5A0200DA
:10401000A5C50200A7C50200A9C502000000000056
:10402000000000000000000000000000ABC502001E
:10403000ADC5020000000000AFC50200B1C502001E
:10404000B3C50200B3C50200B3C50200B3C5020088
:10405000B3C50200B3C5020029600200B3C5020067
:10406000B3C50200B3C50200B3C50200B3C5020068
:10407000B3C50200B3C50200B3C50200B3C5020058
:10408000B3C50200B3C5020049E10200B3C5020096
:10409000B3C50200B3C50200295B0200B3C502002C
:1040A000B3C50200B3C50200B3C50200B3C5020028
:1040B000B3C50200B3C5020000000000000000000C
:1040C000B3C50200B3C50200B3C50200B3C5020008
:1040D000B3C50200B3C50200B3C50200B3C50200F8
:1040E000B3C50200B3C50200B3C502000000000062
:1040F00000000000B3C5020000000000B3C50200CC
:1041000000000000000000000000000000000000AF
:10411000000000000000000000000000000000009F
:10412000000000000000000000000000000000008F
:10413000000000000000000000000000000000007F
:10414000000000000000000000000000000000006F
:10415000000000000000000000000000000000005F
:10416000000000000000000000000000000000004F
:10417000000000000000000000000000000000003F
:10418000000000000000000000000000000000002F
:10419000000000000000000000000000000000001F
:1041A000000000000000000000000000000000000F
:1041B00000000000000000000000000000000000FF
:1041C00000000000000000000000000000000000EF
:1041D00000000000000000000000000000000000DF
:1041E00000000000000000000000000000000000CF
:1041F00000000000000000000000000000000000BF
:1042000010B5054C237833B9044B13B10448AFF310
:1042100000800123237010BDD03200200000000078
:10422000308203000C4B43B10C480D4910B5AFF37D
:1042300000800C48036823B910BD0A48036833B9ED
:104240007047094B002BF7D0BDE810401847064BCC
:10425000002BF5D0184700BF00000000308203009B
:10426000D4320020C832002000000000154B002B83
:1042700008BF134B9D46A3F5803A00218B460F469D
:104280001348144A121A12F079FD0F4B002B00D07C
:1042900098470E4B002B00D09847002000210400C7
:1042A0000D000D48002802D00C48AFF3008012F03A
:1042B00017FD2000290000F05FFD12F0FDFC00BF9B
:1042C0000000080002F003200000000000000000D1
:1042D000D0320020506200200000000000000000EA
:1042E00010B5084C041B0848A0FB0434E408022C59
:1042F00004D97846054B1B6813B19847204610BD7A
:1043000000DEFBE7F0320020ABAAAAAAD0610020B1
:104310000B7843B91B4B1B6813F4804F03D01A4B27
:104320001B68032B00D8704730B585B00C462F2191
:10433000164812F0F7FDC0B12F21144812F0F2FD1B
:10434000411C134BD3F8043562685588247B92F9DD
:1043500014200392029401950E4A009240F2311209
:1043600004200AF0A9FE05B030BD5C21074812F018
:10437000D9FD28B15C21054812F0D4FD411CE0E7CD
:104380000249DEE74C32002048320020387003003A
:1043900000B000408C70030010B50C46FFF7A0FF82
:1043A000012C19D03CB1022C1BD07846144B1B6851
:1043B000F3B1984703E001210D3001F089FD0D2490
:1043C000104B1B880D339C4214D2204601F074FD23
:1043D000014680B10134F3E700210D3001F078FD92
:1043E000EDE7062264214FF4F03001F083FDE6E7AB
:1043F00000DEE4E70121102001F06AFD10BD00BFDE
:10440000D06100202033002070B586B006A90123BA
:1044100041F8043D374805F05DFCA0B906AA012328
:1044200042F8043D3449334B188805F02BFD78B928
:1044300006A9042341F8043D02A805F083FB60B9F6
:104440000024254617E02D4A762101F0F7FAE5E72A
:104450002A4A782101F0F2FAEAE7284A7D2101F0A0
:10446000EDFAEDE79DF80030012B16D09DF80030F5
:10447000032B31D00134059B9C4238D2694606ABF0
:1044800003EB440333F8100C05F00EFB0028E9D0D1
:104490001A4A822101F0D2FAE4E7194901EB4501F9
:1044A000BDF8020005F090FC0028DFD1144B33F872
:1044B00015204FF6FF739A42D8D0124901EB4501FF
:1044C000684605F081FB10B90135ADB2D2E70B4A61
:1044D0008C2101F0B3FAF7E70B49684605F074FB4D
:1044E0000028C7D0054A912101F0A8FAC2E7284662
:1044F00006B070BD3C330020EC3200203870030061
:1045000024330020403300202A33002030B583B00C
:1045100000242546022C16D802A94FF6FF7321F875
:10452000023D04EB44029300084AD05A03F042FDD6
:1045300048B9BDF806204FF6FF739A4203D0013503
:10454000ADB20134E6E7284603B030BDF0320020BA
:1045500010B584B0964B1B6813F4804F03D0954B75
:104560001B68032B0BD805F003F903F02FFC4FF663
:10457000FF73914A1380914A1380002329E02F2171
:104580008F4812F0CFFC70B12F218D4812F0CAFC79
:10459000411C8C4BD3F804358B4A0092B72204207F
:1045A0000AF08AFDDFE75C21854812F0BBFC28B1E8
:1045B0005C21834812F0B6FC411CEAE78049E8E739
:1045C0004FF6FF72814921F81320814921F8132009
:1045D0000133022BF4D94FF6FF727E4B1A807E48CE
:1045E00002F06EF838B97D4A00217D4802F022FAC7
:1045F00030B900240AE0724AC62101F01FFAF2E73E
:104600006F4AC72101F01AFAF3E70134032C10D8DE
:10461000630023449A0073481044734B4360A1B273
:1046200001F0C0FD0028F0D0654ACC2101F006FA67
:10463000EBE704F0D9FFC8B1FFF7E6FE6B4B18803B
:1046400003F0E2FA002842D0FFF760FF684B1880C1
:1046500001F042F9664B1B88644A10888342C0F01F
:104660009A80022840F29D8004B010BD614B1B6807
:1046700004A840F8043D05F093F8C8B955494CF634
:10468000FE2005F0E5F8C0B94B4A5B49002005F073
:10469000D7FAB8B9494B594A47490988002005F06B
:1046A000AFFB0028CCD0464ADA2101F0C7F9C7E7B2
:1046B000434AD72101F0C2F9E0E7414AD82101F08D
:1046C000BDF9E1E73E4AD92101F0B8F9E2E73B4BF9
:1046D0001988434B188803F0C9FC40B9374B198837
:1046E0003F4B188803F0FEFC30B900240FE0344A39
:1046F000E42101F0A3F9F1E7314AE52101F09EF947
:10470000F3E72F4AEA2101F099F90DE00134022C78
:104710001AD804EB44029300284A1188314AD05A2F
:1047200003F0A4FC0028ECD104EB44029300234ADC
:1047300011882C4AD05A03F0D5FC0028E6D0204A34
:10474000EB2101F07BF9E1E71C4B1988254B988C94
:1047500003F08CFC80B9194B1988224B988C03F01C
:10476000C1FC70B91B4B19881E4B988C03F0F2FBEF
:1047700060B902F0F1FD6BE7114AEE2101F05EF93C
:10478000E9E70F4AEF2101F059F9EBE70C4AF02174
:1047900001F054F9EDE703F5807080B200F052FFAC
:1047A00062E700F5807080B200F062FF5CE700BF56
:1047B0004C320020483200203C330020EC320020F4
:1047C0003870030000B00040A86F030024330020BD
:1047D000403300202A330020855602001143020096
:1047E0002C330020F0320020994302003E33002099
:1047F00020330020A46F0300D4700300C4700300B2
:1048000030B583B00446774B1B6813F4804F03D058
:10481000754B1B68032B23D8744B1B88002B4FD17F
:10482000704B1B6813F4804F00F0B7806E4B1B6811
:10483000012B40F2B2802F216D4812F073FB90B330
:104840002F216B4812F06EFB411C6A4BD3F80435E4
:10485000694A009240F23D1202200AF02DFC9CE0D1
:104860002F21634812F05EFB80B12F21604812F0C7
:1048700059FB411C5F4BD3F8043501945F4A009209
:104880004FF49D7204200AF017FCC5E75C215848DC
:1048900012F048FB28B15C21554812F043FB411C43
:1048A000E8E75349E6E75C21514812F03BFB28B1A9
:1048B0005C214F4812F036FB411CC6E74C49C4E767
:1048C0009C422DD3032C2BD0464B1B6813F4804FF6
:1048D00063D0454B1B68012B5FD92F21444812F050
:1048E00021FB80B12F21424812F01CFB411C414B9F
:1048F000D3F804350194424A00924FF4A172022089
:104900000AF0DAFB49E05C21394812F00BFB28B1D0
:104910005C21374812F006FB411CE8E73449E6E722
:10492000022C03D9032C1DD000200EE004EB44021E
:104930009300344D1D4404F10D0001F0BDFA80F0E8
:104940000101C9B2284601F04FFC082816D00428FE
:1049500014D0112812D000B3254A40F2631101F09F
:104960006DF81AE004F10D0001F0A6FA80F00101E3
:104970000322C9B2244801F05BFCE6E7194B1B682F
:1049800013F4804F03D0184B1B68032B07D8042265
:1049900032214FF4F03001F0ADFA03B030BD2F21D9
:1049A000134812F0BFFA78B12F21114812F0BAFA69
:1049B000411C104BD3F80435144A00924FF4AF72E7
:1049C00004200AF079FBE2E75C21094812F0AAFA18
:1049D00028B15C21064812F0A5FA411CE9E7044918
:1049E000E7E700BF4C32002048320020203300208F
:1049F0003870030000B00040E06F0300CC6F03008C
:104A0000F86F0300F0320020143300201870030008
:104A100010B582B0474B1B6813F4804F03D0464B50
:104A20001B68032B2CD8454B1B8803EB43018A00E2
:104A3000434931F81310434B985A03F08BFA00287E
:104A400043D102F089FC3D4C208800210D3001F05B
:104A50003FFA238801339BB22380022B3BD9354B8D
:104A60001B6813F4804F03D0334B1B68032B3FD8D4
:104A7000042264214FF4F03001F03CFA02B010BD82
:104A80002F21314812F04EFA90B12F212E4812F00A
:104A900049FA411C2D4BD3F80435284A128801925B
:104AA0002B4A009240F26D1204200AF005FBBAE78F
:104AB0005C21254812F036FA28B15C21224812F018
:104AC00031FA411CE6E72049E4E71F4A40F2711140
:104AD00000F0B4FFB5E71F4B188800F5807080B276
:104AE00000F0C6FD208801210D3001F0F1F9C5E785
:104AF0002F21154812F016FA78B12F21124812F022
:104B000011FA411C114BD3F80435134A00924FF4AB
:104B1000BF7204200AF0D0FAAAE75C210A4812F01A
:104B200001FA28B15C21084812F0FCF9411CE9E7C0
:104B30000549E7E74C3200204832002020330020AE
:104B400040330020F03200203870030000B00040F5
:104B5000387103003E3300206071030000B583B05C
:104B60002A4B1B6813F4804F03D0294B1B68032B7F
:104B70001BD8284B1A88284B33F8120004F0BAFED1
:104B8000002837D1234B1A88244B33F8120005F044
:104B9000F3F8002834D1224B188800F5807080B2D9
:104BA00000F066FD03B05DF804FB2F211D4812F0F4
:104BB000B9F990B12F211B4812F0B4F9411C1A4BDE
:104BC000D3F80435134A12880192184A009240F231
:104BD000851204200AF070FACBE75C21114812F02C
:104BE000A1F928B15C210F4812F09CF9411CE6E7BD
:104BF0000C49E4E70B4A4FF4C47100F01FFFC1E712
:104C0000084A40F2891100F019FFC4E74C32002035
:104C1000483200202033002040330020243300207D
:104C20003E3300203870030000B0004014710300D0
:104C300010B582B00446454B1B88022B05D9784637
:104C4000434B1B68002B42D09847424B1B6813F420
:104C5000804F03D0404B1B68032B3AD83F4B198839
:104C60003F4B03EB4101608A04F0F2FD002854D170
:104C70003A4B1A883B4B03EB4203A2683A49098836
:104C8000608A05F035F800284DD1344B1A88354B31
:104C900033F8120001F09CFD00284AD12F4B1B88ED
:104CA0002F4A32F813102F4A32F8130001F03CFD5E
:104CB000002844D1294A138801331380234B1888D4
:104CC00000F5807080B200F0BDFC02B010BD00DEC7
:104CD000BBE72F21254812F025F988B12F21234861
:104CE00012F020F9411C224BD3F80435628A01925C
:104CF000204A00924FF4C97204200AF0DDF9ADE7B2
:104D00005C211A4812F00EF928B15C21174812F004
:104D100009F9411CE7E71549E5E7144A40F2951106
:104D200000F08CFEA4E7114A4FF4CB7100F086FE30
:104D3000ABE70E4A40F2991100F080FEAEE70B4A55
:104D400040F29B1100F07AFEB4E700BF2033002050
:104D5000D06100204C320020483200203E33002039
:104D600040330020243300203C33002038700300FF
:104D700000B000407C71030000B583B0284A0421D4
:104D80004FF4C0400AF07CF9264B1B6813F4804FA7
:104D900017D0254B1B68032B13D92F21234812F062
:104DA000C1F8E8B12F21214812F0BCF8411C204B7A
:104DB000D3F804351F4A00924FF4D37204200AF04E
:104DC0007BF901F0F3F81C4801F002F9A8B90121C0
:104DD0000D2001F07DF800F0BBFFFFF7B9FB14E0F8
:104DE0005C21124812F09EF828B15C210F4812F0A5
:104DF00099F8411CDBE70D49D9E70C4A40F2A911AB
:104E000000F01CFEE3E708F033F910F09BFDA0F181
:104E10003003032BF7D81846FFF7F2FCF3E700BF87
:104E200055F002004C320020483200203870030058
:104E300000B00040E47003000148020010B58AB0E1
:104E4000A64B1B78033B072B00F20782DFE813F029
:104E500008000B003F007A00B800F5006B01BE01AE
:104E600004229E4B1A709E4B1B6813F4804F03D094
:104E70009C4B1B68032B04D801F0C4FC10BB0AB088
:104E800010BD2F21984812F04DF870B12F2196488F
:104E900012F048F8411C954BD3F80435944A00921F
:104EA000722204200AF008F9E6E75C218E4812F02D
:104EB00039F828B15C218C4812F034F8411CEAE73B
:104EC0008949E8E7884A732100F0B8FDD7E7844BA9
:104ED0001B6813F4804F03D0824B1B68032B10D840
:104EE000844B04AC0FCB84E80F0022460021084617
:104EF00001F0B4FC0028C2D07B4A7C2100F09EFD6A
:104F0000BDE72F21784812F00DF870B12F217648B7
:104F100012F008F8411C754BD3F80435764A00921C
:104F20007A2204200AF0C8F8DAE75C216E4811F012
:104F3000F9FF28B15C216C4811F0F4FF411CEAE74D
:104F40006949E8E7664B1B6813F4804F03D0654B53
:104F50001B68032B13D84FF6FF73ADF812300223F2
:104F6000ADF81030049A0021644B188801F000FD60
:104F7000002884D05C4A882100F060FD7FE72F2163
:104F8000594811F0CFFF70B12F21574811F0CAFFD7
:104F9000411C564BD3F80435594A00928322042011
:104FA0000AF08AF8D7E75C214F4811F0BBFF28B11F
:104FB0005C214D4811F0B6FF411CEAE74A49E8E799
:104FC000474B1B6813F4804F03D0464B1B68032BE1
:104FD00012D85923ADF812300021ADF81010049A00
:104FE000464B188801F0C4FC00283FF448AF3E4A05
:104FF000942100F023FD42E72F213B4811F092FF5E
:1050000070B12F21384811F08DFF411C374BD3F878
:1050100004353C4A00928F2204200AF04DF8D8E76C
:105020005C21314811F07EFF28B15C212E4811F03F
:1050300079FF411CEAE72C49E8E700230493059334
:1050400006930793089309932C4A1288ADF8102011
:1050500001228DF81420ADF8162003218DF81F10C1
:105060009100022060F301018DF820108DF82120BD
:105070004FF0FF328DF825208DF826208DF8230083
:105080008DF82430164B1B6813F4804F03D0154B5A
:105090001B68032B0AD804A801F026FC00283FF463
:1050A000EEAE114AAA2100F0C9FCE8E62F210E4815
:1050B00011F038FF50B32F210B4811F033FF411C82
:1050C0000A4BD3F80435BDF8162001920E4A00921F
:1050D000A822042009F0F0FFDDE700BF6C360020B5
:1050E0004C32002048320020E871030000B000403C
:1050F00044720300AC71030060720300B0360020FC
:105100007072030094720300C07203005C21574860
:1051100011F008FF28B15C21544811F003FF411C35
:10512000CEE75249CCE700230493059306930793F7
:10513000089309934E4A1288ADF8102001218DF88A
:105140001410FF3AADF8162003228DF81F208DF8B9
:10515000211059228DF825208DF82630454B1B68EB
:1051600013F4804F03D0444B1B68032B0AD804A8C8
:1051700001F0BAFB00283FF482AE3C4AC02100F0A7
:105180005DFC7CE62F21394811F0CCFE88B12F213F
:10519000364811F0C7FE411C384BD3F80435BDF832
:1051A00016200192364A0092BE22042009F084FFA4
:1051B000DDE75C212D4811F0B5FE28B15C212B48BC
:1051C00011F0B0FE411CE7E72849E5E7294B1B68D1
:1051D00013F4804F03D0284B1B68032B1CD8244B9F
:1051E00018880023059303228DF810204CF6FE2228
:1051F000ADF812205922ADF80E20ADF80C30039B0B
:1052000004AA06CA01F08BFB00283FF438AE174A07
:10521000CF2100F013FC32E62F21144811F082FE5A
:1052200070B12F21114811F07DFE411C134BD3F8B2
:105230000435144A0092C722042009F03DFFCEE74E
:105240005C210A4811F06EFE28B15C21074811F07C
:1052500069FE411CEAE70549E8E778460A4B1B6806
:105260000BB198470BE600DE09E600BFE8710300CA
:10527000B03600204C3200204832002000B0004000
:105280000073030040730300D061002010B58AB0A2
:1052900004465F238DF80C308DF80D306E228DF8AA
:1052A0000E206F228DF80F2072228DF810206422BC
:1052B0008DF8112069228DF8122063218DF81310CA
:1052C0008DF814308DF8153073218DF81610652186
:1052D0008DF817106D218DF818108DF819208DF8A4
:1052E0001A308DF81B300023ADF81C30ADF81E309D
:1052F000ADF82030194A1288ADF822209DF82420FC
:1053000002F0FE0263F341028DF824200093019322
:10531000CDF8073001228DF801208DF802308DF88C
:1053200004206B460E4A0F490F4805F02DFA58B974
:10533000002303AA21460C4805F03CFA48B9022292
:105340000A4B1A700AB010BD094A622100F076FBC0
:10535000EEE7074A632100F071FBF0E7B03600206A
:105360005033002070360020703300206C3600204F
:10537000E871030030B587B004460378033B082B7F
:105380007CD8DFE813F00900190114007B007B00D2
:10539000DD007B007D0075009E4B1B78012B6DD1DD
:1053A0000430FFF773FF02229A4B1A7066E09A4BA3
:1053B0001B6813F4804F03D0984B1B68032B08D84D
:1053C000944B1B78022B25D0032B57D1FFF736FDCA
:1053D00054E02F21924811F0A5FD70B12F21904883
:1053E00011F0A0FD411C8F4BD3F804358E4A00927A
:1053F000E622042009F060FEE2E75C21884811F013
:1054000091FD28B15C21864811F08CFD411CEAE732
:105410008349E8E7804B1B6813F4804F03D07F4B30
:105420001B68032B03D801227A4B1A7026E02F2128
:105430007B4811F077FD70B12F21794811F072FD92
:10544000411C784BD3F80435784A0092E9220420B5
:1054500009F032FEE7E75C21714811F063FD28B1E5
:105460005C216F4811F05EFD411CEAE76C49E8E7FA
:105470000022684B1A700430FFF7DAFB07B030BD2A
:1054800010220121406805F0C3F9044668B3624B5D
:105490001B6813F4804F02D0604B1B681BB90122BC
:1054A0005C4B1A70EAE72F215D4811F03BFD78B1A3
:1054B0002F215B4811F036FD411C5A4BD3F80435BF
:1054C00001945B4A0092FF22012009F0F5FDE6E716
:1054D0005C21534811F026FD28B15C21504811F0A1
:1054E00021FD411CE9E74E49E7E74B4B1B6813F4EC
:1054F000804FC3D0494B1B68032BBFD92F2148488D
:1055000011F010FD78B12F21454811F00BFD411C21
:10551000444BD3F80435474A00924FF4827204207A
:1055200009F0CAFDAAE75C213D4811F0FBFC28B157
:105530005C213B4811F0F6FC411CE9E73849E7E7FC
:1055400002AD3D4B0FCB85E80F0010222946606865
:1055500005F067F9E8B9304B1B6813F4804F8DD024
:105560002E4B1B68032B89D92F212D4811F0DAFC13
:10557000A8B12F212A4811F0D5FC411C294BD3F8A2
:1055800004352E4A009240F20D12042009F094FDD9
:1055900074E7234A4FF4867100F050FADBE75C2190
:1055A0001F4811F0BFFC28B15C211D4811F0BAFC66
:1055B000411CE3E71A49E1E7174B1B6813F4804FDE
:1055C0003FF45CAF154B1B68032B7FF657AF2F21C1
:1055D000134811F0A7FC78B12F21114811F0A2FC5B
:1055E000411C104BD3F80435154A00924FF48972D0
:1055F000042009F061FD41E75C21094811F092FCAB
:1056000028B15C21064811F08DFC411CE9E70449F2
:10561000E7E700BF6C3600204C3200204832002003
:10562000E871030000B00040587303007873030072
:105630009C730300E0730300BC710300007403005B
:105640002874030008B5084B1880084B1B78022B00
:1056500005D00322054B1A70FFF7F0FB08BD0322AB
:10566000024B1A7008BD00BFB03600206C36002017
:10567000024B18800122024B1A707047B03600208E
:105680006C3600202DE9F04784B004AF30B30C46EF
:10569000154631B32388022B2BD048F203029342E4
:1056A00000F0878048F23E02934200F0998048F271
:1056B0003E02934200F0A98048F21902934200F0A2
:1056C000B98048F21902934200F0C98048F21F02E3
:1056D000934200F0D980BD46BDE8F087FFF73EFA5F
:1056E000F9E77846734B1B680BB19847D2E700DEA9
:1056F000D0E7714A1278042ACFD1704B1B6813F49B
:10570000804F03D06E4B1B68032B05D805226A4BD4
:105710001A70FFF793FBDEE7E846A9466B000833F3
:1057200023F00703ADEB030D04AEB446002315E0F0
:105730006268D25C59004FEA121ADFF898E1DEF88D
:10574000000010F80A000CF81300013102F00F02FB
:10575000DEF80000825C0CF8012001334B45E7D3F2
:10576000002306F815302F21564811F0DBFB98B1C5
:105770002F21544811F0D6FB411C534BD3F804356C
:105780000296524A0192524A00924FF49E720420AD
:1057900009F092FCC546B9E75C214A4811F0C2FB0A
:1057A00028B15C21474811F0BDFB411CE5E74549A4
:1057B000E3E7414A1278052A7FF474AF63681B78E7
:1057C00033B1062B04D078463A4B1B6833B1984767
:1057D0000622394B1A70FFF731FB7CE700DEF7E752
:1057E000354A1278062A7FF462AF63681B7823B1CA
:1057F0007846304B1B6833B1984707222E4B1A70FE
:10580000FFF71CFB67E700DEF7E72B4A1278072A51
:105810007FF452AF63681B7823B17846254B1B6831
:1058200033B198470822244B1A70FFF707FB52E761
:1058300000DEF7E7204A1278082A7FF442AF636857
:105840001B7823B178461B4B1B6833B1984709225C
:10585000194B1A70FFF7F2FA3DE700DEF7E7164A38
:105860001278092A7FF432AF63681B7823B1784637
:10587000104B1B6833B198470A220F4B1A70FFF781
:10588000DDFA28E700DEF7E70B4B1B780A2B7FF4E5
:1058900022AF63681B7823B17846064B1B6833B18F
:1058A00098470022044B1A70FFF7B2F813E700DEA6
:1058B000F7E700BFD06100206C3600204C3200209A
:1058C00048320020E871030000B00040CC710300B2
:1058D000E07103005032002008B500220A4B1A7014
:1058E0000A490B4804F062FF38B90A480A4B0360C2
:1058F0000023436007F0D3FC08BD084A4FF4BA7197
:1059000000F09CF8F1E700BF6C3600205033002017
:10591000703600204833002075530200E871030000
:1059200048DF704710DF704760DF704761DF704706
:105930004FF0A0434FF4F032C3F80825C3F80C250C
:10594000EFF3108372B60028FDD1704710B582B016
:105950000446164B1B6813F4804F04D12046FFF712
:10596000E7FF02B010BD2F21114811F0DBFA78B12A
:105970002F210F4811F0D6FA411C0E4BD3F80435F5
:1059800001940D4A00924E22002009F095FBE5E7B4
:105990005C21074811F0C6FA28B15C21044811F0D7
:1059A000C1FA411CE9E70249E7E700BF4C32002099
:1059B0008474030000B00040C874030070B584B064
:1059C0000C46194B1B6813F4804F04D0054616464D
:1059D000164B1B6823B92046FFF7AAFF04B070BD21
:1059E0002F21134811F09EFA88B12F21104811F091
:1059F00099FA411C0F4BD3F8043503960294019594
:105A00000D4A00927022012009F056FBE3E75C2169
:105A1000074811F087FA28B15C21054811F082FA95
:105A2000411CE7E70249E5E74C32002048320020FC
:105A30008474030000B000409C75030070B584B00E
:105A4000194B1B6813F4804F05D006460D461446CB
:105A5000164B1B6823B90120FFF76AFF04B070BD25
:105A60002F21134811F05EFA88B12F21104811F050
:105A700059FA411C0F4BD3F8043503960295019453
:105A80000D4A00924822012009F016FBE3E75C2151
:105A9000074811F047FA28B15C21054811F042FA95
:105AA000411CE7E70249E5E74C320020483200207C
:105AB0008474030000B000406474030000B583B038
:105AC000154B1B6813F4804F05D10120FFF730FF01
:105AD00003B05DF804FB2F21104811F023FA70B1D8
:105AE0002F210E4811F01EFA411C0D4BD3F804353E
:105AF0000C4A00925422002009F0DEFAE5E75C210E
:105B0000064811F00FFA28B15C21044811F00AFA96
:105B1000411CEAE70149E8E74C32002084740300A5
:105B200000B000405474030000B583B002E0019857
:105B300007F0B0FB01A8FFF7F3FE0028F7D05723CA
:105B4000ADF8023005E0084807F0A2FB5723ADF896
:105B500002300DF102010448FFF7E8FE0028F2D000
:105B600003B05DF804FB00BFB436002010B584B06C
:105B7000484B1B6813F4804F03D0474B1B68032B23
:105B800036D8464B0393039B0293424B1B6813F496
:105B9000804F03D0404B1B68032B4AD802A8FFF765
:105BA000C3FE0446039B029A9A421ED0394B1B68DF
:105BB00013F4804F19D0384B1B68012B15D92F21B6
:105BC000374811F0AFF9002856D02F21344811F092
:105BD000A9F9411C334BD3F80435029A0192324A99
:105BE00000928C22022009F067FA204604B010BD12
:105BF0002F212B4811F096F970B12F21284811F070
:105C000091F9411C274BD3F80435284A00927A2297
:105C1000042009F051FAB4E75C21214811F082F91F
:105C200028B15C211E4811F07DF9411CEAE71C49AE
:105C3000E8E72F211A4811F075F980B12F21184893
:105C400011F070F9411C174BD3F80435039A0192F7
:105C5000174A00928322042009F02EFA9EE75C2165
:105C60000F4811F05FF928B15C210D4811F05AF985
:105C7000411CE8E70A49E6E75C21094811F052F9BE
:105C800028B15C21064811F04DF9411CA2E70449F6
:105C9000A0E700BF4C32002048320020B83100207D
:105CA0008474030000B00040607503003475030085
:105CB0005075030000B583B002AB43F8040D2049D2
:105CC0001846FFF72FFEA8B91E4B93F816335B0951
:105CD000012B16D9042B16D0052B10D00123A3B904
:105CE00042F2020008BBFFF741FF18BB002003B0DF
:105CF0005DF804FB144A9321FFF7A0FEE4E70023BC
:105D0000EDE70023EBE70023E9E7104B9B682BB995
:105D10004FF480020B4B1A600020E3E70B4A136834
:105D200043F4800313600020DCE7074A9421FFF767
:105D300085FED8E7044A9721FFF780FED6E700BF2B
:105D4000BD59020000E100E084740300C46100203A
:105D500000B587B04F4B1B6813F4804F03D04E4BF8
:105D60001B68032B28D84D4B18680590FFF7A2FF3E
:105D7000484B1B6813F4804F03D0474B1B68032B21
:105D80003BD800230493059B0293454B039302A841
:105D900007F0E8F8002851D13E4B1B6813F4804F00
:105DA00003D03D4B1B68032B4DD807F035F9002875
:105DB0006AD107B05DF804FB2F213A4811F0B2F820
:105DC00070B12F21374811F0ADF8411C364BD3F894
:105DD0000435364A0092B522042009F06DF9C2E775
:105DE0005C21304811F09EF828B15C212D4811F05B
:105DF00099F8411CEAE72B49E8E72F21294811F0DF
:105E000091F870B12F21274811F08CF8411C264BD6
:105E1000D3F80435264A0092BF22042009F04CF939
:105E2000AFE75C211F4811F07DF828B15C211D48C7
:105E300011F078F8411CEAE71A49E8E7194AC42149
:105E4000FFF7FCFDA8E72F21164811F06BF870B1A1
:105E50002F21144811F066F8411C134BD3F8043578
:105E6000144A0092C622042009F026F99DE75C211D
:105E70000C4811F057F828B15C210A4811F052F88B
:105E8000411CEAE70749E8E7064AC721FFF7D6FDC4
:105E90008FE700BF4C3200204832002050740300CE
:105EA0004D5902008474030000B00040E474030004
:105EB000007503001C7503004FF0A043D3F80425C0
:105EC000012303FA00F002420CBF1846002070477D
:105ED00039B9012303FA00F04FF0A043C3F80805D5
:105EE0007047012303FA00F04FF0A043C3F80C05FC
:105EF0007047000070B402F0FE02002400E001349C
:105F000094424CD24FF0A045D5F804354340C5F833
:105F100004354FF47A7303FB01F3002BEFD0214DCE
:105F20002D68214E00BF00BF00BF00BF00BF00BFF3
:105F300000BF00BFB5422FD000BF00BF00BF00BFF1
:105F400000BF00BF00BF00BF00BF00BF00BF00BF59
:105F500000BF00BF00BF00BF00BF00BF00BF00BF49
:105F600000BF00BF00BF00BF00BF00BF00BF00BF39
:105F700000BF00BF00BF00BF00BF00BF00BF00BF29
:105F800000BF00BF00BF00BF00BF00BF00BF00BF19
:105F900000BF00BF00BF00BF013BC3D1AFE770BC73
:105FA000704700BF143200200024F4000D230BE0E2
:105FB0004FF0A04103F5E072032041F822000122D6
:105FC0009A40C1F808250133102BF1D97047000021
:105FD000F0B1104A1060002309E00F4AD25C02F5CC
:105FE000E0720E484FF0A04141F822000133032B2C
:105FF000F3D90B4B4FF00042C3F804230020C3F841
:106000007C01084BC02283F8062340221A607047A7
:106010000E2070470C370020BC7503000C000300F5
:106020000060004000E100E010B50024144BC3F80C
:106030007C4103E0D11A14E00134E4B2032C1ED8F1
:106040004FF0A043D3F810250E4B195D01238B4070
:106050009343F1D00C4B1B680C4AD2F80425991AD3
:10606000E8D441F69A139942E6D9084BD3F80425AF
:10607000054B1A60064B1B6820469847DCE710BDAD
:1060800000600040BC7503001037002000B00040E5
:106090000C3700200620704738B50C4615464B6873
:1060A00053B100232372B5B1012D0DD163680022D5
:1060B00002212046984738BD7846074B1B680BB134
:1060C0009847EEE700DEECE77846034B1B680BB120
:1060D000984738BD00DE38BDD061002010B584B0CF
:1060E0000C460DF10E01008801F064FF90B9BDF877
:1060F0000E004FF6FF7398420FD001A903F0D4FCB5
:1061000068B9BDF80620E3899A4201D0002002E078
:10611000012000E0002004B010BD0020FBE70020BB
:10612000F9E7000038B50D46144653682BB12946EF
:106130002046FFF7D3FF40B938BD7846084B1B68AF
:106140000BB19847F3E700DEF1E76B6819786368F5
:10615000EA89B1FA81F1490920469847ECE700BF86
:10616000D061002000B589B00088ADF8040003922A
:10617000ADF81030ADF808105923ADF80A30C4223C
:10618000ADF81420ADF81630044B0693044B07937A
:1061900001A802F0DFFA09B05DF804FB80C3C90171
:1061A00099600200C8B103464268C2B100B587B029
:1061B0000122ADF800205920ADF80200ADF804101E
:1061C00008490291039204930022059219466846F9
:1061D00001F010FE07B05DF804FB0E2070470E20A2
:1061E000704700BFC0750300D0B110B504464268C7
:1061F000CAB1027A12B10823184610BD41720B4A87
:106200001378591C11708372022300F10902C12115
:10621000FFF7A8FF03460028EED101222272EBE728
:106220000E23184670470E23E6E700BF1437002000
:1062300070B584B0064615468DF80C10104A1378D8
:10624000591C11708DF80D30C323ADF8003059235F
:10625000ADF8023003AB01930223ADF808300024FF
:106260002346AC4208D26946308801F06BFE0346F3
:1062700010B90134E4B2F4E7184604B070BD00BFB1
:106280001437002000230B2B11D810B403EB430468
:106290006200084CA25A824206D001330B2BF5D97A
:1062A00000205DF8044B70470B600120F9E70020E7
:1062B000704700BFC875030010B584B00C4604A930
:1062C000002341F8043D2088FFF7DCFF20B9784621
:1062D000104B1B688BB198472289039B03EB43014A
:1062E00048000D49014449888A4204D30A4B0344BB
:1062F0009B889A4203D904B010BD00DEECE72388E6
:10630000ADF8043063680293044B5B6801A9012077
:106310009847F0E7D0610020C875030018370020C7
:10632000074B9B781BB1022B05D000207047082338
:10633000036001207047112303600120704700BFF4
:106340001837002030B589B0144B1B88ADF80430E5
:10635000134B1B680393ADF81010ADF808004FF60F
:10636000FF73ADF80A30ADF81420ADF816300D4BC0
:1063700006930D4B079301A802F0ECF9044628B9E7
:106380000222064B9A70204609B030BD044D2868A1
:1063900006F0C2FA00232B60F5E700BF1837002093
:1063A0002037002080C3C9015165020038B504467A
:1063B000284B1B6823B17846274B1B687BB1984755
:1063C000B4F815204FF6FF739A420AD00D252946DE
:1063D000204806F0FDF9034628B1184638BD00DE16
:1063E000EEE70B25F3E71B4B1B6822881A80E28837
:1063F0005A80A289C2F30B0119715A7922F00F0257
:1064000042EA112202F0EF026FF347125A71E27B67
:106410009A71227C02F00301920842EA8112DA7139
:10642000617C1A7A61F302021A72A17CD2B261F322
:10643000C7021A72B4F81320A3F80920B4F8152083
:10644000A3F80B2048F2190229460320FFF77AFF30
:106450000346C2E720370020D061002070B584B029
:10646000064604A800E906000193174B1B6823B1F8
:106470007846164B1B6883B19847BDF806504FF617
:10648000FF739D420BD0082421460F4806F0A0F967
:10649000034630B1184604B070BD00DEEDE70624B7
:1064A000F2E7094B1B681E80BDF80A205A80BDF830
:1064B00004209A80DD8048F21F022146BDF82000AA
:1064C000FFF740FF0346E5E720370020D0610020BA
:1064D0002DE9F04184B080460F4601921E4604A883
:1064E000002340F8043DFFF71BFF20BB164B1B6841
:1064F00023B17846154B1B680BB39847BDF806408F
:106500004FF6FF739C421CD0082529460E4806F022
:106510005FF9039080B90C4B1B68A3F800805F8083
:10652000BDF804209A80DC8048F23E0229463046BD
:10653000FFF708FF00E0039804B0BDE8F08100DE3B
:10654000DCE70625E1E700BF20370020D06100200E
:1065500010B514460A4B186820B106F0DDF9002288
:10656000074B1A60012C03D00122064B9A7010BD14
:10657000044B5B680022114610469847F4E700BFC1
:10658000203700201837002070B504462B4B1B68BD
:1065900023B178462A4B1B687BB19847B4F8152085
:1065A0004FF6FF739A420AD01B263146234806F065
:1065B0000FF9034628B1184670BD00DEEEE7192634
:1065C000F3E71E4B1D682388284620F8023B102263
:1065D000A16810F0C8FBA389C3F30B02AA74EB7C7B
:1065E00023F00F0343EA122303F0EF036FF3471383
:1065F000EB74E37B2B75237C03F003029B0843EAD7
:1066000082136B75627CAB7D62F30203AB75A27C77
:10661000DBB262F3C703AB75B4F81330A5F81730DB
:10662000B4F81530A5F8193048F21902314648F28D
:106630001A00FFF787FE0346BDE700BF20370020A2
:10664000D0610020F0B585B0064604A800E9060038
:106650000193194B1B6823B17846184B1B6883B113
:106660009847BDF806504FF6FF739D420BD0162495
:106670002146114806F0ACF8034630B1184605B083
:10668000F0BD00DEEDE71424F2E70B4B1F6838463F
:1066900020F8026B1022039910F065FBBDF804305E
:1066A0007B82BD8248F21F022146BDF82800FFF719
:1066B00049FE0346E2E700BF20370020D0610020FA
:1066C00040B310B586B004460023019304930593AC
:1066D0000123ADF800304FF6FF73ADF802300F4BD9
:1066E00002930C2303930E4B9B7823B178460D4BFA
:1066F0001B686BB198470A49684601F07BFB03466B
:1067000018B9074A012191705460184606B010BDAF
:1067100000DEF0E70E231846704700BF1076030036
:1067200018370020D061002030B583B005460C46F4
:1067300002A8002340F8043DFFF7F2FD80BB4FF6AE
:10674000FF739C423BD09D423BD01F4B1A884FF6B3
:10675000FF739A4227D002A94FF6FF7321F8063D36
:10676000194B188801F026FC0190D0B92146164B30
:10677000188801F0EFFB019098B92946124B188850
:1067800001F0B0FC0190B0B1BDF802104FF6FF73FC
:10679000994203D00C4B188801F0DCFB019800E013
:1067A000019803B030BD7846084B1B680BB1984781
:1067B000D1E700DECFE700F0CFFD0198F1E7102030
:1067C000EFE70720EDE700BF18370020D061002079
:1067D00010B582B0044602A8002340F8043DFFF73C
:1067E0009FFD10B1019802B010BD2146044B1888DE
:1067F00001F03CFC01900028F4D100F0ADFDF1E780
:106800001837002000B583B002A8002340F8043DEB
:10681000FFF786FDC0B90F4B1B6823B178460E4BBE
:106820001B68ABB1984701210A4805F0D1FF0190E0
:1068300058B9084B1B6800221A700222012148F245
:106840000800FFF77FFD00E0019803B05DF804FB4E
:1068500000DEE8E720370020D061002070B582B06C
:1068600005460C46164602A8002340F8043DFFF7F3
:1068700057FD38BB4EB31A4B1B6823B17846194BF2
:106880001B6853B398471321154805F0A1FF0190E9
:10689000C8B9134B18680570C5F30325437865F331
:1068A000030364F3071343702409847010223146F4
:1068B000033010F058FA48F2030213210020FFF7CA
:1068C00041FD00E0019802B070BD7846054B1B68A1
:1068D0000BB19847CFE700DECDE700DED3E700BF7E
:1068E00020370020D061002010B582B0044602A8F5
:1068F000002340F8043DFFF713FD38B96CB123794C
:10690000022B06D02046FFF751FD00E0019802B0AF
:1069100010BD2046FFF738FEF9E70E20F7E710B567
:1069200088B0044604A880E80600039308A8002362
:1069300040F8043DFFF7F4FC70B99DF81030022BCD
:106940000CD048F21B030093039B04AA06CA2046FE
:10695000FFF784FD08B010BD0798FBE748F220035D
:106960000093039B04AA06CA2046FFF76BFEF1E7DB
:1069700000B583B0019248F23D03FFF7A9FD03B0D3
:106980005DF804FB0B89022B27D910B586B0486847
:106990000B88042B1BD001238DF8003001F10C046F
:1069A000019403788DF80830B0F80130ADF80A3062
:1069B0000B89033BDBB28DF80C3063B1C31C10466E
:1069C0000493059453686946984706B010BD0023A8
:1069D0008DF80030E2E70023F1E770470B89012BC7
:1069E00000D0704700B587B010464B6802228DF882
:1069F00000200C3101911B788DF8083043686946FE
:106A0000984707B05DF804FB0B89012B00D0704755
:106A100000B587B010464B6803228DF800200C317A
:106A200001911B788DF8083043686946984707B094
:106A30005DF804FB22B310B586B004466260002303
:106A40000372C360019305930323ADF800304FF642
:106A5000FF73ADF80230ADF804100B4B0293042322
:106A6000039304900146684601F0C4F9034610B14F
:106A7000184606B010BD208801F0BEFA0346F7E7BD
:106A80000E231846704700BF7076030010B5044609
:106A9000837803F00303032B21D8DFE803F0020C13
:106AA000131981788B081D4A11681944A1601C4B89
:106AB0001B6800201FE083789B0803EB83035900C9
:106AC0000B46F0E783789B08642101FB03F3EAE7B8
:106AD00083789B0841F2707101FB03F3E3E778468A
:106AE000104B1B6813B198470023DCE700DE00233E
:106AF000D9E71846DB681BB19A688A1A002AF8DAC7
:106B000018B133B1C460E36010BDE360044B1C6096
:106B100010BDC4600023E36010BD00BF3C370020FF
:106B200044370020D061002010B5764B19688B786F
:106B300003F00303744A1278934240F3BA808C68DE
:106B4000724B1B68E41A724B03FB04F4032A09D846
:106B5000DFE802F0021204066D4B0EE06D4B0CE014
:106B60006D4B0AE078466D4B1B6813B198470023C4
:106B700003E000DE002300E0694BB4FBF3F3614A5D
:106B80001268927802F00302022A19D03AD8012A38
:106B90006AD102F1CC32A2FB0312D20802EB8202CC
:106BA00051008B4202D0002213465FE006F02EFE19
:106BB00000F5742303F51073012253490A7055E060
:106BC000514A117839B9574AA2FB0302520964208D
:106BD00000FB12326AB1012902D00022134645E0BF
:106BE000514AA2FB0312D20802EB820251008B42EF
:106BF00049D106F00BFE474B03440221424A117073
:106C0000012233E0404A117841B9484AA2FB03020D
:106C1000D20941F2707000FB123282B1012904D016
:106C2000022915D00022134620E0414AA2FB0302AC
:106C300092094FF4167000FB1232002AF0D106F0D0
:106C4000E5FD354B034403212F4A117001220DE06D
:106C5000384AA2FB03125209C2EB021291008B4286
:106C6000EDD00022134601E000221346002A47D14E
:106C700006F0CCFD0446244B1B78032B0CD8DFE830
:106C800003F00515070900221346EFE7204B0EE03D
:106C9000204B0CE0204B0AE07846204B1B6813B1D8
:106CA0009847002303E000DE002300E01C4B234450
:106CB00026E006F0ABFD0446124B1B689B7803F000
:106CC0000303032B09D8DFE803F002120406104B7C
:106CD0000EE0104B0CE0104B0AE078460F4B1B689F
:106CE00013B19847002303E000DE002300E00C4BC3
:106CF0002344044A12689278C2F3010202490A70DE
:106D0000184610BD44370020413700203C37002092
:106D1000A0860100809698000046C323D061002021
:106D200040420F001F85EB51CDCCCCCCF11976053C
:106D3000B5814E1B8988888810B52B4B1B7873B999
:106D40002A4B1B68002B47D0FFF7EEFE0146264B6F
:106D50001B78002B38D0264806F0B4FC10BD244B1D
:106D60005C6806F053FD241A224B1B78032B09D8CC
:106D7000DFE803F0021204061F480EE01F480CE093
:106D80001F480AE078461F4B1B6813B19847002044
:106D900003E000DE002000E01B48001B154B1B78C1
:106DA00043B94CF25033984204D9184A136801335E
:106DB0001360C5E74009164BA3FB0030134A136864
:106DC00003EBD0101060BBE70122074B1A70084894
:106DD000416006F0FBFB10BD034B1B7803B910BDEF
:106DE000034806F039FCFAE740370020443700201A
:106DF0002437002041370020A086010080969800AB
:106E00000046C323D061002040420F003C370020E1
:106E1000C55A7C0A30B583B007E000DE636801998B
:106E2000284698472046FFF731FE124B1C68ECB10C
:106E3000A368114A1268934204D00F4A12689B1A41
:106E4000002B13DA2588E2680A4B1A6002A9002396
:106E500041F8043D284601F097F90028DED0784635
:106E6000064B1B68002BD8D09847D7E7FFF764FF85
:106E700003B030BD443700203C370020D0610020F3
:106E800008B5154B1B78032B1ED8DFE803F0020C66
:106E90001116124A1368013313600022104B1A7046
:106EA000FFF7B8FF08BD0D4A13680A331360F4E713
:106EB0000A4A136864331360EFE7084A136803F55E
:106EC000BB5310331360E8E77846064B1B680BB1E1
:106ED0009847E2E700DEE0E7413700203C3700203A
:106EE00040370020D061002010B5084C1822002146
:106EF00020460FF043FF064BA3600023054A1360B2
:106F0000054A1360054A137010BD00BF24370020E6
:106F1000816E02003C3700204437002040370020BB
:106F200010B44FF6FF7399420CD00C4A43001C1862
:106F300061000C461144C97822444B1CD3705DF8A3
:106F4000044B7047054A43001C1861000C4611446D
:106F5000897822444B1C9370F1E700BF483700202A
:106F600030B482B00191194943001D186C000C44E3
:106F7000A57803445C002144CB78DD4201D0002396
:106F800003E000201FE001339BB2052B1AD8342107
:106F90000F4C01FB034189898842F4D1342101FB64
:106FA00003F1645ABDF804108C42ECD13424084932
:106FB00004FB03156C88BDF806108C42E3D11380E6
:106FC000012000E0002002B030BC704748370020AC
:106FD0009037002082B000230093027802F0C003B3
:106FE000402B0ED00CD9802B1BD0C02B0FD1ADF86D
:106FF00000204278837843EA0223ADF8023006E0AD
:107000002BB9ADF800204FF6FF73ADF80230009BAE
:1070100000209AB262F30F001B0C63F31F4002B012
:107020007047437843EA0222ADF800204FF6FF7321
:10703000ADF80230EBE782B00190000C4FF6FF7321
:10704000984207D0BDF804300B70030A4B7088706B
:1070500002B07047BDF8043013F47F4F03D01A0A12
:107060000A704B70F4E70B70F2E782B001904FF6B4
:10707000FF73B3EB104F0AD0BDF8040020F03F00BF
:1070800080B2C02814BF0020012002B07047BDF8B4
:10709000040010F47F4F07D000F44040B0F5004FDB
:1070A00014BF00200120F0E720F07F039BB22BB932
:1070B0007F2801D00120E8E70020E6E70020E4E790
:1070C00070B506460D460024AC4207D256F834008F
:1070D000FFF7CBFF034610B10134F5E70123184653
:1070E00070BD30B482B00191002300E00133018D06
:1070F0008B4210D2416A01EBC30531F83340BDF831
:1071000004108C42F2D16C88BDF806108C42EDD18F
:107110001360012000E0002002B030BC7047000086
:10712000F8B505460E4617461C4683B13389B3F5BC
:10713000BE7F14D2052D19D83423224A03FB052320
:1071400093F8303013F0010F21D100230FE078467F
:107150001D4B1B680BB19847E8E700DEE6E7092303
:1071600023602068B0FA80F04009F8BD002383B1A5
:107170003423144A03FB05239B89032B09D85FB1F1
:107180003068FFF772FFC8B100232360E9E70123ED
:10719000EDE705232360E4E734230A4A03FB0523D4
:1071A0009A884FF6FF739A4208D03422054B02FBAF
:1071B0000535EA884FF6FF739A42E1D10723236031
:1071C000CFE700BF90370020D061002008B5784697
:1071D000034B1B680BB1984708BD00DE08BD00BF1C
:1071E000D061002008B5804708BD00004388C3F384
:1071F0000B03052B19D830B41C460D4911F8332068
:1072000042F0010201F83320002313B1012030BC09
:10721000704700EB83025168C94303EB4405044AFD
:1072200002EB850251600133EFE70020704700BF99
:10723000C83800204388C3F30B03032B07D8818889
:1072400003EB43035A00034B99520120704700207F
:10725000704700BF48370020F0B583B00F46164690
:107260004FF47043ADF80430ADF8060000252C460D
:1072700000E05CB1224601A90C4808F065FD044617
:107280000028F6D0B04758B10135F2E7BD4209DD1C
:107290007846074B1B680BB1984703E000DE01E01E
:1072A0004FF0FF35284603B0F0BD00BF683700201F
:1072B000D061002038B54388C3F30B03052B2DD8CC
:1072C000011D028A032A2BD83422174C02FB0342E9
:1072D000D289052A0AD8448AA24201D0002038BDAA
:1072E000124A12F8342012F0010F1BD0428A052AEC
:1072F00006D80E4D15F8324044F0040405F832402B
:10730000044614223425084805FB03000FF02BFD2A
:10731000E188208AFFF704FE012038BD002038BD37
:10732000002038BD002038BD90370020C83800202C
:1073300008B50122054B1A70054808F0A7FC00B9F2
:1073400008BD044808F040FFFAE700BF8C37002072
:1073500068370020C83100202DE9F04106F02EFFEB
:10736000594B1B78C3B9594B1B780BB1002514E05E
:1073700006220121564808F09DFD58B10422C28022
:1073800006220281828008F0D9FD01224F4B1A703B
:10739000002502E0112500E0082500240EE003EBA3
:1073A00044004C4A02EB80025268D24301EB830056
:1073B0004260013316E011250134A4B2052C48D8EF
:1073C000EDB9444B13F8343003F00303032BF3D12E
:1073D000042244F440513E4808F06CFD0146002868
:1073E000E9D02B46002BDAD0084608F0A7FD394A31
:1073F00012F8343023F0020302F83430DCE70024C2
:1074000002E011250134A4B2032C52D81DBB04EBB9
:1074100044035A00304B13445B7913F0020FF1D050
:10742000022244F480512A4808F044FD0028E8D0A4
:10743000294E670039194B0006EB0308F35A838085
:1074400008F07CFD98F8053023F0020388F8053039
:10745000D8E70024D8E7002402E01125631C9CB281
:10746000052C28D83DBB34231C4A03FB042393F886
:10747000303003F00303032BF0D1142244F4005105
:10748000134808F017FD07460028E6D03426134BB2
:1074900006FB04361422314604300FF064FC3846F3
:1074A00008F04CFD96F8303023F0020386F83030B7
:1074B000D4E70024D4E71DB906F0A0FEBDE8F081B2
:1074C000074808F081FEF7E78C3700208D37002051
:1074D00068370020C8380020483700209037002047
:1074E000D831002008B54FF49C7200210F480FF0EE
:1074F00045FC182200210E480FF040FC30220021EC
:107500000C480FF03BFC00220CE03423074903FB3E
:1075100002134FF6FF71D98099800620D881998196
:10752000013292B2052AF0D908BD00BF9037002081
:1075300048370020C83800202DE9F04182B00546C8
:10754000037D012B1BD0143002A94FF6FF7321F8E5
:10755000083D02F039FB28B17846554B1B68002BDB
:107560005BD09847BDF8000002F054FA28B978467D
:107570004F4B1B68002B52D09847002452E06846BE
:1075800002F050F9EE8ABDF800309E42C0F08D80C6
:10759000BDF802201A44964280F28780F61AB6B2ED
:1075A000002400E00134052C7FDC3423414803FB38
:1075B000040090F8303013F0010FF3D03D4A838976
:1075C0009E42EFD1342303FB04F3083313446A8C47
:1075D000510953F8211002F01F02012303FA02F2AD
:1075E0001142DFD001AA2968FFF77BFD0028D9D01E
:1075F0001FFA84F834272F4B07FB0437FA6A294611
:10760000404601F055F87B6A019A03EBC2035B68C0
:10761000FA6A294640469847C4E700DEA2E700DE42
:10762000ABE70134052C40DC3423224803FB040083
:1076300090F8303013F0010FF3D01E4AC1890529AC
:10764000EFD8342303FB04F3083313446A8C560940
:1076500053F8266002F01F02012303FA02F21642D9
:10766000DFD0154B03EBC1010431BDF800305A09DE
:1076700051F8221003F01F03012202FA03F319420A
:10768000CFD001AA2968FFF72CFD0028C9D03423E8
:10769000084A03FB04235A6A019902EBC1025668A7
:1076A000DA6A2946A0B2B047BBE702B0BDE8F08174
:1076B000D061002090370020C838002010B58EB06F
:1076C000044600284CD02068FFF784FC0D9080B25F
:1076D0007F2843D0414B1B6813F4005F03D0404B1D
:1076E0001B68042B44D8E06902F0A2FA0D9A0492B8
:1076F000236803924FF6FF71B1EB124F5DD0032266
:1077000013440593A3880D9A02924FF6FF71B1EBD3
:10771000124F5AD003229B1AADF81830237A8DF8F5
:107720001C306389ADF81E30E3680893237C8DF824
:107730002430638AADF8263063690A93636A5A6815
:107740000B9293F90D308DF8303094F820308DF88D
:107750003130ADF8320004A8FFF7EEFE0EB010BDD8
:107760007846204B1B680BB19847ACE700DEAAE7D0
:107770002F211D480FF0D6FB90B12F211A480FF092
:10778000D1FB411C194BD3F80435BDF834200192CC
:10779000174A009240F22312052007F08DFCA2E761
:1077A0005C2111480FF0BEFB28B15C210E480FF0A0
:1077B000B9FB411CE6E70C49E4E7BDF80C20FF2AC1
:1077C00001D902229CE701229AE7BDF80820FF2A8E
:1077D00001D801229FE702229DE700BF4C32002022
:1077E00048320020D06100209076030000B00040B5
:1077F000D476030008B5037803B108BD0430FFF761
:107800005DFFFAE700B587B00F4B03930F4B04936E
:107810000F4B05930423029301F06AFFA0F58050FB
:107820000090012301930B4A137069460A4808F03F
:1078300083FC28B90022074B1A7007B05DF804FBDF
:10784000064808F0C1FCF8E7F9780200CD710200A3
:10785000617802008C37002068370020B8310020A2
:1078600010B5002301E001339BB2052B0BD81F4A52
:1078700012F8332012F0010FF5D042F002021B493A
:1078800001F83320EFE7002301E001339BB2032B23
:1078900010D803EB43014A0015498A5A002AF4D054
:1078A00008465A00D418610001444A7942F00202A5
:1078B0004A71EAE7002301E001339BB2052B11D89E
:1078C00034220C4902FB031292F8302012F0010F0F
:1078D000F2D03421074801FB030142F0020281F893
:1078E0003020E9E7FFF78EFF10BD00BFC838002049
:1078F000483700209037002070B58CB005460E4602
:107900001446012A05D0022C0BD0032C11D00CB048
:1079100070BD7846114B1B680BB19847F3E700DE4A
:10792000F1E778460D4B1B680BB19847EDE700DE99
:10793000EBE72C22002101A80FF020FA19238DF883
:10794000043002238DF808300396EB6805932B6909
:10795000069301A804F046FED9E700BFD0610020DD
:107960002DE9F04794B002AF05460C46164607F1E4
:107970004403FFF7D5FB20B9786C4837BD46BDE816
:10798000F08707F1400001F04DFFB7F842203423A3
:10799000954903FB05139B899A4201D81020ECE717
:1079A000B7F8408043441FFA83F856B3B6F82290E4
:1079B00007F138030C3696E8030083E8030007F16B
:1079C0003601304602F000F910B14FF6FF73FB8626
:1079D0003422854B02FB05352D7CFF2D27D097F8EF
:1079E0003830012B26D0012B30D0F88E4FF6FF73A4
:1079F00098422DD002F00EF8002840F0928000232B
:107A000027E03423784A03FB0523B3F80490D88891
:107A1000F88607F1380102F047F80028D8D07846F8
:107A2000724B1B680BB19847D2E700DED0E7704B72
:107A30001D78D4E7798FB7F840209142D3D3B7F8B7
:107A4000420002449142CEDA012302E0002300E02A
:107A500000231E46002B66D11EB197F83830012B4B
:107A60005DD06E462022002107F110000FF086F94C
:107A7000238922687A604FF6FF71B1EB124F78D0FC
:107A800003221344073323F00703ADEB030D0DF17D
:107A9000080A07F12401484602F016FA28B1784690
:107AA000524B1B68002B6BD0984707F1100307F16E
:107AB000380292E8030083E80300A7F81880BD7637
:107AC000C7F81CA023892268FA604FF6FF71B1EB5A
:107AD000124F57D0032213443B8451462068FFF7CE
:107AE000AAFA2368BB604FF6FF72B2EB134F50D077
:107AF00003202289616850440FF035F9002107F115
:107B0000100005F0B1FA786440B93A4B1B6813F4E1
:107B1000005F03D0384B1B68042B41D8B546786C06
:107B20002BE7012395E72422002107F110000FF035
:107B300025F923683B6163687B6123893B830123CB
:107B40003B77A7F81E8007F1240307F1380292E87B
:107B5000030083E8030005F059FEF86287F831500E
:107B6000A7F8329007F11000FFF7E6FC00237B64D2
:107B700072E7BA88FF2A01D9022282E7012280E750
:107B800000DE92E7BA89FF2A01D90222A3E7012287
:107B9000A1E73B89FF2B01D90220AAE70120A8E732
:107BA0002F2116480FF0BEF988B12F2113480FF08E
:107BB000B9F9411C124BD3F8043522880192114ABD
:107BC000009240F2C512052007F076FAA6E75C2184
:107BD0000A480FF0A7F928B15C2108480FF0A2F974
:107BE000411CE7E70549E5E790370020D061002018
:107BF000E83100204C32002048320020907603000B
:107C000000B0004008770300F8B500E020BF08F09E
:107C1000FDFA0028FAD00022614B1A700121614858
:107C200008F064F8002800F0B980C288042A05D062
:107C30000024002C00F0AC802046F8BD0289062A02
:107C400001D00024F5E78388062B01D00024F0E75B
:107C50000122534B1A70544A06214FF44050FFF74B
:107C6000FBFA002801DB00230FE00024E1E74F4C82
:107C70005A001A445100621800209070D07060526F
:107C8000517921F0020151710133032BEFDD484A94
:107C900004214FF48050FFF7DFFAC743FF0F0FB9FD
:107CA0000024C6E7434A06214FF40050FFF7D4FAF8
:107CB000002867DD002635E000DE50E005240DE0F9
:107CC00000DE17E051420A403B4901FB02F2D20EAE
:107CD0003A498C5C04EB431400E00524052C1FD0CA
:107CE000A0B201F04BFE28B17846354B1B68002B43
:107CF000E6D098470134042CEFD8630955F82320C7
:107D000004F01F04012101FA04F461420A40002A30
:107D1000D8D1013302D155F82320F8E70524DDE757
:107D20000136B6B2052E2ED83423264A03FB06238D
:107D30009A894FF6FF739A42F2D03424214B04FB08
:107D40000634E0884FF6FF73984208D001F086FDB4
:107D500028B178461A4B1B68002BADD09847E289B2
:107D6000062ADDD0184B03EBC2031D1D5B68002BF8
:107D7000A4D05A421A40104B03FB02F3DB0E0F4A09
:107D8000D45CABE700270FB1012452E7002450E791
:107D90000022034B1A70FFF7CBFA4DE700244BE7A4
:107DA0008D37002068370020ED7102004837002031
:107DB00035720200B572020031B57C07E876030027
:107DC000D061002090370020C838002008B5FFF7A8
:107DD00089FB0648064B036005F061FA00F0AAFC37
:107DE000FFF782F8FFF70EFD08BD00BF60370020E7
:107DF000F5770200002800F09B80F8B50446826801
:107E0000002A00F09780002900F096804FF6FF725C
:107E10000A80C2680AB90920F8BD8088032801D900
:107E20000520F8BD0D460A462168FFF799F858B1BC
:107E30002B883421414A01FB032393F8303013F09F
:107E4000010F01D00F20F8BDE168A068FFF738F9F5
:107E500008B90720F8BD29884FF6FF7399422CD046
:107E600029882069354B342202FB0131C8622988F8
:107E7000A06802FB013148622988E06802FB0131F9
:107E800008852988606902FB01318861298802FB25
:107E900001308182298802FB013393F8302042F0BF
:107EA000010283F830200020F8BD99B229804FF6F6
:107EB000FF7399420FD10420F8BD0023052BF5D89C
:107EC00034221E4802FB030292F8302012F0010F08
:107ED000EBD00133F2E7194E342707FB01611A4654
:107EE000CB802B8807FB03639A802B88A28807FB33
:107EF00003639A812B88228807FB03F3F2522B88B5
:107F0000628807FB03635A802B8807FB03630C4AD4
:107F100012781A746188A088FFF702F82B8807FB93
:107F2000036696F8303043F0020386F8303097E766
:107F30000E2070470E20F8BD0E20F8BD90370020AF
:107F4000E831002021B108B50022FFF709FD08BD86
:107F50000E20704705280AD83423154A03FB002356
:107F600093F8303013F0010F05D1002300E0002317
:107F70001BB9052070470123FAE7042901D907201E
:107F8000704734230A4A03FB0023DB8899420CD054
:107F90003422074B02FB0030C18090F8303043F0B0
:107FA000020380F83030002070470020704700BF87
:107FB000903700200A46D1B105280AD834230D494C
:107FC00003FB001393F8303013F0010F05D10023A9
:107FD00000E000231BB9052070470123FAE7342194
:107FE000044B01FB0030C3881380002070470E2033
:107FF000704700BF9037002005280AD83423194A5B
:1080000003FB002393F8303013F0010F05D1002358
:1080100000E000231BB9052070470123FAE7342351
:10802000104A03FB0023DB89062B01D00020704798
:108030000023052B13D80C4A12F8332012F0010F3D
:1080400001D00133F5E742F00102074901F833207E
:108050003421044A01FB0020C38100207047042022
:10806000704700BF90370020C838002005280AD884
:1080700034231B4A03FB002393F8303013F0010F25
:1080800005D1002300E000231BB905207047012320
:10809000FAE7032901D90720704730B4342303FBE2
:1080A00000F308330E4A13444D0953F8254001F0FC
:1080B0001F01012202FA01F10C420FD1214343F8C2
:1080C00025103422064B02FB003090F8303043F08C
:1080D000020380F83030002030BC70470020FBE7FE
:1080E0009037002005280AD83423154A03FB0023C3
:1080F00093F8303013F0010F05D1002300E0002386
:108100001BB9052070470123FAE7032901D907208D
:10811000704734230A4A03FB00239B8899420CD002
:108120003422074B02FB0030818090F8303043F05E
:10813000020380F83030002070470020704700BFF5
:10814000903700200A46D1B105280AD834230D49BA
:1081500003FB001393F8303013F0010F05D1002317
:1081600000E000231BB9052070470123FAE7342102
:10817000044B01FB0030037C1370002070470E207D
:10818000704700BF903700200A46D1B105280AD8B1
:1081900034230D4903FB001393F8303013F0010F23
:1081A00005D1002300E000231BB9052070470123FF
:1081B000FAE73421044B01FB0030C36A136000204E
:1081C00070470E20704700BF9037002010B44FF664
:1081D000FF730B80002300E00133052B0ED803EB67
:1081E0008302D4000A4A224492F83C20002AF3D0A9
:1081F000074A2244128B8242EED10B8008884FF648
:10820000FF73C01A18BF01205DF8044B704700BF10
:10821000F83800200C4BB3F808318BB10A4BB3F897
:108220000A2102EB8202D10019444A6B00EB800064
:10823000C1000B445B6BD31A002B03DB012070479A
:108240000120704700207047F838002010B400EB80
:108250008000C200104B13445B6B104C1C44002385
:108260004FF6FF7001E001339BB2052B11D803EBF1
:108270008302D100084A0A4492F83C20002AF2D036
:10828000054A0A44526B111B0029ECDA18461446C1
:10829000E9E75DF8044B7047F83800200087930346
:1082A00070B506460C4615464FF6FF730B80042347
:1082B000136005F083FF174BB3F80831062B21D864
:1082C000002309E003EB8302D100124A0A44118B18
:1082D0003288914214D00133052B13D803EB83026B
:1082E000D1000C4A0A4492F83C20002AEAD12188A5
:1082F0004FF6FF729142EED100222A602380EAE716
:1083000008232B6005F07AFF2868B0FA80F0400956
:1083100070BD00BFF838002010B5044600EB8003A4
:10832000DA00264B134493F83C3023B97846244BAB
:108330001B68EBB19847214BB3F8083123B9784655
:108340001F4B1B68B3B198471C4A04EB8401CB0058
:108350001344002183F83C10B2F80831013B9BB272
:10836000A2F808312BB3B2F80A319C4204D010BDF8
:1083700000DEE0E700DEE7E72046FFF767FF0F4B90
:10838000A3F80A014FF6FF7398420AD00B48B0F8E1
:108390000A3103EB8303DA000244516B05F092F9D2
:1083A00010BD7846064B1B680BB19847EEE700DE20
:1083B000ECE7024805F050F9D9E700BFF838002093
:1083C000D0610020F0B583B006466A4BB3F808319F
:1083D00023B97846684B1B684BB1984706F57A7508
:1083E0004FF6FF72634BA3F80A21002489E000DEF8
:1083F000F4E76049A2002244D3000B44002283F832
:108400003C20B1F80821013AA1F8082101A9188BF4
:10841000FFF7BAFE20B17846574B1B685BB198470F
:10842000A2002244D100534B0B441F6B012201993F
:10843000188BB84764E000DEF2E74E4FA200111936
:10844000CB00F8181833F9180431008BFFF77AFDC8
:10845000A7F80A41F0B9A2002244D1003B460B44E0
:108460009A6B596B1144596352009A63414A631CD9
:1084700003EB8303D9001144486804EB8401CB006B
:1084800019461A44536BC31A002B39DA394B0B4483
:10849000586335E0042806D07846374B1B68002B1C
:1084A00029D09847E2E73349A3001819C2000A44CB
:1084B000536B03F51C43403353632E4BB3F8083121
:1084C000002B53D02B4BB3F80A31052B05D9784636
:1084D000294B1B68002B45D09847264AB2F80A3131
:1084E00003EB8303D9000A44536B9A1B3CD4214B02
:1084F000DA6003B0F0BD00DEB8E71E4BA3F80A4116
:108500000134052CD9D804EB8403DA00194B134449
:1085100093F83C30002BF3D0631C03EB8303DA00A9
:10852000144B13445B685B1B002BFFF662AF04EB3C
:108530008403DA000F4B13445A6B531B002BFFF6D6
:108540007CAF0C4BB3F80A314FF6FF718B42D4D09D
:1085500003EB8303D900074B0B445B6BD21A002A51
:10856000CEDACAE700DEB8E7F21AC0E70022014B14
:10857000DA60BEE7F8380020D061002010B582B084
:1085800004460DF107010088FFF7DCFD20B17846B5
:10859000184B1B6823B39847636800934FF6FF722C
:1085A000B2EB134F1ED00322A38913449BB29DF854
:1085B000072044F6206000FB02F000F5433000F590
:1085C000A0700B2B0AD90B330B4A82FB0312DB176B
:1085D000C3EB620344F6206202FB030002B010BD4D
:1085E00000DED9E7BDF80030FF2B01D90222DBE71E
:1085F0000122D9E7D0610020ABAAAA2A2DE9F041D7
:108600000446884600EB8003DA00274B134493F8B6
:108610003C3023B17846254B1B68BBB3984705F027
:10862000F5F80746204DA6003319D80018301C2253
:10863000414628440EF097FB4046FFF79FFF264433
:10864000F3002B449863661CB20002EB060E4FEA5F
:10865000CE0129444A683A444A6007445F6305F002
:10866000ADFD2046FFF7D6FD90B90F4A04EB840418
:10867000E3001344012183F83C10B2F808310B44A5
:10868000A2F8083105F0BAFDBDE8F08100DEC6E7CA
:10869000054D04EB8402D3002B44596B284605F0AA
:1086A00011F8A5F80A41E0E7F8380020D061002071
:1086B00070B582B004460D461646052804D97846A2
:1086C0001A4B1B68BBB1984705F078FD0DF1060108
:1086D0002046FFF77BFD50B1BDF80600431C03EBBD
:1086E0008303DA00124B9A5A2B889A4205D005F080
:1086F00085FD02B070BD00DEE6E7431C03EB83039B
:10870000DA000B4B13445A886B889A42EFD1FFF77B
:1087100003FEBDF8063003EB8303DA00044B134479
:108720001B6B0022314620469847E0E7D0610020CD
:10873000F838002010B5054C4FF486720021204611
:108740000EF01CFB024BA36010BD00BFF8380020E8
:10875000C583020048B310B582B00446836933B3C1
:108760000388052B02D9052002B010BD4269114BC8
:108770001344114A934201D90720F5E701AA0DF1EC
:108780000201FFF78DFD08B90198EDE7211D208852
:10879000FFF7D8FB019008B10428E5D12146BDF8C8
:1087A0000200FFF72BFF0020DEE70E2070470E20AF
:1087B000DAE700BF803C36FE80C3C90102460E4B9B
:1087C0001B6813F0010F0AD00C4B1B8898420FD383
:1087D0000A48408803449A420CDB002300E000234F
:1087E000184623B14A8001230B7000234B60704769
:1087F0000023F5E70123F3E70C3A0020D03A0020EC
:108800004FF6FF730B800023032B25D830B40DE007
:108810005A09124C54F8224003F01F050122AA40C5
:10882000144208D10B800133032B12D80C884FF669
:10883000FF729442ECD00A4A32F823208242F2D1ED
:10884000074A02EB8302D278002AECD00B80012089
:1088500000E0002030BC704700207047043A002040
:108860001C3A002030B583B005460C460DF10601D8
:10887000FFF7C6FF034620B1658003222270002265
:108880006260184603B030BD0B880BB9013300E0BD
:1088900000234FF6FF720A80E3B930B408E003EB1F
:1088A0008304A2000C4CA25A82420DD0013373B94A
:1088B0005A090A4C54F8224003F01F050122AA402D
:1088C0001442ECD10B80F1E70B80012000E0002086
:1088D00030BC704700207047383B0020143A00201D
:1088E0004FF6FF730B800023032B20D830B407E032
:1088F0000C884FF6FF72944214D00133032B13D827
:108900005A090C4C54F8224003F01F050122AA40DA
:108910001442EDD0084A32F823208242EDD10B8078
:10892000012002E00B80E8E7002030BC7047002007
:10893000704700BF043A00201C3A00204FF6FF7336
:108940000B800023022B24D830B407E00C884FF6AC
:10895000FF72944217D00133022B17D85A090E4CDC
:1089600054F8224003F01F050122AA401442EDD022
:10897000162202FB03F2094CA25A8242EBD10133C8
:108980000B80012003E05A1C0A80E4E7002030BC81
:1089900070470020704700BF4C3A0020543A002036
:1089A0004FF6FF730B8000235BB1002070470B80F4
:1089B00001201CE00C884FF6FF72944213D10B800B
:1089C00011E030B45A090B4C54F8224003F01F0553
:1089D0000122AA401442EDD0162202FB03F2064CFB
:1089E000A25A8242E3D00133002BEBD0002030BCEE
:1089F000704700BF2C3A0020343A0020F0B41768CA
:108A00000023136013B10120F0BC70475C09114DC5
:108A100055F8245003F01F060124B440254206D027
:108A200016240D4D04FB03546488844201D00133A5
:108A3000E8E71568AF420AD0162404FB03F4064E9B
:108A4000345B21F81540146801341460EFE700200E
:108A5000DAE700BF2C3A0020343A002070B40E68E8
:108A600000230B6013B1012070BC70475A090D4CF4
:108A700054F8224003F01F050122AA4014420CD0F2
:108A80000C68A6420BD05C2202FB03F2064DAA5AE8
:108A900020F814200A6801320A600133E2E700205E
:108AA000E2E700BFD43A0020DC3A002010B50446CB
:108AB00028B10C4B9C420AD24FF6FF7010BD78468D
:108AC000094B1B680BB19847F3E700DEF1E702D9C9
:108AD0004FF6FF7010BDE01A044CA4FB0030C0F349
:108AE0008F1010BDEE3A0020D0610020C94216B2AE
:108AF00010B5044628B10C4B9C420AD24FF6FF70C9
:108B000010BD7846094B1B680BB19847F3E700DEB0
:108B1000F1E702D94FF6FF7010BDE01A044CA4FB38
:108B20000030C0F38F1010BD183B0020D061002032
:108B3000C94216B210B5044648B1144B9C4200D34A
:108B40000DD9134B9C4211D24FF6FF7010BD7846E1
:108B5000104B1B680BB19847EFE700DEEDE7E01A1A
:108B60000D4CA4FB0030C0F30F1010BD2C339C4201
:108B700002D94FF6FF7010BDA3F12C00201A064C4D
:108B8000A4FB00300009013080B210BD383A00204B
:108B9000583A0020D0610020A38B2EBAB0B110B497
:108BA00004460023022B0DD8162202FB03F20849CB
:108BB0008A5A944201D00133F4E7162202FB0313D0
:108BC000181D00E000205DF8044B7047002070473E
:108BD000543A002070B505460E461446106818B188
:108BE000FFF7A8FF013002E0002000E00130F8B9F3
:108BF0004309114A52F8232000F01F0101238B4042
:108C00001A42F3D016230D4A03FB00235B88AB42C4
:108C1000ECD1162303FB00235B79734013F03F0F65
:108C2000E4D11622054B02FB00330433236070BDF0
:108C30000023236070BD00BF2C3A0020343A00208E
:108C40000D4B23F8210003EB81030022DA709A70A8
:108C50004B090A4801F01F01012202FA01F150F804
:108C600023200A4340F82320054850F823201143CD
:108C700040F82310704700BF1C3A0020043A00203F
:108C8000083A002008B50B8881B21846FFF7D8FFD4
:108C900008BD0000024B33F820300B80704700BF46
:108CA0001C3A002010B5044608B1A04710BD784614
:108CB000034B1B680BB19847F7E700DEF5E700BFF1
:108CC000D0610020F8B506460C461746052804D9A1
:108CD00078460D4B1B68A3B198470C4D05EB461524
:108CE000EB693946204698476A68610904F01F0419
:108CF000012303FA04F452F82130234342F82130CF
:108D0000F8BD00DEE9E700BFD06100201C7703005A
:108D10002DE9F8438046894611465C1E114F162501
:108D200005FB04F57E191022B01D0EF01CF800237F
:108D3000737101233371A6F8029027F80580620948
:108D4000094804F01F04A34050F82210194340F8CA
:108D50002210064850F822100B4340F82230BDE89C
:108D6000F88300BF543A00204C3A0020503A0020CB
:108D700010B50C46431C9BB20A1D49882088FFF79A
:108D8000C7FF10BDF8B50D46074F162404FB00F4CD
:108D90003E191022B11D281D0DF0E5FF3B5B2B8015
:108DA00073886B80F8BD00BF543A0020F8B50D46BB
:108DB000074F162404FB00F43E191022B11D281D94
:108DC0000DF0D1FF3B5B2B8073886B80F8BD00BF3B
:108DD000343A002070B50D46064E5C2404FB00F4C6
:108DE000311910220231A81C0DF0BDFF335B2B801E
:108DF00070BD00BFDC3A002010B50C4600EB8000CF
:108E00008300044919441022043120460DF0ABFFC1
:108E100010BD00BF383B002008B5042201480DF00A
:108E2000A2FF08BDD03A002008B508460422024936
:108E30000DF099FF08BD00BFD03A00202DE9F041A8
:108E400007460E4690461C461625184B05FB043572
:108E500010224146A81D0DF086FF691D404606F010
:108E600087F820B17846124B1B68EBB198470F4941
:108E7000162303FB04F3CA1800201071CF5256804A
:108E800063090C4904F01F04012202FA04F451F8AA
:108E90002320224341F82320074951F8232014437B
:108EA00041F82340BDE8F08100DEE0E7343A0020DD
:108EB000D06100202C3A0020303A002010B50C463A
:108EC00083B20A1D49882088FFF7B8FF10BD000053
:108ED0002DE9F0410D4614462A4A5C2101FB04F1BC
:108EE00001F13003134404330A441364064610B9F5
:108EF0000122254B1A705C2101FB04F11031214B3A
:108F000019440231284606F03EF820B178461F4B3E
:108F10001B6893B398475C2101FB04F14031194B66
:108F200019440431284606F041F820B17846174B21
:108F30001B6823B39847DFF84C805C2707FB04F7D6
:108F400008EB07001022294602300DF00CFF28F82C
:108F5000076063090E4904F01F04012202FA04F4B9
:108F600051F82320224341F823200A4951F82320B5
:108F7000144341F82340BDE8F08100DECBE700DE7A
:108F8000D9E700BFDC3A0020CC3A0020D0610020B5
:108F9000D43A0020D83A002008B50B4682B20231FC
:108FA0001888FFF795FF08BD70B506460C1FA30093
:108FB00023449A00124D154410220146281D0DF03D
:108FC000D2FE2946304606F01BF820B178460D4BFC
:108FD0001B689BB1984763090B4904F01F040122E9
:108FE00002FA04F451F82320224341F823200749D0
:108FF00051F82320144341F8234070BD00DEEAE716
:10900000383B0020D0610020143A0020183A00209C
:1090100008B50B46011D89B21846FFF7C5FF08BD0C
:10902000F8B506460D4605F0C9F8052E04D9784670
:109030001C4B1B6843B198471B4B1C7834B9F4B1E7
:1090400005F0DCF82046F8BD00DEF5E7174B03EB32
:109050004613598A29445A6989B2154806F02AFFED
:10906000074650B1114B03EB46139B69011D28467F
:109070009847384606F062FFE1E70024DFE70B4B34
:1090800003EB4616B268690905F01F05012303FAD0
:1090900005F552F821302B4342F82130054807F0FE
:1090A00093F8CDE7D0610020963A00201C770300AA
:1090B000983A0020BC3A002010B50A2201210A4843
:1090C00006F0F8FE002814BF0124002409D0042370
:1090D0004381012383818380C3800323038106F0BE
:1090E0002DFF204610BD00BF983A002070B50646FF
:1090F0000D4605F063F8052E04D97846164B1B681B
:1091000043B19847154B1C7834B994B105F076F803
:10911000204670BD00DEF5E7114B03EB4613598A7C
:10912000294489B20F4806F03BFFB0FA80F4640985
:10913000EBE70B4B03EB4616B268690905F01F0518
:10914000012303FA05F552F821302B4342F8213070
:10915000054807F039F8D9E7D0610020963A002099
:109160001C770300983A0020BC3A00202DE9F84F04
:1091700000264FF0010848E0A5EB421101238B4087
:10918000013B54F82210194210D1013205F11F039E
:109190005B099A4205D2013B9A42EDD04FF0FF3372
:1091A000EFE743467BBB4FF000090EE00023F9E7F1
:1091B00049463046FFF79AFF20B354F82B3023EA94
:1091C0000A0344F82B3009F10109A9451BD24FEAE3
:1091D000591B54F82B3009F01F024FF0010A0AFA0C
:1091E00002FA13EA0A0FEED00F4B03EB47135B684A
:1091F00053F82B301AEA030FDAD049463046FFF70E
:109200000FFFD9E780460136F6B2052E0AD8B8F12D
:10921000000F07D03746044A7301D1188C68D5581F
:109220000022B3E7BDE8F88F1C77030038B50328A8
:109230000BD84309374A52F8232000F01F010123BD
:109240008B401A4210D0012200E000222AB3324B98
:1092500003EB80039B78002B57D12F4B03EB80034C
:10926000DB781BB1002038BD0022EFE74409294913
:1092700000F01F03012505FA03F251F8243023EA18
:10928000020341F824300024234B23F820400146F8
:109290002846FFF72BFF204638BD031F9BB25BB962
:1092A0005C091E4951F8244003F01F03012101FA13
:1092B00003F31C4200D00A460AB9052038BD011F3D
:1092C00001EB81039A00164B13449B78FBB9144BB6
:1092D0001344DB780BB1002038BD4C090F4801F076
:1092E0001F02012303FA02F250F8243023EA02039A
:1092F00040F8243001EB810293000024084AD45244
:109300000220FFF7F3FE204638BD002038BD0020C4
:1093100038BD00BF043A00201C3A0020143A002057
:10932000383B002030B58DB005460C46012905D0EC
:10933000022C0BD0032C11D00DB030BD7846124B4F
:109340001B680BB19847F3E700DEF1E778460E4B58
:109350001B680BB19847EDE700DEEBE72C220021FC
:1093600001A80DF00BFD19238DF8043002238DF8B0
:1093700008300395054BDA6805921B69069301A82E
:1093800003F030F9D8E700BFD0610020983A002000
:1093900008B511460020FFF7C5FF08BD08B508460F
:1093A0001146FFF7BFFF08BD08B50022054B1A7034
:1093B000054806F06BFC00B908BD044806F004FF40
:1093C000FAE700BF963A0020983A0020EC310020DE
:1093D00070B505460C4616464FF6FF730B8003F03A
:1093E000B5FD3070022822D0032840D0012840D09B
:1093F000002070BD03EB83018A0020498A5A954200
:1094000012D00133ABB921884FF6FF729142F1D1EE
:109410005A091B4951F8221003F01F000122824013
:109420001142E7D12380ECE72380012070BD0023A7
:10943000E8E7002070BD134A32F82320954213D08C
:109440000133032B17D821884FF6FF729142F2D1D6
:109450005A090D4951F8221003F01F0001228240E1
:109460001142E8D12380EBE72380012070BD002367
:10947000E7E70023E5E7002070BD00BF383B002090
:10948000143A00201C3A0020043A0020002942D05F
:1094900070B582B00E46144605460DF1070201A9CB
:1094A000FFF796FF8CB99DF80730032B0DD01020E5
:1094B00048B9BDF80420328034B3184B03EB820363
:1094C0009A7801329A7002B070BD012C10D0B8B9F0
:1094D000BDF804104FF6FF73994213D02846FFF7EA
:1094E000AFFBBDF804100120FFF79AFD0020DFE775
:1094F0009DF80730032BEAD0012BE8D01020D7E7E6
:109500000020D5E70420D3E7044B03EB8203DA788D
:109510000132DA70D7E70E20704700BF1C3A0020F6
:1095200070B506460D464FF6FF730B8000240CB154
:10953000002070BD6309104A52F8232004F01F0177
:1095400001238B401A4208D12A884FF6FF739A42B2
:1095500001D00134EBE72C80FBE704EB840293009D
:10956000064818441022314604300DF0EDFB002867
:10957000EFD12C80012070BD143A0020383B002030
:1095800030B583B005460C46486820B10DF10601A0
:10959000FFF7C6FF18B94FF6FF73ADF806300DF1AF
:1095A00006012846FFF770F90246A8B1BDF806305B
:1095B00003EB830399000B4B0B44DB787BB1658095
:1095C00002232370BDF8061001EB810101FA03F0BC
:1095D000044B034404336360104603B030BD0022E3
:1095E000FAE700BF383B002038B500E020BF06F0A6
:1095F0000DFE0028FAD0394B187800B938BD01218A
:10960000374806F073FB0446002865D04389042BD5
:1096100002D18389012B03D0FFF7C6FE002038BD9D
:10962000C388012BF8D10389032BF5D18388012B43
:10963000F2D1002512E0002B31D0B3F5805F27D1A5
:10964000012000E003206988264B03EB40135B8A6E
:109650002A1DC91AFFF736FB002D37D02A460021F4
:109660001F4806F071FB05460028F5D08442F3D070
:10967000428802F47043B3F5005F1ED0DBD9B3F526
:10968000804F1FD0B3F5A04F15D0B3F5405FD9D0B0
:109690007846154B1B6893B198470020D3E7022A00
:1096A00012D07846104B1B6813B198470020CAE7C8
:1096B00000DE0020C7E70520C5E70220C3E700DE83
:1096C0000020C0E70420BEE70020BCE7074B186875
:1096D00000F00100C0B238BD00208FE7963A0020AC
:1096E000983A00201C770300D06100200C3A00203B
:1096F00008B503F02DFAA0F5805008BD10B586B06E
:10970000154B0393154B0493154B059300230293BC
:10971000FFF7EEFF00900123019304F04FFD69462F
:10972000104806F009FD48B90E4B1B78012B01D0FB
:10973000012404E0FFF7C0FC044600E0002404F02C
:109740005DFD24B10122084B1A7006B010BD074818
:1097500006F03AFDF9E700BF9D93020091930200E5
:1097600099970200983A0020963A0020FC31002098
:1097700008B5054B054A9A60054ADA600022054B98
:109780001A70FFF7BBFF08BDBC3A0020A58C020091
:109790006D910200963A002008B5FFF7AFFF08BDB3
:1097A00010B5044630B11C4B1B6813F0010F09D0F3
:1097B0000F2010BD7846194B1B680BB19847F2E794
:1097C00000DEF0E7208863880344013B984201DD16
:1097D0000B2010BD03F0BAFB012801D00B2010BDF7
:1097E00020886388184480B2013880B203F0AEFB51
:1097F000012801D00B2010BD0422214608480DF09D
:10980000B2FA054A136843F00103136000210846C9
:10981000FFF706FC002010BD0C3A0020D0610020AC
:10982000D03A002010B5044628B10422064920464B
:109830000DF099FA10BD7846044B1B680BB19847A0
:10984000F3E700DEF1E700BFD03A0020D06100204E
:1098500008B50122FFF71AFE08BD000010B4032866
:109860000BD843091F4A52F8232000F01F0101239F
:109870008B401A4215D0012200E00022AAB9031F32
:109880009BB25BB95C09184951F8244003F01F03EF
:10989000012101FA03F31C4200D00A461AB1012348
:1098A00004E00022EAE7002300E001231BB90520C1
:1098B0005DF8044B7047032807D80C4B03EB80007E
:1098C0008378013383700020F2E70438084A83006C
:1098D0001C18A1000C461144897822444B1C93703B
:1098E0000020E5E7043A0020143A00201C3A00204A
:1098F000383B002038B503280BD843091B4A52F8DF
:10990000232000F01F0101238B401A4215D00122B1
:1099100000E000229AB9031F9BB25BB95C091449AD
:1099200051F8244003F01F03012101FA03F31C4204
:1099300000D00A4662B9052038BD0022EAE70D4B87
:1099400003EB80039A78013A9A70FFF76FFC38BDF9
:10995000041F094AA3001D19A9000D461144897866
:109960002A444B1E9370FFF761FC38BD043A002077
:10997000143A00201C3A0020383B002010B4032881
:109980000BD843091F4A52F8232000F01F0101237E
:109990008B401A4215D0012200E00022AAB9031F11
:1099A0009BB25BB95C09184951F8244003F01F03CE
:1099B000012101FA03F31C4200D00A461AB1012327
:1099C00004E00022EAE7002300E001231BB90520A0
:1099D0005DF8044B7047032807D80C4B03EB80005D
:1099E000C3780133C3700020F2E70438084A8300CB
:1099F0001C18A1000C461144C97822444B1CD3709A
:109A00000020E5E7043A0020143A00201C3A002028
:109A1000383B002010B4034603280BD842091E49E6
:109A200051F8221000F01F0001228240114215D08F
:109A3000012100E00021A9B91A1F92B25AB95409B4
:109A4000164850F8244002F01F02012000FA02F2EA
:109A5000144200D0014619B1012204E00021EAE7D6
:109A6000002200E00122104642B1032B09D80C4825
:109A700000EB8303D878003018BF01205DF8044B59
:109A80007047043B03EB83039A00064B1344D878DA
:109A9000003018BF0120F1E7043A0020143A0020FA
:109AA0001C3A0020383B0020002941D038B50A4636
:109AB00003280BD843091F4951F8231000F01F0455
:109AC0000123A340194215D0012100E0002199B9DA
:109AD000031F9BB25BB95D09174C54F8255003F086
