:020000022000DC
:1040000002E00320357602005D760200814802005E
:10401000617602006376020065760200000000000F
:1040200000000000000000000000000067760200B1
:1040300069760200000000006B7602006D760200D7
:104040006F7602006F7602006F7602006F760200D4
:104050006F7602006F7602006F7602006F760200C4
:104060006F7602006F7602006F7602006F760200B4
:104070006F7602006F7602006F7602006F760200A4
:104080006F7602006F760200319502006F760200B3
:104090006F7602006F760200ED4802006F76020034
:1040A0006F7602006F7602006F7602006F76020074
:1040B0006F7602006F760200000000000000000032
:1040C0006F7602006F7602006F7602006F76020054
:1040D0006F7602006F7602006F7602006F76020044
:1040E0006F7602006F7602006F760200000000001B
:1040F000000000006F760200000000006F760200F2
:1041000000000000000000000000000000000000AF
:10411000000000000000000000000000000000009F
:10412000000000000000000000000000000000008F
:10413000000000000000000000000000000000007F
:10414000000000000000000000000000000000006F
:10415000000000000000000000000000000000005F
:10416000000000000000000000000000000000004F
:10417000000000000000000000000000000000003F
:10418000000000000000000000000000000000002F
:10419000000000000000000000000000000000001F
:1041A000000000000000000000000000000000000F
:1041B00000000000000000000000000000000000FF
:1041C00000000000000000000000000000000000EF
:1041D00000000000000000000000000000000000DF
:1041E00000000000000000000000000000000000CF
:1041F00000000000000000000000000000000000BF
:1042000010B5054C237833B9044B13B10448AFF310
:1042100000800123237010BD7832002000000000D0
:10422000D01403000C4B43B10C480D4910B5AFF34B
:1042300000800C48036823B910BD0A48036833B9ED
:104240007047094B002BF7D0BDE810401847064BCC
:10425000002BF5D0184700BF00000000D014030069
:104260007C3200207432002000000000154B002B2F
:1042700008BF134B9D46A3F5803A00218B460F469D
:104280001348144A121A0CF08FF90F4B002B00D070
:1042900098470E4B002B00D09847002000210400C7
:1042A0000D000D48002802D00C48AFF300800CF040
:1042B0002DF92000290000F095F80CF013F900BF4B
:1042C0000000080002E003200000000000000000E1
:1042D00078320020085F002000000000000000008D
:1042E0000378022B1BD0042B27D1B0F80F20B0F895
:1042F00005309A4201D000207047D0F80B20D0F84A
:1043000001309A4201D000207047D0F81120D0F837
:1043100007309A4201D30020704701207047C27ACB
:1043200043789A4201D000207047027B83789A42FA
:1043300001D3002070470120704700207047000023
:1043400010B504460378123B042B41D8DFE803F094
:10435000242B360303000430FFF7C2FF90B11F4B3C
:104360001A68611D207902F05BFF30B94FF4F0321A
:104370004FF0A043C3F8082510BD194A7B2100F077
:104380003FFAF3E7611D207902F098FF00B3144A69
:10439000812100F035FA10BD4FF420424FF0A043C8
:1043A000C3F80C2510BD4FF0A0434FF4F032C3F812
:1043B00008254FF4C042C3F80C2510BD4FF4F0326D
:1043C0004FF0A043C3F80825007902F0AFFF00B911
:1043D00010BD034A8D2100F013FAF9E7705E00204A
:1043E0004408030000B583B00D230AE01F2B0CD84E
:1043F0001A464FF0A04102F5E072032041F8220076
:104400000133102BF2D90D230EE003F01F02A34954
:10441000F1E71F2B00F2F08018464FF0A041012277
:104420008240C1F808250133102BF2D99C4A04219F
:104430004CF2870005F0A4FF9A4B1B6813F4804FE1
:1044400018D0994B1B68032B14D92F2197480CF0D7
:1044500077F9002800F0D4802F2194480CF070F9EF
:10446000411C934BD3F80435924A0092A2220420B7
:1044700005F0A2FF904A1368904909685B1A9049B9
:104480000B60136823F47F6323F00F0303F580535D
:104490008C4A1360834B1B6813F4804F1BD0824BF4
:1044A0001B68052B17D92F2180480CF049F90028EB
:1044B00000F0B3802F217D480CF042F9411C7C4B69
:1044C000D3F804357D4A126801927F4A0092AB22EC
:1044D000062005F071FF734B1B6813F4804F1BD04F
:1044E000714B1B68052B17D92F2170480CF028F948
:1044F000002800F09F802F216C480CF021F9411C0E
:104500006B4BD3F804356C4A126801926F4A0092E3
:10451000AC22062005F050FF624B1B6813F4804F5D
:104520001BD0614B1B68052B17D92F215F480CF05E
:1045300007F9002800F08B802F215C480CF000F96F
:10454000411C5B4BD3F804355D4A12680192604A06
:104550000092AD22062005F02FFF524B1B6813F48A
:10456000804F1AD0504B1B68052B16D92F214F486E
:104570000CF0E6F8002877D02F214C480CF0E0F83A
:10458000411C4B4BD3F804354E4A12680192514AF4
:104590000092AE22062005F00FFF00F0BBFA4E4855
:1045A0004E4B03600023436004F06DF83D4B1B68E5
:1045B00013F4804F17D03C4B1B68032B13D92F21CA
:1045C0003A480CF0BDF800285BD02F2137480CF09A
:1045D000B7F8411C364BD3F80435414A0092BE224D
:1045E000042005F0E9FE4FF400524FF0A043C3F859
:1045F0000C2503F031FFFCE703F01F0027490EE70D
:104600005C212A480CF09CF828B15C2127480CF06A
:1046100097F8411C25E7254923E75C2123480CF046
:104620008FF828B15C2121480CF08AF8411C46E73C
:104630001E4944E75C211D480CF082F828B15C213A
:104640001A480CF07DF8411C5AE7184958E75C21DC
:1046500016480CF075F828B15C2114480CF070F87D
:10466000411C6EE711496CE75C2110480CF068F8BA
:1046700028B15C210D480CF063F8411C81E70B491F
:104680007FE75C2109480CF05BF828B15C21074802
:104690000CF056F8411C9DE704499BE700030050CD
:1046A00055A30200FC310020F8310020440803002B
:1046B00000B00040C0070300BC310020B83100202A
:1046C000745E0020705E0020E8070300F807030016
:1046D0000808030018080300943200204143020038
:1046E0002808030048DF704710DF704760DF70471D
:1046F00061DF70474FF0A0434FF4F032C3F8082554
:10470000C3F80C25EFF3108372B60028FDD1704773
:1047100010B582B00446164B1B6813F4804F04D1C9
:104720002046FFF7E7FF02B010BD2F2111480CF023
:1047300007F878B12F210F480CF002F8411C0E4BFE
:10474000D3F8043501940D4A00924E22002005F062
:1047500033FEE5E75C2107480BF0F2FF28B15C214E
:1047600004480BF0EDFF411CE9E70249E7E700BF11
:10477000FC310020BC08030000B000400009030029
:1047800070B584B00C46194B1B6813F4804F04D0ED
:1047900005461646164B1B6823B92046FFF7AAFFAD
:1047A00004B070BD2F2113480BF0CAFF88B12F2130
:1047B00010480BF0C5FF411C0F4BD3F8043503968E
:1047C000029401950D4A00927022012005F0F4FD3B
:1047D000E3E75C2107480BF0B3FF28B15C210548F3
:1047E0000BF0AEFF411CE7E70249E5E7FC31002092
:1047F000F8310020BC08030000B00040D4090300D9
:1048000070B584B0194B1B6813F4804F05D0064671
:104810000D461446164B1B6823B90120FFF76AFFAB
:1048200004B070BD2F2113480BF08AFF88B12F21EF
:1048300010480BF085FF411C0F4BD3F8043503964D
:10484000029501940D4A00924822012005F0B4FD22
:10485000E3E75C2107480BF073FF28B15C210548B2
:104860000BF06EFF411CE7E70249E5E7FC31002051
:10487000F8310020BC08030000B000409C08030091
:1048800000B583B0154B1B6813F4804F05D1012090
:10489000FFF730FF03B05DF804FB2F2110480BF049
:1048A0004FFF70B12F210E480BF04AFF411C0D4BFA
:1048B000D3F804350C4A00925422002005F07CFD08
:1048C000E5E75C2106480BF03BFF28B15C2104487A
:1048D0000BF036FF411CEAE70149E8E7FC31002014
:1048E000BC08030000B000408C08030000B583B092
:1048F00002E0019803F0C2FE01A8FFF7F3FE0028D2
:10490000F7D05723ADF8023005E0084803F0B4FEB5
:104910005723ADF802300DF102010448FFF7E8FE1D
:104920000028F2D003B05DF804FB00BF9C320020E9
:1049300010B584B0484B1B6813F4804F03D0474B2D
:104940001B68032B36D8464B0393039B0293424BC1
:104950001B6813F4804F03D0404B1B68032B4AD8CD
:1049600002A8FFF7C3FE0446039B029A9A421ED098
:10497000394B1B6813F4804F19D0384B1B68012B3F
:1049800015D92F2137480BF0DBFE002856D02F21F8
:1049900034480BF0D5FE411C334BD3F80435029A52
:1049A0000192324A00928C22022005F005FD204639
:1049B00004B010BD2F212B480BF0C2FE70B12F2187
:1049C00028480BF0BDFE411C274BD3F80435284A7C
:1049D00000927A22042005F0EFFCB4E75C21214824
:1049E0000BF0AEFE28B15C211E480BF0A9FE411C65
:1049F000EAE71C49E8E72F211A480BF0A1FE80B135
:104A00002F2118480BF09CFE411C174BD3F804359E
:104A1000039A0192174A00928322042005F0CCFCED
:104A20009EE75C210F480BF08BFE28B15C210D48FE
:104A30000BF086FE411CE8E70A49E6E75C210948DD
:104A40000BF07EFE28B15C2106480BF079FE411C7C
:104A5000A2E70449A0E700BFFC310020F8310020A4
:104A6000B8310020BC08030000B0004098090300E2
:104A70006C0903008809030000B583B002AB43F85A
:104A8000040D20491846FFF72FFEA8B91E4B93F8D6
:104A900016335B09012B16D9042B16D0052B10D029
:104AA0000123A3B942F2020008BBFFF741FF18BB84
:104AB000002003B05DF804FB144A9321FFF7A0FE29
:104AC000E4E70023EDE70023EBE70023E9E7104BE1
:104AD0009B682BB94FF480020B4B1A600020E3E770
:104AE0000B4A136843F4800313600020DCE7074A95
:104AF0009421FFF785FED8E7044A9721FFF780FE4F
:104B0000D6E700BF8147020000E100E0BC080300D7
:104B1000785E002000B587B04F4B1B6813F4804FC0
:104B200003D04E4B1B68032B28D84D4B18680590BB
:104B3000FFF7A2FF484B1B6813F4804F03D0474B8D
:104B40001B68032B3BD800230493059B0293454B22
:104B5000039302A803F0FEFB002851D13E4B1B68D3
:104B600013F4804F03D03D4B1B68032B4DD803F04B
:104B70004BFC00286AD107B05DF804FB2F213A48AE
:104B80000BF0DEFD70B12F2137480BF0D9FD411C31
:104B9000364BD3F80435364A0092B522042005F08E
:104BA0000BFCC2E75C2130480BF0CAFD28B15C2148
:104BB0002D480BF0C5FD411CEAE72B49E8E72F2102
:104BC00029480BF0BDFD70B12F2127480BF0B8FD2F
:104BD000411C264BD3F80435264A0092BF220420FC
:104BE00005F0EAFBAFE75C211F480BF0A9FD28B1F7
:104BF0005C211D480BF0A4FD411CEAE71A49E8E7D7
:104C0000194AC421FFF7FCFDA8E72F2116480BF035
:104C100097FD70B12F2114480BF092FD411C134BEE
:104C2000D3F80435144A0092C622042005F0C4FBD0
:104C30009DE75C210C480BF083FD28B15C210A48FC
:104C40000BF07EFD411CEAE70749E8E7064AC72169
:104C5000FFF7D6FD8FE700BFFC310020F8310020C0
:104C60008808030011470200BC08030000B00040A0
:104C70001C090300380903005409030002460E4BC7
:104C80001B6813F0010F0AD00C4B1B8898420FD3FE
:104C90000A48408803449A420CDB002300E00023CA
:104CA000184623B14A8001230B7000234B607047E4
:104CB0000023F5E70123F3E7F83200200C3400204D
:104CC0004FF6FF730B8000230F2B25D830B40DE077
:104CD0005A09124C54F8224003F01F050122AA4041
:104CE000144208D10B8001330F2B12D80C884FF6D9
:104CF000FF729442ECD00A4A32F823208242F2D169
:104D0000074A02EB8302D278002AECD00B80012004
:104D100000E0002030BC704700207047F4320020D3
:104D20000033002030B583B005460C460DF1060176
:104D3000FFF7C6FF034620B16580032222700022E0
:104D40006260184603B030BD0B88072B01D80133D1
:104D500000E000234FF6FF720A80072B1DD830B405
:104D600009E003EB8304A2000D4CA25A82420ED04C
:104D70000133072B0ED85A090A4C54F8224003F08D
:104D80001F050122AA401442EBD10B80F0E70B80F3
:104D9000012000E0002030BC70470020704700BFB9
:104DA00084350020FC32002010B5044628B10F4B9A
:104DB0009C420AD24FF6FF7010BD78460C4B1B6820
:104DC0000BB19847F3E700DEF1E703F58A739C42E5
:104DD00002D94FF6FF7010BDA3F58A70201A054C5A
:104DE000A4FB0030C0F38F1010BD00BF263400209C
:104DF000885E0020C94216B210B5044628B10F4B98
:104E00009C420AD24FF6FF7010BD78460C4B1B68CF
:104E10000BB19847F3E700DEF1E703F58A739C4294
:104E200002D94FF6FF7010BDA3F58A70201A054C09
:104E3000A4FB0030C0F38F1010BD00BF5034002021
:104E4000885E0020C94216B210B5044658B1144B12
:104E50009C4202D39A339C420DD9124B9C4213D2EE
:104E60004FF6FF7010BD78460F4B1B680BB198478B
:104E7000EDE700DEEBE7A3F19A00201A0B4CA4FB50
:104E80000030C0F30F1010BD02D94FF6FF7010BDF7
:104E9000E01A064CA4FB00300009083080B210BDB7
:104EA00048330020F8330020885E0020A38B2EBA00
:104EB000A8B110B4044600236BB9162202FB03F21A
:104EC00008498A5A944201D00133F5E7162202FBC1
:104ED0000313181D00E000205DF8044B704700200C
:104EE000704700BFF433002070B505460E461446E7
:104EF000106818B1FFF7A8FF013002E0002000E0C1
:104F0000013007281FD84309104A52F8232000F027
:104F10001F0101238B401A42F2D016230C4A03FBD7
:104F200000235B88AB42EBD1162303FB00235B79A4
:104F3000734013F03F0FE3D11622054B02FB003301
:104F40000433236070BD0023236070BD4033002014
:104F50004433002070B506460D464FF6FF730B80B4
:104F600000240BE004EB8402930010481844102244
:104F7000314604300BF0FEFA98B10134072C13D8F7
:104F800063090B4A52F8232004F01F0101238B40D0
:104F90001A42E7D12A884FF6FF739A42EDD12C804E
:104FA000EBE72C80012070BD002070BD843500200F
:104FB000FC32002030B583B005460C46486820B16D
:104FC0000DF10601FFF7C6FF18B94FF6FF73ADF8F4
:104FD00006300DF106012846FFF7B6FE0246A8B1DD
:104FE000BDF8063003EB830399000B4B0B44DB78D1
:104FF0007BB1658002232370BDF8061001EB8101AF
:1050000001FA03F0044B034404336360104603B019
:1050100030BD0022FAE700BF8435002038B50446D1
:105020000D4629B1286858B1FFF7BEFE01300AE0ED
:105030007846154B1B680BB19847F3E700DEF1E7A4
:10504000002000E0013003281BD843090F4A52F822
:10505000232000F01F0101238B401A42F2D05C2371
:105060000B4A03FB00239B7C634013F07F0FE9D1C5
:105070005C2303FB00F010301346034402332B6023
:1050800038BD00232B6038BD885E0020103400201E
:105090001434002070B504460E46154662B19CB12A
:1050A0002046FFF781FE4FF6FF73984214D02A4640
:1050B0003146FFF719FF70BD7846094B1B680BB1ED
:1050C0009847ECE700DEEAE77846054B1B680BB132
:1050D0009847E5E700DEE3E700232B6070BD00BFE3
:1050E000885E002038B505460C4621B12846FFF7FA
:1050F000DFFE206038BD7846034B1B680BB1984734
:10510000F4E700DEF2E700BF885E002070B50546D8
:105110000E4629B1306858B1FFF76EFE441C19E005
:105120007846214B1B680BB19847F3E700DEF1E7A7
:1051300000240FE0012100E001211C4B5C2202FB56
:1051400004F41A1982F83C103834234404333360D1
:1051500070BD0134032C24D86309154A52F823206A
:1051600004F01F0101238B401A42F2D065B15C218B
:1051700001FB04F150310D4B19440822043128463B
:105180000BF0F8F90028E4D10A4B1B78002BD3D0A0
:105190005C2303FB04F3054AD35A002BCAD0002139
:1051A000CBE70023336070BD885E002014340020FC
:1051B000103400200A34002038B504460D4603F0B0
:1051C000BDF802280FD0032808D0012801D0002004
:1051D00038BD29462046FFF751FD38BD29462046F7
:1051E000FFF7A0FD38BD29462046FFF7E3FE38BD96
:1051F00008B5D0F8AC319B68984708BD08B5D0F821
:10520000AC31DB68984708BD70B582B004460D46E6
:1052100016461A4B1B6813F0080F03D0184B1B6877
:10522000032B08D8D4F8AC311B68324629462046F7
:10523000984702B070BD2F2112480BF081FA80B15F
:105240002F2110480BF07CFA411C0F4BD3F804358A
:105250002A7801920D4A0092DF22042005F0ACF872
:10526000E0E75C2107480BF06BFA28B15C210548A8
:105270000BF066FA411CE8E70249E6E7FC31002042
:10528000F8310020F409030000B000403C0A03009C
:1052900008B5D0F8AC315B68984708BD70B58CB0E4
:1052A0000C461546064670B1162C06D0122C04D0BA
:1052B0007846254B1B6873B1984775B1234B1B7813
:1052C0009BB90CB070BD78461F4B1B680BB198475B
:1052D000EAE700DEE8E700DEEFE778461A4B1B68F6
:1052E0000BB19847EAE700DEE8E72C22002101A88D
:1052F0000BF05AF908951022314602A80BF049F933
:105300002B78012B14BF002301238DF818300323C1
:105310008DF80430162C0BD000218DF819100422C2
:105320000DF11A000BF040F901A802F0B9F9C8E735
:1053300001238DF81930042206F112010DF11A0033
:105340000BF027F9F0E700BF885E0020C031002095
:10535000EFF3108172B6074B1B6833B193F89920B5
:10536000824202D0D3F8A831F7E701B962B61846F5
:10537000704700BF24360020EFF3108172B6074B50
:105380001B6833B1D3F89420824202D0D3F8A831FD
:10539000F7E701B962B61846704700BF243600200F
:1053A00070B50546164B1B6853B1EFF3108672B605
:1053B000134B1C68AC420ED1D5F8A8211A601BE033
:1053C0007846104B1B680BB19847EEE700DEECE720
:1053D00000DED4F8A841D4F8A8319D4208D0002BB3
:1053E000F7D17846074B1B68002BF1D09847F0E7C0
:1053F000D5F8A831C4F8A83106B962B670BD00BFAF
:1054000024360020885E002038B504460D4690F80A
:105410009930023BDBB2022B04D97846134B1B6850
:10542000FBB198472046FFF7BBFF94F89830012B5B
:1054300004D078460D4B1B68ABB19847204607F067
:1054400083F8002384F8983084F8D83084F89930B1
:1054500004F1B80003F0F4FA29462046FFF7CEFE27
:1054600038BD00DEDEE700DEE8E700BF885E002032
:1054700008B5023106F062FF08BD00002DE9F041D9
:105480000646884615461F461146FFF7F1FF38B31A
:1054900004466B1C4374292383742A464146133007
:1054A0000BF077F82771EFF3108772B6D6F8A0519A
:1054B0000135C6F8A051B5F1FF3F09D007B962B672
:1054C00025602146304606F087FF0020BDE8F081C8
:1054D0007846054B1B680BB19847EFE700DEEDE718
:1054E0000420BDE8F08100BF885E002010B588B0C0
:1054F000D0F89420130203F47F0343EA0263140AF2
:1055000004F47F44234343EA1263009300238DF89D
:1055100004309DF8053043F00303022262F3870351
:105520008DF805308DF80610042307226946FFF731
:10553000A5FF08B010BD000038B50D460446F8B10F
:10554000022D04D97846174B1B680BB3984794F883
:1055500099302BB3042B23D0023BDBB2012B04D9AF
:105560007846104B1B68ABB1984729462046FFF799
:10557000BDFF88B9042384F8993084F89C5038BD65
:105580007846084B1B680BB19847D9E700DED7E790
:1055900000DEDCE700DEE8E729462046FFF734FFBF
:1055A00038BD00BF885E002010B588B0D0F89420C8
:1055B000130203F47F0343EA0263140A04F47F44F2
:1055C000234343EA126300938DF804109DF80520ED
:1055D000012363F301026FF387028DF80520062291
:1055E0006946FFF74BFF08B010BD00B589B0D0F891
:1055F0009420130203F47F0343EA0263110A01F4C7
:105600007F410B4343EA1263009300238DF804307B
:105610009DF8052042F00302012363F387028DF811
:10562000052006226946FFF729FF09B05DF804FB53
:1056300030B583B090F8D830022B1FD03F4B1B6899
:1056400013F0080F18D03E4B1B68012B14D92F21E3
:105650003C480BF075F8002862D02F2139480BF038
:105660006FF8411C384BD3F80435384A009240F2A9
:105670000A32022004F0A0FE03B030BD04460A79CD
:1056800090F89B309A42D9D12C4B1B6813F0080F2D
:1056900003D02B4B1B68032B1DD80025C4F8AC503E
:1056A00004F1A00003F0CCF9204606F04DFF94F879
:1056B0009B30013384F89B3084F8D85003F09AFA79
:1056C000D4F8D410014404F1B80003F0EFF92046F7
:1056D000FFF7DEFDD0E72F211A480BF031F890B12B
:1056E0002F2118480BF02CF8411C174BD3F8043528
:1056F00094F8DC200192164A00924FF43E72042086
:1057000004F05AFEC9E75C210E480BF019F828B1E5
:105710005C210C480BF014F8411CE6E70949E4E76A
:105720005C2108480BF00CF828B15C2105480BF00F
:1057300007F8411C96E7034994E700BFFC310020BD
:10574000F8310020D40D030000B000402C0C030001
:10575000100C030070B582B005464B799B08012BF5
:1057600000F0A2800C462BB3022B00F01781B74B40
:105770001B6813F0080F1FD0B54B1B68012B1BD9FA
:105780002F21B4480AF0DCFF002800F08F812F2180
:10579000B0480AF0D5FF411CAF4BD3F8043562790D
:1057A00092080192AD4A00924FF45B72022004F01D
:1057B00003FE01E0162A01D002B070BD8E1D01F07B
:1057C0006BFF1022014630460AF0D4FE0028F3D1C8
:1057D0007DB1002DF0D095F89930012B0ED0032B20
:1057E000EAD195F8D830002BE6D12846FFF7FDFE28
:1057F000E2E70120FFF7ACFD0546EAE72268130265
:1058000003F47F0343EA0263110A01F47F410B436F
:1058100043EA1263C5F894301421284606F044FE8A
:105820002846FFF7E2FE00283AD1884B1B6813F0A8
:10583000080F03D0864B1B68032B0FD8032385F872
:10584000993003F0D7F9D5F8D410014405F1B80028
:1058500003F02CF92846FFF7CBFCADE72F217D485C
:105860000AF06EFF78B12F217A480AF069FF411CD7
:10587000794BD3F804357A4A009240F22B32042057
:1058800004F09AFDDAE75C2172480AF059FF28B16A
:105890005C2170480AF054FF411CE9E76D49E7E7D5
:1058A0000023C5F8943087E7002885D0062A83D1E5
:1058B00090F89930022B23D0644B1B6813F0080F2B
:1058C0003FF47AAF624B1B68012B7FF675AF2F2137
:1058D00060480AF035FF002853D02F215D480AF0B8
:1058E0002FFF411C5C4BD3F8043595F899200192A9
:1058F0005C4A00924FF45472022004F05DFD5BE7B5
:1059000006F022FE1421284606F0CEFD4F4B1B6800
:1059100013F0080F03D04E4B1B68032B0FD8032343
:1059200085F8993003F066F9D5F8D410014405F1F3
:10593000B80003F0BBF82846FFF75AFC3CE72F21DC
:1059400044480AF0FDFE78B12F2142480AF0F8FEE3
:10595000411C414BD3F80435414A00924FF4527236
:10596000042004F029FDDAE75C213A480AF0E8FE59
:1059700028B15C2137480AF0E3FE411CE9E73549CC
:10598000E7E75C2133480AF0DBFE28B15C213148AF
:105990000AF0D6FE411CA5E72E49A3E700283FF4F4
:1059A0000BAF072A7FF408AF90F89930023BDBB2C7
:1059B000012B23D9254B1B6813F0080F3FF4FCAED5
:1059C000234B1B68012B7FF6F7AE2F2121480AF0ED
:1059D000B7FE00285DD02F211E480AF0B1FE411C01
:1059E0001D4BD3F8043595F8992001921E4A009278
:1059F00040F26732022004F0DFFCDDE690F8D83098
:105A0000022B35D0A1792846FFF7FEFC0F4B1B680F
:105A100013F0080F3FF4D0AE0D4B1B68032B7FF63D
:105A2000CBAE2F210B480AF08BFE28B32F2109485B
:105A30000AF086FE411C084BD3F804350B4A00924D
:105A400040F26232042004F0B7FCB5E6FC310020DD
:105A5000F8310020D40D030000B00040E80B030033
:105A6000500B0300680B0300B40B03009C0B0300F6
:105A7000A03002F0E5FFC5E75C2113480AF060FEA4
:105A800028B15C2110480AF05BFE411CD3E70E49A7
:105A9000D1E75C210C480AF053FE28B15C210A488A
:105AA0000AF04EFE411C9BE7074999E75C21064836
:105AB0000AF046FE28B15C2103480AF041FE411C71
:105AC0006AE6014968E600BFD40D03000022FF2307
:105AD0008A420CDA10B4845C6340064CE35C013209
:105AE0008A42F8DBD843C0B25DF8044B7047D84314
:105AF000C0B27047500A03002DE9F04393B0074647
:105B00000C4690460B78012B04D078461B4B1B6843
:105B10006BB19847A678251D61782846FFF7D6FF18
:105B2000864206D00023237013B0BDE8F08300DE68
:105B3000F0E797F89A103846FFF736FD4FF0000966
:105B400084F8039008F1010887F89A806678324655
:105B5000294601A80AF01DFD84F8009003F04AF8D8
:105B6000D7F8D410014407F1B80002F09FFF324685
:105B700001A93846FFF748FBD6E700BF885E002042
:105B800070B584B004460D4690F8D830002B61D132
:105B9000097990F89A3099422BD3EB881B0A80F848
:105BA000D93002339049A1FB03131B090133DBB247
:105BB000072B1AD82B7A80F8DA30012380F8D830F6
:105BC00080F8DB30A2F10906324605F10901DC302C
:105BD0000AF0DFFC94F8D9309E4217D12A7904F1FB
:105BE000D8012046FFF788FF10E00221FFF7A4FC50
:105BF0000CE07E4B1B6813F0080F03D07C4B1B6836
:105C0000042B05D829792046FFF7CEFC04B070BDDF
:105C10002F2178480AF094FD78B12F2175480AF0B9
:105C20008FFD411C744BD3F80435744A009240F246
:105C3000A322052004F0C0FBE4E75C216D480AF0D4
:105C40007FFD28B15C216B480AF07AFD411CE9E731
:105C50006849E7E7022B1FD0644B1B6813F0080F5D
:105C6000D4D0634B1B68012BD0D92F2161480AF097
:105C700067FD002800F0AB802F215E480AF060FD30
:105C8000411C5D4BD3F804355D4A009240F2BD22C1
:105C9000022004F091FBB9E70A7990F89A309A4211
:105CA0002FD2524B1B6813F0080F03D0504B1B68C8
:105CB000042B04D829792046FFF776FCA6E72F218C
:105CC0004C480AF03DFD78B12F214A480AF038FDD2
:105CD000411C494BD3F80435484A009240F2AF22A8
:105CE000052004F069FBE5E75C2142480AF028FD45
:105CF00028B15C213F480AF023FD411CE9E73D49FA
:105D0000E7E79A4231D9394B1B6813F0080F3FF48B
:105D10007DAF374B1B68012B7FF678AF2F213548BD
:105D20000AF00EFDA0B12F2132480AF009FD411CF6
:105D3000314BD3F804352A7994F89A0002900192F5
:105D4000304A00924FF42D72022004F035FB5DE7DB
:105D50005C2128480AF0F4FC28B15C2125480AF0AF
:105D6000EFFC411CE4E72349E2E7204B1B6813F0FA
:105D7000080F3FF44BAF1E4B1B68042B7FF646AF5A
:105D80002F211C480AF0DCFCA0B12F2119480AF091
:105D9000D7FC411C184BD3F804352A7994F89A00A3
:105DA00002900192184A00924FF42E72052004F0DE
:105DB00003FB2BE75C210F480AF0C2FC28B15C21F1
:105DC0000C480AF0BDFC411CE4E70A49E2E75C210B
:105DD00008480AF0B5FC28B15C2106480AF0B0FC7E
:105DE000411C4EE703494CE7C94216B2FC31002082
:105DF000F8310020D40D030000B00040C80C0300AF
:105E0000A00D0300180D0300640D030030B585B02C
:105E100004460D4690F8D830012B2ED0097990F821
:105E20009A309942C0F08F80994240F28E804E4B5A
:105E30001B6813F0080F00F088804C4B1B68012B87
:105E400040F283802F214A480AF07AFC00287ED055
:105E50002F2147480AF074FC411C464BD3F8043507
:105E60002A7994F89A0002900192434A009240F2F3
:105E7000EE22022004F0A0FA67E0097990F89A3047
:105E800099421ED0384B1B6813F0080F5DD0374B7A
:105E90001B68012B59D92F2135480AF051FC0028E5
:105EA00044D02F2132480AF04BFC411C314BD3F82F
:105EB0000435324A009240F2E222022004F07CFAD9
:105EC00043E090F8DB106B799B08194111F0010F4A
:105ED0003BD1013B03EB4300C3EBC00303F1EC00F8
:105EE0002044063AA91D04300AF053FB6A7992084F
:105EF000012000FA02F194F8DB200A43D2B284F8C0
:105F0000DB20024494F8D93002331D49A1FB03136E
:105F10001B090344DBB200FA03F39A4215D12A7934
:105F200004F1D8012046FFF7E7FD0EE05C211048A0
:105F30000AF006FC28B15C210D480AF001FC411C66
:105F4000B4E70B49B2E7FFF72FFB05B030BD5C218A
:105F500007480AF0F5FB28B15C2105480AF0F0FB80
:105F6000411C7AE7024978E7FC310020F831002033
:105F7000D40D030000B00040800C03004C0C030063
:105F8000C94216B270B50D4616460446B8B1F6B110
:105F90002068030203F47F0343EA0063020A02F469
:105FA0007F42134343EA1060FFF7E6F9637903F099
:105FB0000303032B34D8DFE803F0121C252F7846A7
:105FC000184B1B680BB19847E1E700DEDFE7784626
:105FD000144B1B680BB19847DAE700DED8E7F8B13D
:105FE00090F89930032B1BD12A462146FFF7C8FDB4
:105FF00070BDA8B190F89930032B11D12146FFF75D
:1060000017FB70BD60B190F89930032B08D12A4678
:106010002146FFF7FBFE70BD2A462146FFF79AFB9B
:1060200070BD00BF885E002002280BD004280FD06E
:10603000012801D0062070470B4B1B681B880B8082
:1060400000207047084B1B685B880B80002070475E
:10605000054B1B6853F8040F5A6808604A601B8997
:106060000B810020704700BFF837002008B5837906
:10607000012B15D043B1022B1BD07846134B1B6864
:1060800003B39847002008BD026890F8211001234F
:106090008B40013B0E4901FB03238088184408BD57
:1060A000026890F821300A4901FB032380881844D4
:1060B00008BD026890F82130064901FB032380885F
:1060C000184408BD00DE002008BD00BF885E002027
:1060D000A086010080969800028C4FF6FF739A42CA
:1060E00009D090F8212090F820309A4202D3002362
:1060F00080F8203070470160002380F8213070471D
:1061000002884FF6FC739A4200D0704730B444883E
:10611000002C3FD0002300E00133072B3AD803EBDB
:10612000C30291001C4A0A4492F82020002AF3D0AE
:10613000194A0A44B2F807104FF6FC729142EBD1AB
:1061400003EBC3029100144A0A44B2F809209442B6
:10615000E2D1114A0A44D2F80B1042689142DBD1D5
:1061600003EBC30291000C4A0A4492F82220FF2A52
:10617000D2D0EFF3108472B60749DA00D518A80020
:106180000546084490F822002944431C81F8223037
:1061900004B962B630BCB8E7C03600200246D0B1C0
:1061A0004FF010235B69B3F1FF3F16D04FF08051E1
:1061B00048690B6903FB00F3934201D81020704734
:1061C0004FF010235B699A4201D210207047044BB4
:1061D0001A60002070470E2070470620704700BFED
:1061E000845E00207047000090F8213090F8202055
:1061F000934200D3704710B50446013380F8213034
:10620000024802F03BFEA08010BD00BF8436002093
:1062100008B5064802F014FC054B00221A70DA811A
:106220001A825A7001221A7308BD00BF94360020EA
:10623000AC36002010B58CB013238DF804300D4A15
:1062400053788DF80930134653F8024F5968CDF84A
:106250000A40CDF80E101B89ADF8123013788DF876
:1062600008308DF81400FFF7D3FF01A801F018FAE9
:106270000CB010BDAC3600202DE9F04F93B00446B1
:106280000378712B00F26584DFE813F072002904B3
:106290002E026304630463046304630463046304FD
:1062A00063046304630463046304630463046304B6
:1062B00063046304630463046304630463046304A6
:1062C000630463046304630463046304A300D700EA
:1062D0001D016F01EC01FE016304630463046304A8
:1062E0006304630463046304630463046304630476
:1062F0006304630463046304630463046304630466
:106300006304630463046304630463046304630455
:106310006304630463046304630463046304630445
:106320006304630463046304630463047602880201
:106330006304630463046304630463046304630425
:10634000630463046304630463046304A7027603C1
:10635000A5036304630463046304630463046304C4
:10636000630463046304630463046304BA03F7030C
:10637000AF4B1B6813F0800F00F01984AD4B1B6806
:10638000032B01D8002031E02F21AB480AF0D8F9C7
:1063900090B12F21A8480AF0D3F9411CA74BD3F89C
:1063A000043504340194A64A009240F27B12042082
:1063B00004F002F8002019E05C219F480AF0C0F9BF
:1063C00028B15C219C480AF0BBF9411CE6E79A49D8
:1063D000E4E7974B1B6813F0800F03D0954B1B68C5
:1063E000032B06D82079FFF725FF002013B0BDE866
:1063F000F08F2F2190480AF0A3F988B12F218E4801
:106400000AF09EF9411C8D4BD3F804352279019294
:106410008C4A009240F27F12042003F0CDFFE1E7A6
:106420005C2185480AF08CF928B15C2182480AF089
:1064300087F9411CE7E78049E5E77D4B1B6813F0CE
:10644000800F03D07B4B1B68032B16D816238DF8C7
:106450001C3060798DF8200054F8062F6368CDF861
:106460002120CDF825302389ADF829300DF12B01FD
:10647000FFF7DAFD18B30020B8E72F216E480AF0C5
:106480005FF978B12F216C480AF05AF9411C6B4B27
:10649000D3F804356C4A00924FF4C372042003F021
:1064A0008BFFD3E75C2164480AF04AF928B15C21EC
:1064B00061480AF045F9411CE9E75F49E7E707A8A9
:1064C00001F0EEF8D7E75A4B1B6813F0800F03D0AA
:1064D000584B1B68032B06D82379022B25D0032B9E
:1064E0003CD0062082E72F2153480AF029F978B1E1
:1064F0002F2151480AF024F9411C504BD3F80435A0
:10650000524A00924FF4CB72042003F055FFE3E7A8
:106510005C2149480AF014F928B15C2146480AF088
:106520000FF9411CE9E74449E7E710238DF81C30D7
:10653000A3798DF82030234653F8071F5A68CDF809
:106540002110CDF825201B89ADF82930637C8DF80A
:106550002B3007A801F0A4F8002047E711238DF89D
:106560001C30A3798DF82030F3E7314B1B6813F012
:10657000800F03D02F4B1B68032B32D82279012ABE
:1065800051D00921324B197331490025CD810B4679
:1065900003F8022B224652F8066F5068C1F80260D9
:1065A000586012891A8112238DF81C3063798DF896
:1065B0002130CDF82260CDF82600ADF82A202379CD
:1065C0008DF8203007A801F06BF8224C224BA36015
:1065D00002F010FB21490144204602F067FA2846E8
:1065E00004E72F2114480AF0ABF878B12F211248A4
:1065F0000AF0A6F8411C114BD3F80435184A009252
:106600004FF4D772042003F0D7FEB7E75C210A48A5
:106610000AF096F828B15C2107480AF091F8411C6D
:10662000E9E70549E7E70521094B1973ACE700BF26
:10663000FC310020F8310020500E030000B0004073
:10664000B00E0300BC0E0300D80E0300E80E0300DA
:10665000AC36002094360020B170020080F0FA02BF
:10666000000F0300AA4BDA890132DA81C2881A824C
:10667000A84CA94BA36002F0BDFAA84901442046EA
:1066800002F014FA0020B1E6A54B1B6813F0800F4E
:1066900003D0A44B1B68032B04D80020FFF7CAFDCE
:1066A0000020A3E62F21A0480AF04AF878B12F2154
:1066B0009D480AF045F8411C9C4BD3F804359C4A90
:1066C00000924FF4E772042003F076FEE5E75C21C8
:1066D00095480AF035F828B15C2193480AF030F863
:1066E000411CE9E79049E7E78D4B1B6813F0800FE9
:1066F00003D08C4B1B68032B1CD814238DF81C3043
:1067000023798DF82030234653F8061F5A68CDF8B8
:106710002110CDF825201B89ADF82930E3690B93B2
:10672000236A0C9363798DF8343007A800F0B8FF22
:1067300000205BE62F217C480AF002F878B12F2177
:10674000794809F0FDFF411C784BD3F80435794AAC
:10675000009240F2D512042003F02EFECDE75C211A
:10676000714809F0EDFF28B15C216F4809F0E8FF9E
:10677000411CE9E76C49E7E74368C3F30B020AB140
:10678000102033E602228DF81C20089383680993B9
:10679000002207A9104601F0B1FC27E6436813F078
:1067A000030F01D0102021E6826812F0030F01D000
:1067B00010201BE6C16811F0030F01D0092015E677
:1067C00001218DF81C1008930A92C36809930022D6
:1067D00007A9104601F092FC08E6514B1B6813F024
:1067E000800F03D04F4B1B68032B62D8A67B06EBB0
:1067F000C6039A00504B134493F8203033B3484BF0
:106800001B6813F0800F21D0464B1B68012B1DD94C
:106810002F21454809F094FF002800F09B802F218C
:10682000414809F08DFF411C404BD3F8043506EB7D
:10683000C6029500404A2A4492F8212001923F4A1C
:10684000009240F21622022003F0B6FDDFF8E89035
:10685000F700BB194FEA830A09EB0A054FF0000B5A
:1068600085F820B002F0C6F98046237BAB7185F82D
:1068700021B085F822B0A5F804B0314802F0FEFA44
:1068800018FA80F000F57A7049F80A00A368EB77EF
:10689000A2686168E81D09F07CFE637B85F8203002
:1068A00059F80A10274B5B68CB1A5B455FDB002069
:1068B0009CE52F211C4809F043FFD0B12F211A4835
:1068C00009F03EFF411C194BD3F80435A27B607BD5
:1068D000257BDDB91C4D66683688049603950290C9
:1068E00001921A4A00924FF40472042003F064FDEE
:1068F0007CE75C210C4809F023FF28B15C210A48A1
:1069000009F01EFF411CDEE70749DCE7104DE2E716
:10691000AC36002094360020B170020080969800BA
:10692000FC310020F8310020500E030000B0004080
:106930000C0F0300180F0300C0360020680F03007F
:1069400084360020E0370020980E0300300F03004B
:10695000A40E03005C219A4809F0F2FE28B15C21E4
:10696000974809F0EDFE411C5EE795495CE79548C4
:1069700002F09CF8584639E5934B1B6813F0800FE2
:1069800000F01781914B1B68032B01D800202DE5E7
:106990002F218B4809F0D4FE80B12F21884809F0BF
:1069A000CFFE411C8A4BD3F804358A4A009240F24C
:1069B0003122042003F000FD002017E55C2180480F
:1069C00009F0BEFE28B15C217D4809F0B9FE411CEA
:1069D000E8E77B49E6E70379072B01D9072005E5BE
:1069E00003EBC30291007C4A0A4492F820200AB9C2
:1069F0000820FBE4784B0B44002083F82000F5E4EA
:106A0000764E774BB36002F0F5F8A5680544294649
:106A1000304602F04BF86C4B1B6813F0800F00F00F
:106A2000CA806A4B1B68032B01D80020DEE42F21AB
:106A3000634809F085FE98B12F21614809F080FE76
:106A4000411C634BD3F804350295A2680192654A54
:106A500000924FF41272042003F0AEFC0020C5E453
:106A60005C21574809F06CFE28B15C21544809F0BC
:106A700067FE411CE5E75249E3E7534B1B6813F0FF
:106A8000800F03D0514B1B68032B04D8534801F0EF
:106A9000D7FF0020AAE42F21494809F051FE88B110
:106AA0002F21474809F04CFE411C494BD3F80435CF
:106AB000626801924C4A009240F24D22042003F099
:106AC0007BFCE3E75C213E4809F03AFE28B15C21FB
:106AD0003B4809F035FE411CE7E73949E5E73A4B09
:106AE0001B6813F0800F02D0384B1B6833B978460F
:106AF0003E4B1B6853B39847002077E42F21304862
:106B000009F01EFEA8B12F212D4809F019FE411CE5
:106B10002F4BD3F80435E2680392A26802926268B0
:106B20000192334A009240F25522012003F044FCC6
:106B3000DDE75C21224809F003FE28B15C212048F2
:106B400009F0FEFD411CE3E71D49E1E700DE0020FE
:106B50004CE41D4B1B6813F0800F01D1062045E467
:106B60001A4B1B68012B28D92F21154809F0E8FD85
:106B700080B12F21124809F0E3FD411C144BD3F8DA
:106B800004351C4A009240F25922022003F014FC02
:106B900006202BE45C210A4809F0D2FD28B15C21D3
:106BA000074809F0CDFD411CE8E70549E6E700206C
:106BB0001CE400201AE4002018E4062016E400BFBC
:106BC000500E0300E0370020FC310020F831002097
:106BD00000B000409C0F0300C03600209436002017
:106BE0003D710200AC0F0300CC0F0300885E002053
:106BF000E00F0300F80F0300154B93F830300BB192
:106C00000020704710B50A460146D0B200F10A04D0
:106C1000104B5C7003305872162098726FF01B0096
:106C2000D8726FF00100187303F10D0009F0B1FC88
:106C3000074805F071FF48B17846074B1B6813B150
:106C40009847012010BD00DE012010BD012010BDBD
:106C50005036002028360020885E00202DE9F041C3
:106C6000064600F10045013D002427E097F8223058
:106C7000012B13D93846FFF7B7FA04EBC4039A0087
:106C8000254B1344002283F8222041463846FFF763
:106C900023FA3846FFF7EAF9804627E0E300234469
:106CA0009A001D481044C17F0730FFF7A5FF002858
:106CB000E3D03846FFF798FADFE70134072C24D8F1
:106CC00004EBC4039A00144B134493F82030002BB8
:106CD000F3D004EBC40293000F4F1F443846FFF774
:106CE000C5F98046831BB3F57A7FBFD404EBC40398
:106CF0009A00094B134493F82030002BDDD0A8EB09
:106D00000503002BD9DA4546D7E72946034801F0A9
:106D1000CDFEBDE8F08100BFC0360020E037002086
:106D200010B582B0684605F01FFC0A4C06220DF132
:106D30000101E01C09F02DFC9DF80020C2F3400287
:106D4000237862F38613022262F30303237002B0F6
:106D500010BD00BF2836002010B582B0224B1B6842
:106D600083B1044600283CD0012001F0A9FA1E4B53
:106D70001B68204698470446002001F0A1FA2046EF
:106D800002B010BD194B1B6813F0800F01D106240F
:106D9000F5E7174B1B680BB90624F0E72F211548C0
:106DA00009F0CEFC80B12F21124809F0C9FC411C2A
:106DB000114BD3F80435114A009240F2853201207C
:106DC00003F0FAFA0624DAE75C210A4809F0B8FC75
:106DD00028B15C21074809F0B3FC411CE8E70549EC
:106DE000E6E70E24CBE700BF845E0020FC310020E4
:106DF000F8310020500E030000B000405010030096
:106E000070B592B04FF08053D3F80C3103F50023E6
:106E10009B0253F8040CFFF7C1F930B10122354B46
:106E20001A730624204612B070BD334802F066F88B
:106E3000324A334B93600023D36013615361314A6C
:106E400031499160D360136153610C930D930F939B
:106E50001093119301238DF834302C4A0E928DF843
:106E60003C3008228DF83D208DF83E300CA8FFF70D
:106E700073FF044618B101221E4B1A73D2E7FFF7C5
:106E80004FFF234B234A1A62032283F82C20224906
:106E900099629A7725225A7700221A771F495962F8
:106EA0001F49996130238DF818300223ADF81C304A
:106EB000089206A8FFF750FF044618B101220D4BB7
:106EC0001A73AFE7174B089A1A60002500950195D1
:106ED000029503950495059501268DF80060684696
:106EE000FFF73AFF04461049284601F0F1F8014B3C
:106EF0001E7397E7AC3600208436002094360020BD
:106F00003D710200E03700205D6C020079620200F2
:106F100050360020D6BE898E4C100300E561020079
:106F200028360020F83700202D6F020010B588B0F9
:106F30000C4620B17846564B1B689BB19847237886
:106F4000022B43D0032B73D0012B0DD07846504B2E
:106F50001B68002B00F09A80984702A8FFF7FCFE00
:106F600008B010BD00DEEAE760238DF80830E36862
:106F70000393484B1B6813F0800FEED0464B1B6801
:106F8000032BEAD92F21454809F0DAFB88B12F21DC
:106F9000424809F0D5FB411C414BD3F80435E26867
:106FA0000192404A00924FF4A272042003F004FAC6
:106FB000D3E75C21394809F0C3FB28B15C2137488D
:106FC00009F0BEFB411CE7E73449E5E761238DF892
:106FD0000830636803932F4B1B6813F0800FBCD0FD
:106FE0002D4B1B68032BB8D92F212C4809F0A8FB87
:106FF00088B12F21294809F0A3FB411C284BD3F865
:10700000043562680192284A009240F24912042035
:1070100003F0D2F9A1E75C21204809F091FB28B1E7
:107020005C211E4809F08CFB411CE7E71B49E5E7A2
:1070300062238DF80830174B1B6813F0800F8CD03B
:10704000154B1B68032B88D92F21144809F078FBB6
:1070500078B12F21114809F073FB411C104BD3F874
:107060000435124A009240F24D12042003F0A4F9B4
:1070700073E75C21094809F063FB28B15C210748EC
:1070800009F05EFB411CE9E70449E7E700DE64E73D
:10709000885E0020FC310020F8310020500E0300F3
:1070A00000B000400C100300241003003C1003004B
:1070B00010B588B01C4B1B6813F0800F04D0044639
:1070C0001A4B1B68032B08D808A8232300F8183D87
:1070D000FFF742FE20B308B010BD2F21144809F07D
:1070E0002FFB80B12F21124809F02AFB411C114BC4
:1070F000D3F804350194104A009240F2291204207A
:1071000003F05AF9E0E75C21094809F019FB28B1BE
:107110005C21074809F014FB411CE8E70449E6E755
:107120000620FFF787F8D6E7FC310020F831002071
:10713000500E030000B00040340E030010B588B0BC
:107140001B4B1B6813F0800F04D00446194B1B68BF
:10715000032B0AD803238DF8083000238DF80C3058
:1071600002A8FFF7F9FD08B010BD2F21124809F061
:10717000E7FA80B12F21104809F0E2FA411C0F4BC9
:10718000D3F8043501940E4A00924FF49A72042009
:1071900003F012F9DEE75C21074809F0D1FA28B1C3
:1071A0005C21054809F0CCFA411CE8E70249E6E712
:1071B000FC310020F8310020500E030000B00040E8
:1071C00068100300154B1B7B0BB90820704710B3E8
:1071D00002884FF6F8739A4201D81020704730B5F4
:1071E00087B00D46044601F04BF810B1112007B0EE
:1071F00030BD29462046FEF783FF0023009303930A
:107200000493059302238DF800300194029568469B
:10721000FFF7A2FDEBE70E20704700BFAC36002061
:1072200070B586B0204B1B7B012B03D00824204671
:1072300006B070BD99B3A2B30D46064620238DF863
:1072400000308DF8040009686B68CDF80510CDF8A2
:1072500009302B89ADF80D3004926846FFF77CFDAC
:1072600004460028E3D1104B01221A705E70286892
:107270006968C3F80200C3F80610298959810322FE
:107280001A730022DA811A82084A094B9A6001F0C7
:10729000B1FC08490144084801F008FCC7E70E2486
:1072A000C5E70E24C3E700BFAC360020B170020072
:1072B0009436002080C3C901E03700201A4B1B7BA5
:1072C00013B908231846704761B330B587B00C4630
:1072D000054621238DF800308DF804000A684B68BC
:1072E000CDF80520CDF809300B89ADF80D3000231D
:1072F00004936846FFF730FD034680B90A4A02212D
:1073000011705570511825686068C2F802504860C5
:1073100020890881082111730021D181118218462A
:1073200007B030BD0E23CDE7AC360020084B1B7BE9
:107330000BB90820704700B587B024238DF80030C2
:107340008DF804006846FFF707FD07B05DF804FB01
:10735000AC360020064B1B68082B01D0002070477C
:10736000044B1B680BB1002070470120704700BF21
:107370003001001034010010064B1B68082B01D0AF
:1073800000207047044B1B680BB1002070470120A0
:10739000704700BF3001001034010010064B1B681D
:1073A000082B01D000207047044B1B680BB1002054
:1073B00070470120704700BF3001001034010010F9
:1073C000064B1B68082B01D000207047044B1B683C
:1073D0000BB1002070470120704700BF3001001042
:1073E00034010010064B1B68082B01D000207047A9
:1073F000044B1B680BB1002070470120704700BF91
:107400003001001034010010064B1B68082B01D01E
:1074100000207047044B1B680BB10020704701200F
:10742000704700BF3001001034010010064B1B688C
:10743000082B01D000207047044B1B680BB10020C3
:1074400070470120704700BF300100103401001068
:10745000014A024B1A6070470090D003C4310020EB
:1074600008B5FFF777FF40B14FF080430022C3F823
:107470000C21C3F81021C3F83825FFF77DFF002841
:1074800046D04FF08052D2F80414604BC3F8201558
:10749000D2F80814C3F82415D2F80C14C3F8281530
:1074A000D2F81014C3F82C15D2F81414C3F8301500
:1074B000D2F81814C3F83415D2F81C14C3F84015C8
:1074C000D2F82014C3F84415D2F82414C3F8481590
:1074D000D2F82814C3F84C15D2F82C14C3F8501560
:1074E000D2F83014C3F85415D2F83414C3F8601528
:1074F000D2F83814C3F86415D2F83C14C3F86815F0
:10750000D2F84014C3F86C15D2F84424C3F870259F
:10751000FFF744FF10B13E4A3E4B1A60FFF750FFA1
:1075200018B1FB223C4BC3F81825FFF75BFF48B1AD
:107530003A490B6823F00F03394A126802F00F0230
:1075400013430B60FFF760FF18B14FF40072354B27
:107550001A60FFF76BFF60B14FF08043D3F800343F
:1075600013F0010F05D06FF001024FF08043C3F814
:1075700000242D4AD2F8883043F47003C2F88830D2
:10758000BFF34F8FBFF36F8F4FF01023D3F800324C
:10759000002B08DB4FF01023D3F80432002B02DB62
:1075A000FFF756FF08BD0122204BC3F804251F4BEF
:1075B000D3F80034002BFAD012224FF01023C3F876
:1075C00000221A4BD3F80034002BFAD012224FF0CD
:1075D0001023C3F80422154BD3F80034002BFAD043
:1075E0000022124BC3F80425104BD3F80034002BB3
:1075F000FAD0BFF34F8F0C49CA6802F4E0620C4B1B
:107600001343CB60BFF34F8F00BFFDE700C00040C6
:10761000488103008C56004000F00040E40E00401A
:10762000580200104096024000ED00E000E00140EA
:107630000400FA050649074A074B9B1A03DD043B81
:10764000C858D050FBDCFFF70BFFFCF70FFE000023
:10765000DC140300B831002078320020FEE7FEE79A
:10766000FEE7FEE7FEE7FEE7FEE7FEE7FEE7FEE7F2
:1076700010B5064C08220649204608F08AFF082269
:107680000449A01808F085FF10BD00BFFC3700209A
:1076900060000010A400001000487047FC37002074
:1076A00038B5054618B10A4B1C686CB938BD784628
:1076B000084B1B680BB19847F5E700DEF3E754F879
:1076C000043C284698472468002CF8D138BD00BFF8
:1076D0000C380020885E002070B5064660B1351D6C
:1076E00012D01C4B1B689D4216D01A4B1C68E4B983
:1076F0001D600023736070BD7846174B1B680BB18B
:107700009847ECE700DEEAE77846134B1B680BB1BD
:107710009847E6E700DEE4E778460F4B1B680BB1BD
:107720009847E2E700DEE0E71C4623680BB1A5427C
:10773000FAD134B12DB1A54202D02368736025601F
:1077400070BD7846044B1B680BB19847F3E700DE29
:10775000F1E700BF0C380020885E002010B5044619
:1077600008B1A04710BD7846034B1B680BB1984782
:10777000F7E700DEF5E700BF885E002008B50822C5
:107780000221084803F0B8FC38B1074A916841600B
:10779000127B027203F0F4FC08BD044803F036FECD
:1077A00008BD00BF1438002050380020D831002018
:1077B0000E4B1B78CBB910B50D4B5C6804F500542B
:1077C000B4F1807F00D910BD04220121094803F0E3
:1077D00093FC30B1446003F0D3FC0122034B1A70D8
:1077E000F1E7054803F012FE10BD70476438002031
:1077F0005038002014380020C831002000B58DB06A
:1078000003908DF808100CA8022300F82C3DFFF718
:1078100047FF0DB05DF804FB10B58CB00C469AB96B
:107820004B88012B28D1164B1B7823B97846154B72
:107830001B683BB198476268134B5A600022104B9B
:107840001A7019E000DEF6E7032A04D078460D4BE3
:107850001B689BB198472C22002101A808F0A4FEC8
:1078600019238DF804300394084BDA6805921B69DC
:10787000069301A8FFF714FF0CB010BD00DEEAE785
:1078800064380020885E0020503800201438002022
:1078900038B500E020BF03F0DBFD0028FAD001F08E
:1078A00081FE002211461B4803F070FB00252C4688
:1078B00005E0051D02460021164803F067FB30B1C4
:1078C0004388012BF5D0022BF4D1041DF2E7A4B1BB
:1078D0009DB12268104B9A6022791A73AC4201D98B
:1078E000237993B12A680C4B1A600B4B1A685A60C3
:1078F000FFF75EFF01F076FE38BD074B00221A60ED
:107900009A601A73FFF73AFFEFE70022024B1A6002
:10791000EBE700BF143800205038002008B503F012
:10792000DFFDA0F5805008BD00B587B0182200210A
:10793000684608F039FE00230293FFF7EFFF00903E
:1079400001230193064B03936946064803F016FD95
:1079500010B907B05DF804FB034803F057FDF8E7E2
:107960001978020014380020E831002008B51422EC
:1079700000210B4808F018FE01F03CF9094B586053
:10798000094A9A60094ADA6000221A615A61084974
:107990000A70184601F00EF8FFF7C6FF08BD00BFD9
:1079A0005038002038380020C57A02000087930341
:1079B0006538002038B501F0F5FD174B1B7B23B16E
:1079C000082401F00FFE204638BD134B9B7B0BB102
:1079D0000824F6E7104B1A8A41F282639A4204D8CF
:1079E0000E4B1B782BB1012300E001231BB90824A7
:1079F000E7E70023FAE7084D01232B7300242C82CC
:107A0000AB680133AB60FFF7B9FEA868297B01388A
:107A1000FFF7F4FED5E700BF50380020653800209E
:107A200010B501F0BFFD244B5B7B9BB1224B9B7BD0
:107A300003BB214B1A8A41F282639A4204D81F4B3E
:107A40001B782BB1012300E00123ABB1012302E03D
:107A50000023FAE700231C4643B3174B00225A7356
:107A60001B7B5BB1012B14D07846154B1B680BB305
:107A700098471BE00023EEE70023ECE7FFF79AFFAF
:107A8000A0B178460E4B1B680BB198470EE000DEA4
:107A90000CE0094B0021196059601973198298682C
:107AA000FFF7ACFEFFF76AFEFFF782FE01F09AFDDA
:107AB000204610BD00DEF9E7503800206538002070
:107AC000885E002010B5264B1B7B4BB1012B27D0C5
:107AD0007846244B1B68002B3DD0984701240DE0CD
:107AE0001F4B1A8A41F282639A4204D81E4B1B78BC
:107AF00083B1012300E0012373B901241CB1184AAA
:107B0000138A01331382164B5B8A13B1013B144A6B
:107B1000538210BD0023EFE7FFF782FF0024EDE75B
:107B20000F4B1A8A41F282639A4204D80E4B1B789B
:107B30007BB1012300E001231C467BB142F2B0136C
:107B40009A4203D90122064B5A730024FFF768FFBB
:107B5000D4E70023F0E700DE0124CFE70124CDE7DE
:107B600050380020885E00206538002010B5184B82
:107B70001A685B689A4225D20446154B1B7B012B81
:107B800015D0144B934214D9002028B9104B1A6811
:107B90005B68403B9A4212D2EFF3108072B60C4AF7
:107BA0001368591C1160236080B962B610BD0A4B7E
:107BB000E8E70122064B5A73FFF732FFE5E7FFF7CC
:107BC000F7FDE9E7FFF7F4FD0F2010BD002010BD21
:107BD00050380020FFFF7F0000E0FF0008B568B9C3
:107BE0000E4B1B6823B978460D4B1B6873B1984741
:107BF0000A4A1368013B136053B108BD0122094BC7
:107C00009A73064A13680133136008BD00DEEFE77C
:107C10000022044B9A73FFF703FFEEE710380020B1
:107C2000885E00205038002038B505460C4601F02B
:107C3000B9FC254B1B7B002B34D1234B5B8A2BBB20
:107C40001CB9214B9B68AB4205D3FCB11E4B9B6812
:107C500001339D421AD91C4B9B682A339D4223D87D
:107C6000194B9B7B03BB184CA56023606360238288
:107C700042F60652628263732373FFF77FFDFFF7BC
:107C800097FD217BA068FFF7B9FD0DE064B10E4BB5
:107C90009B6801339D4207D101220B4B5A73FFF7BA
:107CA000BFFE01E0012B02D001F09CFC38BD002C8E
:107CB000FAD1054B9B689D42F6D10122024B5A73C3
:107CC000FFF7AEFEF0E700BF50380020014B986888
:107CD000704700BF50380020054B1B7B012B02D0A2
:107CE000034B98687047024B98680138704700BF93
:107CF00050380020044B9B68584010F0010F00D012
:107D0000013B1846704700BF50380020014B187BDC
:107D1000704700BF5038002008B50278012A09D00A
:107D2000022A15D07846114B1B68D3B198474FF4FF
:107D3000FA7308E083685B1A98084FF4A97303FB91
:107D400000F303F5FA730A48984228BF184608BDA5
:107D500083685B1A180B074B03FB00F303F5FA73F8
:107D6000F1E700DE4FF4FA73EDE700BF885E002014
:107D7000A0860100645E010008B50378012B08D0DD
:107D8000022B0CD07846074B1B682BB1984700207C
:107D900008BD4FF4A97008BD00DE002008BD0248F0
:107DA00008BD00BF885E0020645E01002DE9F0413F
:107DB000002722E02349B82303FB04F3CA5A013207
:107DC000CA520221404602F00BFA01360221404617
:107DD00002F0CCF970B1B8231A4A03FB04239D6862
:107DE000002DE7D0B82303FB04F3D25A01463846EE
:107DF000A847DFE796B90137FFB2022F20D83C46EB
:107E0000B82303FB07F308330E4D1D4405F10408A6
:107E10000221404602F0AAF90026DBE70021404695
:107E200002F06AFA0828E6D1B822064B02FB0434B5
:107E3000A368002BDFD00022034938469847DAE7D1
:107E4000BDE8F081703800207C10030008B50823DD
:107E500083731023437300F11C03436103230373F3
:107E600000F1180303610C3002F004FA08BD0000B1
:107E700010B5044601210C3002F078F9D8B10E4A51
:107E8000C4F89C200022C4F8A0206168FFF744FFDA
:107E9000C4F8A400C4F8A840012384F8B43004F165
:107EA0009C0004F083FC30B17846044B1B680BB196
:107EB000984710BD00DE10BDF17F0200885E0020F3
:107EC000F8B506460C46174615680378012B04D012
:107ED0007846164B1B681BB398471549A1FB043124
:107EE000C9098900B468641BA14200D80C4624B9B2
:107EF00078460E4B1B68ABB19847706825F00305B8
:107F0000F16822462944284407F094FD20B17846C0
:107F1000064B1B6843B198473B681C443C60F8BD66
:107F200000DEDAE700DEE8E700DEF5E7885E002045
:107F3000EB5DF260F8B507460C4616461568037807
:107F4000022B04D07846154B1B680BB39847144B93
:107F5000A3FB04231B0C1B03BC68641BA34200D8B7
:107F60001C4624B978460D4B1B689BB1984778682E
:107F700025F003052146284407F02CFD20B1784662
:107F8000064B1B6843B1984733681C443460F8BD06
:107F900000DEDCE700DEEAE700DEF5E7885E0020D1
:107FA000B77609BB38B505460C4611462378012B38
:107FB00008D0022B11D078460C4B1B689BB1984718
:107FC000002004E0021D2046FFF77AFFA0686B68DE
:107FD000984214BF0020012038BD021D2046FFF743
:107FE000A9FFA068F3E700DE0020F0E7885E00202C
:107FF0002DE9F8438846D1F8A450264B1B7863B985
:108000000646A5F5FA7501F10C090121484602F072
:10801000ADF8074640B1002428E004F017FC002327
:1080200088F8B430BDE8F88378461B4B1B680BB169
:108030009847F0E700DEEEE704F008FC012148462F
:1080400002F0CEF80023C8F8043088F8B430134B9F
:10805000186801F011FB4046FFF70AFFBDE8F883FE
:108060003846FFF789FE204485420CD32A1B394647
:108070004046FFF797FF0028DED100F0BBFD841BD0
:10808000EED5341AECE704F0E1FB4046FFF7F0FED2
:10809000BDE8F8836C380020885E00206838002036
:1080A00010B5084801F0BEFA074B1860002406E03E
:1080B000B820064B00FB0430FFF7C8FE0134022C49
:1080C000F6D910BDAD7D0200683800207038002060
:1080D00038B504460D46022804D97846054B1B687E
:1080E00033B19847B822044B02FB0434A56038BD75
:1080F00000DEF7E7885E0020703800202DE9F843A5
:1081000006460D469046022805D97846594B1B680D
:10811000002B45D09847002D44D02B78012B49D017
:10812000022B73D07846534B1B68002B00F09080D5
:108130009847EFF3108772B6B82404FB06F404F1F5
:1081400008034D4C1C4404340021204602F00EF874
:108150008146002800F086800021204602F040F889
:1081600010222946484608F014FAB8F1000F06D04C
:10817000B823414A03FB06235B88A8F80030B823E4
:108180003D4A03FB06235A8801325A8093F8B430E3
:10819000002B6CD1394B1B78002B5BD0002062E0A8
:1081A00000DEB8E77846334B1B680BB19847B4E75D
:1081B00000DEB2E76B6813F0030F04D078462D4B56
:1081C0001B68DBB19847EB6813F0030F04D07846C7
:1081D000284B1B68A3B19847AB6813F0030F04D07A
:1081E0007846244B1B686BB19847AB68002BA0D135
:1081F0007846204B1B683BB198479AE700DEE2E7E0
:1082000000DEE9E700DEF0E700DE92E76B68C3F32B
:108210000B0323B17846174B1B689BB19847AB689B
:10822000C3F30B0323B17846124B1B6863B1984725
:10823000AB68002B7FF47DAF78460E4B1B682BB1EB
:10824000984776E700DEEAE700DEF1E700DE70E758
:1082500000DE6EE7B820084B00FB0630FFF708FE93
:10826000002000E0042007B962B6BDE8F8830020D2
:10827000F9E700BF885E0020703800206C380020CD
:1082800038B5002402E0082815D10134022C10D89A
:10829000EFF3108572B6B82000FB04F00830074BEE
:1082A00018440021043002F027F8002DEBD162B60B
:1082B000E9E7002038BD012038BD00BF703800203C
:1082C00038B50446EFF3108572B638B9174B1B6802
:1082D00023B97846164B1B687BB198477CB1134A8B
:1082E000136801331360114B1B68003318BF01235F
:1082F000104A137005B962B638BD00DEEEE70B4BCD
:108300001C68013C1C600CB1EDE70134022CEAD87A
:10831000B823094A03FB042393F8B430002BF4D1AB
:10832000B82000FB0420FFF7A3FDEEE7983A0020F9
:10833000885E00206C3800207038002018B1830B54
:10834000024AD05C70470020704700BF8C100300C9
:1083500012DF704730B583B0284B1B781BB108245F
:10836000204603B030BD002846D005464268244B65
:108370001A60FFF77DF90DF10700FFF7E9FF0446EA
:108380000028EDD19DF80730012B01D00224E7E74A
:1083900005F054F800F0FCFA01F0CEF8E87800F0AF
:1083A00076F900F08FFF04F0DBF904F0F1FF03F041
:1083B0009BFFFFF775FE02F0B3FD03F05FFC28465C
:1083C00006F0FEF9284601F02BFD42F2107003F092
:1083D0006DFA284607F072FBFEF712FD18B1062869
:1083E00001D00446BCE700F029FD0022054B1A60CD
:1083F0000122024B1A70B3E70E24B1E79D3A002028
:10840000885E0020A03A002010B5104B1B7813B9ED
:108410000824204610BD0E4B1B780BB10824F8E74A
:1084200000F076FF20B178460A4B1B685BB1984795
:1084300004F0ACF904460028EBD104F0A3FE0122BD
:10844000034B1A70E5E700DEF2E700BF9D3A00201B
:108450009C3A0020885E0020F0B58DB004F0D2FE7A
:1084600005460027E9E02B7D03F00F03022B41D0E6
:10847000237801331C446A7D052A40F2C88002F14A
:1084800012032B4405339C4280F0C1806378163B75
:10849000152BEDD801A252F823F000BFF58502009C
:1084A00071840200718402007184020071840200F0
:1084B00071840200718402007184020071840200E0
:1084C00071840200718402007184020071840200D0
:1084D00071840200718402007184020071840200C0
:1084E00071840200718402005D85020067840200CD
:1084F00077850200217806AA0139A01C01F0E8FD69
:1085000007460028B4D0554B1B6813F0400FAFD07E
:10851000534B1B68012BABD92F21524808F010F99F
:1085200078B12F214F4808F00BF9411C4E4BD3F87E
:10853000043501974D4A0092F822022001F03CFFD9
:1085400096E75C21474808F0FBF828B15C214548D4
:1085500008F0F6F8411CE9E74249E7E72B7D03F014
:108560000F03022B84D12178013906AAC9B2A01CBD
:10857000FDF708FD7CE72B7D03F00F03022B7FF452
:1085800077AF2178013906AAC9B2A01C03F002FA1C
:10859000074600283FF46CAF304B1B6813F0400FC8
:1085A0003FF466AF2E4B1B68012B7FF661AF2F2186
:1085B0002C4808F0C5F880B12F212A4808F0C0F8EF
:1085C000411C294BD3F804350197294A009240F207
:1085D0000B12022001F0F0FE4AE75C21214808F06E
:1085E000AFF828B15C211F4808F0AAF8411CE8E761
:1085F0001C49E6E762884FF6E4639A427FF438AF9D
:10860000217806AA0339201DFEF7DCFD30E7194B5F
:10861000196861B106AB05932B7DC3F303038DF895
:108620000C30063A8DF80D20049603A8884728469A
:1086300004F0C2FD04F0E6FD054665B100238DF8A7
:10864000183007AC2E460FCE0FC43368236005F1F7
:108650001D0634460FE738460DB0F0BDFC31002052
:10866000F83100209010030000B00040D410030047
:1086700000110300A03A00200020704708B500F068
:10868000E5FD002008BD08B5FFF726F808BD07285E
:1086900014D8DFE800F0080C1504110F0A06642056
:1086A000704714207047FA2070471E2070474FF41F
:1086B000FA707047322070474B207047FA2070479D
:1086C0009620704710B50446436923B178461C4B89
:1086D0001B686BB198471B4B1B685BB16068194BFB
:1086E0001B685B68C31A002B04DB164B196812E089
:1086F00000DEF0E7134A136863611460D368013346
:10870000D360E3B978460E4B1B680BB1984710BD98
:1087100000DE10BD19464B691BB15A68121A002AB7
:10872000F8DB63614C61074AD3680133D36033B926
:108730007846034B1B680BB1984710BD00DE10BD97
:10874000885E0020A83A0020134B5B681BB310B56D
:108750000BE00023237005E000DE02232370204697
:10876000FFF7B0FF0C4B5B68A3B10B4B5C68626911
:108770005A60002363612378DBB2052BE9D02378AC
:10878000DBB2012BE9D07846044B1B68002BE3D009
:108790009847E2E710BD7047A83A0020885E0020A5
:1087A00070B5244E15E06369336000236361214A8C
:1087B000D368591ED16023B978461F4B1B68C3B1DB
:1087C00098471C4A9368013B936000232370032D54
:1087D00011D03468002C2BD0164B9B68002B27D06F
:1087E0002578EDB2EB1EDBB2012BDCD904F11406C7
:1087F000EFE700DEE5E7237843B12378DBB2062B11
:1088000004D078460C4B1B6873B19847636923B159
:108810007846094B1B684BB1984701232370054BE1
:108820005A6862615C60D4E700DEEFE700DEF4E7DF
:1088300070BD00BFA83A0020885E002038B505460C
:1088400016E000DE2AE09847A368002B37D0062305
:108850002370A36821692846984700F0CBF90546A4
:10886000FFF79EFFFFF770FF2378DBB2062B2ED0B9
:10887000204B1B68002B3BD01E4B1B685B685B1BAF
:10888000642B35D51B4B1C682378DBB2022B05D03B
:108890007846194B1B68002BD3D098476269154B5B
:1088A0001A6000226261DA68511ED960002ACBD1B9
:1088B0007846114B1B68002BC5D100DEC4E7784613
:1088C0000D4B1B680BB19847C1E700DEBFE7E268BC
:1088D00012B900232370CBE76368134463605B1B0A
:1088E000642BF9D4022323702046FFF7EBFEBFE789
:1088F00038BD00BFA83A0020885E002008B5164B9E
:108900001B68002B26D0144B1B685B68C31A13F13D
:10891000640F0DD40223114A00F16401012000F01C
:108920002DF9B8B178460E4B1B6893B1984708BD36
:10893000094B19680223094A4968012000F01EF911
:1089400040B17846064B1B680BB1984708BD00DE66
:1089500008BD00DE08BD00BFA83A002081890200E2
:10896000885E002008B5FFF71BFFFFF7EDFE00F063
:1089700041F9FFF763FF00F03DF9FFF7BFFF08BDC6
:1089800008B5024B186800F077FE08BDA43A002035
:1089900008B510220021044807F006FE034800F045
:1089A00041FE034B186008BDA83A0020658902000B
:1089B000A43A002038B50446002827D0A368002B2D
:1089C0002CD0EFF3108572B60023636123784BB18E
:1089D0002378DBB2062B05D07846164B1B68002B9C
:1089E00024D09847636923B17846124B1B68FBB1CA
:1089F000984701232370104B5A6862615C6005B987
:108A000062B60E4B186800F037FE38BD7846094B49
:108A10001B680BB19847D1E700DECFE77846054BDE
:108A20001B680BB19847CCE700DECAE700DED9E748
:108A300000DEDEE7885E0020A83A0020A43A00208D
:108A400038B50446E0B1EFF3108572B62378DBB297
:108A5000062B1DD02378DBB2012B1ED02378CBB19F
:108A60002378033BDBB2012B03D90D4A9368013312
:108A70009360042323700B4B186800F0FDFD09E0A0
:108A80007846094B1B680BB19847DCE700DEDAE754
:108A90000023237005B962B638BD05232370F9E7BA
:108AA000A83A0020A43A0020885E002070B50E4647
:108AB0000446E0B1EFF3108572B62378FBB123785A
:108AC000DBB2062B1BD02378DBB2012B3BD0237803
:108AD000DBB2052B37D02378033BDBB2012B03D964
:108AE0001A4A936801339360032323701FE078468A
:108AF000174B1B680BB19847DCE700DEDAE72378F9
:108B000043B12378DBB2062B04D07846104B1B68A8
:108B1000ABB19847636923B178460D4B1B6883B1AD
:108B2000984701232370094B5A6862615C60666054
:108B3000084B186800F0A0FD05B962B670BD00DEF4
:108B4000E8E700DEEDE701232370F0E7A83A002014
:108B5000885E0020A43A002000F1100301229A4010
:108B6000054BC3F8042300F5A87243F822105030D7
:108B7000002243F82020704700800040022801D9DD
:108B80000720704738B533F0030401D00A2038BD00
:108B9000EFF31084104D2C6072B6104C44F8202076
:108BA0000F4A42F820100F4A135400220E4B43F88C
:108BB00020200E4B1B7833B10D4B1B68CA1A07D40B
:108BC0001146FFF7C9FF044B186818B962B638BDE3
:108BD0005A1AF5E7002038BDDC3A0020BC3A0020E4
:108BE000D03A0020B83A0020E43A0020C83A0020E9
:108BF000CC3A0020EFF310830C4A136072B60C4B92
:108C00001B787BB10B4B0022C3F84C210122DA64A4
:108C1000D3F84C05084B1B681844044B1B6803B978
:108C200062B67047054B1868F7E700BFDC3A0020D2
:108C3000C83A002000800040CC3A0020E03A0020F2
:108C400038B5002418E078461E4B1B680BB19847D6
:108C500020E000DE1EE00146284600F089FC20B13D
:108C60007846184B1B684BB3984704F1500300211A
:108C7000154A42F823100134022C21D804F1500384
:108C8000114A52F82330002BF5D0104B53F82450E2
:108C9000002DD8D000220D4B43F8242004F11002FF
:108CA00001239340084AC2F80833FFF7A3FF084B9B
:108CB0001B5D13F0020FCED0A847D6E700DED4E745
:108CC00038BD00BF885E002000800040BC3A002014
:108CD000B83A002070B50546002419E0981A2CE037
:108CE0005E1A2EE02946184600F042FC28B178466C
:108CF0002B4B1B68002B37D098472A4B53F8243056
:108D00002BB101221A600022264B43F824200134A3
:108D1000022C38D8244B04F5A872002143F8221005
:108D200004F1500243F8221053F822301F4B53F83D
:108D300024201F4B1B68D01AD0D405F17801CE1A1D
:108D4000CED4864212D91B4B53F82430002BD4D0FA
:108D50000021184A42F82410174A125D12F0020F3F
:108D6000C0D028469847C8E700DEC6E7114B53F845
:108D70002430002BCBD0E0B2511B02D4FFF7ECFE25
:108D8000C5E7A91AFAE70D4B1B681BB94FF48072AF
:108D90000B4B1A60064B1D6001220A4B1A7070BD06
:108DA000885E0020E43A002000800040D03A002095
:108DB000CC3A0020BC3A0020B83A0020DC3A00202F
:108DC00000E100E0C83A0020002300E00133022B5C
:108DD0000ED80F4AD25C12F0010FF7D000220C49D6
:108DE000CA540C4941F823200B4941F82320EDE7F0
:108DF0000A4B186000220A4B1A704FF0FF32094BE1
:108E0000C3F808234FF48072074BC3F880217047E2
:108E1000B83A0020BC3A0020E43A0020E03A0020B2
:108E2000C83A00200080004000E100E0024A1368D8
:108E300001331360704700BFF03A002010B50023E3
:108E4000084A1360084C094AA260094AE26023619B
:108E5000FFF7D0FE00F5C330A03060602046FFF77A
:108E6000A9FD10BDF03A0020F43A00202D8E02003A
:108E7000A08601002FDF704730DF704710B4034633
:108E800000685A68A0EB72109C6882EAF4321A609B
:108E9000D9680C445C60014499601044D8605DF866
:108EA000044B704770B582B00D46064608B10024E9
:108EB0000FE07846104B1B680BB19847F7E700DED0
:108EC000F5E79DF807103019FFF7D6FF9DF807303A
:108ED0001C44AC420DD20DF10700FFF7CBFF9DF80B
:108EE0000730002BF7D02A1B9342EAD98DF80720D0
:108EF000E7E702B070BD00BF885E002030B583B0E8
:108F00000546002402A840F8044D0421FFF7CAFFDB
:108F1000074B2B60019B6B60AB60EB6003E0284666
:108F2000FFF7ACFF0134132CF9D903B030BD00BFFB
:108F3000ED5EEAF145DF704746DF704747DF704777
:108F40002DE9F0431A4BD3F804650027837A5BBB05
:108F5000184BD3E90045341B24F07F4400256201FF
:108F60006B01121B63EB0503590241EAD2514FEA30
:108F7000422E1EEB040241EB05034FEA831949EA36
:108F800092694FEA8218B8EB020269EB0303A41856
:108F90005D41E30B43EA4543426813444360054B9C
:108FA000C3E90067BDE8F083002383720368F3E739
:108FB00000B00040403B002008B50D4B1B78012B52
:108FC00007D0022B0DD078460A4B1B6873B1984727
:108FD00003E002230375012383720022044B1A70FD
:108FE00008BD03230375044B8361F6E700DEF4E755
:108FF0003D3B0020885E00202C3B002010B504463D
:109000000023C3600361FFF79BFF2368084A92684F
:1090100022600121217503B9064B991AA161B1F5AE
:109020007A7F01D3934202D24FF47A73A36110BDC9
:109030002C3B002080969800094B03221A75094AA0
:109040009A611A6840F6D8639A4204D840F6D8620A
:10905000044B9A60704743F2B062024B9A607047CB
:109060000C3B00202C3B002038B50546002404753D
:10907000012343724068FFF72DFE03F06BFC6B6821
:109080002A6813440C490968283101FB02F10B4A94
:10909000A2FB0121A3EB91410323094A7839204621
:1090A000FFF76CFD30B17846064B1B680BB1984753
:1090B00038BD00DE38BD00BF283B002083DE1B43E7
:1090C00039900200885E002010B50C4631B103696A
:1090D000013303618269036813440360C368013389
:1090E000C36001220275826952088261012B0DD092
:1090F000022B19D082690368134417498B4222D886
:1091000040F6D7639A4221D800231DE0B2F5FA7FDA
:1091100005D040F6D8639A42ECD88361EAE7002C88
:10912000F7D100238361E5E70369022B06D0012B09
:10913000E0D1002CDED100238361DBE70268064B1F
:109140009B1A8361D6E7002313B110BD0123FBE70F
:10915000FFF78AFFF9E700BF80969800437A1BB9B2
:1091600000220E4B1A70704710B5044603F014FC31
:109170006068226810440A4B1B68283303FB02F323
:10918000084AA2FB0323A0EB93407838FFF71CFEAC
:10919000002363720022014B1A7010BD3C3B00207B
:1091A000283B002083DE1B4308B50122234B1A72A3
:1091B000234B1B7813B1234B1B783BB300221F4B6F
:1091C0001A7504281AD8DFE800F00314110C070000
:1091D0001A48FFF713FF22E001211848FFF774FF38
:1091E0001DE000211548FFF76FFF18E003F06AFB50
:1091F00015E0FFF725FD03F097FB10E07846124BD2
:109200001B680BB198470AE000DE08E0FFF7F2FCAC
:109210000A4B5A68801A18601846FFF7CDFE074BB4
:109220001B7D023BDBB2012B04D9044800230372EF
:10923000143008BD0148FFF791FFF6E70C3B002012
:109240003D3B00203C3B0020885E002008B50438F0
:10925000032831D8DFE800F016250E02FFF76CFE78
:10926000002829D07846154B1B680BB1984708BDDC
:1092700000DE08BD7846114B1B680BB1984708BD4E
:1092800000DE08BD0E4840F6D8638360FFF756FE47
:1092900090B17846094B1B680BB1984708BD00DEBA
:1092A00008BD0748FFF74AFE30B17846034B1B68FC
:1092B0000BB1984708BD00DE08BD00BF885E0020E6
:1092C0002C3B002010B40D4A0023137013710121B0
:1092D000517143F2B064946043F69824D460084A14
:1092E0001060084A1370084A1370084A13725372C8
:1092F0001360917253605DF8044B70472C3B002063
:10930000283B00203C3B00203D3B00200C3B002044
:1093100008B50648FFF70EFE034608B1184608BD1B
:109320000348FFF70BFE0346F8E700BFA9910200D0
:109330002C3B0020084B1B7D032B09D0074B1B78CF
:10934000012B07D0022B01D000207047012070476D
:1093500001207047012070470C3B00203D3B00205E
:10936000014B5868704700BF0C3B00200E4B5B7AE6
:109370000BB90020704710B50B4B5C681A68144499
:109380000A4B1B68283303FB02F3094AA2FB0323A1
:10939000A4EB9344783CFFF72DFC0346201A00D43D
:1093A00010BD181B10BD00BF0C3B0020283B002047
:1093B00083DE1B43014B187A704700BF0C3B002033
:1093C000EFF3108372B6054A527A22B14FF48071DE
:1093D000034AC2F8001103B962B670470C3B002083
:1093E00000E100E008B50122024B1A70FFF7E8FF28
:1093F00008BD00BF3D3B002008B5094B1B782BB1D1
:1094000048B9084B1B7813B1012300E00023044A3C
:10941000107013B908BD0023F9E7FFF7D1FFF9E792
:109420003C3B00203D3B002008B50378012B0ED0CB
:1094300013B1022B05D008BD436863B1806898471B
:1094400008BD43683BB1C1688068984708BD436860
:109450000BB18068984708BD4FF48022014BC3F8D8
:109460000021704700E100E030B585B0002404E041
:10947000214B53F8243098470134204B1B689C4201
:1094800016D261091E4A52F8210004F01F0501237B
:10949000AB401842F0D0EFF3108072B652F8215072
:1094A00025EA030342F821300028E1D162B6DFE764
:1094B000144806F06BFB08E000DEA368E0689847FC
:1094C000002323740F4806F061FB68B10468237C15
:1094D000002BF2D178460C4B1B68002BECD0984740
:1094E000EBE76846FFF7A0FF6946084806F047FA31
:1094F0000028F6D005B030BD643C0020603C002060
:109500007C3C0020803C0020885E0020483B0020FE
:1095100010B50146054806F005FA10B104242046AE
:1095200010BD0446FFF798FFF9E700BF483B002055
:1095300008B5FFF799FF08BD08B50948094B036056
:1095400010234360836006F0C3F9074806F0E6FA8B
:10955000064BC02283F812234FF480221A6008BD04
:10956000483B00205C3B0020803C002000E100E004
:1095700030B585B00C46054648B100238DF8003063
:10958000019502946846FFF7C3FF05B030BD7846E9
:10959000034B1B680BB19847EFE700DEEDE700BF18
:1095A000885E002010B5EFF3108472B60A490A688D
:1095B000531C0B6022B94FF48021084AC2F8801076
:1095C00023B97846064B1B681BB1984704B962B6AD
:1095D00010BD00DEFAE700BF5C3C002000E100E0C7
:1095E000885E002010B5EFF3108472B60A4B1B683A
:1095F00023B97846094B1B6863B19847064A13683C
:10960000013B13601BB94FF48022054B1A6004B96B
:1096100062B610BD00DEF1E75C3C0020885E0020F1
:1096200000E100E010B50446A8B1104B1B68052B03
:1096300004D978460E4B1B68ABB19847EFF3108303
:1096400072B60A4A1068411C11600A4A42F820406A
:1096500003B962B610BD7846054B1B680BB198473D
:10966000E3E700DEE1E700DEE8E700BF603C002062
:10967000885E0020643C002038B504460F4B1B6810
:10968000834204D878460E4B1B68A3B19847EFF38A
:10969000108572B661090B4A04F01F04012303FA16
:1096A00004F452F82130234342F82130FFF7D4FE6E
:1096B00005B962B638BD00DEE9E700BF603C0020B6
:1096C000885E00207C3C002070B50D46164604469E
:1096D00058B195B1EFF3108372B6A560E660002231
:1096E0002274246003B962B670BD7846074B1B68CC
:1096F0000BB19847EDE700DEEBE77846034B1B68BC
:109700000BB19847E6E700DEE4E700BF885E002083
:1097100038B5044650B1A36883B1EFF3108572B633
:10972000237C9BB1112005B962B638BD78460C4B3D
:109730001B680BB19847EEE700DEECE77846084B74
:109740001B680BB19847E8E700DEE6E701232374C6
:109750002146044806F0F4F9FFF77EFE0020E2E718
:10976000885E0020803C002010B5044608B1207CB3
:1097700010BD7846034B1B680BB19847F7E700DE36
:10978000F5E700BF885E002008B503F03DFE08BD88
:1097900008B506F0A3FA08BD08B501F096FF08BDAC
:1097A00008B501F0DCFF08BD38B599B3022964D8CB
:1097B0001970597801F0800162F3C7115970C168BE
:1097C000C1F3074201F47F442243090401F47F01FD
:1097D0000A439A70C2F30721D970120C1A710189D9
:1097E0000A0A42EA0122A3F8052041880A0A42EA4D
:1097F0000122A3F8072001690A0202F47F0242EA6B
:109800000162080A00F47F40024342EA1162C3F891
:10981000092038BD00241C70817A5A7861F3060251
:109820005A70C17AD2B261F3C7125A70C168C1F3DB
:10983000074201F47F452A43090401F47F010A43EA
:109840009A70C2F30721D970120C1A7101890A0AA1
:1098500042EA0122A3F80520DC711C7201690A02A8
:1098600002F47F0242EA0162080A00F47F400243E8
:1098700042EA1162C3F8092038BD7846034B1B68E1
:109880000BB1984738BD00DE38BD00BF885E0020B0
:1098900070B584B00E461446054668B162B1002327
:1098A0000093019302930393234632462946684668
:1098B000FFF76EFF04B070BD7846034B1B680BB119
:1098C0009847ECE700DEEAE7885E00204B78DB098A
:1098D000C3724B7803F07F0383728A78CB781B02C4
:1098E00043EA02430A791343C3604A798B7943EA16
:1098F000022303817047000010B5044658B1237855
:109900009BB1E368B3F1807F11D294F90A30002B48
:1099100009DB012010BD7846064B1B680BB1984748
:10992000EDE700DEEBE7002010BD002010BD0020B9
:1099300010BD00BF885E002038B504460D4608897A
:10994000FEF7FCFC012805D07846314B1B68002B44
:1099500048D0984795F90A30002B45DBEB68B3F106
:10996000807F05D378462A4B1B68002B44D098474C
:109970002B782BB97846264B1B68002B3ED0984796
:109980006B69002B3CD02B6903F00102237803F0B4
:109990007F0343EAC21323706A69127803F08003DD
:1099A00002F07F0213432370EA7A637803F07F03A7
:1099B00043EAC213DBB26370AA7A03F0800302F0B9
:1099C0007F0213436370EB681A0CA2701A0AE270EC
:1099D00023712B891A0A6271A3716B881A0AE271CA
:1099E000237238BD00DEB5E77846094B1B680BB122
:1099F0009847B3E700DEB1E700DEB9E700DEBFE776
:109A00007846034B1B680BB19847BCE700DEBAE70A
:109A1000885E002070B582B004460023019303687D
:109A20008068DB7A73B10823184404F10C0663687C
:109A300001AA3146093002F04DF928B9042528461B
:109A400002B070BD0423EFE7637B012B0FD0012030
:109A5000FEF7C4F82568FEF73FF9286120680C304E
:109A6000FEF784F805460020FEF7B8F845B92168EE
:109A70000198FFF761FF019B093323610025DEE7B1
:109A80000199304602F092F9D9E770B588B00646E0
:109A90000C46154605220021684606F085FD326910
:109AA000130203F47F0343EA0263110A01F47F41C6
:109AB0000B4343EA1263CDF805300722A1180DF1DC
:109AC000090006F066FD706904AA69461130FFF7C7
:109AD0005BFE062309E0013B9BB2591C625C08A8AF
