:020000022000DC
:1040000002E0032099D80200C1D802001149020041
:10401000C5D80200C7D80200C9D8020000000000BD
:10402000000000000000000000000000CBD80200EB
:10403000CDD8020000000000CFD80200D1D8020085
:10404000D3D80200D3D80200F1750200D3D8020001
:10405000D3D80200D3D80200D3D80200D3D80200AC
:10406000D3D80200D3D80200D3D80200D3D802009C
:10407000D3D80200D3D80200D3D80200D3D802008C
:10408000D3D80200D3D802002D000300D3D80200F9
:10409000D3D80200D3D802007D490200D3D8020051
:1040A000D3D80200D3D80200D3D80200D3D802005C
:1040B000D3D80200D3D802000000000000000000A6
:1040C000D3D80200D3D80200D3D80200D3D802003C
:1040D000D3D80200D3D80200D3D80200D3D802002C
:1040E000D3D80200D3D80200D3D8020000000000C9
:1040F00000000000D3D8020000000000D3D8020066
:1041000000000000000000000000000000000000AF
:10411000000000000000000000000000000000009F
:10412000000000000000000000000000000000008F
:10413000000000000000000000000000000000007F
:10414000000000000000000000000000000000006F
:10415000000000000000000000000000000000005F
:10416000000000000000000000000000000000004F
:10417000000000000000000000000000000000003F
:10418000000000000000000000000000000000002F
:10419000000000000000000000000000000000001F
:1041A000000000000000000000000000000000000F
:1041B00000000000000000000000000000000000FF
:1041C00000000000000000000000000000000000EF
:1041D00000000000000000000000000000000000DF
:1041E00000000000000000000000000000000000CF
:1041F00000000000000000000000000000000000BF
:1042000010B5054C237833B9044B13B10448AFF310
:1042100000800123237010BDC03200200000000088
:10422000E09503000C4B43B10C480D4910B5AFF3BA
:1042300000800C48036823B910BD0A48036833B9ED
:104240007047094B002BF7D0BDE810401847064BCC
:10425000002BF5D0184700BF00000000E0950300D8
:10426000C4320020BC32002000000000154B002B9F
:1042700008BF134B9D46A3F5803A00218B460F469D
:104280001348144A121A13F0C3FE0F4B002B00D030
:1042900098470E4B002B00D09847002000210400C7
:1042A0000D000D48002802D00C48AFF3008013F039
:1042B00061FE2000290000F095F813F047FE00BFD2
:1042C0000000080002E003200000000000000000E1
:1042D000C0320020946B00200000000000000000AD
:1042E0000378022B1BD0042B27D1B0F80F20B0F895
:1042F00005309A4201D000207047D0F80B20D0F84A
:1043000001309A4201D000207047D0F81120D0F837
:1043100007309A4201D30020704701207047C27ACB
:1043200043789A4201D000207047027B83789A42FA
:1043300001D3002070470120704700207047000023
:1043400010B504460378123B042B41D8DFE803F094
:10435000242B360303000430FFF7C2FF90B11F4B3C
:104360001A68611D207909F05DF830B94FF4F03218
:104370004FF0A043C3F8082510BD194A7B2100F077
:1043800087FAF3E7611D207909F09AF800B3144A1F
:10439000812100F07DFA10BD4FF420424FF0A04380
:1043A000C3F80C2510BD4FF0A0434FF4F032C3F812
:1043B00008254FF4C042C3F80C2510BD4FF4F0326D
:1043C0004FF0A043C3F80825007909F0E1F800B9DF
:1043D00010BD034A8D2100F05BFAF9E7FC6A00206A
:1043E000DC82030000B583B00D230AE01F2B0CD83C
:1043F0001A464FF0A04102F5E072032041F8220076
:104400000133102BF2D90D230EE003F01F02AC494B
:10441000F1E71F2B00F21B8118464FF0A04101224B
:104420008240C1F808250133102BF2D9A54A042196
:104430004CF287000CF0A4FEA34B1B6813F4804FD2
:1044400018D0A24B1B68032B14D92F21A04813F0BE
:10445000B3FE002800F0FF802F219D4813F0ACFE32
:10446000411C9C4BD3F804359B4A0092A2220420A5
:104470000CF0A2FE994A1368994909685B1A994998
:104480000B60136823F47F6323F00F0303F580535D
:10449000954A13608C4B1B6813F4804F1BD08B4BD9
:1044A0001B68052B17D92F21894813F085FE00289A
:1044B00000F0DE802F21864813F07EFE411C854BE4
:1044C000D3F80435864A12680192884A0092AB22DA
:1044D00006200CF071FE7C4B1B6813F4804F1BD040
:1044E0007A4B1B68052B17D92F21794813F064FEEE
:1044F000002800F0CA802F21754813F05DFE411C92
:10450000744BD3F80435754A12680192784A0092C8
:10451000AC2206200CF050FE6B4B1B6813F4804F4E
:104520001BD06A4B1B68052B17D92F21684813F045
:1045300043FE002800F0B6802F21654813F03CFEB2
:10454000411C644BD3F80435664A12680192694AEB
:104550000092AD2206200CF02FFE5B4B1B6813F47B
:10456000804F1BD0594B1B68052B17D92F2158485A
:1045700013F022FE002800F0C9802F21544813F0C8
:104580001BFE411C534BD3F80435574A1268019265
:10459000594A0092AE2206200CF00EFE00F002FBFB
:1045A000002005F05FF9002840F0BD805348544BCF
:1045B0000360002343600AF0CAFD434B1B6813F4F9
:1045C000804F18D0414B1B68032B14D92F21404832
:1045D00013F0F2FD002800F0AB802F213C4813F0CF
:1045E000EBFD411C3B4BD3F80435464A0092BA22FE
:1045F00004200CF0E1FD05F053F9002840F0A580FF
:10460000314B1B6813F4804F18D0304B1B68032BC1
:1046100014D92F212E4813F0CFFD002800F09A80E6
:104620002F212B4813F0C8FD411C2A4BD3F8043529
:10463000354A0092BE2204200CF0BEFD4FF4005219
:104640004FF0A043C3F80C250AF06AFCFCE703F026
:104650001F001B49E3E65C211D4813F0ADFD28B1A6
:104660005C211B4813F0A8FD411CFAE61849F8E646
:104670005C21174813F0A0FD28B15C21144813F009
:104680009BFD411C1BE7124919E75C21104813F000
:1046900093FD28B15C210E4813F08EFD411C2FE7DD
:1046A0000B492DE75C210A4813F086FD28B15C21F7
:1046B000074813F081FD411C43E7054941E700BF6E
:1046C0000003005055110300403200203C3200200E
:1046D000DC82030000B0004038820300BC310020BF
:1046E000B8310020006B0020FC6A002060820300CB
:1046F000708203008082030090820300DC3200207D
:1047000041430200A0820300C08203005C211848DC
:1047100013F052FD28B15C21154813F04DFD411CEA
:1047200030E713492EE7124AB32100F0B1F83DE714
:104730005C210F4813F040FD28B15C210C4813F0B8
:104740003BFD411C4EE70A494CE7094ABB2100F0FA
:104750009FF855E75C21064813F02EFD28B15C2137
:10476000034813F029FD411C5FE701495DE700BFE5
:10477000DC82030048DF704710DF704760DF70475E
:1047800061DF70474FF0A0434FF4F032C3F80825C3
:10479000C3F80C25EFF3108372B60028FDD17047E3
:1047A00010B582B00446164B1B6813F4804F04D139
:1047B0002046FFF7E7FF02B010BD2F21114813F08C
:1047C000FBFC78B12F210F4813F0F6FC411C0E4B77
:1047D000D3F8043501940D4A00924E2200200CF0CB
:1047E000EBFCE5E75C21074813F0E6FC28B15C210F
:1047F000044813F0E1FC411CE9E70249E7E700BF88
:10480000403200205483030000B00040988303002E
:1048100070B584B00C46194B1B6813F4804F04D05C
:1048200005461646164B1B6823B92046FFF7AAFF1C
:1048300004B070BD2F21134813F0BEFC88B12F21A6
:10484000104813F0B9FC411C0F4BD3F80435039604
:10485000029401950D4A0092702201200CF0ACFCEC
:10486000E3E75C21074813F0A7FC28B15C21054869
:1048700013F0A2FC411CE7E70249E5E740320020C3
:104880003C3200205483030000B000406C840300DD
:1048900070B584B0194B1B6813F4804F05D00646E1
:1048A0000D461446164B1B6823B90120FFF76AFF1B
:1048B00004B070BD2F21134813F07EFC88B12F2166
:1048C000104813F079FC411C0F4BD3F804350396C4
:1048D000029501940D4A0092482201200CF06CFCD4
:1048E000E3E75C21074813F067FC28B15C21054829
:1048F00013F062FC411CE7E70249E5E74032002083
:104900003C3200205483030000B000403483030095
:1049100000B583B0154B1B6813F4804F05D10120FF
:10492000FFF730FF03B05DF804FB2F21104813F0B0
:1049300043FC70B12F210E4813F03EFC411C0D4B7F
:10494000D3F804350C4A0092542200200CF034FCB9
:10495000E5E75C21064813F02FFC28B15C210448F0
:1049600013F02AFC411CEAE70149E8E74032002045
:104970005483030000B000402483030000B583B0DB
:1049800002E001980AF0DEFB01A8FFF7F3FE002821
:10499000F7D05723ADF8023005E008480AF0D0FB05
:1049A0005723ADF802300DF102010448FFF7E8FE8D
:1049B0000028F2D003B05DF804FB00BFE432002011
:1049C00010B584B0484B1B6813F4804F03D0474B9D
:1049D0001B68032B36D8464B0393039B0293424B31
:1049E0001B6813F4804F03D0404B1B68032B4AD83D
:1049F00002A8FFF7C3FE0446039B029A9A421ED008
:104A0000394B1B6813F4804F19D0384B1B68012BAE
:104A100015D92F21374813F0CFFB002856D02F216E
:104A2000344813F0C9FB411C334BD3F80435029AC8
:104A30000192324A00928C2202200CF0BDFB2046EB
:104A400004B010BD2F212B4813F0B6FB70B12F21FD
:104A5000284813F0B1FB411C274BD3F80435284AF2
:104A600000927A2204200CF0A7FBB4E75C212148D5
:104A700013F0A2FB28B15C211E4813F09DFB411CE2
:104A8000EAE71C49E8E72F211A4813F095FB80B1AB
:104A90002F21184813F090FB411C174BD3F8043515
:104AA000039A0192174A0092832204200CF084FB9F
:104AB0009EE75C210F4813F07FFB28B15C210D4875
:104AC00013F07AFB411CE8E70A49E6E75C21094854
:104AD00013F072FB28B15C21064813F06DFB411CFA
:104AE000A2E70449A0E700BF403200203C3200208A
:104AF000B83100205483030000B00040308403002C
:104B0000048403002084030000B583B002AB43F8A3
:104B1000040D20491846FFF72FFEA8B91E4B93F845
:104B200016335B09012B16D9042B16D0052B10D098
:104B30000123A3B942F2020008BBFFF741FF18BBF3
:104B4000002003B05DF804FB144A9321FFF7A0FE98
:104B5000E4E70023EDE70023EBE70023E9E7104B50
:104B60009B682BB94FF480020B4B1A600020E3E7DF
:104B70000B4A136843F4800313600020DCE7074A04
:104B80009421FFF785FED8E7044A9721FFF780FEBE
:104B9000D6E700BF1148020000E100E054830300A3
:104BA000046B002000B587B04F4B1B6813F4804F97
:104BB00003D04E4B1B68032B28D84D4B186805902B
:104BC000FFF7A2FF484B1B6813F4804F03D0474BFD
:104BD0001B68032B3BD800230493059B0293454B92
:104BE000039302A80AF000F9002851D13E4B1B683C
:104BF00013F4804F03D03D4B1B68032B4DD80AF0B4
:104C00004DF900286AD107B05DF804FB2F213A481E
:104C100013F0D2FA70B12F21374813F0CDFA411CAE
:104C2000364BD3F80435364A0092B52204200CF0F6
:104C3000C3FAC2E75C21304813F0BEFA28B15C2108
:104C40002D4813F0B9FA411CEAE72B49E8E72F2178
:104C5000294813F0B1FA70B12F21274813F0ACFAAC
:104C6000411C264BD3F80435264A0092BF2204206B
:104C70000CF0A2FAAFE75C211F4813F09DFA28B1AF
:104C80005C211D4813F098FA411CEAE71A49E8E74D
:104C9000194AC421FFF7FCFDA8E72F21164813F09D
:104CA0008BFA70B12F21144813F086FA411C134B74
:104CB000D3F80435144A0092C62204200CF07CFA82
:104CC0009DE75C210C4813F077FA28B15C210A4873
:104CD00013F072FA411CEAE70749E8E7064AC721E0
:104CE000FFF7D6FD8FE700BF403200203C320020A6
:104CF00020830300A14702005483030000B000405A
:104D0000B4830300D0830300EC83030010B5044692
:104D1000837803F00303032B21D8DFE803F0020CB0
:104D2000131981788B081D4A11681944A1601C4B26
:104D30001B6800201FE083789B0803EB8303590066
:104D40000B46F0E783789B08642101FB03F3EAE755
:104D500083789B0841F2707101FB03F3E3E7784627
:104D6000104B1B6813B198470023DCE700DE0023DB
:104D7000D9E71846DB681BB19A688A1A002AF8DA64
:104D800018B133B1C460E36010BDE360044B1C6034
:104D900010BDC4600023E36010BD00BF5433002089
:104DA0005C330020146B002010B5764B19688B78AB
:104DB00003F00303744A1278934240F3BA808C687C
:104DC000724B1B68E41A724B03FB04F4032A09D8E4
:104DD000DFE802F0021204066D4B0EE06D4B0CE0B2
:104DE0006D4B0AE078466D4B1B6813B19847002362
:104DF00003E000DE002300E0694BB4FBF3F3614AFB
:104E00001268927802F00302022A19D03AD8012AD5
:104E10006AD102F1CC32A2FB0312D20802EB820269
:104E200051008B4202D0002213465FE00AF060FC82
:104E300000F5742303F51073012253490A7055E0FD
:104E4000514A117839B9574AA2FB0302520964202A
:104E500000FB12326AB1012902D00022134645E05C
:104E6000514AA2FB0312D20802EB820251008B428C
:104E700049D10AF03DFC474B03440221424A1170DC
:104E8000012233E0404A117841B9484AA2FB0302AB
:104E9000D20941F2707000FB123282B1012904D0B4
:104EA000022915D00022134620E0414AA2FB03024A
:104EB00092094FF4167000FB1232002AF0D10AF06A
:104EC00017FC354B034403212F4A117001220DE0DA
:104ED000384AA2FB03125209C2EB021291008B4224
:104EE000EDD00022134601E000221346002A47D1EC
:104EF0000AF0FEFB0446244B1B78032B0CD8DFE89A
:104F000003F00515070900221346EFE7204B0EE0DA
:104F1000204B0CE0204B0AE07846204B1B6813B175
:104F20009847002303E000DE002300E01C4B2344ED
:104F300026E00AF0DDFB0446124B1B689B7803F069
:104F40000303032B09D8DFE803F002120406104B19
:104F50000EE0104B0CE0104B0AE078460F4B1B683C
:104F600013B19847002303E000DE002300E00C4B60
:104F70002344044A12689278C2F3010202490A707B
:104F8000184610BD5C3300205933002054330020F4
:104F9000A0860100809698000046C323146B002071
:104FA00040420F001F85EB51CDCCCCCCF1197605DA
:104FB000B5814E1B8988888810B52B4B1B7873B937
:104FC0002A4B1B68002B47D0FFF7EEFE0146264B0D
:104FD0001B78002B38D026480AF0E6FA10BD244B87
:104FE0005C680AF085FB241A224B1B78032B09D836
:104FF000DFE803F0021204061F480EE01F480CE031
:105000001F480AE078461F4B1B6813B198470020E1
:1050100003E000DE002000E01B48001B154B1B785E
:1050200043B94CF25033984204D9184A13680133FB
:105030001360C5E74009164BA3FB0030134A136801
:1050400003EBD0101060BBE70122074B1A70084831
:1050500041600AF02DFA10BD034B1B7803B910BD57
:1050600003480AF06BFAFAE7583300205C3300205B
:105070003C33002059330020A08601008096980020
:105080000046C323146B002040420F00543300201D
:10509000C55A7C0A10B50446FFF738FE034B1B685F
:1050A0009C4200D010BDFFF787FFFBE75C33002078
:1050B00070B50E461546044628B10BF00BF8164B9A
:1050C0001B68002209E07846144B1B680BB1984717
:1050D000F3E700DEF1E71A46DB680BB1A342FAD131
:1050E000A17866F3010165F38701A17013B13AB1AC
:1050F000D968D16045B903B152B10BF00BF870BD5E
:10510000D86805490860F5E72046FFF7C3FFF4E7D4
:10511000FFF752FFF1E700BF5C330020146B002063
:1051200070B50E461546044640B1A378C3F301039B
:105130003370A378C3F385032B7070BD7846034B9F
:105140001B680BB19847F0E700DEEEE7146B002018
:1051500008B5804708BD000008B50122054B1A704C
:1051600005480CF013FE00B908BD04480DF07EF8A8
:10517000FAE700BF8C33002068330020C0310020E4
:105180002DE9F0410AF0A6FF574B1B78BBB9574BEE
:105190001B780BB1002513E00622012154480CF0C6
:1051A000DBFE50B10124C4800222028182800CF017
:1051B00017FF4E4B1C70002502E0112500E008256A
:1051C000002418E003EB44004A4A02EB80025268D4
:1051D000D24301EB830042600133002BF2D008463A
:1051E0000CF0FEFE434A12F8343023F0020302F8BA
:1051F00034300134A4B2012C3DD895B93D4B13F89D
:10520000343003F00303032BF3D1042244F4405160
:1052100037480CF0A1FE014608B12B46DDE7112509
:10522000E7E7002402E011250134A4B2002C50D19C
:10523000002D36D104EB44035A002F4B13445B7905
:1052400013F0020FF0D0022244F4805128480CF0F1
:1052500083FE0028E7D0284E4FEA440808EB0401FB
:105260004B00F718F35A83800CF0BAFE7B7923F0D9
:1052700002037B71D8E70024D8E734261F4B06FBD6
:10528000043614223146043012F0B7FE38460CF0D2
:10529000A7FE96F8303023F0020386F83030631C06
:1052A0009CB2012C17D8B5B93423144A03FB04234C
:1052B00093F8303003F00303032BF0D1142244F4AD
:1052C00000510B480CF048FE07460028D5D11125A7
:1052D000E5E70024E5E71DB90AF01CFFBDE8F08111
:1052E00007480CF0C3FFF7E78C3300208D33002014
:1052F00068330020F8330020603300209033002012
:10530000D031002008B5682200210F4812F080FE3D
:10531000062200210D4812F07BFE102200210C48CD
:1053200012F076FE00230CE03422074902FB031240
:105330004FF6FF71D18091800220D081918101339D
:105340009BB2012BF0D908BD9033002060330020C0
:10535000F833002008B5FFF7D5FF00F0F5FBFFF7A5
:10536000FBFE08BD012803D9002373B9052070474F
:105370003423134A03FB002393F8303013F0010F5A
:1053800001D10023F1E70123EFE7172901D9072015
:10539000704734230A4A03FB0023DB8899420CD070
:1053A0003422074B02FB0030C18090F8303043F0CC
:1053B000020380F83030002070470020704700BFA3
:1053C000903300200A46D1B1012803D9002373B9D4
:1053D0000520704734230B4903FB001393F830304A
:1053E00013F0010F01D10023F1E70123EFE734218E
:1053F000044B01FB0030C3881380002070470E204F
:10540000704700BF90330020012801D90520704764
:1054100070B53423204C03FB004393F8303013F075
:10542000010F01D1052070BD342303FB00439B69AC
:1054300083B33F2A01D9072070BD032901D9072072
:1054400070BD342303FB00435B7CB2EB930F17D09A
:10545000114C342303FB00F025186B7C62F38703A7
:1054600061F301036B74103020440430FFF720FE19
:1054700095F8303043F0020385F83030002070BDDD
:10548000342303FB00435B7C03F003038B42DFD137
:10549000002070BD062070BD9033002031B30B4654
:1054A00032B310B5012803D9002171B9052010BD10
:1054B0003421114C01FB004191F8301011F0010F23
:1054C00001D10021F1E70121EFE734210A4C01FB72
:1054D0000041896971B11946342303FB00F0103093
:1054E00020440430FFF71CFE002010BD0E20704742
:1054F0000E207047062010BD90330020012803D9EC
:10550000002373B90520704734231E4A03FB002390
:1055100093F8303013F0010F01D10023F1E701239C
:10552000EFE73423174A03FB0023DB89022B24D047
:10553000172901D90720704730B4134A02EBC3037F
:1055400004334D0953F8254001F01F01012202FAEE
:1055500001F10C4213D1214343F825103422094BA9
:1055600002FB0030C189084A12F8313043F00203CF
:1055700002F83130002030BC704706207047002010
:10558000F9E700BF90330020F8330020012803D949
:10559000002373B90520704734231E4A03FB002300
:1055A00093F8303013F0010F01D10023F1E701230C
:1055B000EFE73423174A03FB0023DB89022B25D0B6
:1055C000172901D90720704730B4134A02EBC303EF
:1055D00004334D0953F8254001F01F01012202FA5E
:1055E00001F10C4214D024EA010143F825103422C1
:1055F000084B02FB0030C189074A12F8313043F0F2
:10560000020302F83130002030BC7047062070479A
:105610000020F9E790330020F8330020002945D01E
:10562000F0B40D46002A43D0012804D900237BB9E9
:105630000520F0BC70473423204903FB001393F886
:10564000303013F0010F01D10023F0E70123EEE722
:1056500004463421194B01FB0030C389022B29D0A9
:1056600016880021118000E0013117291CD834234D
:10567000124803FB0403DB89012BF5D8104800EB2B
:10568000C3030433480953F8200001F01F07012326
:10569000BB401842E8D013889E420DD925F813105C
:1056A000138801331380DFE70020C2E70E20704724
:1056B0000E20BEE70620BCE70920BAE790330020A1
:1056C000F8330020012803D9002373B9052070475F
:1056D0003423194A03FB002393F8303013F0010FF1
:1056E00001D10023F1E70123EFE7082901D90720C1
:1056F000704730B4342303FB00F308330E4A1344DD
:105700004D0953F8254001F01F01012202FA01F171
:105710000C420FD1214343F825103422064B02FBE3
:10572000003090F8303043F0020380F83030002031
:1057300030BC70470020FBE790330020012803D9DC
:10574000002373B90520704734231A4A03FB002352
:1057500093F8303013F0010F01D10023F1E701235A
:10576000EFE7082901D90720704730B4342303FB41
:1057700000F308330F4A13444D0953F8254001F054
:105780001F01012202FA01F10C4210D024EA0101AA
:1057900043F825103422074B02FB003090F83030DC
:1057A00043F0020380F83030002030BC7047002006
:1057B000FBE700BF90330020002938D0F0B40E463C
:1057C000002A36D0012804D900237BB90520F0BC7B
:1057D00070473423194903FB001393F8303013F05A
:1057E000010F01D10023F0E70123EEE71788002322
:1057F000138000E00133072B17D8342101FB00F19F
:1058000008310E4C21445C0951F8244003F01F0577
:105810000121A9400C42EDD011888F420BD926F806
:105820001130118801311180E4E70020CFE70E200C
:1058300070470E20CBE70920C9E700BF9033002056
:10584000012803D9002373B9052070473423134A74
:1058500003FB002393F8303013F0010F01D1002334
:10586000F1E70123EFE7082901D907207047342326
:105870000A4A03FB00239B8899420CD03422074B31
:1058800002FB0030818090F8303043F0020380F852
:105890003030002070470020704700BF9033002058
:1058A0000A46D1B1012803D9002373B905207047F6
:1058B00034230B4903FB001393F8303013F0010F2E
:1058C00001D10023F1E70123EFE73421044B01FB71
:1058D000003083881380002070470E20704700BF7F
:1058E00090330020012803D9002373B905207047A5
:1058F0003423144A03FB002393F8303013F0010FD4
:1059000001D10023F1E70123EFE781F080037E2B33
:1059100001D80720704734230A4A03FB00231B7C6D
:1059200099420CD03422074B02FB0030017490F8EE
:10593000303043F0020380F8303000207047002000
:10594000704700BF903300200A46D1B1012803D927
:10595000002373B90520704734230B4903FB001360
:1059600093F8303013F0010F01D10023F1E7012348
:10597000EFE73421044B01FB0030037C137000205F
:1059800070470E20704700BF9033002008B10520FB
:105990007047034600EB400042000A48825A8A42A0
:1059A0000DD030B402465800C5186C0015191153BB
:1059B0006B7943F002036B71002030BC704700200C
:1059C000704700BF603300200B4651B108B105207D
:1059D000704700EB4000420003498A5A1A800020B9
:1059E00070470E20704700BF603300200B4659B14E
:1059F00008B10520704700EB40004100034A0A440B
:105A000092781A70002070470E2070476033002093
:105A10000B4659B108B10520704700EB400041002A
:105A2000034A0A44D2781A70002070470E2070474B
:105A3000603300200B46E9B1012803D9002272B976
:105A40000520704734220C4902FB001292F83020E6
:105A500012F0010F01D10022F1E70122EFE7064920
:105A6000342202FB00F00A18095A198052885A8021
:105A7000002070470E2070479033002030B482B071
:105A800001915AB3144618B1052002B030BC7047DA
:105A90004FF6FF731380002301E001339BB2012B0B
:105AA0001AD834220E4902FB031292899042F4D193
:105AB000342202FB03F2895ABDF804209142ECD152
:105AC0003421074A01FB03256988BDF8062091426D
:105AD000E3D123800020D8E70520D6E70E20D4E7C5
:105AE0009033002039B3F0B40E4632B310B1052024
:105AF000F0BC704717880023138000E00133012BAE
:105B000017D81488A7421AD934210E4D01FB03512E
:105B100091F8301011F0010FF0D0342101FB035146
:105B200089898842EAD126F8143011880131118020
:105B3000E4E70020DCE70E2070470E20D8E70920BC
:105B4000D6E700BF9033002008B50AF0C3FA094B2E
:105B5000B3F868303BB950220021074812F058FAD8
:105B60000AF0D8FA08BD03480023A0F8683009F00D
:105B7000E5FCF0E7083400202034002002460E4BFC
:105B80001B6813F0010F0AD00C4B1B8898420FD3EF
:105B90000A48408803449A420CDB002300E00023BB
:105BA000184623B14A8001230B7000234B607047D5
:105BB0000023F5E70123F3E77C340020DC350020E7
:105BC0004FF6FF730B8000230F2B25D830B40DE068
:105BD0005A09124C54F8224003F01F050122AA4032
:105BE000144208D10B8001330F2B12D80C884FF6CA
:105BF000FF729442ECD00A4A32F823208242F2D15A
:105C0000074A02EB8302D278002AECD00B800120F5
:105C100000E0002030BC7047002070477434002042
:105C20008C34002030B583B005460C460DF10601DA
:105C3000FFF7C6FF034620B16580032222700022D1
:105C40006260184603B030BD0B88072B01D80133C2
:105C500000E000234FF6FF720A80072B1DD830B4F6
:105C600009E003EB8304A2000D4CA25A82420ED03D
:105C70000133072B0ED85A090A4C54F8224003F07E
:105C80001F050122AA401442EBD10B80F0E70B80E4
:105C9000012000E0002030BC70470020704700BFAA
:105CA00058370020843400204FF6FF730B80002308
:105CB0000F2B20D830B407E00C884FF6FF729442C7
:105CC00014D001330F2B13D85A090C4C54F822402E
:105CD00003F01F050122AA401442EDD0084A32F811
:105CE00023208242EDD10B80012002E00B80E8E707
:105CF000002030BC70470020704700BF7434002083
:105D00008C3400204FF6FF730B80002373B100200A
:105D1000704708330B8001201EE00C884FF6FF729D
:105D2000944215D103F108020A8011E030B45A09F7
:105D30000A4C54F8224003F01F050122AA401442E5
:105D4000EBD0162202FB03F2054CA25A8242E0D0AD
:105D50000133002BEBD0002030BC7047843500208D
:105D60008C3500204FF6FF730B800023072B22D8C1
:105D700030B407E00C884FF6FF72944216D001331E
:105D8000072B15D85A090D4C54F8224003F01F0573
:105D90000122AA401442EDD0162202FB03F2084C65
:105DA000A25A8242EBD10B80012002E00B80E6E791
:105DB000002030BC70470020704700BFCC3400206A
:105DC000D4340020F0B417680023136000E00133DE
:105DD000072B1ED85C09114D55F8245003F01F06FF
:105DE0000124B4402542F2D016240D4D04FB035487
:105DF00064888442EBD11568AF420DD0162404FBB1
:105E000003F4074E345B21F8154014680134146024
:105E1000DDE70120F0BC70470020FBE7CC34002018
:105E2000D434002070B40E6800230B6000E001330E
:105E3000032B17D85A090E4C54F8224003F01F05C3
:105E40000122AA401442F2D00C68A6420DD05C2276
:105E500002FB03F2074DAA5A20F814200A68013207
:105E60000A60E4E7012070BC70470020FBE700BF38
:105E7000E0350020E835002010B5044628B10F4B6E
:105E80009C420AD24FF6FF7010BD78460C4B1B683F
:105E90000BB19847F3E700DEF1E703F58A739C4204
:105EA00002D94FF6FF7010BDA3F58A70201A054C79
:105EB000A4FB0030C0F38F1010BD00BFFA350020E6
:105EC000146B0020C94216B210B5044628B10F4B1E
:105ED0009C420AD24FF6FF7010BD78460C4B1B68EF
:105EE0000BB19847F3E700DEF1E703F58A739C42B4
:105EF00002D94FF6FF7010BDA3F58A70201A054C29
:105F0000A4FB0030C0F38F1010BD00BF243600206A
:105F1000146B0020C94216B210B5044658B1144B98
:105F20009C4202D39A339C420DD9124B9C4213D20D
:105F30004FF6FF7010BD78460F4B1B680BB19847AA
:105F4000EDE700DEEBE7A3F19A00201A0B4CA4FB6F
:105F50000030C0F30F1010BD02D94FF6FF7010BD16
:105F6000E01A064CA4FB00300009083080B210BDD6
:105F7000D834002090350020146B0020A38B2EBA5B
:105F8000A8B110B4044600236BB9162202FB03F239
:105F900008498A5A944201D00133F5E7162202FBE0
:105FA0000313181D00E000205DF8044B704700202B
:105FB000704700BF8C35002070B505460E4614466C
:105FC000106818B1FFF7A8FF013002E0002000E0E0
:105FD000013007281FD84309104A52F8232000F047
:105FE0001F0101238B401A42F2D016230C4A03FBF7
:105FF00000235B88AB42EBD1162303FB00235B79C4
:10600000734013F03F0FE3D11622054B02FB003320
:106010000433236070BD0023236070BDCC340020A6
:10602000D43400200D4B23F8210003EB8103002220
:10603000DA709A704B090A4801F01F01012202FA36
:1060400001F150F823200A4340F82320054850F876
:106050002320114340F82310704700BF8C340020E8
:10606000743400207834002008B50B8881B21846BB
:10607000FFF7D8FF08BD0000024B33F820300B803B
:10608000704700BF8C34002010B5044608B1A0470B
:1060900010BD7846034B1B680BB19847F7E700DE4D
:1060A000F5E700BF146B00202DE9F84380468946D0
:1060B0001146A3F10804114F162505FB04F57E19BE
:1060C0001022B01D11F099FF002373710123337169
:1060D000A6F8029027F805806209094804F01F0419
:1060E000A34050F82210194340F82210054850F8F8
:1060F00022100B4340F82230BDE8F8838C35002095
:10610000843500208835002010B50C4600F10803C6
:106110009BB20A1D49882088FFF7C6FF10BD00000A
:10612000F8B50D46074F162404FB00F43E19102263
:10613000B11D281D11F061FF3B5B2B8073886B80C4
:10614000F8BD00BF8C350020F8B50D46074F16246A
:1061500004FB00F43E191022B11D281D11F04DFF63
:106160003B5B2B8073886B80F8BD00BFD43400206C
:1061700070B50D46064E5C2404FB00F43119102264
:106180000231A81C11F039FF335B2B8070BD00BFBA
:10619000E835002010B50C4600EB80008300044970
:1061A000194410220431204611F027FF10BD00BF12
:1061B0005837002008B50422014811F01EFF08BD21
:1061C000DC35002008B508460422024911F015FF0D
:1061D00008BD00BFDC3500202DE9F04107460E4622
:1061E00090461C461625184B05FB043510224146E7
:1061F000A81D11F002FF691D40460AF039FF20B1C9
:106200007846124B1B68EBB198470F49162303FBE6
:1062100004F3CA1800201071CF52568063090C494C
:1062200004F01F04012202FA04F451F8232022434F
:1062300041F82320074951F82320144341F8234013
:10624000BDE8F08100DEE0E7D4340020146B0020CC
:10625000CC340020D034002010B50C4683B20A1D87
:1062600049882088FFF7B8FF10BD00002DE9F041F4
:106270000D4614462A4A5C2101FB04F101F130036A
:10628000134404330A441364064610B90122254B13
:106290001A705C2101FB04F11031214B19440231C9
:1062A00028460AF0F0FE20B178461F4B1B6893B3D6
:1062B00098475C2101FB04F14031194B194404312A
:1062C00028460AF0F3FE20B17846174B1B6823B32B
:1062D0009847DFF84C805C2707FB04F708EB0700C2
:1062E00010222946023011F088FE28F80760630961
:1062F0000E4904F01F04012202FA04F451F823208D
:10630000224341F823200A4951F82320144341F83D
:106310002340BDE8F08100DECBE700DED9E700BF17
:10632000E8350020D8350020146B0020E03500202F
:10633000E435002008B50B4682B202311888FFF719
:1063400095FF08BD70B50646A1F11004A3002344D3
:106350009A00134D154410220146281D11F04DFEE0
:10636000294630460AF0CCFE20B178460D4B1B681A
:106370009BB1984763090C4904F01F04012202FAFB
:1063800004F451F82320224341F82320074951F80F
:106390002320144341F8234070BD00DEEAE700BF2C
:1063A00058370020146B00208434002088340020EB
:1063B00008B50B4600F1100189B21846FFF7C2FF7D
:1063C00008BD0000F8B506460D4609F083FE052E0F
:1063D00004D978461C4B1B6843B198471B4B1C786B
:1063E00034B9F4B109F096FE2046F8BD00DEF5E7B9
:1063F000174B03EB4613598A29445A6989B2154849
:106400000BF0AAFD074650B1114B03EB46139B69F5
:10641000011D2846984738460BF0E2FDE1E70024CD
:10642000DFE70B4B03EB4616B268690905F01F0561
:10643000012303FA05F552F821302B4342F82130AD
:1064400005480BF013FFCDE7146B0020A2350020A8
:106450008C840300A4350020C835002070B50646A2
:106460000D4609F037FE052E04D97846164B1B68F9
:1064700043B19847154B1C7834B994B109F04AFEE2
:10648000204670BD00DEF5E7114B03EB4613598A39
:10649000294489B20F480BF0D5FDB0FA80F46409A5
:1064A000EBE70B4B03EB4616B268690905F01F05D5
:1064B000012303FA05F552F821302B4342F821302D
:1064C00005480BF0D3FED9E7146B0020A23500205D
:1064D0008C840300A4350020C835002038B50F286F
:1064E0000BD84309384A52F8232000F01F0101233A
:1064F0008B401A4210D0012200E000222AB3334B15
:1065000003EB80039B78002B5AD1304B03EB8003C5
:10651000DB781BB1002038BD0022EFE744092A498F
:1065200000F01F03012505FA03F251F8243023EA95
:10653000020341F824300024244B23F82040014674
:106540002846FFF78BFF204638BDA0F110039BB211
:10655000072B0BD85C091E4951F8244003F01F0398
:10656000012101FA03F31C4200D00A460AB90520B2
:1065700038BDA0F1100101EB81039A00154B1344C3
:106580009B78FBB9134B1344DB780BB1002038BD6B
:106590004C090F4801F01F02012303FA02F250F8E0
:1065A000243023EA020340F8243001EB81029300F7
:1065B0000024084AD4520220FFF750FF204638BD7D
:1065C000002038BD002038BD743400208C340020F9
:1065D000843400205837002008B50022054B1A707B
:1065E00005480BF0D3FB00B908BD04480BF03EFE94
:1065F000FAE700BFA2350020A4350020E0310020DA
:1066000070B505460C4616464FF6FF730B8008F032
:10661000DFFB3070022823D0032841D0012841D06D
:10662000002070BD03EB83018A0020498A5A9542FD
:1066300013D00133072B15D821884FF6FF729142F2
:10664000F0D15A091A4951F8221003F01F00012213
:1066500082401142E6D12380EBE72380012070BD08
:106660000023E7E7002070BD124A32F8232095424C
:1066700013D001330F2B17D821884FF6FF729142A8
:10668000F2D15A090C4951F8221003F01F000122DF
:1066900082401142E8D12380EBE72380012070BDC6
:1066A0000023E7E70023E5E7002070BD583700200E
:1066B000843400208C34002074340020002942D01F
:1066C00070B582B00E46144605460DF1070201A9C9
:1066D000FFF796FF8CB99DF80730032B0DD01020E3
:1066E00048B9BDF80420328034B3184B03EB820361
:1066F0009A7801329A7002B070BD012C10D0B8B9EE
:10670000BDF804104FF6FF73994213D02846FFF7E7
:1067100089FCBDF804100120FFF754FE0020DFE7DC
:106720009DF80730032BEAD0012BE8D01020D7E7E3
:106730000020D5E70420D3E7044B03EB8203DA788B
:106740000132DA70D7E70E20704700BF8C3400208A
:1067500070B506460D464FF6FF730B8000240BE024
:1067600004EB840293001048184410223146043090
:1067700011F034FC98B10134072C13D863090B4A8B
:1067800052F8232004F01F0101238B401A42E7D165
:106790002A884FF6FF739A42EDD12C80EBE72C80CC
:1067A000012070BD002070BD5837002084340020C7
:1067B000F0B583B04FF6FF73ADF8063000283BD03C
:1067C000074600293AD015460C460DF10601FFF7A1
:1067D000BFFFBDF8063003F110018EB270B94FF65D
:1067E000FF72934201D1042029E031463846FFF779
:1067F000A9FDBDF806100220FFF7E4FD26806DB16B
:10680000BDF806000F4A83001C18A1000C46114475
:10681000897822444B1C9370002010E0BDF80600DC
:10682000084A83001C18A1000C461144C978224470
:106830004B1CD370002002E00E2000E00E2003B0BD
:10684000F0BD00BF5837002030B583B005460C4678
:10685000486820B10DF10601FFF77AFF18B94FF62D
:10686000FF73ADF806300DF106012846FFF7ECF98D
:106870000246A8B1BDF8063003EB830399000B4B29
:106880000B44DB787BB1658002232370BDF80610D2
:1068900001EB810101FA03F0044B0344043363600C
:1068A000104603B030BD0022FAE700BF5837002081
:1068B00070B5002511E01A4A6B01D618D4581F3460
:1068C0006409A40022460021706811F0A1FB224651
:1068D0000021B06811F09CFB0135052DEBD9002299
:1068E00006E0104B03EB82030021D970997001324E
:1068F0000F2AF6D9002308E09900194488000A4AB3
:1069000002440021D17091700133072BF4D9074A5A
:10691000002313805380064A1370FFF75DFE70BD9D
:106920008C8403008C34002058370020DC35002094
:10693000D835002010B5044630B11C4B1B6813F04D
:10694000010F09D00F2010BD7846194B1B680BB101
:106950009847F2E700DEF0E7208863880344013BB4
:10696000984201DD0B2010BD08F032FA012801D059
:106970000B2010BD20886388184480B2013880B293
:1069800008F026FA012801D00B2010BD0422214670
:10699000084811F032FB054A136843F00103136005
:1069A00000210846FFF70EFD002010BD7C340020BA
:1069B000146B0020DC35002010B5044628B10422F9
:1069C0000649204611F019FB10BD7846044B1B68A0
:1069D0000BB19847F3E700DEF1E700BFDC3500209C
:1069E000146B002008B50122FFF768FE08BD08B54A
:1069F0000122FFF7DDFE08BD38B50F280BD843098B
:106A00001D4A52F8232000F01F0101238B401A4237
:106A100017D0012200E00022AAB9A0F110039BB216
:106A2000072B0BD85C09154951F8244003F01F03CC
:106A3000012101FA03F31C4200D00A4662B9052085
:106A400038BD0022E8E70E4B03EB80039A78013A49
:106A50009A70FFF743FD38BDA0F11004094AA30066
:106A60001D19A9000D46114489782A444B1E9370C4
:106A7000FFF734FD38BD00BF74340020843400209B
:106A80008C3400205837002008B50022FFF716FE8E
:106A900008BD08B50022FFF78BFE08BD10B4034601
:106AA0000F280BD842091F4951F8221000F01F008F
:106AB00001228240114217D0012100E00021B9B922
:106AC000A3F1100292B2072A0BD85409164850F8C5
:106AD000244002F01F02012000FA02F2144200D00A
:106AE000014619B1012204E00021E8E7002200E09C
:106AF0000122104642B10F2B09D80C4800EB83034A
:106B0000D878003018BF01205DF8044B7047103B67
:106B100003EB83039A00064B1344D878003018BF68
:106B20000120F1E774340020843400208C340020EC
:106B300058370020002943D038B50A460F280BD813
:106B40004309204951F8231000F01F040123A340FA
:106B5000194217D0012100E00021A9B9A0F11003CA
:106B60009BB2072B0BD85D09174C54F8255003F046
:106B70001F03012404FA03F31D4200D0214681B90A
:106B8000052038BD0021E8E71446104B33F82020DB
:106B9000628033F8200008F01BF92070002060604C
:106BA00038BD10380A4B81000D18AC0025461C5B1F
:106BB00054802B440433536002231370002038BDEB
:106BC0000E20704774340020843400208C34002060
:106BD0005837002010B582B00F280BD843092E4A31
:106BE00052F8232000F01F0101238B401A4217D0D6
:106BF000012200E00022BAB9A0F110039BB2072BDA
:106C00000BD85C09254951F8244003F01F030121EA
:106C100001FA03F31C4200D00A461AB1012304E032
:106C20000022E8E7002300E0012313B9052002B0A9
:106C300010BD04466946FFF77DFF50BB9DF800304C
:106C4000032B03D0022B11D00F20F0E7144B03EBE2
:106C50008403DB780BB90520E9E7114A02EB8402D3
:106C6000013BD3702046FFF739FCE0E7A4F11003A5
:106C700003EB830291000B4A0A44D2780AB905203B
:106C8000D5E7084B0B44013ADA702046FFF726FCA3
:106C9000CDE70020CBE700BF74340020843400200F
:106CA0008C34002058370020B0B370B40646A9B326
:106CB0000023184600E001330F2B10D85A09194C55
:106CC00054F8224003F01F050122AA401442F2D0DA
:106CD0000A68904224D026F810300130EBE70023F8
:106CE00005E003F1100226F8102001300133072BD4
:106CF0000ED85A090C4C54F8224003F01F0501220B
:106D0000AA401442F2D00A689042EAD1092001E078
:106D10000860002070BC70470E2070470E20F9E715
:106D20000920F7E7743400208434002058B330B5CC
:106D300083B0054649B30C46408808F049F802285C
:106D40000CD0032803D0012801D010201EE02146DA
:106D50006888FEF7A9FFD8B9052017E04FF6FF7342
:106D6000ADF80630686850B10DF10601FFF7F0FC90
:106D700038B1BDF8063010332380002006E00E2025
:106D800004E0052002E00E2070470E2003B030BD65
:106D90000020FBE718B108B5FFF76EF808BD4FF605
:106DA000FF70704718B108B5FFF7B6F808BD4FF689
:106DB000FF70704700293FD0F8B50E46002A3DD03D
:106DC000B0F5805F01D30720F8BD4FF6FF750023B3
:106DD00004E04FF6FF718D4216D00133032B15D816
:106DE0005C09174951F8241003F01F070124BC4027
:106DF0002142EED05C2101FB03F1124C615A884222
:106E0000EBD19DB2012302E09DB2E6E700230BB176
:106E10000F20F8BD4FF6FF739D4201D10420F8BD4D
:106E2000314614462A46FFF721FA29460320FFF788
:106E3000C9FA25800020F8BD0E2070470E20F8BD4D
:106E4000E0350020E835002009B30B46032801D9BE
:106E50000520704710B542090E4951F8221000F084
:106E60001F040122A240114201D1052010BD194684
:106E700004465C2303FB00F302460748C05AFFF7B1
:106E8000F5F921460320FFF79DFA002010BD0E20E2
:106E9000704700BFE0350020E835002030B108B56C
:106EA00031B1FEF7BFFF28B9092008BD0E20704799
:106EB0000E2008BD002008BD002A3CD0F0B583B0EC
:106EC0001446D3B31F460E46054607F081FF01283E
:106ED00001D0102032E0032E01D905202EE07309E5
:106EE000174A52F8232006F01F0101238B401A4253
:106EF00001D1052022E00DF106012846FEF702FF30
:106F000008B10F201AE0BDF806304FF6FF72934229
:106F100001D1042012E0224631462846FFF7C4F88A
:106F2000BDF8061008390520FFF74CFABDF8063009
:106F30003B80002002E00E2070470E2003B0F0BD21
:106F4000E0350020082801D00520704770B5A0F179
:106F5000080189B248090E4A52F8204001F01F0585
:106F60000123AB401C4201D1052070BD162505FB55
:106F700001F50024074E745352F8205025EA03030C
:106F800042F820300520FFF769FA204670BD00BFA7
:106F9000843500208C350020002A3AD0F0B583B02B
:106FA0001446C3B3032902D9052003B0F0BD4A0932
:106FB0001A4D55F8225001F01F060122B240154229
:106FC00001D10520F1E7B0F5805F01D30720ECE7A0
:106FD0001D460F4606460DF10601FEF7C3FE08B139
:106FE0000F20E2E7BDF806304FF6FF72934201D161
:106FF0000420DAE7224639463046FFF7EDF8BDF8BF
:1070000006100420FFF7DEF9BDF806302B800020C3
:10701000CBE70E2070470E20C7E700BFE035002009
:1070200011B30A46072801D90520704738B543092E
:107030000E4951F8231000F01F040123A340194208
:1070400001D1052038BD0446094D162000FB04F08F
:10705000291823464988285AFFF7BEF821460420FC
:10706000FFF7B0F9002038BD0E207047CC34002067
:10707000D4340020072801D90520704738B54509C8
:107080000A4C54F8252000F01F0101238B401A42BE
:1070900001D1052038BD014622EA030344F825301A
:1070A0000420FFF7DBF9002038BD00BFCC340020FE
:1070B000032801D9052070472DE9F0414FEA501807
:1070C0002D4F57F8283000F01F020126964033421A
:1070D00002D10520BDE8F0810546002401E000DE74
:1070E0000134072C1CD86309244A52F8232004F0E9
:1070F0001F0101238B401A42F2D01623204A03FBC2
:1071000004235B889D42EBD1A0B2FFF7B3FF0028B8
:10711000E6D078461B4B1B68002BE0D09847DFE792
:10712000002464B157F8283023EA060647F828609F
:1071300029460320FFF792F90020BDE8F0811623CD
:1071400003FB04F3104AD35A2BB1162303FB042389
:107150005B889D4201D00134E3E704F1080080B26E
:10716000FFF7F0FE0028F6D07846064B1B680BB1FF
:107170009847F0E700DEEEE7E0350020CC34002051
:10718000D4340020146B00208C350020C1B138B5F8
:107190000B46BAB1032801D9052038BD41090B4C73
:1071A00054F8214000F01F050121A9400C4201D1F3
:1071B000052038BD1946FEF705FE28B9092038BD5F
:1071C0000E2070470E2038BD002038BDE03500206D
:1071D000082801D905207047002900F08D8038B5B6
:1071E0000D460446072842D84309444A52F8232052
:1071F00000F01F0101238B401A4201D1052038BD48
:1072000016233F4A03FB00235B88032B04D97846EF
:107210003C4B1B683BB398471623394A03FB0423B6
:107220005B885909384A52F8211003F01F030122E4
:1072300002FA03F3194204D17846324B1B68A3B11A
:10724000984716202E4B00FB0430031D6B604288CC
:107250005C2303FB02F303F110022C4B13440233B3
:107260002B60002038BD00DED6E700DEE9E7A0F1A4
:1072700008046209264B53F8222004F01F01012361
:107280008B401A4201D1052038BD1623214A03FB49
:1072900004235B88032B04D978461A4B1B683BB345
:1072A000984716231B4A03FB04235B885909164A97
:1072B00052F8211003F01F03012202FA03F31942CE
:1072C00004D178460F4B1B68A3B198471622114B87
:1072D00002FB043462885C2303FB02F303F1100217
:1072E0000A4B134402332B6004346C60002038BD19
:1072F00000DED6E700DEE9E70E207047CC34002040
:10730000D4340020146B0020E0350020E835002044
:10731000843500208C35002038B504460D4629B14F
:10732000286858B1FEF7A8FD01300AE07846154BF1
:107330001B680BB19847F3E700DEF1E7002000E09F
:10734000013003281BD843090F4A52F8232000F0CC
:107350001F0101238B401A42F2D05C230B4A03FB2E
:1073600000239B7C634013F07F0FE9D15C2303FB78
:1073700000F010301346034402332B6038BD002365
:107380002B6038BD146B0020E0350020E83500206C
:1073900070B504460E46154662B19CB12046FEF714
:1073A0006BFD4FF6FF73984214D02A463146FEF724
:1073B00003FE70BD7846094B1B680BB19847ECE79C
:1073C00000DEEAE77846054B1B680BB19847E5E716
:1073D00000DEE3E700232B6070BD00BF146B0020CC
:1073E00038B505460C4621B12846FEF7C9FD206098
:1073F00038BD7846034B1B680BB19847F4E700DEB5
:10740000F2E700BF146B002070B505460E4629B1A7
:10741000306858B1FEF758FD441C19E07846214BFE
:107420001B680BB19847F3E700DEF1E700240FE09B
:10743000012100E001211C4B5C2202FB04F41A191B
:1074400082F83C10383423440433336070BD013477
:10745000032C24D86309154A52F8232004F01F0195
:1074600001238B401A42F2D065B15C2101FB04F18B
:1074700050310D4B194408220431284610F0AEFD5E
:107480000028E4D10A4B1B78002BD3D05C2303FBEC
:1074900004F3054AD35A002BCAD00021CBE70023BE
:1074A000336070BD146B0020E8350020E03500200B
:1074B000D835002038B504460D4607F089FC02286F
:1074C0000FD0032808D0012801D0002038BD29465C
:1074D0002046FEF753FB38BD29462046FEF7A2FBA7
:1074E00038BD29462046FFF7AFF938BD002840D007
:1074F000002940D0214A1060214B19604FF0A04371
:107500004FF48072C3F81C258022C3F81C250C227E
:10751000C3F82027C3F81C274022C3F80825C3F866
:1075200018252022C3F81825164B0622C3F80C256F
:107530000822C3F814250722C3F810250522C3F832
:1075400008250121C3F86C150F4AC3F8242504222D
:10755000C3F800258420C3F804030020C3F8080101
:10756000C3F81C011960094BC02183F802131A608B
:1075700070470E2070470E20704700BFFC37002078
:10758000003800200020004000E0D70100E100E0CA
:1075900008B5134B1B789BB1124BD3F808317BB164
:1075A000104B0022C3F80821D3F808310E4B1B689A
:1075B000002BEED00B4AD2F81805C0B29847E8E786
:1075C000084BD3F81C314BB1064B0022C3F81C21E9
:1075D000D3F81C31054B1B6803B1984708BD00BFA9
:1075E000F837002000200040FC3700200038002041
:1075F00008B5FFF7CDFF08BD014B1870704700BFFD
:10760000F837002008B50C4B1B7803B108BD0B49B7
:107610000B4806F0B1FC0028F8D1084B1B6819791B
:107620000123054A1370074AC2F81C019360C2F88F
:107630001C15054A1380E9E7E8380020CC39002002
:10764000BC390020002000400438002008B5024B5F
:10765000186808F0A9FD08BD0838002008B51D4BC2
:107660001B7823B978461C4B1B68B3B198471B4B5A
:107670001B68A3B1194B1968194B1B880A79013291
:10768000934215D0934207DA19440A790133144919
:107690000B80144BC3F81C2508BD00DEE7E7012270
:1076A000104BDA6000220B4B1A70FFF7CFFF08BDBA
:1076B00001330B4A13800C4806F0CEFC0023074A26
:1076C00013600121074AD160024A1370FFF7BEFF21
:1076D00008BD00BFE8380020146B0020CC39002022
:1076E0000438002000200040BC39002008B5D0221A
:1076F0001249134806F0FAFAD0221249124806F04D
:10770000F5FA12491248FFF7F1FE20B17846114B05
:107710001B6883B198470120FFF76EFF00230E4AD4
:1077200013700E4A13800E4A13800E4808F012FDA3
:107730000D4B186008BD00DEEDE700BFEC380020FF
:10774000BC3900200C380020DC3800205D760200B7
:10775000B9780200146B0020E8380020EA380020D5
:1077600004380020057602000838002030B583B0C8
:1077700004460D46421C92B201A9064806F04CFB95
:10778000034618B9019A111D29601471184603B0F7
:1077900030BD00BFBC39002038B505460C4602E0BC
:1077A00004220B4B1A6021462846FFF7DFFF04280E
:1077B0000CD10422064BC3F88020FFF7E9FE054BED
:1077C0001B78002BECD1FFF71DFFE9E738BD00BFA8
:1077D00000E100E0E838002038B50446F8B1251F84
:1077E000AB78012B04D07846134B1B68FBB198474C
:1077F000227834F8043C9A4204D978460E4B1B6830
:10780000BBB1984708F066FCFFF720FF34F8042C62
:1078100029460A4806F042FB08F07CFC38BD784651
:10782000054B1B680BB19847D9E700DED7E700DEB0
:10783000DEE700DEE6E700BF146B0020BC39002065
:1078400030B583B004460D4601A90320FFF78EFF33
:1078500008B103B030BD8422019B5A70019B9D701A
:10786000019BDC700198FFF7B7FFF2E738B503889A
:107870009BB104460E4A11680A79013293420DD039
:1078800049788420FFF7DCFF094D2968094806F094
:10789000E3FB00232B600023238038BD0A880548C2
:1078A00006F0FCFA0022024B1A6000F063FCF2E7DB
:1078B000C8390020DC38002038B50446254B1B8829
:1078C00083B125490B68234A108803441C7113882F
:1078D00001339BB213800A681AB1127901329342C4
:1078E00034D038BD421C1D4B1D8805B91546012DED
:1078F00004D91B4806F0DEF9854218D900218420FE
:10790000FFF79EFF00237BB1144A128862B1002169
:10791000124A1180104A11680E4A1088013D014434
:107920000D71118801311180002BCAD1D9E72A4687
:1079300009490B4806F070FA08B90123E3E7074B41
:107940001D800020FFF758FE0023DCE70148FFF709
:107950008DFFC6E7D0390020C8390020EA38002062
:10796000DC38002010B582B0044601A90A4806F0B0
:1079700003FB10B1002002B010BD01990A88043148
:10798000204610F03AFB0199034806F065FB012000
:10799000FFF732FE0120EEE7DC38002070B5044628
:1079A000084641B100F002FC00231A460146204679
:1079B00000F048FC70BD15461E4600F0F7FB33464C
:1079C0002A460146204600F03DFC70BD70B50023FC
:1079D00093421BD2447801EBC30611F83350AC42FA
:1079E00001D00133F4E70278737801339A4203DB64
:1079F000B1780B449A4206DD00231A4684212046C2
:107A000000F020FC70BD7368984770BD00231A46D3
:107A10008221407800F016FC70BD10B50446FDF7D9
:107A2000AFFB00231A461946607800F00BFC10BD2E
:107A300010B598B0044618AA5C2322F8603D0DF1F9
:107A400002014088FEF74EF8034658B1092809D0D4
:107A5000647800F0ABFB00231A460146204600F094
:107A6000F1FB09E06478184600F0A0FB5E236A464B
:107A70000146204600F0E6FB18B010BD10B582B0FC
:107A8000044601AA41684088FDF7F8FF022301AAD5
:107A900001466078FFF782FF02B010BD10B582B0DA
:107AA000044601A94088FDF7C5FF04230DEB03023E
:107AB00001466078FFF772FF02B010BD10B582B0CA
:107AC000044601A94088FDF7A3FF012301AA01464E
:107AD0006078FFF763FF02B010BD10B582B00446B6
:107AE00001A94088FDF782FF012301AA01466078C1
:107AF000FFF754FF02B010BD10B582B0044601A9D3
:107B00004088FDF761FF022301AA01466078FFF774
:107B100045FF02B010BD10B5044681884088FDF7CE
:107B200035FF647800F042FB00231A4601462046E8
:107B300000F088FB10BD10B582B0044601A9408852
:107B4000FDF702FF012301AA01466078FFF726FF37
:107B500002B010BD10B5044601794088FDF7C2FEA1
:107B6000647800F023FB00231A460146204600F00B
:107B700069FB10BD10B582B0044601A94088FDF72D
:107B80008FFE022301AA01466078FFF707FF02B0CB
:107B900010BD10B5044681884088FDF751FE647819
:107BA00000F004FB00231A460146204600F04AFB81
:107BB00010BD10B598B0044618AA2E2322F8603DD7
:107BC0000DF102014088FDF7F7FD034658B1092881
:107BD00009D0647800F0EAFA00231A4601462046EC
:107BE00000F030FB09E06478184600F0DFFA5E230D
:107BF0006A460146204600F025FB18B010BD10B5BE
:107C0000044681884088FDF799FD647800F0CEFA3B
:107C100000231A460146204600F014FB10BD10B5A3
:107C2000044681884088FDF74DFD647800F0BEFA77
:107C300000231A460146204600F004FB10BD10B593
:107C400098B0044618AA5C2322F8603D0DF10201A9
:107C50004088FDF7E3FC034658B1092809D0647851
:107C600000F0A4FA00231A460146204600F0EAFA82
:107C700009E06478184600F099FA5E236A460146E6
:107C8000204600F0DFFA18B010BD10B50446818818
:107C90004088FDF77BFC647800F088FA00231A46E0
:107CA0000146204600F0CEFA10BD10B5044681888A
:107CB0004088FDF723FC647800F078FA00231A4628
:107CC0000146204600F0BEFA10BD10B582B0044651
:107CD0000DF1050201A94088FDF7E0FB022301AA8E
:107CE00001466078FFF75AFE02B010BD10B5044699
:107CF000427901794088FDF787FB647800F056FAF5
:107D000000231A460146204600F09CFA10BD10B52B
:107D100082B0044601A94088FDF754FB022301AA62
:107D200001466078FFF73AFE02B010BD10B5044678
:107D300081884088FDF716FB647800F037FA00234D
:107D40001A460146204600F07DFA10BD10B50446E3
:107D50004378F52B04D97846054B1B6833B1984717
:107D6000162204492046FFF731FE10BD00DEF7E77A
:107D7000146B00204C85030010B586B00446407893
:107D8000A0F14003142B5DD8DFE803F00B120B0BBE
:107D90000B0B5C5C5C5C5C5C5C5C5C5C5C5C5C32EF
:107DA000450000231A46822100F04CFA06B010BDAF
:107DB0002378012B05D000231A46842100F042FAD3
:107DC000F4E768460BF04CFB9DF80030C3F3460324
:107DD0008DF8083006220DF101010DF1090010F0B7
:107DE0000CF9072302AA0021607800F02BFADDE7E6
:107DF0002378112B05D000231A46842100F022FAA3
:107E0000D4E7A01C05F0A0FD00231A4619466078AF
:107E100000F018FACAE72378012B05D000231A4690
:107E2000842100F00FFAC1E705F0ACFD10220146F5
:107E300002A810F0E2F8102302AA0021607800F0F6
:107E400001FAB3E74038C0B21F2804D97846064B80
:107E50001B683BB1984700231A468221607800F0E6
:107E6000F1F9A3E700DEF6E7146B002010B5044635
:107E70004078782805D000231A46822100F0E2F9E4
:107E800010BD217800220139A01C05F09DFA64780C
:107E900000F08CF900231A460146204600F0D2F982
:107EA00010BD000008B5064B1B780BB1082008BDBB
:107EB000FFF71CFC0122024B1A70002008BD00BF16
:107EC000D339002008B5044B1B78022B01D00820C1
:107ED00008BDFFF761FC08BDD339002010B504468A
:107EE000074B1B78022B04D07846064B1B6823B146
:107EF00098472046FFF770FC10BD00DEF9E700BF91
:107F0000D3390020146B002010B584B03F4B1B7890
:107F1000012B2ED03E4B1B6813F4004F03D10824D5
:107F2000204604B010BD3B4B1B68012B6CD92F21A0
:107F3000394810F041F978B12F21374810F03CF959
:107F4000411C364BD3F80435354A0092A622022054
:107F500009F032F90824E3E75C212F4810F02CF9EE
:107F600028B15C212C4810F027F9411CE9E72A4987
:107F7000E7E70222254B1A7003A90420FFF7A2FFAE
:107F8000044668B3224B1B6813F4004F02D0214B08
:107F90001B681BB901221D4B1A70C1E72F211E4817
:107FA00010F00AF978B12F211B4810F005F9411C97
:107FB0001A4BD3F8043501941A4A0092B0220120DA
:107FC00009F0FAF8E6E75C21134810F0F5F828B15B
:107FD0005C21114810F0F0F8411CE9E70E49E7E791
:107FE0008122039B5A700222039B9A704FF08043B8
:107FF000D3F8003403F00803039AD3700398632383
:108000000371FFF76BFF8BE7082489E7D339002062
:10801000403200203C3200205C86030000B000406B
:10802000A0860300B486030010B59CB00022494B23
:108030001A7018E00133082B13D8474A12F833108E
:108040009DF80D209142F5D8434901EBC3014978D1
:108050008A42EFD8404A02EBC3035B6803A8984703
:1080600000E000243CB103A8FFF77CFC0446002894
:108070006ED00023DFE7394B1B6813F4004F1AD092
:10808000374B1B68012B16D92F21364810F094F876
:10809000002835D02F21334810F08EF8411C324B88
:1080A000D3F804359DF80D200192304A00928122C8
:1080B000022009F081F802A90320FFF703FF04461C
:1080C000002837D0254B1B6813F4004FCBD0244B2E
:1080D0001B68002BC7D02F21224810F06DF8E0B1AB
:1080E0002F21204810F068F8411C1F4BD3F80435AD
:1080F00001941F4A00928722012009F05DF8B2E73F
:108100005C21184810F058F828B15C21154810F08F
:1081100053F8411CC3E71349C1E75C21114810F033
:108120004BF828B15C210F4810F046F8411CDCE701
:108130000C49DAE78422029B5A709DF80D20029BBD
:108140009A708222029BDA700298FFF7C7FE8AE7D4
:108150001CB010BDD2390020FC8503004032002045
:108160003C3200205C86030000B0004044860300DF
:10817000B486030008B50A4B1B781BB9094B1B7862
:10818000022B00D008BD0122054B1A7000210648C1
:1081900007F06CFF0028F5D00022014B1A70F1E7C0
:1081A000D2390020D339002029800200092833D099
:1081B0000BD90E2836D01AD80B282FD00FD30C2865
:1081C0002ED00D2836D19320704704281CD008D912
:1081D00006281DD01AD307281CD008282AD18320AE
:1081E000704702280ED80028F9D1002070471028C7
:1081F0001CD019D311281BD043F20103984219D186
:108200008E207047812070478E2070478E207047E7
:108210008E207047852070478420704787207047E4
:1082200084207047812070478E20704787207047D8
:108230008620704780207047014B1878704700BF38
:10824000D3390020F0B583B007460E461C461546CC
:1082500002B12BB955B17846134B1B684BB1984707
:10826000124B1B78022B06D003B0F0BD002CF7D0C8
:10827000F1E700DEF4E7E01C01A980B2FFF722FE7F
:108280000028F1D18422019B5A70019B9F70019BB1
:10829000DE702DB122462946019804300FF0ADFE64
:1082A0000198FFF71BFEDFE7146B0020D339002095
:1082B0000023012B0ADC4FF43F72054902FB031235
:1082C000824201D00133F4E7D8B27047FF207047F3
:1082D000FC39002030B583B004460378033B0A2BF9
:1082E00050D8DFE813F00B003A0053000B012F01C8
:1082F000CA004F006D009500E8004D018F4B1B78C0
:10830000002B3FD001A91A20FFF7DCFD20B17846F1
:108310008B4B1B68FBB19847C022019B5A70019D93
:108320001022211DA81C0FF068FEE36993F90D309F
:10833000AB74237DEB74E3699B7BC3F346032B751E
:10834000E16906220F3105F115000FF056FE019884
:10835000FFF7C4FD16E000DEDEE701A90220FFF70B
:10836000B1FD20B17846764B1B686BB19847C122AE
:10837000019B5A70019D6068FFF79AFFA8700198F1
:10838000FFF7ACFD03B030BD00DEF0E701A903202C
:10839000FFF798FD20B17846694B1B6873B1984789
:1083A000C222019B5A70019D6068FFF781FFA8708F
:1083B000237AEB700198FFF791FDE3E700DEEFE72A
:1083C00001A90B20FFF77EFD20B178465C4B1B68AE
:1083D000E3B19847C322019B5A70019D6068FFF783
:1083E00067FFA870237AEB70E37A2B71237B6B71A4
:1083F000637BAB71E389A5F80730237C6B72B4F81B
:1084000011306B810198FFF769FDBBE700DEE1E702
:1084100001A92C20FFF756FD20B17846484B1B6878
:108420004BB39847C522019B5A70019D6068FFF7C6
:108430003FFFA8702369C5F80330E38AA5F8093027
:10844000A38AA5F80730237EC3F30003EB72237ED3
:10845000C3F340032B731022E16805F10D000FF008
:10846000CCFD1022A16805F11D000FF0C6FD01989A
:10847000FFF734FD86E700DED4E701A90520FFF70A
:1084800021FD20B178462E4B1B6893B19847C62238
:10849000019B5A70019D6068FFF70AFFA8700123D5
:1084A000EB7000232B7110236B710198FFF716FD01
:1084B00068E700DEEBE701A96220FFF703FD20B1CA
:1084C00078461F4B1B68BBB19847C722019B5A7067
:1084D000019D6068FFF7ECFEA8704022A168E81CCF
:1084E0000FF08BFD2022E16805F143000FF085FDC0
:1084F0000198FFF7F3FC45E700DEE6E701A913204A
:10850000FFF7E0FC20B178460D4B1B689BB1984704
:10851000C822019B5A70019D6068FFF7C9FEA870D0
:10852000237AEB70627AE168281D0FF066FD0198EE
:10853000FFF7D4FC26E700DEEAE700BF404000205A
:10854000146B002001A90520FFF7BCFC20B1784680
:10855000184B1B6893B19847C622019B5A70019D26
:108560006068FFF7A5FEA8700323EB70237A2B71D8
:10857000637A6B710198FFF7B1FC03E700DEEBE76C
:1085800001A90320FFF79EFC20B17846094B1B6828
:1085900073B19847C922019B5A70019D6068FFF72B
:1085A00087FEA870237AEB700198FFF797FCE9E645
:1085B00000DEEFE7146B002010B582B01C4B1B6887
:1085C00013F4004F03D01B4B1B68032B08D81A4928
:1085D0001A4802F000F8044618B3204602B010BD55
:1085E0002F2117480FF0E8FD70B12F2114480FF02C
:1085F000E3FD411C134BD3F80435134A0092D422F7
:10860000042008F0D9FDE2E75C210D480FF0D4FD0D
:1086100028B15C210A480FF0CFFD411CEAE7084968
:10862000E8E70A480A4B036006F091FDD5E700BF72
:10863000403200203C320020DC3900200040002085
:10864000EC86030000B000403C870300D4390020D2
:10865000D582020070B588B004464078A0F161036D
:10866000092B39D8DFE813F00A001C002C00810028
:1086700038009C00B400CE00E500F700834B1B7867
:108680002BB100231A468321FFF7DCFD24E00122F1
:108690007E4B1A7000231A461946FFF7D3FD1BE0E4
:1086A0007A4B1B7823B91A468321FFF7CBFD13E0E1
:1086B0000021764B19700B460A46FFF7C3FD0BE00D
:1086C000A378012B0AD90B21A37808AA02F81C3D34
:1086D00001236320FFF762F908B070BD0023019306
:1086E000029303930493059306938DF81C30102294
:1086F00004F1130101A80FF080FC022204F1230110
:1087000005A80FF07AFC042204F125010DF11600F2
:108710000FF073FC022204F129010DF11A000FF091
:108720006CFC94F82B209DF81C3062F3000394F845
:108730002C2062F341038DF81C30A078544B554A2D
:1087400055494FF43F76554D06FB005001F031FF7F
:1087500001460028B8D1A078002301AAE11C06FB3D
:10876000005001F04FFF0146AEE7494B494A4A49E4
:108770004A4801F01EFF034650B164781846FFF7DF
:1087800015FD00231A4601462046FFF75BFDA3E7CF
:1087900000231A461946414801F021FF0346ECE741
:1087A000A378012B09D90B21A37808AA02F81C3D54
:1087B00001236620FFF7F2F88EE72279E1784FF483
:1087C0003F75364805FB030001F04AFF0146EBE721
:1087D000A378012B09D90B21A37808AA02F81C3D24
:1087E00001236720FFF7DAF876E72278023AD2B25F
:1087F000E11C4FF43F75294805FB030001F039FFE8
:108800000146E9E7A378012B09D90B21A37808AA2F
:1088100002F81C3D01236820FFF7C0F85CE7E11C6B
:108820004FF43F701D4A00FB032001F02CFF01466E
:10883000ECE72022A11C17480FF0DFFB402204F1D7
:10884000220115480FF0D9FB00231A46194660781B
:10885000FFF7F8FC40E7A2780D4B1A7000210122C7
:108860005A709970E278DA7022791A71227A1A7243
:10887000B4F80920A3F8092062795A71E288DA80F5
:108880000B460A466078FFF7DDFC25E740400020F4
:10889000F43F0020DC39002000400020FC3900209B
:1088A00030B583B004460378103B062B31D8DFE89F
:1088B00013F0600084009A00BA00DD000700340065
:1088C00001A91620FFF7FEFA20B178467C4B1B6801
:1088D0000BB39847A522019B5A702279019B9A708D
:1088E0000199234653F8055F5868C1F80350C1F851
:1088F00007001B89A1F80B30019854F80F1F62681C
:10890000C0F80D10C0F811202289A0F81520FFF73B
:10891000E5FA03B030BD00DEDCE701A91620FFF761
:10892000D1FA20B17846664B1B6803B39847A6225C
:10893000019B5A702279019B9A700199234653F842
:10894000055F5868C1F80350C1F807001B89A1F8FA
:108950000B30019854F80F1F6268C0F80D10C0F872
:1089600011202289A0F81520FFF7B8FAD1E700DE20
:10897000DDE701A90D20FFF7A5FA20B17846504B9D
:108980001B68C3B19847A022019B5A702279019BB2
:108990009A700199234653F8055F5868C1F803504F
:1089A000C1F807001B89A1F80B300198E37B4373E2
:1089B000FFF794FAADE700DEE5E701A90220FFF733
:1089C00081FA20B178463E4B1B6853B19847A122EB
:1089D000019B5A702279019B9A700198FFF77EFAE9
:1089E00097E700DEF3E701A90D20FFF76BFA20B14E
:1089F0007846334B1B68A3B19847A222019B5A705B
:108A00002279019B9A706279019BDA70019854F87F
:108A1000061F62684160826022898281FFF75EFAE8
:108A200077E700DEE9E701A90E20FFF74BFA20B156
:108A30007846234B1B68BBB19847A322019B5A7011
:108A40002279019B9A706279019BDA700198234622
:108A500053F8065F5968456081601B898381237CD8
:108A60008373FFF73BFA54E700DEE6E701A9152020
:108A7000FFF728FA20B17846114B1B68F3B19847ED
:108A8000A422019B5A702279019B9A700199234676
:108A900053F8055F5868C1F80350C1F807001B89F7
:108AA000A1F80B3001982369C0F80D306369C0F854
:108AB0001130237E4375FFF711FA2AE700DEDFE766
:108AC000146B002008B50348034B036006F03FFB1E
:108AD00008BD00BF44400020A188020010B58AB044
:108AE00004464078A0F1D003062B04D822787049C0
:108AF000CB5C9A420AD1A0F1D003062B00F2C680CB
:108B0000DFE803F00B172735416F850000231A4675
:108B10008421FFF797FB0AB010BD04F0E9F96478EF
:108B2000FFF744FB00231A4601462046FFF78AFB65
:108B3000F1E7D4F80D20E11CA07804F073FC647810
:108B4000FFF734FB00231A4601462046FFF77AFB65
:108B5000E1E7E11CA07804F0B3FC6478FFF726FBA2
:108B600000231A4601462046FFF76CFBD3E704F0CA
:108B7000DFFC6478FFF71AFB00231A460146204603
:108B8000FFF760FBC7E76946A07804F0E9FCF0B99D
:108B90009DF800308DF814300AAB53F8271D5A6841
:108BA000CDF81510CDF819201B89ADF81D309DF8B2
:108BB0000B308DF81F30039B0893049B09931423FB
:108BC0000DEB030200216078FFF73CFBA3E764781C
:108BD000FFF7ECFA00231A4601462046FFF732FB66
:108BE00099E72378022B05D000231A468421FFF74A
:108BF00029FB90E7A07804F0CBFC6478FFF7D6FA65
:108C000000231A4601462046FFF71CFB83E7237822
:108C1000012B05D000231A468421FFF713FB7AE7C6
:108C20000A2200210DF102000FF0F2F9684604F06B
:108C30006FF908BB9DF800308DF814309DF80130B5
:108C40008DF815300AAB53F8261D5A68CDF816106A
:108C5000CDF81A201B89ADF81E309DF80C308DF828
:108C600020309DF80D308DF821300E2305AA00210B
:108C70006078FFF7E7FA4EE76478FFF797FA00238A
:108C80001A4601462046FFF7DDFA44E73030C0B20D
:108C90000F2804D97846074B1B683BB1984700233F
:108CA0001A4682216078FFF7CDFA34E700DEF6E756
:108CB00060870300146B002070B5044603780F2B07
:108CC00000F29F80DFE803F0089D609D9D9D9D9DC3
:108CD0009D9D9D9D9D9D788C06894E2E00D94E268A
:108CE00006F11400484980B2FFF7ECF820B178464D
:108CF000464B1B68B3B19847434B1D682389A5F8C1
:108D00001330237D012B0FD0D1236B70291D04F16B
:108D10001400FEF70BF858B178463C4B1B6853B370
:108D2000984705E000DEE7E7D0236B70E38AAB806D
:108D3000E3896B80206AFEF735F8E880E069FEF78A
:108D400029F8288194F82430AB72A36A9B7BC3F383
:108D50004603EB72A16A06220F3105F10C000FF0F9
:108D60004CF9A36A93F90D30AB7436B9264B1868E9
:108D7000FFF7B4F870BD00DEDAE73246616805F14E
:108D800015000FF03AF9F1E71F490520FFF79AF8AF
:108D900020B178461D4B1B6863B198471A4B1A687F
:108DA000D32151701A68A168C2F802101868FFF741
:108DB00095F870BD00DEF1E713490120FFF782F856
:108DC00020B17846114B1B6843B198470E4B1A6887
:108DD000D52151701868FFF781F870BD00DEF5E706
:108DE00009490120FFF76EF820B17846074B1B6850
:108DF00043B19847044B1A68D62151701868FFF7A1
:108E00006DF870BD00DEF5E754400020146B0020C3
:108E100010B50446FCF79EFAFDF74AFD05F01CFA72
:108E200000231A4619466078FFF70CFA10BD10B5FA
:108E30008AB0044602A9C088FDF77CFE014630B125
:108E400000231A466078FEF7A9FD0AB010BD01A8FC
:108E5000FDF7B2FDA288BDF804309A422ED3BDF8CA
:108E600006100B449A4201DB1021E9E707A960884C
:108E7000FEF7AEF901460028E2D1A388ADF8103024
:108E8000237A8DF81230637A003318BF01238DF8EE
:108E900013302378092B0CD904F10A0305932378A6
:108EA000093BADF81830002102A806F035F801465C
:108EB000C6E700230593ADF81830F4E71021BFE7AB
:108EC00000B583B002AA082322F8043D0223002142
:108ED0004078FEF763FD03B05DF804FB00B583B096
:108EE00002AA102322F8043D022300214078FEF755
:108EF00055FD03B05DF804FB10B582B0044601A82F
:108F0000FDF75AFDBDF80430ADF80030BDF806306D
:108F1000ADF8023004236A4600216078FEF73EFD7A
:108F200002B010BD00B583B002AA012322F8043DAF
:108F3000022300214078FEF731FD03B05DF804FB09
:108F400000B583B002AA082322F8043D02230021C1
:108F50004078FEF723FD03B05DF804FB00B583B055
:108F600002AA042322F8043D022300214078FEF7E0
:108F700015FD03B05DF804FB10B59AB004461AA9BC
:108F80002F2341F8643D02A8FDF78EFE019B5B0094
:108F90009BB202AA01466078FEF700FD1AB010BD30
:108FA00030B589B0044606A94088FDF7C3FD00230B
:108FB00000930193029303930493ADF81430054694
:108FC00038B100236A4629466078FEF7E7FC09B00D
:108FD00030BD6088ADF800009DF818308DF8023083
:108FE000FDF75CFD8DF80300BDF81A30ADF80430D4
:108FF000079931B110220DF106000EF0FEFF162385
:10900000E0E70623DEE710B582B004464088FDF7AE
:10901000F3FC638802AA22F8043D0223014660782B
:10902000FEF7BCFC02B010BD10B582B004460DF1D5
:1090300006010230FDF7DBFC02AABDF8063022F87B
:10904000043D022301466078FEF7A8FC02B010BD83
:1090500010B582B004460DF106014088FDF7C2FC50
:1090600002AABDF8063022F8043D022301466078CA
:10907000FEF794FC02B010BD10B582B004464088E3
:10908000FDF7A8FD638802AA22F8043D02230146E9
:109090006078FEF783FC02B010BD10B582B00446C4
:1090A0000DF106010230FDF7F4FC02AABDF806300E
:1090B00022F8043D022301466078FEF76FFC02B0FF
:1090C00010BD10B582B004460DF106014088FDF7D1
:1090D000DBFC02AABDF8063022F8043D022301465B
:1090E0006078FEF75BFC02B010BD10B582B004469C
:1090F0004388ADF804308388ADF8063001A8FDF749
:1091000019FC00231A4601466078FEF747FC02B0BE
:1091100010BD10B582B004464088FDF713FF638888
:1091200002AA22F8043D022301466078FEF736FCCD
:1091300002B010BD10B582B0044601AB821D81881B
:109140004088FDF7B9FE022301AA01466078FEF7C8
:1091500025FC02B010BD10B59AB004462E23019331
:109160004088ADF8080001AA0DF10A0180B2FEF7AF
:109170000DF80146019B43B101335B009BB202AA8B
:109180006078FEF70BFC1AB010BD1A466078FEF747
:1091900005FCF8E710B582B004464088FDF76AFF89
:1091A000638802AA22F8043D022301466078FEF794
:1091B000F5FB02B010BD10B582B00446011D408819
:1091C000FDF72EFF638802AA22F8043D0223014620
:1091D0006078FEF7E3FB02B010BD10B582B0044624
:1091E0000DF10203821D81884088FDF7D5FE02AA99
:1091F000BDF8023022F8043D022301466078FEF7F4
:10920000CDFB02B010BD10B59AB004461AA92F23A9
:1092100041F8643D02A8FDF741FE0146019B3BB1C8
:109220005B009BB202AA6078FEF7B8FB1AB010BDD3
:109230001A466078FEF7B2FBF8E710B582B0044634
:109240004088FDF735FF638802AA22F8043D022317
:1092500001466078FEF7A2FB02B010BD10B582B0E7
:109260000446011D4088FDF7EFFD638802AA22F83D
:10927000043D022301466078FEF790FB02B010BD6A
:1092800010B582B004460DF10202011D4088FDF7C1
:1092900091FD02AABDF8023022F8043D02230146E6
:1092A0006078FEF77BFB02B010BD10B5447805F086
:1092B0001DFE00231A4601462046FEF76FFB10BD37
:1092C00010B5447805F0EAFD00231A460146204611
:1092D000FEF764FB10BD000008B50348034B0360B4
:1092E00005F035FF08BD00BF4C400020B98C0200DE
:1092F00038B5044643787033DBB21F2B04D9784667
:109300001C4B1B682BB398476078AC2823D8A0F17E
:109310009005194B13F83530984204D07846154B18
:109320001B68F3B198472178134B03EBC5035B78B7
:109330000133994206DB104A02EBC50292781344CE
:10934000994210DD00231A4684216078FEF77AFFE7
:1093500038BD00DED8E700231A468221FEF772FFEF
:1093600038BD00DEDFE7044B03EBC5056B68204624
:10937000984738BD146B00206887030038B5054650
:109380000024012C18D804EB44039A000C4B13441E
:109390005B689BB104EB4402930004220849194422
:1093A00028460EF01BFE08B10134EAE704EB440442
:1093B000A3000348184438BD002038BD002038BD44
:1093C0005840002030B59BB00446851C19A9408840
:1093D000FCF730FB034670B919A8FFF7CFFF10B3B5
:1093E0001AA9002201F8642D83682846984703468D
:1093F0009DF804205AB964781846FEF7D7FE00237A
:109400001A4601462046FEF71DFF1BB030BD6478AA
:10941000FEF7CCFE1AAA12F8643D0133014620463D
:10942000FEF710FFF1E70523E5E730B583B004460A
:10943000851C2846FFF7A2FF0023ADF8043080B159
:1094400043680DF10201284698470146BDF80230F5
:10945000ADF80430022301AA6078FEF79FFA03B04A
:1094600030BD0521F6E7000030B599B005465E2213
:10947000002168460EF0CCFD0024012C1CD804EB22
:1094800044039A00154B13445B6813B3BDF8000006
:10949000162820D80DEB800004EB44029300042230
:1094A0000E49194402300EF0A8FDBDF8003001331A
:1094B000ADF800300134E0E7002118AA32F8603D31
:1094C0009B009BB202339BB26878FEF767FA19B033
:1094D00030BD0021F1E70C21EFE700BF584000202C
:1094E00010B504464378FF2B05D0032206492046D9
:1094F000FEF76CFA10BD7846044B1B680BB1984719
:10950000F3E700DEF1E700BF50880300146B002092
:10951000F0B583B00746867836B935468DF80060D9
:1095200000248DF8024019E000231A468521407876
:10953000FEF788FE44E000DE4FF49A73214A03FBF5
:109540000523234493F87020253A012303FA02F2FD
:109550009DF8023013438DF8023001344FF49A73B2
:10956000184A03FB052393F873309C4212D24FF440
:109570009A73144A03FB0523234493F87030253B68
:10958000DBB2022BD8D978460F4B1B68002BD2D008
:109590009847D1E74FF49A720A4B02FB0636F36EF6
:1095A0000A4AA2FB03239B09CDF8033096F8283022
:1095B0008DF8013007236A4600217878FEF742FED5
:1095C00003B0F0BD70400020146B0020D34D62103A
:1095D00008B500231A4682214078FEF733FE08BD05
:1095E00000B583B002AA042322F8043D022300211F
:1095F0004078FEF727FE03B05DF804FB30B583B07A
:10960000044683785BB107206478FEF7CFFD002322
:109610001A4601462046FEF715FE03B030BD4FF452
:109620009A72144D02FB03531D1DD0F805102846F5
:1096300009F0B6FE002300938DF8043000E00133FA
:10964000022B10D822791A4112F0010FF7D09DF8A1
:109650000320511C8DF8031003F1250102A80244D8
:1096600002F8081CEBE76946284609F055FE002081
:10967000CAE700BF7040002070B50446807800BB88
:109680004FF49A7303FB00F30F4AD35C012B0AD00B
:1096900008206478FEF78AFD00231A46014620461A
:1096A000FEF7D0FD70BD16464FF49A7505FB0020FD
:1096B000043009F073FDA37805FB03F50020705515
:1096C000E7E70720E5E700BF70400020F8B5044653
:1096D000807850B107206478FEF768FD00231A46B1
:1096E00001462046FEF7AEFDF8BD2578023D4FF459
:1096F0009A72114B02FB00302946043009F056FDE6
:109700000646B8B1FF2303712A46E11C11300EF062
:1097100074FCA078084F4FF49A7505FB0070314631
:10972000043009F091FDA37805FB03F501237B5577
:109730000020D0E70420CEE77040002010B504469A
:10974000012005F00BFD00231A468E216078FEF7FC
:1097500079FD10BD10B50446044804F0BBF80023A1
:109760001A4619466078FEF76DFD10BD719702002C
:1097700010B582B00446807801A90430FEF7A2FB40
:1097800020B17846104B1B68DBB198478322019BC0
:109790005A70A3780433019A13702278019B9A704F
:1097A0006278019BDA700198A3780371A2786168EE
:1097B00005300EF022FC0198FEF790FB002002B06D
:1097C00010BD00DEE2E700BF146B002010B582B0D0
:1097D000044601A90078FEF775FB20B178460A4BD4
:1097E0001B687BB198478222019B5A7001980278CE
:1097F000013AA11C02300EF000FC0198FEF76EFB4E
:1098000002B010BD00DEEEE7146B002010B500249E
:1098100004B110BD074A4FF49A7000FB04F000F148
:10982000980110449C230A440021043009F042FEB0
:109830000134EDE77040002010B5044643781F2B3B
:1098400004D97846054B1B6833B19847092204496F
:109850002046FEF7BBF810BD00DEF7E7146B0020D2
:109860006888030038B50546FEF7E6FC10B1082409
:10987000204638BDFEF7A0FE04460028F8D1FEF7CA
:1098800011FB04460028F3D1FFF7C0FFFFF724FDCA
:10989000FFF718F9002DEBD0284600F005F8E7E7B0
:1098A00008B5FEF731FB08BD014B1860704700BFDB
:1098B000A441002010B504460A4B1B6853B101783F
:1098C00001390230984700231A4619466078FEF79E
:1098D000B9FC10BD00231A468E214078FEF7B2FC79
:1098E00010BD00BFA441002090F8B33203B9704707
:1098F00000B58DB0002380F8B33205238DF8043015
:1099000002908DF80C1001A804F040F80DB05DF83D
:1099100004FB90F8B332022B00D0704710B58CB026
:10992000044604238DF8043002900DEB030004F08C
:109930002DF804F29D220021204600F013FF20B9EB
:10994000042384F8B3320CB010BD0221204600F08D
:1099500003FFF8E790F8B332072B00D0704710B53B
:109960008CB0044690F8B03243B9D0F8B81100F08A
:109970002BFF78B9092384F8B33209E009238DF865
:10998000043002900A2380F8B33201A803F0FEFFEE
:109990000CB010BD0221204600F0DEFEF8E710B545
:1099A00084B0044600F24D236A4600F27D2101F0A6
:1099B000E1F86946204600F026FF034610B9102260
:1099C00084F8B322184604B010BD30B58DB00446FB
:1099D00090F8B432032B48D8DFE803F03D311D0284
:1099E00000F26D25294601F079F906238DF804303F
:1099F000029494F8AE328DF80D3094F8AF328DF8B1
:109A00000C300495112384F8B33201A803F0BEFF93
:109A100000200DB030BD07238DF80430029090F87F
:109A2000AE328DF80D3090F8AF328DF80C300C233B
:109A300080F8B33201A803F0A9FF0020E9E708236A
:109A40008DF8043002900D2380F8B33201A803F0A2
:109A50009DFF0020DDE71022002100F26D200EF0B6
:109A6000D7FA2046FFF79BFFD3E70320D1E710B5D5
:109A70008CB0044601F078F858B904F5007120461E
:109A800001F00EF90346A8B92046FFF79EFF0346F2
:109A900010E00B2384F8B3320C238DF804300294C9
:109AA000D4F8BC31049304F5E074039401A803F0E6
:109AB0006DFF002318460CB010BDF0B59BB00446F6
:109AC0000F46164607238DF844300AAD102200F5E4
:109AD000307128460EF091FAD4F8D222130203F422
