:020000022000DC
:1040000002F00320E1BB020009BC020029520200B9
:104010000DBC02000FBC020011BC02000000000039
:1040200000000000000000000000000013BC0200BF
:1040300015BC02000000000017BC020019BC020001
:104040001BBC02001BBC02001BBC02001BBC02000C
:104050001BBC02001BBC02001BBC02001BBC0200FC
:104060001BBC02001BBC02001BBC02001BBC0200EC
:104070001BBC02001BBC02001BBC02001BBC0200DC
:104080001BBC02001BBC0200C5D502001BBC020009
:104090001BBC02001BBC0200955202001BBC0200AC
:1040A0001BBC02001BBC02001BBC02001BBC0200AC
:1040B0001BBC02001BBC020000000000000000004E
:1040C0001BBC02001BBC02001BBC02001BBC02008C
:1040D0001BBC02001BBC02001BBC02001BBC02007C
:1040E0001BBC02001BBC02001BBC02000000000045
:1040F000000000001BBC0200000000001BBC02000E
:1041000000000000000000000000000000000000AF
:10411000000000000000000000000000000000009F
:10412000000000000000000000000000000000008F
:10413000000000000000000000000000000000007F
:10414000000000000000000000000000000000006F
:10415000000000000000000000000000000000005F
:10416000000000000000000000000000000000004F
:10417000000000000000000000000000000000003F
:10418000000000000000000000000000000000002F
:10419000000000000000000000000000000000001F
:1041A000000000000000000000000000000000000F
:1041B00000000000000000000000000000000000FF
:1041C00000000000000000000000000000000000EF
:1041D00000000000000000000000000000000000DF
:1041E00000000000000000000000000000000000CF
:1041F00000000000000000000000000000000000BF
:1042000010B5054C237833B9044B13B10448AFF310
:1042100000800123237010BDA032002000000000A8
:10422000207803000C4B43B10C480D4910B5AFF397
:1042300000800C48036823B910BD0A48036833B9ED
:104240007047094B002BF7D0BDE810401847064BCC
:10425000002BF5D0184700BF0000000020780300B5
:10426000A43200209832002000000000154B002BE3
:1042700008BF134B9D46A3F5803A00218B460F469D
:104280001348144A121A11F00DFF0F4B002B00D0E7
:1042900098470E4B002B00D09847002000210400C7
:1042A0000D000D48002802D00C48AFF3008011F03B
:1042B000ABFE2000290000F055FE11F091FE00BF7A
:1042C0000000080002F003200000000000000000D1
:1042D000A03200206C6100200000000000000000FF
:1042E00010B58AB0044650238DF80C3042238DF867
:1042F0000D305F218DF80E1052238DF80F304523BD
:104300008DF810304D228DF811204F228DF812209B
:1043100054228DF813208DF814308DF815104E218D
:104320008DF816108DF817308DF818204B228DF867
:1043300019208DF81A3059238DF81B300023ADF861
:104340001C30ADF81E30ADF82030184A1288ADF898
:1043500022209DF8242002F0FE0263F341028DF832
:10436000242000930193CDF8073001228DF801201D
:104370008DF802308DF804206B460D4A0D490E4829
:1043800002F0F2FE40B9002303AA21460A4802F0D7
:1043900001FF30B90AB010BD084AB42100F004FF93
:1043A000F1E7064AB52100F0FFFEF3E7B83100203F
:1043B000E83200200436002008330020D4650300D2
:1043C00030B589B0044603780B2B00F28981DFE811
:1043D00013F09600960087010C0018004200870138
:1043E00087014B018701CB006C008F4B1B78012BA1
:1043F00040F085800430FFF773FF00228A4B1A706B
:104400007DE08A4B1B6813F4804F78D0884B1B6883
:10441000032B74D92F21874811F018FF70B12F2179
:10442000844811F013FF411C834BD3F80435834AB1
:104430000092C82204200AF07DF860E05C217D48EB
:1044400011F004FF28B15C217A4811F0FFFE411CF5
:10445000EAE77849E8E7754B1B6813F4804F4ED0C4
:10446000734B1B68032B4AD92F21724811F0EEFEC3
:1044700070B12F216F4811F0E9FE411C6E4BD3F84B
:1044800004356F4A0092CC2204200AF053F836E03B
:104490005C21684811F0DAFE28B15C21654811F012
:1044A000D5FE411CEAE76349E8E7664B1978664B9D
:1044B00003EB4101654B188806F0EAFE08BB614B2F
:1044C0001B780133624A02EB4303E26861490988C1
:1044D000E08A07F001F8C8B9544B1B6813F4804F09
:1044E00003D0534B1B68032B15D8564A137801335E
:1044F0001370564A1388584909880B44138009B031
:1045000030BD4C4AD12100F04FFED8E7494AD521B1
:1045100000F04AFEE0E72F21464811F097FEB0B1C7
:104520002F21444811F092FE411C434BD3F804352F
:10453000E28A44480478444830F81400029001921A
:10454000464A0092DA22042009F0F4FFCDE75C210C
:10455000384811F07BFE28B15C21364811F076FE18
:10456000411CE2E73349E0E710220121406802F0F4
:104570003FFE054650B32D4B1B6813F4804FBED051
:104580002B4B1B68002BBAD02F212A4811F05EFE5E
:1045900078B12F21274811F059FE411C264BD3F842
:1045A000043501952E4A0092E722012009F0C2FF4E
:1045B000A5E75C211F4811F049FE28B15C211D4888
:1045C00011F044FE411CE9E71A49E7E7227A224B41
:1045D0001A80164B1B6813F4804F90D0144B1B6845
:1045E000032B8CD92F21134811F030FE70B12F21ED
:1045F000104811F02BFE411C0F4BD3F80435194A1B
:104600000092EC22042009F095FF78E75C2109482C
:1046100011F01CFE28B15C21064811F017FE411C68
:10462000EAE70449E8E700BFC83200201C32002056
:1046300018320020D465030000B00040506403002D
:1046400078640300E2320020C0320020B83100203C
:10465000CC320020E0320020E432002098640300D5
:10466000C8640300FC640300344B04AD0FCB85E841
:104670000F0010222946606802F0C3FDF0B9304BEC
:104680001B6813F4804F3FF43AAF2E4B1B68032B8B
:104690007FF635AF2F212C4811F0D8FD98B12F218E
:1046A000294811F0D3FD411C284BD3F80435284A82
:1046B0000092F722042009F03DFF20E7224AF6216C
:1046C00000F072FDDBE75C211F4811F0BFFD28B14F
:1046D0005C211D4811F0BAFD411CE5E71A49E3E7EA
:1046E000174B1B6813F4804F3FF409AF154B1B6841
:1046F000032B7FF604AF2F21134811F0A7FD80B1E3
:104700002F21114811F0A2FD411C104BD3F80435A4
:10471000227801920F4A0092FF22042009F00AFF3A
:10472000EDE65C21084811F091FD28B15C210648B6
:1047300011F08CFD411CE8E70349E6E7CC62030079
:104740001C32002018320020D465030000B0004065
:104750001C6503004465030000B587B006F028FD22
:10476000002302930393049305932D4B1B6906A822
:1047700040F8143D06F034FD00282DD1294A2A497D
:10478000002006F05FFE60BB284B02AA254909887D
:10479000002006F0E5FE48BB05F0ACF9244B254AA5
:1047A0000021254802F042F928BB204B1988224BF2
:1047B000188805F0C1FA18BB1C4B19881E4B1888C5
:1047C00005F0F6FA08BB06211B4B188805F020FB04
:1047D00000BB07B05DF804FB184A802100F0E4FC40
:1047E000CCE7164A812100F0DFFCCDE7134A822195
:1047F00000F0DAFCD0E7114A852100F0D5FCD4E7BF
:104800000E4A862100F0D0FCD6E70C4A872100F042
:10481000CBFCD8E7094A882100F0C6FCD9E700BFE5
:10482000CC620300E0320020FC630300BC320020B5
:10483000414802000833002044360020D4650300BC
:104840002DE9F04385B004AF03780A2B26D0044647
:104850000B2B7DD0042B50D0814B1B6813F4804F61
:1048600025D0804B1B68032B21D92F217E4811F0C6
:10487000EDFC002800F0E7802F217B4811F0E6FCDA
:10488000411C7A4BD3F8043522780192784A009281
:104890004FF48B72042009F04DFE08E0704B1B684A
:1048A00013F4804F03D06F4B1B68032B03D80437DE
:1048B000BD46BDE8F0832F216B4811F0C7FC78B1ED
:1048C0002F21694811F0C2FC411C684BD3F8043514
:1048D000684A009240F20912042009F02BFEE6E734
:1048E0005C21614811F0B2FC28B15C215E4811F0F6
:1048F000ADFC411CE9E75C49E7E7594B1B6813F441
:10490000804FD4D0574B1B68032BD0D92F2156484A
:1049100011F09CFC78B12F21534811F097FC411CF9
:10492000524BD3F80435544A009240F20D12042041
:1049300009F000FEBBE75C214B4811F087FC28B171
:104940005C21494811F082FC411CE9E74649E7E750
:10495000434B1B6813F4804F03D0424B1B68032B5F
:1049600020D83F4B1B6813F4804FA0D03D4B1B68F1
:10497000032B9CD92F213C4811F068FC002855D00E
:104980002F21394811F062FC411C384BD3F8043513
:10499000227A0192394A00924FF48972042009F078
:1049A000C9FD84E7E9468AB004ADAC46002312E0B5
:1049B0006268D25C59004FEA1218314E306810F824
:1049C00008000CF81300013102F00F023068825C1D
:1049D0000CF8012001330F2BEAD9002385F8203091
:1049E0002F21214811F032FC98B12F211E4811F0DF
:1049F0002DFC411C1D4BD3F804350295214A019230
:104A0000214A009240F21112042009F093FDCD4694
:104A1000A7E75C21144811F019FC28B15C21124869
:104A200011F014FC411CE5E70F49E3E75C210E4857
:104A300011F00CFC28B15C210B4811F007FC411C63
:104A4000A3E70949A1E75C21074811F0FFFB28B162
:104A50005C21054811F0FAFB411C12E7024910E7FE
:104A60001C32002018320020D465030000B0004042
:104A7000C46503005C65030080650300B465030042
:104A8000203200209C650300AC65030008B5054991
:104A9000054802F07BFB00B908BD044A772100F00D
:104AA00083FBF9E7E832002004360020D4650300D8
:104AB00008B510F0DBF8C0B20A28FAD00D28F8D0FB
:104AC000FF28F6D008BD000010B58CB050238DF83B
:104AD000143042238DF815305F218DF816105223C3
:104AE0008DF8173045238DF818304D228DF8192098
:104AF0004F228DF81A2054228DF81B208DF81C307F
:104B00008DF81D104E218DF81E108DF81F308DF878
:104B100020204B228DF821208DF8223059238DF84A
:104B200023300023ADF82430ADF82630ADF828301E
:104B3000264A1288ADF82A209DF82C2002F0FE02A9
:104B400063F341028DF82C2002AA02930393CDF85F
:104B50000F3001218DF809108DF80A308DF80C10F6
:104B6000019000921A4B1B4A05A91B4801F0F4FF63
:104B700040B10446194B1B6813F4804F02D0184B08
:104B80001B680BB90CB010BD2F21164811F05EFB4D
:104B900078B12F21134811F059FB411C124BD3F867
:104BA00004350194114A0092A222012009F0C2FCAE
:104BB000E8E75C210B4811F049FB28B15C2109486A
:104BC00011F044FB411CE9E70649E7E7B831002052
:104BD000E832002004360020443600201C32002039
:104BE00018320020D465030000B0004024660300A2
:104BF00010B582B010F03AF80130362800F2688122
:104C0000DFE810F03A0066016601660166016601A0
:104C1000660166016601660166013A006601660189
:104C20003A00660166016601660166016601660179
:104C3000660166016601660166016601660166013C
:104C4000660166016601660166016601660166012C
:104C5000660166016601660166016601660166011C
:104C6000660166016601660137003C00CA00FF006C
:104C700034010122A64B1A7002B010BDA54B1B686F
:104C800013F4804F03D0A44B1B68032B2AD8FFF7E3
:104C90000FFF81B2303989B2A04B188804F0FAFFB7
:104CA000044600284DD09B4B1B6813F4804FE3D083
:104CB000994B1B68002BDFD02F21994811F0C6FAC1
:104CC00090B32F21964811F0C1FA411C954BD3F8AF
:104CD00004350194944A009240F23912012009F0FF
:104CE00029FCC9E72F218E4811F0B0FA78B12F21A5
:104CF0008B4811F0ABFA411C8A4BD3F804358B4A30
:104D0000009240F23312042009F014FCBFE75C214A
:104D1000834811F09BFA28B15C21814811F096FA82
:104D2000411CE9E77E49E7E75C217D4811F08EFAF6
:104D300028B15C217A4811F089FA411CC6E778490C
:104D4000C4E7744B1B6813F4804F95D0724B1B68FB
:104D5000032B91D92F21724811F078FA78B12F21C5
:104D60006F4811F073FA411C6E4BD3F80435704A4A
:104D7000009240F23D12042009F0DCFB7CE75C214C
:104D8000674811F063FA28B15C21654811F05EFABA
:104D9000411CE9E76249E7E7604801F099FE0446F3
:104DA00000283FF469AF5B4B1B6813F4804F3FF45E
:104DB00063AF594B1B68002B3FF45EAF2F2158485F
:104DC00011F044FA80B12F21554811F03FFA411CEF
:104DD000544BD3F804350194564A009240F24512E0
:104DE000012009F0A7FB47E75C214D4811F02EFA9E
:104DF00028B15C214A4811F029FA411CE8E74849EA
:104E0000E6E7464801F086FE044600283FF434AF4A
:104E1000404B1B6813F4804F3FF42EAF3E4B1B6892
:104E2000002B3FF429AF2F213D4811F00FFA80B13C
:104E30002F213B4811F00AFA411C3A4BD3F80435B4
:104E400001943D4A00924FF4A672012009F072FBD2
:104E500012E75C21324811F0F9F928B15C213048A1
:104E600011F0F4F9411CE8E72D49E6E7294B1B68EE
:104E700013F4804F03D0284B1B68032B06D8FFF791
:104E800017FE3038C0B2FFF71FFEF5E62F21244889
:104E900011F0DCF978B12F21214811F0D7F9411C2C
:104EA000204BD3F80435254A009240F251120420D9
:104EB00009F040FBE3E75C21194811F0C7F928B17C
:104EC0005C21174811F0C2F9411CE9E71449E7E7F2
:104ED000104B1B6813F4804F3FF4CEAE0E4B1B6893
:104EE000032B7FF6C9AE2F210D4811F0AFF948B35F
:104EF0002F210B4811F0AAF9411C0A4BD3F80435B5
:104F00000F4A009240F25B12042009F013FBB3E653
:104F1000C83200201C320020183200204436002005
:104F2000D465030000B000407C66030054660300B3
:104F3000A8660300B8660300E46603001067030078
:104F4000E06203005C21064811F080F928B15C2181
:104F5000034811F07BF9411CCFE70149CDE700BFC1
:104F6000D465030000B583B0002300E001331F2B9C
:104F70000DD84FF4F0321A4112F0010FF6D003F5BC
:104F8000E07203204FF0A04141F82200EEE7364ADC
:104F900004214FF4C04009F0B1FA344B1B6813F4FC
:104FA000804F18D0324B1B68032B14D92F21314866
:104FB00011F04CF900283DD02F212E4811F046F970
:104FC000411C2D4BD3F804352C4A009240F2651257
:104FD000042009F0AFFA00F071FA2948294B036068
:104FE0000023436007F099FBFFF7B6FBFFF74EFD88
:104FF0001E4B1B6813F4804F17D01D4B1B68032BEF
:1050000013D92F211B4811F021F900B32F21194882
:1050100011F01CF9411C184BD3F804351A4A0092C0
:105020004FF4B872042009F085FAFFF7E1FD07F0AC
:105030005DFAFAE75C210F4811F008F928B15C210C
:105040000C4811F003F9411CBBE70A49B9E75C21A0
:10505000084811F0FBF828B15C21064811F0F6F879
:10506000411CD8E70349D6E7D1E402001C320020F6
:1050700018320020D465030000B000400C64030027
:10508000D8320020C1430200E062030048DF7047CD
:1050900010DF704760DF704761DF70474FF0A0435B
:1050A0004FF4F032C3F80825C3F80C25EFF3108352
:1050B00072B60028FDD1704710B582B00446164B79
:1050C0001B6813F4804F04D12046FFF7E7FF02B0BE
:1050D00010BD2F21114811F0B9F878B12F210F48D8
:1050E00011F0B4F8411C0E4BD3F8043501940D4A6D
:1050F00000924E22002009F01DFAE5E75C210748E6
:1051000011F0A4F828B15C21044811F09FF8411C6B
:10511000E9E70249E7E700BF1C3200206C670300A3
:1051200000B00040B067030070B584B00C46194B66
:105130001B6813F4804F04D005461646164B1B68B7
:1051400023B92046FFF7AAFF04B070BD2F211348F2
:1051500011F07CF888B12F21104811F077F8411C2C
:105160000F4BD3F804350396029401950D4A009233
:105170007022012009F0DEF9E3E75C21074811F015
:1051800065F828B15C21054811F060F8411CE7E79B
:105190000249E5E71C320020183200206C6703004A
:1051A00000B000408468030070B584B0194B1B68E0
:1051B00013F4804F05D006460D461446164B1B6867
:1051C00023B90120FFF76AFF04B070BD2F211348F7
:1051D00011F03CF888B12F21104811F037F8411C2C
:1051E0000F4BD3F804350396029501940D4A0092B3
:1051F0004822012009F09EF9E3E75C21074811F0FD
:1052000025F828B15C21054811F020F8411CE7E79A
:105210000249E5E71C320020183200206C670300C9
:1052200000B000404C67030000B583B0154B1B680D
:1052300013F4804F05D10120FFF730FF03B05DF874
:1052400004FB2F21104811F001F870B12F210E48F6
:1052500010F0FCFF411C0D4BD3F804350C4A0092B2
:105260005422002009F066F9E5E75C21064810F0B9
:10527000EDFF28B15C21044810F0E8FF411CEAE78B
:105280000149E8E71C3200206C67030000B00040D1
:105290003C67030000B583B002E0019807F038FADC
:1052A00001A8FFF7F3FE0028F7D05723ADF802302E
:1052B00005E0084807F02AFA5723ADF802300DF14F
:1052C00002010448FFF7E8FE0028F2D003B05DF8C1
:1052D00004FB00BF7036002010B584B0484B1B683B
:1052E00013F4804F03D0474B1B68032B36D8464B33
:1052F0000393039B0293424B1B6813F4804F03D02C
:10530000404B1B68032B4AD802A8FFF7C3FE044694
:10531000039B029A9A421ED0394B1B6813F4804FAC
:1053200019D0384B1B68012B15D92F21374810F0A5
:105330008DFF002856D02F21344810F087FF411CE4
:10534000334BD3F80435029A0192324A00928C22F0
:10535000022009F0EFF8204604B010BD2F212B48A1
:1053600010F074FF70B12F21284810F06FFF411C1E
:10537000274BD3F80435284A00927A22042009F0FA
:10538000D9F8B4E75C21214810F060FF28B15C2116
:105390001E4810F05BFF411CEAE71C49E8E72F219B
:1053A0001A4810F053FF80B12F21184810F04EFF1B
:1053B000411C174BD3F80435039A0192174A009207
:1053C0008322042009F0B6F89EE75C210F4810F014
:1053D0003DFF28B15C210D4810F038FF411CE8E783
:1053E0000A49E6E75C21094810F030FF28B15C214A
:1053F000064810F02BFF411CA2E70449A0E700BFBC
:105400001C32002018320020B83100206C670300E5
:1054100000B00040486803001C68030038680300BF
:1054200000B583B002AB43F8040D20491846FFF7DE
:105430002FFEA8B91E4B93F816335B09012B16D922
:10544000042B16D0052B10D00123A3B942F2020081
:1054500008BBFFF741FF18BB002003B05DF804FB59
:10546000144A9321FFF7A0FEE4E70023EDE70023B1
:10547000EBE70023E9E7104B9B682BB94FF4800260
:105480000B4B1A600020E3E70B4A136843F48003D8
:1054900013600020DCE7074A9421FFF785FED8E778
:1054A000044A9721FFF780FED6E700BF295102008A
:1054B00000E100E06C670300E060002000B587B009
:1054C0004F4B1B6813F4804F03D04E4B1B68032BCC
:1054D00028D84D4B18680590FFF7A2FF484B1B6872
:1054E00013F4804F03D0474B1B68032B3BD800239A
:1054F0000493059B0293454B039302A806F070FFAB
:10550000002851D13E4B1B6813F4804F03D03D4B14
:105510001B68032B4DD806F0BDFF00286AD107B0E9
:105520005DF804FB2F213A4810F090FE70B12F2156
:10553000374810F08BFE411C364BD3F80435364A01
:105540000092B522042008F0F5FFC2E75C21304844
:1055500010F07CFE28B15C212D4810F077FE411C34
:10556000EAE72B49E8E72F21294810F06FFE70B1D8
:105570002F21274810F06AFE411C264BD3F8043532
:10558000264A0092BF22042008F0D4FFAFE75C2136
:105590001F4810F05BFE28B15C211D4810F056FE3C
:1055A000411CEAE71A49E8E7194AC421FFF7FCFD64
:1055B000A8E72F21164810F049FE70B12F2114489A
:1055C00010F044FE411C134BD3F80435144A0092EA
:1055D000C622042008F0AEFF9DE75C210C4810F0C5
:1055E00035FE28B15C210A4810F030FE411CEAE784
:1055F0000749E8E7064AC721FFF7D6FD8FE700BF56
:105600001C3200201832002038670300B950020015
:105610006C67030000B00040CC670300E86703003C
:105620000468030000B585B000230193029303933F
:105630008DF80410836A01A8984705B05DF804FB53
:10564000F0B48CB007460E4601AC1F4D0FCD0FC411
:105650000FCD0FC495E8070003C4228038881228B4
:105660000DD00023062B2AD803EB43014A000CA9D6
:105670000A4432F82C2C90420BD00133F2E7082375
:1056800033703889013880B240288CBF0020012057
:1056900016E003EB43014A000CA90A4432F82A1C25
:1056A0003A89914201D000200AE003EB43035A00FB
:1056B0000CAB1A4412F8283C3370012000E00020A3
:1056C0000CB0F0BC704700BFA46803000020704716
:1056D000002070470020704710B5037A032B06D0D6
:1056E00078460D4B1B68A3B19847012010BD0446B6
:1056F0000A21FFF797FFA28B48F267039A42F4D082
:105700000221606801F04CFE04212046FFF78AFF69
:10571000EBE700DEE9E700BFEC60002030B585B0C4
:1057200004464B685D68007A032812D1A28B48F2C8
:1057300060039A4217D12B780BB9022013E00221A3
:10574000606801F02DFE04212046FFF76BFF012069
:1057500009E0194B1B6813F4005F03D0174B1B685B
:10576000032B02D8207A05B030BD2F21144810F049
:105770006DFD98B12F21124810F068FD411C114BAE
:10578000D3F804352A78257A029501920E4A0092C0
:1057900040F29922042008F0CDFEE3E75C2108489E
:1057A00010F054FD28B15C21054810F04FFD411C5C
:1057B000E5E70349E3E700BF1C3200201832002070
:1057C0006C6B030000B00040C06B030030B583B0C9
:1057D0004B685D68037A022B10D00446032B00F05F
:1057E000A280012B0DD08F4B1B6813F4005F04D0F7
:1057F0008D4B1B68032B00F2EA80237A184603B016
:1058000030BD2B7863B1012B39D0864B1B6813F464
:10581000005F03D0844B1B68042B60D8237AEDE72C
:10582000804B1B6813F4005F00F0F5807E4B1B6813
:10583000042B01D80123E1E72F217C4810F006FD5D
:1058400080B12F21794810F001FD411C784BD3F82D
:105850000435784A009240F2BF12052008F06AFE33
:105860000123CBE75C21714810F0F0FC28B15C21EA
:105870006E4810F0EBFC411CE8E76C49E6E7694B29
:105880001B6813F4005F01D10223B7E7664B1B6866
:10589000042B01D80223B1E72F21644810F0D6FC75
:1058A00080B12F21614810F0D1FC411C604BD3F82E
:1058B0000435614A009240F2C312052008F03AFE16
:1058C00002239BE75C21594810F0C0FC28B15C2101
:1058D000564810F0BBFC411CE8E75449E6E72F218D
:1058E000524810F0B3FC88B12F21504810F0AEFCA4
:1058F000411C4F4BD3F804352A7801924F4A00924D
:1059000040F2C712052008F015FE87E75C214748E2
:1059100010F09CFC28B15C21444810F097FC411C1D
:10592000E7E74249E5E7818B48F2630291427FF461
:1059300065AF2B78052B1AD8DFE803F003050A0FB3
:10594000146F01235AE70621FFF76CFE022355E787
:105950000821FFF767FE012350E70521FFF762FEEC
:1059600001234BE70921FFF75DFE012346E72D4B9D
:105970001B6813F4005F52D02B4B1B68032B01D81C
:1059800001233BE72F21294810F060FC90B12F2123
:10599000264810F05BFC411C254BD3F804352A78CF
:1059A0000192274A009240F2EF12042008F0C2FD53
:1059B000012323E75C211D4810F048FC28B15C213D
:1059C0001A4810F043FC411CE6E71849E4E72F2190
:1059D000164810F03BFC88B12F21144810F036FC1B
:1059E000411C134BD3F804352A780192134A0092D4
:1059F00040F2FB12042008F09DFDFEE65C210B48FE
:105A000010F024FC28B15C21084810F01FFC411C58
:105A1000E7E70649E5E70123F0E60223EEE6012386
:105A2000ECE600BF1C320020183200206C6B030033
:105A300000B00040C4690300E0690300F46903009A
:105A40000C6A030030B583B04B685D68037A032BA2
:105A500004D1818B48F26702914202D0184603B00C
:105A600030BD04462B78032B6FD8DFE803F00233F8
:105A700064694F4B1B6813F4005F03D04D4B1B68E8
:105A8000042B05D800212046FFF7CCFD0123E5E7D4
:105A90002F21494810F0DAFB78B12F21464810F049
:105AA000D5FB411C454BD3F80435454A009240F2E2
:105AB0009312052008F03EFDE4E75C213E4810F01B
:105AC000C5FB28B15C213C4810F0C0FB411CE9E754
:105AD0003949E7E7364B1B6813F4005F03D0354BB9
:105AE0001B68042B05D801212046FFF79BFD0123ED
:105AF000B4E72F21304810F0A9FB78B12F212E48B0
:105B000010F0A4FB411C2D4BD3F804352D4A009214
:105B10004FF4CC72052008F00DFDE4E75C21264827
:105B200010F094FB28B15C21234810F08FFB411C3E
:105B3000E9E72149E7E70221FFF774FD01238DE73B
:105B40000321FFF76FFD012388E7194B1B6813F44E
:105B5000005F28D0174B1B68012B26D92F21164830
:105B600010F074FB90B12F21134810F06FFB411C13
:105B7000124BD3F804352A780192134A00924FF45D
:105B8000D472022008F0D6FC012367E75C210A48A2
:105B900010F05CFB28B15C21074810F057FB411C5A
:105BA000E6E70549E4E7012358E7012356E700BF8C
:105BB0001C320020183200206C6B030000B0004043
:105BC000086B03002C6B0300506B030010B582B010
:105BD0000446174B1B6813F4005F19D0154B1B6864
:105BE000012B15D92F21144810F030FB98B12F212B
:105BF000114810F02BFB411C104BD3F80435227ACE
:105C000001920F4A009240F26512022008F092FCC5
:105C1000207A02B010BD5C21074810F017FB28B1B4
:105C20005C21054810F012FB411CE5E70249E3E75F
:105C30001C320020183200206C6B030000B00040C2
:105C40002C6C030030B587B004460D46007A02285C
:105C50001BD0032840F08680A28B48F260039A4252
:105C600040F09E80574B1B6813F4005F03D0564BE7
:105C70001B68042B30D8208804F002FC28B1784639
:105C8000524B1B68002B49D098476B685B681B78A8
:105C9000002B47D148F26003ADF80C304FF6FF738C
:105CA000ADF80E3002AB04930123ADF8143003239A
:105CB0008DF8083003AA6968208803F0DDFF30B151
:105CC000042804D07846414B1B684BB39847606862
:105CD00001F0B0FB022063E02F213D4810F0B6FA3E
:105CE00078B12F213A4810F0B1FA411C394BD3F862
:105CF0000435394A00924FF42A72052008F01AFC44
:105D0000B9E75C21324810F0A1FA28B15C21304893
:105D100010F09CFA411CE9E72D49E7E700DEB4E703
:105D200000DED4E72B792D4A137048F261032382F9
:105D30004FF6FF73638262610122228348F263029D
:105D4000A283E38304F10C0004F0B6FB002836D0F4
:105D500078461E4B1B6813B19847032020E000DEF5
:105D600003201DE0174B1B6813F4005F17D0164B80
:105D70001B68012B13D92F21154810F067FA88B141
:105D80002F21134810F062FA411C124BD3F804354E
:105D9000134A00924FF43172022008F0CBFB207AB4
:105DA00007B030BD5C210A4810F050FA28B15C21E0
:105DB000074810F04BFA411CE7E70549E5E70320E7
:105DC000EEE700BF1C32002018320020EC600020FB
:105DD0006C6B030000B00040E86B0300C836002085
:105DE000F86B0300404B1B78002B7CD130B597B08B
:105DF000044601223C4B1A7023E05C213B4810F022
:105E000025FA002838D05C21384810F01FFA411CD0
:105E1000374BD3F804359DF810200192354A009293
:105E20004FF44172052008F085FB16A911F8482DA2
:105E3000314B53F82230204698470546237A984242
:105E40001CD104A92D4805F0B6FF002846D12C4BE3
:105E50001B6813F4005FE8D02A4B1B68042BE4D9BD
:105E60002F21224810F0F2F90028C6D02F211F4818
:105E700010F0ECF9411CCBE71C49C9E7204B1B682B
:105E800013F4005F03D01F4B1B68042B01D825724D
:105E9000D7E72F21154810F0D9F990B12F211348D9
:105EA00010F0D4F9411C124BD3F80435227A029534
:105EB0000192154A009240F20E32052008F03AFB9A
:105EC000E5E75C21094810F0C1F928B15C210748D9
:105ED00010F0BCF9411CE6E70449E4E70022024B5C
:105EE0001A7017B030BD7047C73600206C6B0300C6
:105EF00000B000407C6C03004C6903000C370020AC
:105F00001C32002018320020886C030010B592B0BB
:105F10000C4698B148220021684610F0C3F80723C8
:105F20008DF800308DF804406946084805F016FFEA
:105F3000074B1868FFF756FF12B010BD7846054BA7
:105F40001B680BB19847E5E700DEE3E70C3700205C
:105F5000B0370020EC60002010B592B0A0B1A9B11C
:105F60000C238DF80030ADF804200DF1060010F080
:105F70008EF86946074805F0F1FE044638B9064B2D
:105F80001868FFF72FFF02E00E2400E00E242046E1
:105F900012B010BD0C370020B037002030B595B0DE
:105FA00014460D4649B184B1012C3AD07846404B95
:105FB0001B68002B79D0984766E078463C4B1B68FD
:105FC0000BB19847EFE700DEEDE73A4B1B6813F49F
:105FD000005F59D0384B1B68042B55D92F21374807
:105FE00010F034F980B12F21344810F02FF9411C02
:105FF000334BD3F804352A8A0192324A0092F722B1
:10600000052008F097FA3FE05C212C4810F01EF9BB
:1060100028B15C21294810F019F9411CE8E727490B
:10602000E6E7244B1B6813F4005F18D0224B1B6873
:10603000012B14D92F21214810F008F930B32F215A
:106040001E4810F003F9411C1D4BD3F804352A8A71
:1060500001921D4A0092FD22022008F06BFA4822AC
:10606000002102A810F01EF80D238DF8083002A9B7
:10607000164805F073FE20B178460D4B1B6893B1AE
:1060800098472846FFF7AEFE15B030BD5C210B489F
:1060900010F0DCF828B15C21084810F0D7F8411C5A
:1060A000D2E70649D0E700DEEBE700DEECE700BF11
:1060B000EC6000201C320020183200206C6B0300C2
:1060C00000B00040D0680300EC6803000C370020EB
:1060D00010B584B00C4604A94FF6FF7321F8023DB9
:1060E000008803F007FE90B9BDF80E004FF6FF736D
:1060F00098420FD001A905F01BF968B9BDF8062038
:10610000E3899A4201D0002002E0012000E0002053
:1061100004B010BD0020FBE70020F9E770B582B0A5
:106120000446037A022B2CD10D468B88412B04D9CF
:1061300078462C4B1B68FBB198472B4EAA88A91DAB
:1061400030460FF0A4FFAA88122323824FF6FF7374
:1061500063826661228348F26002A283E38304F1D2
:106160000C0004F0A9F900283AD078461D4B1B68B2
:1061700023B19847032024E000DEDEE700DE0320A1
:106180001FE01A4B1B6813F4005F19D0184B1B68F3
:10619000012B15D92F21174810F058F898B12F214D
:1061A000144810F053F8411C134BD3F80435227AED
:1061B0000192124A00924FF43C72022008F0BAF9A0
:1061C000207A02B070BD5C210A4810F03FF828B177
:1061D0005C21084810F03AF8411CE5E70549E3E77F
:1061E0000320EEE7EC600020C83600201C320020BF
:1061F000183200206C6B030000B000407C6A030082
:1062000038B50446037A012B07D078461C4B1B682F
:10621000002B30D09847207A38BD0D468B6800227D
:106220001849406800F004FF20B17846144B1B6801
:10623000E3B198472B79144A137048F26203238222
:106240004FF6FF73638262610122228348F2630288
:10625000A283E38304F10C0004F02EF968B17846C0
:10626000074B1B6823B19847032038BD00DEE1E7E8
:1062700000DE032038BD00DECDE7032038BD00BFBF
:10628000EC60002084690300C836002010B582B09D
:106290000446037A012B22D0264B1B6813F4005FBF
:1062A0001AD0254B1B68012B16D92F2123480FF03C
:1062B000CDFF00282FD02F2120480FF0C7FF411C11
:1062C0001F4BD3F80435227A01921E4A009240F205
:1062D0007312022008F02EF9207A02B010BD48F2A5
:1062E000650303824FF6FF734382174A426100221F
:1062F000028348F267028283C3830C3004F0DCF827
:10630000B0B17846114B1B6813B198470320E4E7FE
:1063100000DE0320E1E75C2108480FF097FF28B179
:106320005C2106480FF092FF411CC9E70349C7E70B
:106330000320D2E71C320020183200206C6B0300CF
:1063400000B00040E86A0300C8360020EC6000207E
:1063500010B582B00446037A012B22D0264B1B686D
:1063600013F4005F1AD0254B1B68012B16D92F217F
:1063700023480FF06BFF00282FD02F2120480FF06B
:1063800065FF411C1F4BD3F80435227A01921E4A47
:1063900000924FF4C172022008F0CCF8207A02B0CB
:1063A00010BD48F2640303824FF6FF734382174A1D
:1063B00042610022028348F267028283C3830C3069
:1063C00004F07AF8B0B17846114B1B6813B19847C6
:1063D0000320E4E700DE0320E1E75C2108480FF03A
:1063E00035FF28B15C2106480FF030FF411CC9E79A
:1063F0000349C7E70320D2E71C32002018320020EF
:106400006C6B030000B00040C86A0300C83600206F
:10641000EC60002010B582B00446037A022B21D034
:10642000294B1B6813F4005F49D0284B1B68012BD4
:1064300048D92F2126480FF009FF002830D02F21FE
:1064400023480FF003FF411C224BD3F80435227A76
:106450000192214A009240F25122022008F06AF88B
:1064600001202DE00B791D4A137048F2610303826D
:106470004FF6FF73438242610122028348F26302B6
:106480008283C3830C3004F017F8B0B17846144B04
:106490001B6813B19847032012E000DE03200FE0D1
:1064A0005C210B480FF0D2FE28B15C2108480FF0A8
:1064B000CDFE411CC8E70649C6E7032000E00120E5
:1064C00002B010BD0120FBE71C3200201832002072
:1064D0006C6B030000B0004098690300C8360020D0
:1064E000EC60002070B588B004464B685E68037AA3
:1064F000002B00F08B800D46022B0BD9032B40F0B4
:106500008580008803F0BCFF20B17846574B1B689C
:1065100043B3984748F26303ADF814304FF6FF7366
:10652000ADF8163004AB06930223ADF81C300523FA
:106530008DF8103000238DF8113005AA6968208885
:1065400003F09AFB30B1042804D07846474B1B680F
:1065500053B198473378042B1CD8DFE803F01607B3
:106560000B0B0B0000DED5E700DEF3E7072120462A
:10657000FFF758F87178606800F012FF0421204698
:10658000FFF750F8012008B070BD606800F002FF0E
:106590000220F8E70221606800F002FF0421204693
:1065A000FFF740F8324B1B6813F4005F2AD0314BE1
:1065B0001B68012B28D92F212F480FF047FEA0B1CF
:1065C0002F212D480FF042FE411C2C4BD3F80435EF
:1065D0003278247A02940192294A009240F23722BA
:1065E000022007F0A7FF0120CDE75C2122480FF031
:1065F0002DFE28B15C2120480FF028FE411CE4E765
:106600001D49E2E70120BEE70120BCE7184B1B68EB
:1066100013F4005F1BD0174B1B68012B17D92F21D8
:1066200015480FF013FEA0B12F2113480FF00EFEF6
:10663000411C124BD3F804353278207A0290019233
:10664000104A009240F23D22022007F073FF207AA8
:1066500099E75C2108480FF0F9FD28B15C21064854
:106660000FF0F4FD411CE4E70349E2E7EC60002091
:106670001C320020183200206C6B030000B0004078
:106680002C6A0300506A030070B586B004460D46BC
:1066900048F26003ADF808304FF6FF73ADF80A30EA
:1066A00005AB03930123ADF81030037A022B16D00B
:1066B000032B2FD100238DF8143002AA49680088DB
:1066C00003F0DAFA30B1042804D07846314B1B6865
:1066D0001BB19847207A06B070BD00DEFAE7496822
:1066E0004E6800238DF8143002AA008803F0C4FA23
:1066F00030B1042804D07846264B1B6843B1984734
:106700006B681A893146606800F050FE0220E2E7AB
:1067100000DEF5E7204B1B6813F4005F19D01F4B18
:106720001B68012B15D92F211D480FF08FFD10B3C9
:106730002F211B480FF08AFD411C1A4BD3F804355A
:10674000227A0192184A009240F27622022007F043
:10675000F1FE01238DF8143002AA6968208803F045
:106760008BFA30B1042804D078460A4B1B687BB101
:106770009847207AAFE75C2109480FF067FD28B100
:106780005C2107480FF062FD411CD6E70449D4E7BD
:1067900000DEEEE7EC6000201C3200201832002002
:1067A0006C6B030000B00040986A030000B585B030
:1067B0004FF6FF73ADF806300B8848F26302934240
:1067C00051D025D948F26A02934251D048F26C0266
:1067D00093423FD106238DF8003000238DF801301D
:1067E00048F26303ADF80430CDF808D00223ADF8C9
:1067F0000C3001AA008803F03FFA002833D00428A7
:1068000031D078462A4B1B68002B4DD098472AE0A0
:10681000112B23D3122B18D804238DF8003048F203
:106820006003ADF80430CDF808D00123ADF80C308A
:1068300001AA008803F020FAA8B1042813D07846F2
:106840001B4B1B6893B198470DE048F260029342DE
:1068500009D003E048F26702934204D07846144B13
:106860001B681BB3984705B05DF804FB00DEFAE730
:1068700005238DF8003048F26703ADF80430CDF8F9
:1068800008D00123ADF80C3001AA008803F0F4F918
:106890000028E8D00428E6D07846054B1B680BB1E9
:1068A0009847E0E700DEDEE700DEDCE700DEDAE75F
:1068B000EC60002030B593B00C46154632B1694605
:1068C0002046FEF7BDFE48B913B030BD7846114BE7
:1068D0001B680BB19847F2E700DEF0E72146284637
:1068E000FFF7F6FB20B921462846FFF75FFFEBE7ED
:1068F00001946946084805F031FA20B17846054B05
:106900001B6823B198472846FFF76CFADCE700DEE6
:10691000F9E700BFEC6000200C37002070B58AB0AA
:1069200004460D4648F26D03ADF818304FF6FF737C
:10693000ADF81A3009AB07930223ADF8203049684F
:106940004E68037A012B1FD0324B1B6813F4005F93
:1069500003D0314B1B68032B36D801238DF824302C
:10696000337C8DF8253006AA6968208803F084F905
:1069700038B1042805D07846284B1B68002B47D037
:106980009847207A0AB070BD00238DF82430337CFC
:106990008DF8253006AA008803F06EF930B104287E
:1069A00004D078461D4B1B6863B198470B238DF8C4
:1069B0000C300496337C8DF81430A36A03A89847F2
:1069C000207ADFE700DEF1E72F2115480FF03EFCCB
:1069D00088B12F2112480FF039FC411C114BD3F81C
:1069E0000435227A0192104A009240F25712042094
:1069F00007F0A0FDB1E75C2109480FF027FC28B1A2
:106A00005C2107480FF022FC411CE7E70449E5E759
:106A100000DEB6E71C32002018320020EC600020B7
:106A20006C6B030000B00040586C0300002837D0A6
:106A300030B587B00446002A35D0002B35D00D463E
:106A4000426083621B4B18601B48022383601B4B10
:106A500003604823436005F057F9ADF8045048F24D
:106A60000403ADF800304FF6FF73ADF80230144B5D
:106A70000293072303930494002305932146684659
:106A800003F04CF8034688B92288A2810D4A62625D
:106A90000D4A22620122227200210C4A117005E087
:106AA0000E23184670470E2300E00E23184607B049
:106AB00030BD00BFB03700200C3700202037002049
:106AC000146903009D5F020080C3C901C73600201E
:106AD00030B593B0D0B10546027A012A03D008241C
:106AE000204613B030BD4822002168460FF0DAFA84
:106AF00002238DF800306946054805F02FF9044659
:106B00000028EDD12846FFF76DF9E9E70E24E7E705
:106B10000C37002030B593B0D0B10546027A012A77
:106B200003D00824204613B030BD48220021684617
:106B30000FF0B8FA03238DF800306946054805F0D8
:106B40000DF904460028EDD12846FFF74BF9E9E797
:106B50000E24E7E70C37002070B592B058B3054615
:106B6000007A012803D00824204612B070BD1C46CC
:106B700010460E46169B22460146686800F0F4FA5D
:106B800004460028F0D14822002168460FF08AFA16
:106B90000B238DF800309DF85C308DF804300296A0
:106BA0006946064805F0DAF804460028DCD1284694
:106BB000FFF718F9D8E70E24D6E700BF0C370020FE
:106BC00090F8B33203B9704700B58DB0002380F858
:106BD000B33205238DF8043002908DF80C1001A813
:106BE00005F034F80DB05DF804FB90F8B332022BD9
:106BF00000D0704710B58CB0044604238DF80430E3
:106C000002900DEB030005F021F804F29D22002113
:106C1000204600F05DFB20B9042384F8B3320CB0A9
:106C200010BD0221204600F04DFBF8E790F8B3328A
:106C3000072B00D0704710B58CB0044690F8B032E6
:106C400043B9D0F8B81100F067FB78B9092384F88C
:106C5000B33209E009238DF8043002900A2380F84A
:106C6000B33201A804F0F2FF0CB010BD022120469F
:106C700000F028FBF8E710B584B0044600F24D237D
:106C80006A4600F27D2100F0F7FC6946204600F0DC
:106C900056FB034610B9102284F8B322184604B0FC
:106CA00010BD30B58DB0044690F8B432032B48D8EF
:106CB000DFE803F03D311D0200F26D25294600F0AA
:106CC0008FFD06238DF80430029494F8AE328DF8CF
:106CD0000D3094F8AF328DF80C300495112384F800
:106CE000B33201A804F0B2FF00200DB030BD07237D
:106CF0008DF80430029090F8AE328DF80D3090F897
:106D0000AF328DF80C300C2380F8B33201A804F0B8
:106D10009DFF0020E9E708238DF8043002900D2341
:106D200080F8B33201A804F091FF0020DDE71022C3
:106D3000002100F26D200FF0B5F92046FFF79BFF10
:106D4000D3E70320D1E710B58CB0044600F08EFCE9
:106D500058B904F50071204600F024FD0346A8B997
:106D60002046FFF79EFF034610E00B2384F8B33262
:106D70000C238DF804300294D4F8BC31049304F54C
:106D8000E074039401A804F061FF002318460CB0DE
:106D900010BDF0B59BB004460F46164607238DF88C
:106DA00044300AAD102200F5307128460FF06FF91B
:106DB000D4F8D222130203F47F0343EA0263110AD8
:106DC00001F47F410B4343EA1263CDF83B30B4F842
:106DD000D622130A43EA0223ADF83F30B4F8D0229A
:106DE000130A43EA0223ADF8383094F8D822C2F3EC
:106DF00040019DF83A3061F3000362F341036FF301
:106E000087038DF83A300197029603951923ADF860
:106E100010300DF1450307930DF15E030893002335
:106E20000593ADF8183008238DF8243001A806F03A
:106E3000FDFC11A9204600F0A8FA20B9142384F81B
:106E4000B3321BB0F0BD0221204600F03BFAF8E758
:106E500030B591B005460C461146204600F0FCF9CD
:106E600058B12378013B082B00F2DC80DFE803F007
:106E70000BDA4256647DDA9DCB000221284600F0F1
:106E800021FA11B030BD95F8B332042BF9D10B22A1
:106E9000611C05F29E200FF0FAF8052385F8B33245
:106EA0000A238DF81430069563788DF81C306288BB
:106EB000130A43EA0223ADF81D3023798DF81F3001
:106EC00063798DF82030A3798DF82130B4F807204C
:106ED000130A43EA0223ADF82230637A8DF8243096
:106EE0006289130A43EA0223ADF8253005A804F0AD
:106EF000ADFEC6E795F8B332092BC2D14022611C22
:106F000005F5E0700FF0C3F82846FFF71CFF0028D6
:106F1000B7D00221284600F0D5F9B2E795F8B33290
:106F2000112BAED12846FFF7A6FE0028A9D00221DA
:106F3000284600F0C7F9A4E795F8B332102BA0D18A
:106F40001022611C05F28D200FF0A1F805F24D21F1
:106F5000284600F007FA18B9122385F8B33290E7F3
:106F60000221284600F0AEF98BE795F8B332122BD8
:106F700087D11022611C05F25D200FF088F82846A9
:106F800000F084FC20B90221284600F09BF978E744
:106F900005F5087301AA05A9284600F0ABFB01AA74
:106FA00005A92846FFF7F5FE6BE795F8B332142BD9
:106FB0007FF467AF0B238DF81430069505F5087341
:106FC000089305F530730793D5F8D2320993B5F8D5
:106FD000D032ADF82830B5F8D632ADF82A3095F871
:106FE000D8229DF82C3062F30003C2F3400262F312
:106FF00041038DF82C3005A804F028FE0021284616
:1070000000F060F93DE70D238DF8143006956378A4
:107010008DF81C3005A804F019FE0221284600F066
:1070200051F92EE70221284600F04CF929E700002B
:1070300070B590F8B34214B10821084670BD1E46E1
:10704000154604460D4B0E4A00F018F9014600287B
:10705000F3D1002384F8B1321922314604F530709F
:107060000FF015F82946204600F024F901460028C3
:10707000E3D1022384F8B332DFE700BF0087930334
:10708000A06C030090F8B332052B02D008231846F9
:10709000704710B582B00446102A03D90923184658
:1070A00002B010BD12B909B10923F8E712B109B94C
:1070B0000923F4E7102A01D001292DD084F8B41255
:1070C00084F8AE2202238DF8003000238DF80130C1
:1070D00094F8B832003318BF01238DF802308DF8D0
:1070E0000310012914D094F8AF328DF8043001292F
:1070F00010D08DF8052004F29D226946204600F04C
:10710000FCF803460028CAD1072284F8B322C6E758
:107110000023EAE70022ECE70923C0E738B590F83E
:10712000B3320C3BDBB2012B01D9082038BD102A49
:1071300001D9092038BD90F8AE329A4201D0092019
:1071400038BD1546044600F26D200EF0A0FF05F58F
:107150001A702044C5F11002002105300EF0A2FF84
:107160002046FFF788FD38BD10B590F8B3420CB14A
:10717000082010BDC0F8B811C0F8BC210B22194678
:1071800000F2B5200EF083FF002010BD08B500F01E
:10719000A1FA08BD20B3F8B5064619B322B31446C8
:1071A0000D464BB100270FB3238AB3F5805F07D399
:1071B000002373B90B20F8BD01F0F8FC0746F2E795
:1071C000E08A05F001F9012801D00023F1E701234D
:1071D000EFE723462A4639463046FFF729FFF8BD38
:1071E0000E2070470E20F8BD0E20F8BD0620F8BD19
:1071F00008B590F8B1320BB1082008BDFFF742FF87
:1072000008BD08B590F8B13213B104F077FB08BDA2
:10721000FFF784FF08BD000070B5044616460D4612
:1072200041B17CB1D4F8B0311B68324629462046C2
:10723000984770BD7846074B1B680BB19847F0E73D
:1072400000DEEEE77846034B1B680BB19847E9E791
:1072500000DEE7E7EC60002050B10378092B09D885
:10726000054AD35C8B4201D0002070470120704753
:107270000020704700207047B06C030090B110B43C
:10728000044689B192B10A48834203D807205DF8C9
:10729000044B7047C4F8B431C4F8AC21C4F8B01141
:1072A0000020F4E70E2070470E20F0E70E20EEE7F6
:1072B000FF86930310B5D0F8B021D468D0F8B4217C
:1072C000A04710BD08B5D0F8B0311B69984708BD7C
:1072D00010B582B00446104600238DF804308DF8B6
:1072E000051001220DF105010EF0D1FE022201A9C7
:1072F0002046FFF791FF02B010BD38B505460C4699
:1073000002F10C00052201310EF0C1FE06222146D9
:107310002846FFF781FF38BD30B593B0054612AC63
:10732000032304F8443D40220DF105000EF0AFFEAA
:10733000412221462846FFF76FFF13B030BD30B51C
:1073400087B0054606AC052304F8143D10220DEB6A
:1073500003000EF09CFE112221462846FFF75CFF39
:1073600007B030BD30B587B0054606AC062304F83B
:10737000143D10220DF105000EF089FE1122214668
:107380002846FFF749FF07B030BD08B52222FFF7B6
:1073900043FF08BD08B5D0F8AC319B68984708BDDD
:1073A00008B5D0F8AC31DB68984708BD70B582B03D
:1073B00004460D4616461A4B1B6813F0080F03D0FF
:1073C000184B1B68032B08D8D4F8AC311B68324625
:1073D00029462046984702B070BD2F2112480EF072
:1073E00035FF80B12F2110480EF030FF411C0F4BAC
:1073F000D3F804352A7801920D4A0092DF22042046
:1074000007F098F8E0E75C2107480EF01FFF28B16D
:107410005C2105480EF01AFF411CE8E70249E6E747
:107420001C32002018320020BC6C030000B0004069
:10743000046D030008B5D0F8AC315B68984708BD0F
:1074400070B58AB00646144621B30D4608460EF0C4
:10745000F5FE6A4681B2284606F064FA04226946BF
:107460000DF122000EF013FE1625220A42EA042234
:10747000ADF8202004F0E6FB102201460DEB0200DF
:107480000EF005FE2B4604AA0021304608F0F0FA63
:107490000AB070BD1225E8E770B58CB00C461546F1
:1074A000064670B1162C06D0122C04D07846254B17
:1074B0001B6873B1984775B1234B1B789BB90CB00F
:1074C00070BD78461F4B1B680BB19847EAE700DE9A
:1074D000E8E700DEEFE778461A4B1B680BB19847E8
:1074E000EAE700DEE8E72C22002101A80EF0DAFD31
:1074F00008951022314602A80EF0C9FD2B78012B09
:1075000014BF002301238DF8183003238DF80430B5
:10751000162C0BD000218DF8191004220DF11A0041
:107520000EF0C0FD01A804F091FBC8E701238DF81F
:107530001930042206F112010DF11A000EF0A7FD18
:10754000F0E700BFEC600020BA31002030B583B016
:1075500005460C4601210DF1070005F0EDFC611C0C
:107560009DF8072092FBF1F301FB1321E97303B0AF
:1075700030BD000030B583B005460C46684605F0C6
:10758000DBFC002110E002AB0B4413F8082C084B85
:10759000A3FB0203DB0803EBC3039800121AD2B269
:1075A000044B9B5C6B540131A142ECD303B030BD62
:1075B000398EE338186D030030B583B004460D46AC
:1075C00004210DEB010005F0B7FC0E4B53F825200C
:1075D0000199B1FBF2F302FB1312130203F47F03D0
:1075E00043EA0263110A01F47F410B4343EA126349
:1075F000019304220DEB020104F10C000EF047FD93
:1076000003B030BD406D030030B5A7B004460D4651
:10761000112200F29D2101A80EF039FD94F8B1323B
:10762000A3B1402204F5E0710DF115000EF02FFD1D
:107630004022D4F8B8110DF155000EF028FD2A466D
:10764000912101A806F06EF927B030BD4022D4F890
:10765000B8110DF115000EF01AFD402204F5E0718D
:107660000DF155000EF013FDE9E70000014B18780D
:10767000704700BFB43700202DE9F0418EB00546B9
:10768000884617461E46FFF7BFFF0AAC0194042345
:1076900000930F4B4246202105F5007006F060F97B
:1076A0001021304605F048FC1022314602A80EF0A9
:1076B000EEFC102205F26D2106A80EF0E8FC3B4618
:1076C000202202A9204606F0ADF80EB0BDE8F081F8
:1076D000646D030038B504460D460EF087FB024684
:1076E000294620460EF086FB012801D0032038BD34
:1076F000002038BDF0B597B004460D4617461E462B
:10770000102200F27D210AA80EF0C1FC94F8B132DB
:10771000002B34D0102204F25D210EA80EF0B7FC2D
:10772000102204F24D2112A80EF0B1FC06AA30215D
:107730000AA806F0F7F804F50074019504250095F1
:10774000154B06AA2021204606F00AF902AB019348
:107750000095124B06AA2021204606F001F90D22C1
:107760000DF10B0138460EF092FC019600950C4B82
:1077700006AA2021204606F0F3F817B0F0BD10222B
:1077800004F24D210EA80EF082FC102204F25D21BD
:1077900012A80EF07CFCC9E76C6D0300746D030049
:1077A0007C6D030070B505460E4600F5E0740EF0E2
:1077B0001DFB014620460EF0F8FB08B9032070BD02
:1077C000D5F8BC510EF012FB03463246294620463E
:1077D0000EF052FB08B9032070BD002070BD000000
:1077E00038B504460D4690F8AE32013BDBB2072BAC
:1077F00004D97846244B1B6863B1984710220021B6
:1078000028460EF04FFC94F8B432022B04D0032B20
:107810001ED038BD00DEF1E794F8AF32013B042BF7
:1078200030D8DFE803F0030303090F0094F8AE1229
:107830002846FFF78BFE38BD94F8AE122846FFF7B6
:10784000BBFE38BD94F8AE122846FFF793FE38BD54
:1078500094F8AF32013B032B14D8DFE803F00202A7
:10786000080E94F8AE122846FFF770FE38BD94F863
:10787000AE122846FFF7A0FE38BD94F8AE12284697
:10788000FFF778FE38BD00BFEC60002030B593B044
:1078900004460EAD019504230093124B00F27D22A5
:1078A000202100F5007006F05BF8102204F25D2143
:1078B00006A80EF0ECFB102204F26D210AA80EF0CF
:1078C000E6FB02AB202206A9284605F0ABFF1022FA
:1078D00004F28D2102A80EF0CBFBB0FA80F0400933
:1078E00013B030BD646D0300EFF3108172B6074B27
:1078F0001B6833B193F89920824202D0D3F8A831A3
:10790000F7E701B962B61846704700BFB8370020E4
:10791000EFF3108172B6074B1B6833B1D3F8942094
:10792000824202D0D3F8A831F7E701B962B618460F
:10793000704700BFB837002070B50546164B1B686E
:1079400053B1EFF3108672B6134B1C68AC420ED1E4
:10795000D5F8A8211A601BE07846104B1B680BB1C4
:107960009847EEE700DEECE700DED4F8A841D4F853
:10797000A8319D4208D0002BF7D17846074B1B68F1
:10798000002BF1D09847F0E7D5F8A831C4F8A8311A
:1079900006B962B670BD00BFB8370020EC600020A9
:1079A00010B5044628B194F89930012B09D008206D
:1079B00010BD7846084B1B680BB19847F3E700DE13
:1079C000F1E72046FFF7B8FF204608F07BFE0020D5
:1079D00084F8990010BD00BFEC60002038B5044663
:1079E0000D4690F89930023BDBB2022B04D9784661
:1079F000134B1B68FBB198472046FFF79DFF94F897
:107A00009830012B04D078460D4B1B68ABB19847DA
:107A1000204608F057FE002384F8983084F8D830C8
:107A200084F8993004F1B80005F054F8294620464E
:107A3000FFF7B6FC38BD00DEDEE700DEE8E700BF9A
:107A4000EC60002008B5023108F036FD08BD0000EA
:107A50002DE9F0410646884615461F461146FFF7B8
:107A6000F1FF38B304466B1C4374292383742A4600
:107A7000414613300EF00BFB2771EFF3108772B6FF
:107A8000D6F8A0510135C6F8A051B5F1FF3F09D095
:107A900007B962B625602146304608F05BFD00203C
:107AA000BDE8F0817846054B1B680BB19847EFE7BE
:107AB00000DEEDE70420BDE8F08100BFEC600020AF
:107AC00030B589B00446002855D094F89930032B7E
:107AD00005D078462F4B1B68002B54D0984794F85C
:107AE000D830022B05D078462A4B1B68002B4CD08F
:107AF000984794F8D920142A49D895B2D4F894100C
:107B00000B0203F47F0343EA0163080A00F47F4099
:107B1000034343EA1163009394F89B308DF80430DB
:107B20009DF80510931C1C48A0FB0303C3F3051329
:107B300001F0FC0163F387018DF8051094F8DA3049
:107B40008DF808301202ADF806202A4604F1DC0157
:107B50000DF109000EF09BFA012305F109026946B7
:107B60002046FFF775FF034610B9012284F8DB2099
:107B7000184609B030BD7846064B1B680BB19847D4
:107B8000A3E700DEA1E700DEA9E700DEB1E71425E8
:107B9000B4E700BFEC600020C94216B270B588B0EF
:107BA00004464B1E03EB4300C3EBC00080B214300D
:107BB00080B294F8D9502D1AADB2172D00D91725DF
:107BC000D4F89420130203F47F0343EA0263160AF5
:107BD00006F47F46334343EA1263009394F89B30E4
:107BE0008DF804309DF80530022262F3010361F341
:107BF00087038DF8053000F1D80121442A4604316D
:107C00000DF106000EF043FA0123AA1D6946204635
:107C1000FFF71EFF024620B994F8DB30013384F8E9
:107C2000DB30104608B070BD38B5054690F8D83046
:107C3000022B04D07846114B1B68BBB1984795F8CE
:107C4000DB30ABB195F8DB4095F8D93002330C4A04
:107C5000A2FB03231B090133DBB29C420DD2E1B22C
:107C60002846FFF79BFF40B90134EDE700DEE6E769
:107C70002846FFF725FF0028E4D038BDEC6000203F
:107C8000C94216B210B5044690F89930042B04D0BE
:107C900090F8D830022B0ED010BD90F8D830022BBF
:107CA00005D094F89C102046FFF798FE10BDA03038
:107CB00004F010FFF5E7FFF7B7FFEDE710B5094B4C
:107CC0001C6801E0D4F8A84154B194F8A431002B09
:107CD000F8D0002384F8A4312046FFF7D3FFF1E762
:107CE00010BD00BFB837002010B588B0D0F8942080
:107CF000130203F47F0343EA0263140A04F47F448B
:107D0000234343EA1263009300238DF804309DF867
:107D1000053043F00303022262F387038DF8053038
:107D20008DF80610042307226946FFF791FE08B07C
:107D300010BD000038B50D460446F8B1022D04D937
:107D40007846174B1B680BB3984794F899302BB3C0
:107D5000042B23D0023BDBB2012B04D97846104B15
:107D60001B68ABB1984729462046FFF7BDFF88B98D
:107D7000042384F8993084F89C5038BD7846084B29
:107D80001B680BB19847D9E700DED7E700DEDCE7D8
:107D900000DEE8E729462046FFF720FE38BD00BF99
:107DA000EC60002010B588B00446D0F8942013028F
:107DB00003F47F0343EA0263100A00F47F400343A5
:107DC00043EA1263009300228DF804209DF80530E9
:107DD00043F0030362F387038DF8053010220DF1A1
:107DE00006000EF054F90423162269462046FFF7D8
:107DF0002FFE08B010BD10B588B0D0F89420130243
:107E000003F47F0343EA0263140A04F47F44234328
:107E100043EA126300938DF804109DF805200123B6
:107E200063F301026FF387028DF80520062269468D
:107E3000FFF70EFE08B010BD00B589B0D0F8942051
:107E4000130203F47F0343EA0263110A01F47F4142
:107E50000B4343EA1263009300238DF804309DF82E
:107E6000052042F00302012363F387028DF8052009
:107E700006226946FFF7ECFD09B05DF804FB00003F
:107E800010B50246002380F8D83080F89B3080F887
:107E90009A30012480F8984080F89930C0F8A031D9
:107EA0000A4CC0F8A840C2F8B000C0F8D410084985
:107EB000C0F8C010C2F8C800C0F8C430802300F574
:107EC0009072044908F038FC10BD00BF057F020025
:107ED000F97E0200D97E020008B5D0F8A0318B42AD
:107EE00000D008BD012380F8A431024B186805F0CA
:107EF0000DFCF6E7BC31002008B508460121FFF76C
:107F0000E1F908BD91F89930032B03D00023C1F8A3
:107F1000AC30704791F8D830022BF7D130B583B030
:107F20000C460546D1F8D0301B1A002B10DB254B30
:107F30001B6813F0080F03D0234B1B68042B1CD8BD
:107F4000002384F8DB302046FFF76EFE03B030BD1F
:107F500001212046FFF7C8FE48B9042384F8993070
:107F6000012384F89C300023C4F8AC30EEE7174BB3
:107F7000C4F8AC30C4F8D050E8E72F2114480EF014
:107F800065F990B12F2112480EF060F9411C114B98
:107F9000D3F8043594F8DC2001920F4A009240F2A5
:107FA0009532052006F0C6FACAE75C2108480EF0B3
:107FB0004DF928B15C2106480EF048F9411CE6E76E
:107FC0000349E4E71C3200201832002040420F0031
:107FD0004871030000B0004094710300EFF3108378
:107FE00072B61C4A1168C0F8A811106003B962B6D5
:107FF000194B1B6813F0080F03D0184B1B68032B99
:1080000000D8704710B582B004462F2114480EF0F6
:108010001DF988B12F2112480EF018F9411C114B9F
:10802000D3F804350194104A00924FF4B57204203D
:1080300006F080FA02B010BD5C2109480EF006F986
:1080400028B15C2106480EF001F9411CE7E704491C
:10805000E5E700BFB83700201C32002018320020AE
:108060004871030000B00040846D030038B5054638
:10807000FFF7E6F9044670B1FF2323714FF0FF3399
:1080800023604FF4FA61284608F0CCFA21462846CE
:1080900008F060FA38BD7846034B1B680BB198476F
:1080A000EAE700DEE8E700BFEC600020F8B50E4626
:1080B00017461D460446F8B194F89830012B23D09A
:1080C00029462046FFF7DCFE0025C4F894508023A3
:1080D00084F89B3084F89A503A4631462046FFF7A0
:1080E000C5FF204608F0C6F92046FFF777FF0123B9
:1080F00084F899302846F8BD7846064B1B680BB1CA
:108100009847D9E700DED7E794F89930002BD7D00D
:108110000820F8BDEC60002070B50D4616460446F8
:10812000D0B194F89830012B1ED031462046FFF78D
:10813000A7FE042104F1940004F0FEFE002384F85D
:108140009B30802384F89A3029462046FFF72AFE88
:10815000054678B1284670BD7846104B1B680BB1B8
:108160009847DEE700DEDCE794F89930002BDCD09E
:108170000825EFE704F088FDD4F8D410014404F199
:10818000B80004F0DDFC204608F074F92046FFF743
:1081900025FF022384F89930DCE700BFEC60002063
:1081A00030B583B090F8D830022B1FD03F4B1B68FE
:1081B00013F0080F18D03E4B1B68012B14D92F2148
:1081C0003C480EF043F8002862D02F2139480EF0C9
:1081D0003DF8411C384BD3F80435384A009240F240
:1081E0000A32022006F0A6F903B030BD04460A792F
:1081F00090F89B309A42D9D12C4B1B6813F0080F92
:1082000003D02B4B1B68032B1DD80025C4F8AC50A2
:1082100004F1A00004F05EFC204608F053FA94F844
:108220009B30013384F89B3084F8D85004F02CFD47
:10823000D4F8D410014404F1B80004F081FC2046C5
:10824000FFF7F8F8D0E72F211A480DF0FFFF90B1A3
:108250002F2118480DF0FAFF411C174BD3F80435B5
:1082600094F8DC200192164A00924FF43E720420EA
:1082700006F060F9C9E75C210E480DF0E7FF28B170
:108280005C210C480DF0E2FF411CE6E70949E4E7F8
:108290005C2108480DF0DAFF28B15C2105480DF09B
:1082A000D5FF411C96E7034994E700BF1C3200202C
:1082B000183200204871030000B000408C6F0300AA
:1082C000706F030070B582B005464B799B08012B97
:1082D00000F0A2800C462BB3022B00F01781B74BA5
:1082E0001B6813F0080F1FD0B54B1B68012B1BD95F
:1082F0002F21B4480DF0AAFF002800F08F812F2114
:10830000B0480DF0A3FF411CAF4BD3F804356279A0
:1083100092080192AD4A00924FF45B72022006F07F
:1083200009F901E0162A01D002B070BD8E1D03F0DC
:1083300089FC1022014630460DF09AFE0028F3D148
:108340007DB1002DF0D095F89930012B0ED0032B84
:10835000EAD195F8D830002BE6D12846FFF76CFD1E
:10836000E2E70120FFF7C0FA0546EAE722681302B8
:1083700003F47F0343EA0263110A01F47F410B43D4
:1083800043EA1263C5F894301421284608F04AF9EC
:108390002846FFF751FD00283AD1884B1B6813F09F
:1083A000080F03D0864B1B68032B0FD8032385F8D7
:1083B000993004F069FCD5F8D410014405F1B800F7
:1083C00004F0BEFB2846FEF7E5FFADE72F217D4810
:1083D0000DF03CFF78B12F217A480DF037FF411C9A
:1083E000794BD3F804357A4A009240F22B320420BC
:1083F00006F0A0F8DAE75C2172480DF027FF28B1FB
:108400005C2170480DF022FF411CE9E76D49E7E768
:108410000023C5F8943087E7002885D0062A83D149
:1084200090F89930022B23D0644B1B6813F0080F8F
:108430003FF47AAF624B1B68012B7FF675AF2F219B
:1084400060480DF003FF002853D02F215D480DF048
:10845000FDFE411C5C4BD3F8043595F89920019240
:108460005C4A00924FF45472022006F063F85BE716
:1084700008F028F91421284608F0D4F84F4B1B685F
:1084800013F0080F03D04E4B1B68032B0FD80323A8
:1084900085F8993004F0F8FBD5F8D410014405F1C3
:1084A000B80004F04DFB2846FEF774FF3CE72F218F
:1084B00044480DF0CBFE78B12F2142480DF0C6FEA6
:1084C000411C414BD3F80435414A00924FF452729B
:1084D000042006F02FF8DAE75C213A480DF0B6FEEA
:1084E00028B15C2137480DF0B1FE411CE9E7354960
:1084F000E7E75C2133480DF0A9FE28B15C21314843
:108500000DF0A4FE411CA5E72E49A3E700283FF487
:108510000BAF072A7FF408AF90F89930023BDBB22B
:10852000012B23D9254B1B6813F0080F3FF4FCAE39
:10853000234B1B68012B7FF6F7AE2F2121480DF04E
:1085400085FE00285DD02F211E480DF07FFE411CC6
:108550001D4BD3F8043595F8992001921E4A0092DC
:1085600040F26732022005F0E5FFDDE690F8D830F2
:10857000022B35D0A1792846FFF730FA0F4B1B6844
:1085800013F0080F3FF4D0AE0D4B1B68032B7FF6A2
:10859000CBAE2F210B480DF059FE28B32F210948EF
:1085A0000DF054FE411C084BD3F804350B4A0092E1
:1085B00040F26232042005F0BDFFB5E61C32002017
:1085C000183200204871030000B00040486F0300DB
:1085D000B06E0300C86E0300146F0300FC6E03004E
:1085E000A03004F077FAC5E75C2113480DF02EFEA9
:1085F00028B15C2110480DF029FE411CD3E70E493B
:10860000D1E75C210C480DF021FE28B15C210A481D
:108610000DF01CFE411C9BE7074999E75C210648C9
:108620000DF014FE28B15C2103480DF00FFE411C33
:108630006AE6014968E600BF487103000022FF2393
:108640008A420CDA10B4845C6340064CE35C01326D
:108650008A42F8DBD843C0B25DF8044B7047D84378
:10866000C0B27047B06D0300F8B590F89930032B95
:1086700001D00820F8BD412A01D90920F8BD90F8A1
:10868000D8300BB11120F8BD16460F46044604F051
:10869000FBFAD4F8D410014404F1B80004F050FA05
:1086A00004F0F2FA0546B31C1A4AA2FB03231B0985
:1086B0000133DBB2A26E02FB03F303F5F41101F503
:1086C0009061C4F8AC10144BC4F8A830014404F114
:1086D000A00004F035FA114B2B44C4F8D030C4F894
:1086E000B040002584F8DB50022384F8D83084F8A9
:1086F000D96031463846FFF7A1FF84F8DA003246E8
:10870000394604F1DC000DF0C2FC2046FFF78CFA7C
:108710002846F8BDC94216B2057F020080C3C901D0
:108720002DE9F04393B007460C4690460B78012B99
:1087300004D078461B4B1B686BB19847A678251D63
:1087400061782846FFF77AFF864206D0002323701F
:1087500013B0BDE8F08300DEF0E797F89A103846D2
:10876000FFF749FB4FF0000984F8039008F1010876
:1087700087F89A8066783246294601A80DF087FC72
:1087800084F8009004F080FAD7F8D410014407F17F
:10879000B80004F0D5F9324601A93846FEF706FEC6
:1087A000D6E700BFEC60002070B584B004460D46EB
:1087B00090F8D830002B61D1097990F89A3099421D
:1087C0002BD3EB881B0A80F8D93002339049A1FBE8
:1087D00003131B090133DBB2072B1AD82B7A80F85D
:1087E000DA30012380F8D83080F8DB30A2F10906B6
:1087F000324605F10901DC300DF049FC94F8D9301E
:108800009E4217D12A7904F1D8012046FFF788FF4C
:1088100010E00221FFF78EFA0CE07E4B1B6813F08C
:10882000080F03D07C4B1B68042B05D82979204600
:10883000FFF7E1FA04B070BD2F2178480DF006FD76
:1088400078B12F2175480DF001FD411C744BD3F810
:108850000435744A009240F2A322052005F06AFE16
:10886000E4E75C216D480DF0F1FC28B15C216B4818
:108870000DF0ECFC411CE9E76849E7E7022B1FD04B
:10888000644B1B6813F0080FD4D0634B1B68012B9B
:10889000D0D92F2161480DF0D9FC002800F0AB8021
:1088A0002F215E480DF0D2FC411C5D4BD3F80435FE
:1088B0005D4A009240F2BD22022005F03BFEB9E77E
:1088C0000A7990F89A309A422FD2524B1B6813F0D3
:1088D000080F03D0504B1B68042B04D8297920467D
:1088E000FFF789FAA6E72F214C480DF0AFFC78B1CD
:1088F0002F214A480DF0AAFC411C494BD3F80435FE
:10890000484A009240F2AF22052005F013FEE5E749
:108910005C2142480DF09AFC28B15C213F480DF0E3
:1089200095FC411CE9E73D49E7E79A4231D9394BCB
:108930001B6813F0080F3FF47DAF374B1B68012B0A
:108940007FF678AF2F2135480DF080FCA0B12F21A4
:1089500032480DF07BFC411C314BD3F804352A79A9
:1089600094F89A0002900192304A00924FF42D72CE
:10897000022005F0DFFD5DE75C2128480DF066FC74
:1089800028B15C2125480DF061FC411CE4E7234936
:10899000E2E7204B1B6813F0080F3FF44BAF1E4B70
:1089A0001B68042B7FF646AF2F211C480DF04EFCB0
:1089B000A0B12F2119480DF049FC411C184BD3F8E8
:1089C00004352A7994F89A0002900192184A00928C
:1089D0004FF42E72052005F0ADFD2BE75C210F480A
:1089E0000DF034FC28B15C210C480DF02FFC411C2B
:1089F000E4E70A49E2E75C2108480DF027FC28B1CA
:108A00005C2106480DF022FC411C4EE703494CE76F
:108A1000C94216B21C3200201832002048710300EF
:108A200000B000402870030000710300787003005C
:108A3000C470030030B585B004460D4690F8D830B8
:108A4000012B2ED0097990F89A309942C0F08F808E
:108A5000994240F28E804E4B1B6813F0080F00F0D5
:108A600088804C4B1B68012B40F283802F214A48A1
:108A70000DF0ECFB00287ED02F2147480DF0E6FBDF
:108A8000411C464BD3F804352A7994F89A00029099
:108A90000192434A009240F2EE22022005F04AFD84
:108AA00067E0097990F89A3099421ED0384B1B68DC
:108AB00013F0080F5DD0374B1B68012B59D92F21BC
:108AC00035480DF0C3FB002844D02F2132480DF06B
:108AD000BDFB411C314BD3F80435324A009240F2C1
:108AE000E222022005F026FD43E090F8DB106B79CE
:108AF0009B08194111F0010F3BD1013B03EB4300EF
:108B0000C3EBC00303F1EC002044063AA91D043076
:108B10000DF0BDFA6A799208012000FA02F194F88A
:108B2000DB200A43D2B284F8DB20024494F8D93027
:108B300002331D49A1FB03131B090344DBB200FAF6
:108B400003F39A4215D12A7904F1D8012046FFF7A0
:108B5000E7FD0EE05C2110480DF078FB28B15C21A8
:108B60000D480DF073FB411CB4E70B49B2E7FFF76A
:108B700042F905B030BD5C2107480DF067FB28B114
:108B80005C2105480DF062FB411C7AE7024978E759
:108B90001C320020183200204871030000B0004051
:108BA000E06F0300AC6F0300C94216B208B5064B74
:108BB0001B68B3F1FF3F01D0044808BD044804F02E
:108BC0007BFD014B1860F7E7BC31002034710300D6
:108BD000BD7C020070B50D4616460446B8B1F6B12C
:108BE0002068030203F47F0343EA0063020A02F4ED
:108BF0007F42134343EA1060FEF78AFE637903F075
:108C00000303032B34D8DFE803F0121C252F78462A
:108C1000184B1B680BB19847E1E700DEDFE77846A9
:108C2000144B1B680BB19847DAE700DED8E7F8B1C0
:108C300090F89930032B1BD12A462146FFF7B4FD4B
:108C400070BDA8B190F89930032B11D12146FFF7E0
:108C5000A7FA70BD60B190F89930032B08D12A466D
:108C60002146FFF7E7FE70BD2A462146FFF72AFBA3
:108C700070BD00BFEC60002010B50446837803F09F
:108C80000303032B21D8DFE803F0020C13198178CA
:108C90008B081D4A11681944A1601C4B1B680020F9
:108CA0001FE083789B0803EB830359000B46F0E732
:108CB00083789B08642101FB03F3EAE783789B0830
:108CC00041F2707101FB03F3E3E77846104B1B6838
:108CD00013B198470023DCE700DE0023D9E71846EC
:108CE000DB681BB19A688A1A002AF8DA18B133B126
:108CF000C460E36010BDE360044B1C6010BDC46041
:108D00000023E36010BD00BFD4370020DC37002013
:108D1000EC60002010B5764B19688B7803F00303E4
:108D2000744A1278934240F3BA808C68724B1B6885
:108D3000E41A724B03FB04F4032A09D8DFE802F0BB
:108D4000021204066D4B0EE06D4B0CE06D4B0AE019
:108D500078466D4B1B6813B19847002303E000DE93
:108D6000002300E0694BB4FBF3F3614A1268927888
:108D700002F00302022A19D03AD8012A6AD102F17C
:108D8000CC32A2FB0312D20802EB820251008B42CA
:108D900002D0002213465FE003F076FF00F5742353
:108DA00003F51073012253490A7055E0514A1178B6
:108DB00039B9574AA2FB03025209642000FB123260
:108DC0006AB1012902D00022134645E0514AA2FBB4
:108DD0000312D20802EB820251008B4249D103F008
:108DE00053FF474B03440221424A1170012233E0F2
:108DF000404A117841B9484AA2FB0302D20941F224
:108E0000707000FB123282B1012904D0022915D002
:108E10000022134620E0414AA2FB030292094FF4CC
:108E2000167000FB1232002AF0D103F02DFF354BF3
:108E3000034403212F4A117001220DE0384AA2FB9E
:108E400003125209C2EB021291008B42EDD00022B4
:108E5000134601E000221346002A47D103F014FF15
:108E60000446244B1B78032B0CD8DFE803F00515D0
:108E7000070900221346EFE7204B0EE0204B0CE0E1
:108E8000204B0AE07846204B1B6813B1984700231B
:108E900003E000DE002300E01C4B234426E003F047
:108EA000F3FE0446124B1B689B7803F00303032B6D
:108EB00009D8DFE803F002120406104B0EE0104B55
:108EC0000CE0104B0AE078460F4B1B6813B1984733
:108ED000002303E000DE002300E00C4B2344044A9F
:108EE00012689278C2F3010202490A70184610BD56
:108EF000DC370020D9370020D4370020A0860100BD
:108F0000809698000046C323EC60002040420F008A
:108F10001F85EB51CDCCCCCCF1197605B5814E1B1C
:108F20008988888810B52B4B1B7873B92A4B1B682E
:108F3000002B47D0FFF7EEFE0146264B1B78002B97
:108F400038D0264803F0FCFD10BD244B5C6803F0CC
:108F50009BFE241A224B1B78032B09D8DFE803F071
:108F6000021204061F480EE01F480CE01F480AE0EA
:108F700078461F4B1B6813B19847002003E000DEC2
:108F8000002000E01B48001B154B1B7843B94CF236
:108F90005033984204D9184A136801331360C5E767
:108FA0004009164BA3FB0030134A136803EBD010A3
:108FB0001060BBE70122074B1A700848416003F0BC
:108FC00043FD10BD034B1B7803B910BD034803F0EC
:108FD00081FDFAE7D8370020DC370020BC370020BD
:108FE000D9370020A0860100809698000046C32350
:108FF000EC60002040420F00D4370020C55A7C0AA4
:1090000030B583B007E000DE6368019928469847D1
:109010002046FFF731FE124B1C68ECB1A368114AE1
:109020001268934204D00F4A12689B1A002B13DA7D
:109030002588E2680A4B1A6002A9002341F8043D22
:10904000284600F039FF0028DED07846064B1B6822
:10905000002BD8D09847D7E7FFF764FF03B030BDA7
:10906000DC370020D4370020EC60002008B5154B19
:109070001B78032B1ED8DFE803F0020C1116124AEE
:109080001368013313600022104B1A70FFF7B8FF0A
:1090900008BD0D4A13680A331360F4E70A4A1368DF
:1090A00064331360EFE7084A136803F5BB531033CA
:1090B0001360E8E77846064B1B680BB19847E2E778
:1090C00000DEE0E7D9370020D4370020D837002071
:1090D000EC60002010B5084C1822002120460CF04E
:1090E000E1FF064BA3600023054A1360054A1360A5
:1090F000054A137010BD00BFBC3700206D90020000
:10910000D4370020DC370020D837002010B44FF6C9
:10911000FF7399420CD00C4A43001C1861000C46A6
:109120001144C97822444B1CD3705DF8044B70473E
:10913000054A43001C1861000C46114489782244FA
:109140004B1C9370F1E700BFE037002030B482B0D1
:109150000191194943001D186C000C44A578034483
:109160005C002144CB78DD4201D0002303E00020E5
:109170001FE001339BB2012B1AD834210F4C01FBA5
:10918000034189898842F4D1342101FB03F1645AF7
:10919000BDF804108C42ECD13424084904FB0315BB
:1091A0006C88BDF806108C42E3D11380012000E0EA
:1091B000002002B030BC7047E03700201838002093
:1091C00082B000230093027802F0C003402B0ED03F
:1091D0000CD9802B1BD0C02B0FD1ADF800204278CA
:1091E000837843EA0223ADF8023006E02BB9ADF8EC
:1091F00000204FF6FF73ADF80230009B00209AB2BA
:1092000062F30F001B0C63F31F4002B070474378FA
:1092100043EA0222ADF800204FF6FF73ADF80230AA
:10922000EBE782B00190000C4FF6FF73984207D035
:10923000BDF804300B70030A4B70887002B07047A1
:10924000BDF8043013F47F4F03D01A0A0A704B7034
:10925000F4E70B70F2E782B001904FF6FF73B3EBC7
:10926000104F0AD0BDF8040020F03F0080B2C028A3
:1092700014BF0020012002B07047BDF8040010F4B4
:109280007F4F07D000F44040B0F5004F14BF0020DE
:109290000120F0E720F07F039BB22BB97F2801D09B
:1092A0000120E8E70020E6E70020E4E770B5064685
:1092B0000D460024AC4207D256F83400FFF7CBFF2E
:1092C000034610B10134F5E70123184670BD30B4F0
:1092D00082B00191002300E00133018D8B4210D256
:1092E000416A01EBC30531F83340BDF804108C42EC
:1092F000F2D16C88BDF806108C42EDD113600120CC
:1093000000E0002002B030BC70470000F8B5054610
:109310000E4617461C46B3B13389B3F5BE7F1AD249
:10932000012D1FD9002353B33423214A03FB052306
:109330009B8923BB37B33068FFF78DFF002833D0FC
:109340000023236009E078461A4B1B680BB198474D
:10935000E2E700DEE0E7092323602068B0FA80F04E
:109360004009F8BD3423124A03FB052393F830303B
:1093700013F0010F01D10023D5E70123D3E7052323
:109380002360EAE734230A4A03FB05239A884FF651
:10939000FF739A4208D03422054B02FB0535EA8858
:1093A0004FF6FF739A42C6D107232360D5E700BF6B
:1093B00018380020EC60002008B57846034B1B6885
:1093C0000BB1984708BD00DE08BD00BFEC6000206F
:1093D00008B5804708BD000008B5682200210F4885
:1093E0000CF060FE062200210D480CF05BFE1022FE
:1093F00000210C480CF056FE00230CE034220749F3
:1094000002FB03124FF6FF71D18091800220D081C0
:10941000918101339BB2012BF0D908BD183800208F
:10942000E0370020803800202DE9F04182B0054669
:10943000037D012B1BD0143002A94FF6FF7321F8D6
:10944000083D01F0C3FF28B17846554B1B68002B3F
:109450005BD09847BDF8000001F020FF28B978469E
:109460004F4B1B68002B52D09847002452E06846AF
:1094700001F0F8FEEB8ABDF80060B342C0F08D80C9
:10948000BDF802203244934280F287809B1B9EB23B
:10949000002400E00134012C7FDC3423414803FB2D
:1094A000040090F8303013F0010FF3D03D4A838967
:1094B0009E42EFD1342303FB04F308331A446B8C30
:1094C000590952F8211003F01F03012202FA03F395
:1094D0001942DFD001AA2968FFF7F9FE0028D9D088
:1094E0001FFA84F834272F4B07FB0437FA6A294602
:1094F000404600F075FF7B6A019A03EBC2035B688C
:10950000FA6A294640469847C4E700DEA2E700DE33
:10951000ABE70134012C40DC3423224803FB040078
:1095200090F8303013F0010FF3D0C389012BF0D83D
:10953000342202FB04F208321A490A44698C4E09AB
:1095400052F8266001F01F01012202FA01F10E42D9
:10955000DFD0154A02EBC3030433BDF800205109E4
:1095600053F8211002F01F02012303FA02F2114204
:10957000CFD001AA2968FFF7AAFE0028C9D034235A
:10958000084A03FB04235A6A019902EBC102566898
:10959000DA6A2946A0B2B047BBE702B0BDE8F08165
:1095A000EC600020183800208038002010B58EB004
:1095B000044600284CD02068FFF702FE0D9080B2D0
:1095C0007F2843D0414B1B6813F4005F03D0404B0E
:1095D0001B68042B44D8E06901F02CFF0D9A04921B
:1095E000236803924FF6FF71B1EB124F5DD0032257
:1095F00013440593A3880D9A02924FF6FF71B1EBC5
:10960000124F5AD003229B1AADF81830237A8DF8E6
:109610001C306389ADF81E30E3680893237C8DF815
:109620002430638AADF8263063690A93636A5A6806
:109630000B9293F90D308DF8303094F820308DF87E
:109640003130ADF8320004A8FFF7EEFE0EB010BDC9
:109650007846204B1B680BB19847ACE700DEAAE7C1
:109660002F211D480CF0F2FD90B12F211A480CF06B
:10967000EDFD411C194BD3F80435BDF8342001929F
:10968000174A009240F22312052004F053FFA2E78C
:109690005C2111480CF0DAFD28B15C210E480CF079
:1096A000D5FD411CE6E70C49E4E7BDF80C20FF2A94
:1096B00001D902229CE701229AE7BDF80820FF2A7F
:1096C00001D801229FE702229DE700BF1C32002043
:1096D00018320020EC600020A871030000B00040A8
:1096E000EC71030008B5037803B108BD0430FFF73F
:1096F0005DFFFAE700B587B00F4B03930F4B049360
:109700000F4B05930423029301F012FDA0F5805046
:109710000090012301930B4A137069460A4805F033
:10972000EBFE28B90022074B1A7007B05DF804FB66
:10973000064805F029FFF8E7E5970200B993020013
:109740005197020014380020F0370020C03100206B
:1097500010B5002301E001339BB2012B0BD81E4A48
:1097600012F8332012F0010FF5D042F002021A492C
:1097700001F83320EFE7002301E001339BB283B906
:1097800003EB43014A0015498A5A002AF5D00846DE
:109790005A00D418610001444A7942F002024A7129
:1097A000EBE7002301E001339BB2012B11D83422F7
:1097B0000B4902FB031292F8302012F0010FF2D095
:1097C0003421074801FB030142F0020281F83020F6
:1097D000E9E7FFF78FFF10BD80380020E037002059
:1097E0001838002070B58CB005460E461446012A84
:1097F00005D0022C0BD0032C11D00CB070BD7846D4
:10980000114B1B680BB19847F3E700DEF1E7784690
:109810000D4B1B680BB19847EDE700DEEBE72C2200
:10982000002101A80CF03EFC19238DF8043002231E
:109830008DF808300396EB6805932B69069301A811
:1098400002F004FAD9E700BFEC6000202DE9F047F0
:1098500094B002AF05460C46164607F14403FFF7E5
:1098600055FD20B9786C4837BD46BDE8F08707F153
:10987000400001F0F7FCB7F842203423954903FB80
:1098800005139B899A4201D81020ECE7B7F8408075
:1098900043441FFA83F856B3B6F8229007F1380311
:1098A0000C3696E8030083E8030007F136013046E2
:1098B00001F08CFD10B14FF6FF73FB863422854B0F
:1098C00002FB05352D7CFF2D27D097F83830012B72
:1098D00026D0012B30D0F88E4FF6FF7398422DD052
:1098E00001F0DCFC002840F09280002327E03423C4
:1098F000784A03FB0523B3F80490D888F88607F16B
:10990000380101F015FD0028D8D07846724B1B684D
:109910000BB19847D2E700DED0E7704B1D78D4E753
:10992000798FB7F840209142D3D3B7F84200024470
:109930009142CEDA012302E0002300E000231E461C
:10994000002B66D11EB197F83830012B5DD06E46E2
:109950002022002107F110000CF0A4FB23892268CB
:109960007A604FF6FF71B1EB124F78D003221344A7
:10997000073323F00703ADEB030D0DF1080A07F1E0
:109980002401484601F02EFE28B17846524B1B6850
:10999000002B6BD0984707F1100307F1380292E8CB
:1099A000030083E80300A7F81880BD76C7F81CA061
:1099B00023892268FA604FF6FF71B1EB124F57D03E
:1099C000032213443B8451462068FFF72AFC236896
:1099D000BB604FF6FF72B2EB134F50D003202289C9
:1099E000616850440CF053FB002107F1100002F0B5
:1099F00079FD786440B93A4B1B6813F4005F03D0DB
:109A0000384B1B68042B41D8B546786C2BE70123F3
:109A100095E72422002107F110000CF043FB236896
:109A20003B6163687B6123893B8301233B77A7F814
:109A30001E8007F1240307F1380292E8030083E84F
:109A4000030003F021F9F86287F83150A7F832904B
:109A500007F11000FFF7E8FC00237B6472E7BA8887
:109A6000FF2A01D9022282E7012280E700DE92E785
:109A7000BA89FF2A01D90222A3E70122A1E73B8983
:109A8000FF2B01D90220AAE70120A8E72F211648C1
:109A90000CF0DCFB88B12F2113480CF0D7FB411CE4
:109AA000124BD3F8043522880192114A009240F2F9
:109AB000C512052004F03EFDA6E75C210A480CF023
:109AC000C5FB28B15C2108480CF0C0FB411CE7E74E
:109AD0000549E5E718380020EC600020D03100206F
